Archive member included to satisfy reference by file (symbol)

Middlewares/ST/STM32_Audio/Addons/PDM/Lib/\libPDMFilter_CM4_GCC.a(pdm_filter.o)
                              build/stm32f4_discovery_audio.o (PDM_Filter_Init)
c:/gcc_toolchain/6_2017-q1-update/bin/../lib/gcc/arm-none-eabi/6.3.1/../../../../arm-none-eabi/lib/thumb/v7e-m/fpv4-sp/hard\libc_nano.a(lib_a-exit.o)
                              c:/gcc_toolchain/6_2017-q1-update/bin/../lib/gcc/arm-none-eabi/6.3.1/../../../../arm-none-eabi/lib/thumb/v7e-m/fpv4-sp/hard/crt0.o (exit)
c:/gcc_toolchain/6_2017-q1-update/bin/../lib/gcc/arm-none-eabi/6.3.1/../../../../arm-none-eabi/lib/thumb/v7e-m/fpv4-sp/hard\libc_nano.a(lib_a-impure.o)
                              c:/gcc_toolchain/6_2017-q1-update/bin/../lib/gcc/arm-none-eabi/6.3.1/../../../../arm-none-eabi/lib/thumb/v7e-m/fpv4-sp/hard\libc_nano.a(lib_a-exit.o) (_global_impure_ptr)
c:/gcc_toolchain/6_2017-q1-update/bin/../lib/gcc/arm-none-eabi/6.3.1/../../../../arm-none-eabi/lib/thumb/v7e-m/fpv4-sp/hard\libc_nano.a(lib_a-init.o)
                              c:/gcc_toolchain/6_2017-q1-update/bin/../lib/gcc/arm-none-eabi/6.3.1/../../../../arm-none-eabi/lib/thumb/v7e-m/fpv4-sp/hard/crt0.o (__libc_init_array)
c:/gcc_toolchain/6_2017-q1-update/bin/../lib/gcc/arm-none-eabi/6.3.1/../../../../arm-none-eabi/lib/thumb/v7e-m/fpv4-sp/hard\libc_nano.a(lib_a-malloc.o)
                              build/usbh_msc.o (malloc)
c:/gcc_toolchain/6_2017-q1-update/bin/../lib/gcc/arm-none-eabi/6.3.1/../../../../arm-none-eabi/lib/thumb/v7e-m/fpv4-sp/hard\libc_nano.a(lib_a-memcpy-stub.o)
                              build/usbh_msc.o (memcpy)
c:/gcc_toolchain/6_2017-q1-update/bin/../lib/gcc/arm-none-eabi/6.3.1/../../../../arm-none-eabi/lib/thumb/v7e-m/fpv4-sp/hard\libc_nano.a(lib_a-memmove.o)
                              build/main.o (memmove)
c:/gcc_toolchain/6_2017-q1-update/bin/../lib/gcc/arm-none-eabi/6.3.1/../../../../arm-none-eabi/lib/thumb/v7e-m/fpv4-sp/hard\libc_nano.a(lib_a-memset.o)
                              c:/gcc_toolchain/6_2017-q1-update/bin/../lib/gcc/arm-none-eabi/6.3.1/../../../../arm-none-eabi/lib/thumb/v7e-m/fpv4-sp/hard/crt0.o (memset)
c:/gcc_toolchain/6_2017-q1-update/bin/../lib/gcc/arm-none-eabi/6.3.1/../../../../arm-none-eabi/lib/thumb/v7e-m/fpv4-sp/hard\libc_nano.a(lib_a-nano-freer.o)
                              c:/gcc_toolchain/6_2017-q1-update/bin/../lib/gcc/arm-none-eabi/6.3.1/../../../../arm-none-eabi/lib/thumb/v7e-m/fpv4-sp/hard\libc_nano.a(lib_a-malloc.o) (_free_r)
c:/gcc_toolchain/6_2017-q1-update/bin/../lib/gcc/arm-none-eabi/6.3.1/../../../../arm-none-eabi/lib/thumb/v7e-m/fpv4-sp/hard\libc_nano.a(lib_a-nano-mallocr.o)
                              c:/gcc_toolchain/6_2017-q1-update/bin/../lib/gcc/arm-none-eabi/6.3.1/../../../../arm-none-eabi/lib/thumb/v7e-m/fpv4-sp/hard\libc_nano.a(lib_a-malloc.o) (_malloc_r)
c:/gcc_toolchain/6_2017-q1-update/bin/../lib/gcc/arm-none-eabi/6.3.1/../../../../arm-none-eabi/lib/thumb/v7e-m/fpv4-sp/hard\libc_nano.a(lib_a-printf.o)
                              build/main.o (printf)
c:/gcc_toolchain/6_2017-q1-update/bin/../lib/gcc/arm-none-eabi/6.3.1/../../../../arm-none-eabi/lib/thumb/v7e-m/fpv4-sp/hard\libc_nano.a(lib_a-findfp.o)
                              c:/gcc_toolchain/6_2017-q1-update/bin/../lib/gcc/arm-none-eabi/6.3.1/../../../../arm-none-eabi/lib/thumb/v7e-m/fpv4-sp/hard\libc_nano.a(lib_a-printf.o) (__sinit)
c:/gcc_toolchain/6_2017-q1-update/bin/../lib/gcc/arm-none-eabi/6.3.1/../../../../arm-none-eabi/lib/thumb/v7e-m/fpv4-sp/hard\libc_nano.a(lib_a-fwalk.o)
                              c:/gcc_toolchain/6_2017-q1-update/bin/../lib/gcc/arm-none-eabi/6.3.1/../../../../arm-none-eabi/lib/thumb/v7e-m/fpv4-sp/hard\libc_nano.a(lib_a-findfp.o) (_fwalk)
c:/gcc_toolchain/6_2017-q1-update/bin/../lib/gcc/arm-none-eabi/6.3.1/../../../../arm-none-eabi/lib/thumb/v7e-m/fpv4-sp/hard\libc_nano.a(lib_a-mlock.o)
                              c:/gcc_toolchain/6_2017-q1-update/bin/../lib/gcc/arm-none-eabi/6.3.1/../../../../arm-none-eabi/lib/thumb/v7e-m/fpv4-sp/hard\libc_nano.a(lib_a-nano-freer.o) (__malloc_lock)
c:/gcc_toolchain/6_2017-q1-update/bin/../lib/gcc/arm-none-eabi/6.3.1/../../../../arm-none-eabi/lib/thumb/v7e-m/fpv4-sp/hard\libc_nano.a(lib_a-nano-vfprintf.o)
                              c:/gcc_toolchain/6_2017-q1-update/bin/../lib/gcc/arm-none-eabi/6.3.1/../../../../arm-none-eabi/lib/thumb/v7e-m/fpv4-sp/hard\libc_nano.a(lib_a-printf.o) (_vfprintf_r)
c:/gcc_toolchain/6_2017-q1-update/bin/../lib/gcc/arm-none-eabi/6.3.1/../../../../arm-none-eabi/lib/thumb/v7e-m/fpv4-sp/hard\libc_nano.a(lib_a-nano-vfprintf_i.o)
                              c:/gcc_toolchain/6_2017-q1-update/bin/../lib/gcc/arm-none-eabi/6.3.1/../../../../arm-none-eabi/lib/thumb/v7e-m/fpv4-sp/hard\libc_nano.a(lib_a-nano-vfprintf.o) (_printf_i)
c:/gcc_toolchain/6_2017-q1-update/bin/../lib/gcc/arm-none-eabi/6.3.1/../../../../arm-none-eabi/lib/thumb/v7e-m/fpv4-sp/hard\libc_nano.a(lib_a-stdio.o)
                              c:/gcc_toolchain/6_2017-q1-update/bin/../lib/gcc/arm-none-eabi/6.3.1/../../../../arm-none-eabi/lib/thumb/v7e-m/fpv4-sp/hard\libc_nano.a(lib_a-findfp.o) (__sread)
c:/gcc_toolchain/6_2017-q1-update/bin/../lib/gcc/arm-none-eabi/6.3.1/../../../../arm-none-eabi/lib/thumb/v7e-m/fpv4-sp/hard\libc_nano.a(lib_a-wbuf.o)
                              c:/gcc_toolchain/6_2017-q1-update/bin/../lib/gcc/arm-none-eabi/6.3.1/../../../../arm-none-eabi/lib/thumb/v7e-m/fpv4-sp/hard\libc_nano.a(lib_a-nano-vfprintf.o) (__swbuf_r)
c:/gcc_toolchain/6_2017-q1-update/bin/../lib/gcc/arm-none-eabi/6.3.1/../../../../arm-none-eabi/lib/thumb/v7e-m/fpv4-sp/hard\libc_nano.a(lib_a-wsetup.o)
                              c:/gcc_toolchain/6_2017-q1-update/bin/../lib/gcc/arm-none-eabi/6.3.1/../../../../arm-none-eabi/lib/thumb/v7e-m/fpv4-sp/hard\libc_nano.a(lib_a-nano-vfprintf.o) (__swsetup_r)
c:/gcc_toolchain/6_2017-q1-update/bin/../lib/gcc/arm-none-eabi/6.3.1/../../../../arm-none-eabi/lib/thumb/v7e-m/fpv4-sp/hard\libc_nano.a(lib_a-closer.o)
                              c:/gcc_toolchain/6_2017-q1-update/bin/../lib/gcc/arm-none-eabi/6.3.1/../../../../arm-none-eabi/lib/thumb/v7e-m/fpv4-sp/hard\libc_nano.a(lib_a-stdio.o) (_close_r)
c:/gcc_toolchain/6_2017-q1-update/bin/../lib/gcc/arm-none-eabi/6.3.1/../../../../arm-none-eabi/lib/thumb/v7e-m/fpv4-sp/hard\libc_nano.a(lib_a-fflush.o)
                              c:/gcc_toolchain/6_2017-q1-update/bin/../lib/gcc/arm-none-eabi/6.3.1/../../../../arm-none-eabi/lib/thumb/v7e-m/fpv4-sp/hard\libc_nano.a(lib_a-findfp.o) (_fflush_r)
c:/gcc_toolchain/6_2017-q1-update/bin/../lib/gcc/arm-none-eabi/6.3.1/../../../../arm-none-eabi/lib/thumb/v7e-m/fpv4-sp/hard\libc_nano.a(lib_a-fvwrite.o)
                              c:/gcc_toolchain/6_2017-q1-update/bin/../lib/gcc/arm-none-eabi/6.3.1/../../../../arm-none-eabi/lib/thumb/v7e-m/fpv4-sp/hard\libc_nano.a(lib_a-nano-vfprintf.o) (__sfvwrite_r)
c:/gcc_toolchain/6_2017-q1-update/bin/../lib/gcc/arm-none-eabi/6.3.1/../../../../arm-none-eabi/lib/thumb/v7e-m/fpv4-sp/hard\libc_nano.a(lib_a-lseekr.o)
                              c:/gcc_toolchain/6_2017-q1-update/bin/../lib/gcc/arm-none-eabi/6.3.1/../../../../arm-none-eabi/lib/thumb/v7e-m/fpv4-sp/hard\libc_nano.a(lib_a-stdio.o) (_lseek_r)
c:/gcc_toolchain/6_2017-q1-update/bin/../lib/gcc/arm-none-eabi/6.3.1/../../../../arm-none-eabi/lib/thumb/v7e-m/fpv4-sp/hard\libc_nano.a(lib_a-makebuf.o)
                              c:/gcc_toolchain/6_2017-q1-update/bin/../lib/gcc/arm-none-eabi/6.3.1/../../../../arm-none-eabi/lib/thumb/v7e-m/fpv4-sp/hard\libc_nano.a(lib_a-wsetup.o) (__smakebuf_r)
c:/gcc_toolchain/6_2017-q1-update/bin/../lib/gcc/arm-none-eabi/6.3.1/../../../../arm-none-eabi/lib/thumb/v7e-m/fpv4-sp/hard\libc_nano.a(lib_a-memchr.o)
                              c:/gcc_toolchain/6_2017-q1-update/bin/../lib/gcc/arm-none-eabi/6.3.1/../../../../arm-none-eabi/lib/thumb/v7e-m/fpv4-sp/hard\libc_nano.a(lib_a-nano-vfprintf.o) (memchr)
c:/gcc_toolchain/6_2017-q1-update/bin/../lib/gcc/arm-none-eabi/6.3.1/../../../../arm-none-eabi/lib/thumb/v7e-m/fpv4-sp/hard\libc_nano.a(lib_a-nano-reallocr.o)
                              c:/gcc_toolchain/6_2017-q1-update/bin/../lib/gcc/arm-none-eabi/6.3.1/../../../../arm-none-eabi/lib/thumb/v7e-m/fpv4-sp/hard\libc_nano.a(lib_a-fvwrite.o) (_realloc_r)
c:/gcc_toolchain/6_2017-q1-update/bin/../lib/gcc/arm-none-eabi/6.3.1/../../../../arm-none-eabi/lib/thumb/v7e-m/fpv4-sp/hard\libc_nano.a(lib_a-reent.o)
                              c:/gcc_toolchain/6_2017-q1-update/bin/../lib/gcc/arm-none-eabi/6.3.1/../../../../arm-none-eabi/lib/thumb/v7e-m/fpv4-sp/hard\libc_nano.a(lib_a-closer.o) (errno)
c:/gcc_toolchain/6_2017-q1-update/bin/../lib/gcc/arm-none-eabi/6.3.1/../../../../arm-none-eabi/lib/thumb/v7e-m/fpv4-sp/hard\libc_nano.a(lib_a-fstatr.o)
                              c:/gcc_toolchain/6_2017-q1-update/bin/../lib/gcc/arm-none-eabi/6.3.1/../../../../arm-none-eabi/lib/thumb/v7e-m/fpv4-sp/hard\libc_nano.a(lib_a-makebuf.o) (_fstat_r)
c:/gcc_toolchain/6_2017-q1-update/bin/../lib/gcc/arm-none-eabi/6.3.1/../../../../arm-none-eabi/lib/thumb/v7e-m/fpv4-sp/hard\libc_nano.a(lib_a-isattyr.o)
                              c:/gcc_toolchain/6_2017-q1-update/bin/../lib/gcc/arm-none-eabi/6.3.1/../../../../arm-none-eabi/lib/thumb/v7e-m/fpv4-sp/hard\libc_nano.a(lib_a-makebuf.o) (_isatty_r)
c:/gcc_toolchain/6_2017-q1-update/bin/../lib/gcc/arm-none-eabi/6.3.1/../../../../arm-none-eabi/lib/thumb/v7e-m/fpv4-sp/hard\libc_nano.a(lib_a-nano-msizer.o)
                              c:/gcc_toolchain/6_2017-q1-update/bin/../lib/gcc/arm-none-eabi/6.3.1/../../../../arm-none-eabi/lib/thumb/v7e-m/fpv4-sp/hard\libc_nano.a(lib_a-nano-reallocr.o) (_malloc_usable_size_r)
c:/gcc_toolchain/6_2017-q1-update/bin/../lib/gcc/arm-none-eabi/6.3.1/../../../../arm-none-eabi/lib/thumb/v7e-m/fpv4-sp/hard\libm.a(lib_a-s_round.o)
                              Middlewares/ST/STM32_Audio/Addons/PDM/Lib/\libPDMFilter_CM4_GCC.a(pdm_filter.o) (round)
c:/gcc_toolchain/6_2017-q1-update/bin/../lib/gcc/arm-none-eabi/6.3.1/../../../../arm-none-eabi/lib/thumb/v7e-m/fpv4-sp/hard\libm.a(lib_a-wf_pow.o)
                              Middlewares/ST/STM32_Audio/Addons/PDM/Lib/\libPDMFilter_CM4_GCC.a(pdm_filter.o) (powf)
c:/gcc_toolchain/6_2017-q1-update/bin/../lib/gcc/arm-none-eabi/6.3.1/../../../../arm-none-eabi/lib/thumb/v7e-m/fpv4-sp/hard\libm.a(lib_a-ef_pow.o)
                              c:/gcc_toolchain/6_2017-q1-update/bin/../lib/gcc/arm-none-eabi/6.3.1/../../../../arm-none-eabi/lib/thumb/v7e-m/fpv4-sp/hard\libm.a(lib_a-wf_pow.o) (__ieee754_powf)
c:/gcc_toolchain/6_2017-q1-update/bin/../lib/gcc/arm-none-eabi/6.3.1/../../../../arm-none-eabi/lib/thumb/v7e-m/fpv4-sp/hard\libm.a(lib_a-ef_sqrt.o)
                              c:/gcc_toolchain/6_2017-q1-update/bin/../lib/gcc/arm-none-eabi/6.3.1/../../../../arm-none-eabi/lib/thumb/v7e-m/fpv4-sp/hard\libm.a(lib_a-ef_pow.o) (__ieee754_sqrtf)
c:/gcc_toolchain/6_2017-q1-update/bin/../lib/gcc/arm-none-eabi/6.3.1/../../../../arm-none-eabi/lib/thumb/v7e-m/fpv4-sp/hard\libm.a(lib_a-s_lib_ver.o)
                              c:/gcc_toolchain/6_2017-q1-update/bin/../lib/gcc/arm-none-eabi/6.3.1/../../../../arm-none-eabi/lib/thumb/v7e-m/fpv4-sp/hard\libm.a(lib_a-wf_pow.o) (__fdlib_version)
c:/gcc_toolchain/6_2017-q1-update/bin/../lib/gcc/arm-none-eabi/6.3.1/../../../../arm-none-eabi/lib/thumb/v7e-m/fpv4-sp/hard\libm.a(lib_a-s_matherr.o)
                              c:/gcc_toolchain/6_2017-q1-update/bin/../lib/gcc/arm-none-eabi/6.3.1/../../../../arm-none-eabi/lib/thumb/v7e-m/fpv4-sp/hard\libm.a(lib_a-wf_pow.o) (matherr)
c:/gcc_toolchain/6_2017-q1-update/bin/../lib/gcc/arm-none-eabi/6.3.1/../../../../arm-none-eabi/lib/thumb/v7e-m/fpv4-sp/hard\libm.a(lib_a-s_rint.o)
                              c:/gcc_toolchain/6_2017-q1-update/bin/../lib/gcc/arm-none-eabi/6.3.1/../../../../arm-none-eabi/lib/thumb/v7e-m/fpv4-sp/hard\libm.a(lib_a-wf_pow.o) (rint)
c:/gcc_toolchain/6_2017-q1-update/bin/../lib/gcc/arm-none-eabi/6.3.1/../../../../arm-none-eabi/lib/thumb/v7e-m/fpv4-sp/hard\libm.a(lib_a-sf_fabs.o)
                              c:/gcc_toolchain/6_2017-q1-update/bin/../lib/gcc/arm-none-eabi/6.3.1/../../../../arm-none-eabi/lib/thumb/v7e-m/fpv4-sp/hard\libm.a(lib_a-ef_pow.o) (fabsf)
c:/gcc_toolchain/6_2017-q1-update/bin/../lib/gcc/arm-none-eabi/6.3.1/../../../../arm-none-eabi/lib/thumb/v7e-m/fpv4-sp/hard\libm.a(lib_a-sf_finite.o)
                              c:/gcc_toolchain/6_2017-q1-update/bin/../lib/gcc/arm-none-eabi/6.3.1/../../../../arm-none-eabi/lib/thumb/v7e-m/fpv4-sp/hard\libm.a(lib_a-wf_pow.o) (finitef)
c:/gcc_toolchain/6_2017-q1-update/bin/../lib/gcc/arm-none-eabi/6.3.1/../../../../arm-none-eabi/lib/thumb/v7e-m/fpv4-sp/hard\libm.a(lib_a-sf_nan.o)
                              c:/gcc_toolchain/6_2017-q1-update/bin/../lib/gcc/arm-none-eabi/6.3.1/../../../../arm-none-eabi/lib/thumb/v7e-m/fpv4-sp/hard\libm.a(lib_a-ef_pow.o) (nanf)
c:/gcc_toolchain/6_2017-q1-update/bin/../lib/gcc/arm-none-eabi/6.3.1/../../../../arm-none-eabi/lib/thumb/v7e-m/fpv4-sp/hard\libm.a(lib_a-sf_scalbn.o)
                              c:/gcc_toolchain/6_2017-q1-update/bin/../lib/gcc/arm-none-eabi/6.3.1/../../../../arm-none-eabi/lib/thumb/v7e-m/fpv4-sp/hard\libm.a(lib_a-ef_pow.o) (scalbnf)
c:/gcc_toolchain/6_2017-q1-update/bin/../lib/gcc/arm-none-eabi/6.3.1/../../../../arm-none-eabi/lib/thumb/v7e-m/fpv4-sp/hard\libm.a(lib_a-sf_copysign.o)
                              c:/gcc_toolchain/6_2017-q1-update/bin/../lib/gcc/arm-none-eabi/6.3.1/../../../../arm-none-eabi/lib/thumb/v7e-m/fpv4-sp/hard\libm.a(lib_a-sf_scalbn.o) (copysignf)
c:/gcc_toolchain/6_2017-q1-update/bin/../lib/gcc/arm-none-eabi/6.3.1/../../../../arm-none-eabi/lib/thumb/v7e-m/fpv4-sp/hard\libnosys.a(close.o)
                              c:/gcc_toolchain/6_2017-q1-update/bin/../lib/gcc/arm-none-eabi/6.3.1/../../../../arm-none-eabi/lib/thumb/v7e-m/fpv4-sp/hard\libc_nano.a(lib_a-closer.o) (_close)
c:/gcc_toolchain/6_2017-q1-update/bin/../lib/gcc/arm-none-eabi/6.3.1/../../../../arm-none-eabi/lib/thumb/v7e-m/fpv4-sp/hard\libnosys.a(fstat.o)
                              c:/gcc_toolchain/6_2017-q1-update/bin/../lib/gcc/arm-none-eabi/6.3.1/../../../../arm-none-eabi/lib/thumb/v7e-m/fpv4-sp/hard\libc_nano.a(lib_a-fstatr.o) (_fstat)
c:/gcc_toolchain/6_2017-q1-update/bin/../lib/gcc/arm-none-eabi/6.3.1/../../../../arm-none-eabi/lib/thumb/v7e-m/fpv4-sp/hard\libnosys.a(isatty.o)
                              c:/gcc_toolchain/6_2017-q1-update/bin/../lib/gcc/arm-none-eabi/6.3.1/../../../../arm-none-eabi/lib/thumb/v7e-m/fpv4-sp/hard\libc_nano.a(lib_a-isattyr.o) (_isatty)
c:/gcc_toolchain/6_2017-q1-update/bin/../lib/gcc/arm-none-eabi/6.3.1/../../../../arm-none-eabi/lib/thumb/v7e-m/fpv4-sp/hard\libnosys.a(lseek.o)
                              c:/gcc_toolchain/6_2017-q1-update/bin/../lib/gcc/arm-none-eabi/6.3.1/../../../../arm-none-eabi/lib/thumb/v7e-m/fpv4-sp/hard\libc_nano.a(lib_a-lseekr.o) (_lseek)
c:/gcc_toolchain/6_2017-q1-update/bin/../lib/gcc/arm-none-eabi/6.3.1/../../../../arm-none-eabi/lib/thumb/v7e-m/fpv4-sp/hard\libnosys.a(_exit.o)
                              c:/gcc_toolchain/6_2017-q1-update/bin/../lib/gcc/arm-none-eabi/6.3.1/../../../../arm-none-eabi/lib/thumb/v7e-m/fpv4-sp/hard\libc_nano.a(lib_a-exit.o) (_exit)
c:/gcc_toolchain/6_2017-q1-update/bin/../lib/gcc/arm-none-eabi/6.3.1/thumb/v7e-m/fpv4-sp/hard\libgcc.a(_arm_addsubdf3.o)
                              c:/gcc_toolchain/6_2017-q1-update/bin/../lib/gcc/arm-none-eabi/6.3.1/../../../../arm-none-eabi/lib/thumb/v7e-m/fpv4-sp/hard\libm.a(lib_a-s_rint.o) (__aeabi_dsub)
c:/gcc_toolchain/6_2017-q1-update/bin/../lib/gcc/arm-none-eabi/6.3.1/thumb/v7e-m/fpv4-sp/hard\libgcc.a(_arm_muldivdf3.o)
                              c:/gcc_toolchain/6_2017-q1-update/bin/../lib/gcc/arm-none-eabi/6.3.1/../../../../arm-none-eabi/lib/thumb/v7e-m/fpv4-sp/hard\libm.a(lib_a-wf_pow.o) (__aeabi_ddiv)
c:/gcc_toolchain/6_2017-q1-update/bin/../lib/gcc/arm-none-eabi/6.3.1/thumb/v7e-m/fpv4-sp/hard\libgcc.a(_arm_cmpdf2.o)
                              c:/gcc_toolchain/6_2017-q1-update/bin/../lib/gcc/arm-none-eabi/6.3.1/../../../../arm-none-eabi/lib/thumb/v7e-m/fpv4-sp/hard\libm.a(lib_a-wf_pow.o) (__aeabi_dcmpeq)
c:/gcc_toolchain/6_2017-q1-update/bin/../lib/gcc/arm-none-eabi/6.3.1/thumb/v7e-m/fpv4-sp/hard\libgcc.a(_arm_fixunsdfsi.o)
                              Middlewares/ST/STM32_Audio/Addons/PDM/Lib/\libPDMFilter_CM4_GCC.a(pdm_filter.o) (__aeabi_d2uiz)
c:/gcc_toolchain/6_2017-q1-update/bin/../lib/gcc/arm-none-eabi/6.3.1/thumb/v7e-m/fpv4-sp/hard\libgcc.a(_arm_truncdfsf2.o)
                              c:/gcc_toolchain/6_2017-q1-update/bin/../lib/gcc/arm-none-eabi/6.3.1/../../../../arm-none-eabi/lib/thumb/v7e-m/fpv4-sp/hard\libm.a(lib_a-wf_pow.o) (__aeabi_d2f)
c:/gcc_toolchain/6_2017-q1-update/bin/../lib/gcc/arm-none-eabi/6.3.1/thumb/v7e-m/fpv4-sp/hard\libgcc.a(_aeabi_uldivmod.o)
                              build/stm32f4xx_hal_rcc.o (__aeabi_uldivmod)
c:/gcc_toolchain/6_2017-q1-update/bin/../lib/gcc/arm-none-eabi/6.3.1/thumb/v7e-m/fpv4-sp/hard\libgcc.a(_udivmoddi4.o)
                              c:/gcc_toolchain/6_2017-q1-update/bin/../lib/gcc/arm-none-eabi/6.3.1/thumb/v7e-m/fpv4-sp/hard\libgcc.a(_aeabi_uldivmod.o) (__udivmoddi4)
c:/gcc_toolchain/6_2017-q1-update/bin/../lib/gcc/arm-none-eabi/6.3.1/thumb/v7e-m/fpv4-sp/hard\libgcc.a(_dvmd_tls.o)
                              c:/gcc_toolchain/6_2017-q1-update/bin/../lib/gcc/arm-none-eabi/6.3.1/thumb/v7e-m/fpv4-sp/hard\libgcc.a(_aeabi_uldivmod.o) (__aeabi_ldiv0)
c:/gcc_toolchain/6_2017-q1-update/bin/../lib/gcc/arm-none-eabi/6.3.1/../../../../arm-none-eabi/lib/thumb/v7e-m/fpv4-sp/hard\libc_nano.a(lib_a-errno.o)
                              c:/gcc_toolchain/6_2017-q1-update/bin/../lib/gcc/arm-none-eabi/6.3.1/../../../../arm-none-eabi/lib/thumb/v7e-m/fpv4-sp/hard\libm.a(lib_a-wf_pow.o) (__errno)

Allocating common symbols
Common symbol       size              file

defaultTaskHandle   0x4               build/main.o
PDM_FilterConfig    0xc               build/stm32f4_discovery_audio.o
errno               0x4               c:/gcc_toolchain/6_2017-q1-update/bin/../lib/gcc/arm-none-eabi/6.3.1/../../../../arm-none-eabi/lib/thumb/v7e-m/fpv4-sp/hard\libc_nano.a(lib_a-reent.o)
USBHPath            0x4               build/fatfs.o
RepeatState         0x4               build/main.o
hi2c1               0x54              build/main.o
hUsbHostFS          0x3d0             build/usb_host.o
uwTick              0x4               build/stm32f4xx_hal.o
xQueueRegistry      0x40              build/queue.o
pFlash              0x20              build/stm32f4xx_hal_flash.o
__brkval            0x4               build/main.o
PauseResumeStatus   0x4               build/main.o
Audio_Buffer        0x1000            build/main.o
htim11              0x3c              build/stm32f4xx_hal_timebase_TIM.o
USBHFile            0x230             build/fatfs.o
PDM_FilterHandler   0x98              build/stm32f4_discovery_audio.o
Directory           0x30              build/main.o
hAudioOutI2s        0x48              build/stm32f4_discovery_audio.o
hrng                0xc               build/main.o
PressCount          0x4               build/main.o
hspi1               0x58              build/main.o
hhcd_USB_OTG_FS     0x298             build/usbh_conf.o
huart2              0x40              build/main.o
USBHFatFS           0x234             build/fatfs.o
FileRead            0x230             build/main.o
hi2s2               0x48              build/main.o
hi2s3               0x48              build/main.o
retUSBH             0x1               build/fatfs.o
hAudioInI2s         0x48              build/stm32f4_discovery_audio.o

Discarded input sections

 .text          0x00000000        0x0 c:/gcc_toolchain/6_2017-q1-update/bin/../lib/gcc/arm-none-eabi/6.3.1/thumb/v7e-m/fpv4-sp/hard/crti.o
 .data          0x00000000        0x0 c:/gcc_toolchain/6_2017-q1-update/bin/../lib/gcc/arm-none-eabi/6.3.1/thumb/v7e-m/fpv4-sp/hard/crti.o
 .bss           0x00000000        0x0 c:/gcc_toolchain/6_2017-q1-update/bin/../lib/gcc/arm-none-eabi/6.3.1/thumb/v7e-m/fpv4-sp/hard/crti.o
 .data          0x00000000        0x4 c:/gcc_toolchain/6_2017-q1-update/bin/../lib/gcc/arm-none-eabi/6.3.1/thumb/v7e-m/fpv4-sp/hard/crtbegin.o
 .text          0x00000000       0x74 c:/gcc_toolchain/6_2017-q1-update/bin/../lib/gcc/arm-none-eabi/6.3.1/../../../../arm-none-eabi/lib/thumb/v7e-m/fpv4-sp/hard/crt0.o
 .data          0x00000000        0x0 c:/gcc_toolchain/6_2017-q1-update/bin/../lib/gcc/arm-none-eabi/6.3.1/../../../../arm-none-eabi/lib/thumb/v7e-m/fpv4-sp/hard/crt0.o
 .bss           0x00000000        0x0 c:/gcc_toolchain/6_2017-q1-update/bin/../lib/gcc/arm-none-eabi/6.3.1/../../../../arm-none-eabi/lib/thumb/v7e-m/fpv4-sp/hard/crt0.o
 .ARM.extab     0x00000000        0x0 c:/gcc_toolchain/6_2017-q1-update/bin/../lib/gcc/arm-none-eabi/6.3.1/../../../../arm-none-eabi/lib/thumb/v7e-m/fpv4-sp/hard/crt0.o
 .ARM.exidx     0x00000000        0x8 c:/gcc_toolchain/6_2017-q1-update/bin/../lib/gcc/arm-none-eabi/6.3.1/../../../../arm-none-eabi/lib/thumb/v7e-m/fpv4-sp/hard/crt0.o
 .ARM.attributes
                0x00000000       0x20 c:/gcc_toolchain/6_2017-q1-update/bin/../lib/gcc/arm-none-eabi/6.3.1/../../../../arm-none-eabi/lib/thumb/v7e-m/fpv4-sp/hard/crt0.o
 .text          0x00000000        0x0 build/cmsis_os.o
 .data          0x00000000        0x0 build/cmsis_os.o
 .bss           0x00000000        0x0 build/cmsis_os.o
 .text.makeCmsisPriority
                0x00000000        0xe build/cmsis_os.o
 .text.osKernelRunning
                0x00000000       0x12 build/cmsis_os.o
Memory Configuration

Name             Origin             Length             Attributes
RAM              0x20000000         0x00020000         xrw
CCMRAM           0x10000000         0x00010000         rw
FLASH            0x08000000         0x00100000         xr
*default*        0x00000000         0xffffffff

Linker script and memory map

LOAD c:/gcc_toolchain/6_2017-q1-update/bin/../lib/gcc/arm-none-eabi/6.3.1/thumb/v7e-m/fpv4-sp/hard/crti.o
LOAD c:/gcc_toolchain/6_2017-q1-update/bin/../lib/gcc/arm-none-eabi/6.3.1/thumb/v7e-m/fpv4-sp/hard/crtbegin.o
LOAD c:/gcc_toolchain/6_2017-q1-update/bin/../lib/gcc/arm-none-eabi/6.3.1/../../../../arm-none-eabi/lib/thumb/v7e-m/fpv4-sp/hard/crt0.o
LOAD build/cmsis_os.o
LOAD build/croutine.o
LOAD build/usbh_msc.o
LOAD build/stm32f4xx_hal_i2c_ex.o
LOAD build/freertos.o
LOAD build/stm32f4xx_hal_tim.o
LOAD build/stm32f4xx_hal_timebase_TIM.o
LOAD build/stm32f4xx_hal_rng.o
LOAD build/stm32f4xx_hal_flash_ramfunc.o
LOAD build/stm32f4xx_hal_i2s.o
LOAD build/system_stm32f4xx.o
LOAD build/ff_gen_drv.o
LOAD build/tasks.o
LOAD build/usb_host.o
LOAD build/stm32f4xx_hal_pwr.o
LOAD build/stm32f4xx_hal.o
LOAD build/stm32f4xx_hal_pwr_ex.o
LOAD build/stm32f4xx_hal_uart.o
LOAD build/stm32f4xx_hal_gpio.o
LOAD build/stm32f4xx_hal_cortex.o
LOAD build/usbh_conf.o
LOAD build/stm32f4_discovery.o
LOAD build/stm32f4_discovery_audio.o
LOAD build/stm32f4xx_hal_i2s_ex.o
LOAD build/usbh_pipes.o
LOAD build/stm32f4xx_hal_dma_ex.o
LOAD build/usbh_msc_scsi.o
LOAD build/stm32f4xx_hal_flash_ex.o
LOAD build/ff.o
LOAD build/main.o
LOAD build/usbh_core.o
LOAD build/queue.o
LOAD build/stm32f4xx_hal_hcd.o
LOAD build/event_groups.o
LOAD build/stm32f4xx_hal_dma.o
LOAD build/stm32f4xx_it.o
LOAD build/stm32f4xx_hal_tim_ex.o
LOAD build/heap_4.o
LOAD build/usbh_msc_bot.o
LOAD build/stm32f4xx_ll_usb.o
LOAD build/port.o
LOAD build/stm32f4xx_hal_i2c.o
LOAD build/usbh_ctlreq.o
LOAD build/stm32f4xx_hal_rcc_ex.o
LOAD build/usbh_diskio.o
LOAD build/stm32f4xx_hal_spi.o
LOAD build/diskio.o
LOAD build/usbh_ioreq.o
LOAD build/timers.o
LOAD build/stm32f4xx_hal_msp.o
LOAD build/list.o
LOAD build/stm32f4xx_hal_rcc.o
LOAD build/stm32f4xx_hal_flash.o
LOAD build/fatfs.o
LOAD build/syscall.o
LOAD build/cs43l22.o
LOAD build/mp3dec.o
LOAD build/mp3tabs.o
LOAD build/bitstream.o
LOAD build/buffers.o
LOAD build/dct32.o
LOAD build/dequant.o
LOAD build/dqchan.o
LOAD build/huffman.o
LOAD build/hufftabs.o
LOAD build/imdct.o
LOAD build/polyphase.o
LOAD build/scalfact.o
LOAD build/stproc.o
LOAD build/subband.o
LOAD build/trigtabs_fixpt.o
LOAD build/startup_stm32f407xx.o
LOAD Middlewares/ST/STM32_Audio/Addons/PDM/Lib/\libPDMFilter_CM4_GCC.a
LOAD c:/gcc_toolchain/6_2017-q1-update/bin/../lib/gcc/arm-none-eabi/6.3.1/../../../../arm-none-eabi/lib/thumb/v7e-m/fpv4-sp/hard\libc_nano.a
LOAD c:/gcc_toolchain/6_2017-q1-update/bin/../lib/gcc/arm-none-eabi/6.3.1/../../../../arm-none-eabi/lib/thumb/v7e-m/fpv4-sp/hard\libm.a
LOAD c:/gcc_toolchain/6_2017-q1-update/bin/../lib/gcc/arm-none-eabi/6.3.1/../../../../arm-none-eabi/lib/thumb/v7e-m/fpv4-sp/hard\libnosys.a
START GROUP
LOAD c:/gcc_toolchain/6_2017-q1-update/bin/../lib/gcc/arm-none-eabi/6.3.1/thumb/v7e-m/fpv4-sp/hard\libgcc.a
LOAD c:/gcc_toolchain/6_2017-q1-update/bin/../lib/gcc/arm-none-eabi/6.3.1/../../../../arm-none-eabi/lib/thumb/v7e-m/fpv4-sp/hard\libc_nano.a
END GROUP
START GROUP
LOAD c:/gcc_toolchain/6_2017-q1-update/bin/../lib/gcc/arm-none-eabi/6.3.1/thumb/v7e-m/fpv4-sp/hard\libgcc.a
LOAD c:/gcc_toolchain/6_2017-q1-update/bin/../lib/gcc/arm-none-eabi/6.3.1/../../../../arm-none-eabi/lib/thumb/v7e-m/fpv4-sp/hard\libc_nano.a
END GROUP
LOAD c:/gcc_toolchain/6_2017-q1-update/bin/../lib/gcc/arm-none-eabi/6.3.1/thumb/v7e-m/fpv4-sp/hard/crtend.o
LOAD c:/gcc_toolchain/6_2017-q1-update/bin/../lib/gcc/arm-none-eabi/6.3.1/thumb/v7e-m/fpv4-sp/hard/crtn.o
                0x20020000                _estack = 0x20020000
                0x00000200                _Min_Heap_Size = 0x200
                0x00000400                _Min_Stack_Size = 0x400

.isr_vector     0x08000000      0x188
                0x08000000                . = ALIGN (0x4)
 *(.isr_vector)
 .isr_vector    0x08000000      0x188 build/startup_stm32f407xx.o
                0x08000000                g_pfnVectors
                0x08000188                . = ALIGN (0x4)

.text           0x08000190    0x101ac
                0x08000190                . = ALIGN (0x4)
 *(.text)
 .text          0x08000190       0x6c c:/gcc_toolchain/6_2017-q1-update/bin/../lib/gcc/arm-none-eabi/6.3.1/thumb/v7e-m/fpv4-sp/hard/crtbegin.o
 *fill*         0x080001fc        0x4 
 .text          0x08000200       0xa0 c:/gcc_toolchain/6_2017-q1-update/bin/../lib/gcc/arm-none-eabi/6.3.1/../../../../arm-none-eabi/lib/thumb/v7e-m/fpv4-sp/hard\libc_nano.a(lib_a-memchr.o)
                0x08000200                memchr
 .text          0x080002a0       0x30 c:/gcc_toolchain/6_2017-q1-update/bin/../lib/gcc/arm-none-eabi/6.3.1/thumb/v7e-m/fpv4-sp/hard\libgcc.a(_aeabi_uldivmod.o)
                0x080002a0                __aeabi_uldivmod
 .text          0x080002d0      0x2dc c:/gcc_toolchain/6_2017-q1-update/bin/../lib/gcc/arm-none-eabi/6.3.1/thumb/v7e-m/fpv4-sp/hard\libgcc.a(_udivmoddi4.o)
                0x080002d0                __udivmoddi4
 .text          0x080005ac        0x4 c:/gcc_toolchain/6_2017-q1-update/bin/../lib/gcc/arm-none-eabi/6.3.1/thumb/v7e-m/fpv4-sp/hard\libgcc.a(_dvmd_tls.o)
                0x080005ac                __aeabi_idiv0
                0x080005ac                __aeabi_ldiv0
 *(.text*)
 .text.makeFreeRtosPriority
                0x080005b0        0xc build/cmsis_os.o
 .text.inHandlerMode
                0x080005bc        0xc build/cmsis_os.o
 .text.osKernelStart
                0x080005c8        0xa build/cmsis_os.o
                0x080005c8                osKernelStart
 .text.osThreadCreate
                0x080005d2       0x34 build/cmsis_os.o
                0x080005d2                osThreadCreate
 .text.osDelay  0x08000606       0x12 build/cmsis_os.o
                0x08000606                osDelay
 .text.osSemaphoreCreate
                0x08000618       0x26 build/cmsis_os.o
                0x08000618                osSemaphoreCreate
 *fill*         0x0800063e        0x2 
 .text.osSemaphoreWait
                0x08000640       0x74 build/cmsis_os.o
                0x08000640                osSemaphoreWait
 .text.osSemaphoreRelease
                0x080006b4       0x5c build/cmsis_os.o
                0x080006b4                osSemaphoreRelease
 .text.osSemaphoreDelete
                0x08000710       0x18 build/cmsis_os.o
                0x08000710                osSemaphoreDelete
 .text.osMessageCreate
                0x08000728        0xe build/cmsis_os.o
                0x08000728                osMessageCreate
 *fill*         0x08000736        0x2 
 .text.osMessagePut
                0x08000738       0x68 build/cmsis_os.o
                0x08000738                osMessagePut
 .text.osMessageGet
                0x080007a0       0xa0 build/cmsis_os.o
                0x080007a0                osMessageGet
 .text.osSystickHandler
                0x08000840       0x10 build/cmsis_os.o
                0x08000840                osSystickHandler
 .text.USBH_MSC_SOFProcess
                0x08000850        0x4 build/usbh_msc.o
 .text.USBH_MSC_Process
                0x08000854      0x2a2 build/usbh_msc.o
 .text.USBH_MSC_ClassRequest
                0x08000af6       0x64 build/usbh_msc.o
 .text.USBH_MSC_InterfaceDeInit
                0x08000b5a       0x50 build/usbh_msc.o
 .text.USBH_MSC_InterfaceInit
                0x08000baa      0x12e build/usbh_msc.o
 .text.USBH_MSC_RdWrProcess
                0x08000cd8      0x124 build/usbh_msc.o
 .text.USBH_MSC_UnitIsReady
                0x08000dfc       0x24 build/usbh_msc.o
                0x08000dfc                USBH_MSC_UnitIsReady
 .text.USBH_MSC_GetLUNInfo
                0x08000e20       0x28 build/usbh_msc.o
                0x08000e20                USBH_MSC_GetLUNInfo
 .text.USBH_MSC_Read
                0x08000e48       0x92 build/usbh_msc.o
                0x08000e48                USBH_MSC_Read
 .text.USBH_MSC_Write
                0x08000eda       0x92 build/usbh_msc.o
                0x08000eda                USBH_MSC_Write
 .text.HAL_TIM_Base_MspInit
                0x08000f6c        0x2 build/stm32f4xx_hal_tim.o
                0x08000f6c                HAL_TIM_Base_MspInit
 .text.HAL_TIM_Base_Start_IT
                0x08000f6e       0x18 build/stm32f4xx_hal_tim.o
                0x08000f6e                HAL_TIM_Base_Start_IT
 .text.HAL_TIM_OC_DelayElapsedCallback
                0x08000f86        0x2 build/stm32f4xx_hal_tim.o
                0x08000f86                HAL_TIM_OC_DelayElapsedCallback
 .text.HAL_TIM_IC_CaptureCallback
                0x08000f88        0x2 build/stm32f4xx_hal_tim.o
                0x08000f88                HAL_TIM_IC_CaptureCallback
 .text.HAL_TIM_PWM_PulseFinishedCallback
                0x08000f8a        0x2 build/stm32f4xx_hal_tim.o
                0x08000f8a                HAL_TIM_PWM_PulseFinishedCallback
 .text.HAL_TIM_TriggerCallback
                0x08000f8c        0x2 build/stm32f4xx_hal_tim.o
                0x08000f8c                HAL_TIM_TriggerCallback
 .text.HAL_TIM_IRQHandler
                0x08000f8e      0x17a build/stm32f4xx_hal_tim.o
                0x08000f8e                HAL_TIM_IRQHandler
 .text.TIM_Base_SetConfig
                0x08001108      0x11c build/stm32f4xx_hal_tim.o
                0x08001108                TIM_Base_SetConfig
 .text.HAL_TIM_Base_Init
                0x08001224       0x32 build/stm32f4xx_hal_tim.o
                0x08001224                HAL_TIM_Base_Init
 *fill*         0x08001256        0x2 
 .text.HAL_InitTick
                0x08001258       0x7c build/stm32f4xx_hal_timebase_TIM.o
                0x08001258                HAL_InitTick
 .text.HAL_RNG_Init
                0x080012d4       0x2c build/stm32f4xx_hal_rng.o
                0x080012d4                HAL_RNG_Init
 .text.HAL_I2S_Transmit_DMA
                0x08001300       0xbc build/stm32f4xx_hal_i2s.o
                0x08001300                HAL_I2S_Transmit_DMA
 .text.HAL_I2S_DMAPause
                0x080013bc       0x80 build/stm32f4xx_hal_i2s.o
                0x080013bc                HAL_I2S_DMAPause
 .text.HAL_I2S_DMAResume
                0x0800143c       0xb4 build/stm32f4xx_hal_i2s.o
                0x0800143c                HAL_I2S_DMAResume
 .text.HAL_I2S_DMAStop
                0x080014f0       0xc8 build/stm32f4xx_hal_i2s.o
                0x080014f0                HAL_I2S_DMAStop
 .text.I2S_DMATxHalfCplt
                0x080015b8        0xa build/stm32f4xx_hal_i2s.o
 .text.I2S_Transmit_IT
                0x080015c2       0x3a build/stm32f4xx_hal_i2s.o
 .text.I2S_DMATxCplt
                0x080015fc       0x2a build/stm32f4xx_hal_i2s.o
 .text.I2S_Receive_IT
                0x08001626       0x3a build/stm32f4xx_hal_i2s.o
 .text.HAL_I2S_Init
                0x08001660      0x194 build/stm32f4xx_hal_i2s.o
                0x08001660                HAL_I2S_Init
 .text.I2S_IRQHandler
                0x080017f4       0xd8 build/stm32f4xx_hal_i2s.o
 .text.I2S_DMAError
                0x080018cc       0x28 build/stm32f4xx_hal_i2s.o
 .text.HAL_I2S_GetState
                0x080018f4        0x6 build/stm32f4xx_hal_i2s.o
                0x080018f4                HAL_I2S_GetState
 *fill*         0x080018fa        0x2 
 .text.SystemInit
                0x080018fc       0x4c build/system_stm32f4xx.o
                0x080018fc                SystemInit
 .text.FATFS_LinkDriverEx
                0x08001948       0x48 build/ff_gen_drv.o
                0x08001948                FATFS_LinkDriverEx
 .text.FATFS_LinkDriver
                0x08001990        0xa build/ff_gen_drv.o
                0x08001990                FATFS_LinkDriver
 *fill*         0x0800199a        0x2 
 .text.prvResetNextTaskUnblockTime
                0x0800199c       0x34 build/tasks.o
 .text.prvDeleteTCB
                0x080019d0       0x12 build/tasks.o
 .text.prvInitialiseNewTask
                0x080019e2       0x80 build/tasks.o
 *fill*         0x08001a62        0x2 
 .text.prvInitialiseTaskLists
                0x08001a64       0x68 build/tasks.o
 .text.prvAddNewTaskToReadyList
                0x08001acc       0xa8 build/tasks.o
 .text.prvAddCurrentTaskToDelayedList
                0x08001b74       0x98 build/tasks.o
 .text.xTaskCreate
                0x08001c0c       0x62 build/tasks.o
                0x08001c0c                xTaskCreate
 *fill*         0x08001c6e        0x2 
 .text.vTaskStartScheduler
                0x08001c70       0x7c build/tasks.o
                0x08001c70                vTaskStartScheduler
 .text.vTaskSuspendAll
                0x08001cec       0x10 build/tasks.o
                0x08001cec                vTaskSuspendAll
 .text.xTaskIncrementTick
                0x08001cfc      0x120 build/tasks.o
                0x08001cfc                xTaskIncrementTick
 .text.xTaskResumeAll
                0x08001e1c       0xfc build/tasks.o
                0x08001e1c                xTaskResumeAll
 .text.vTaskDelay
                0x08001f18       0x50 build/tasks.o
                0x08001f18                vTaskDelay
 .text.prvCheckTasksWaitingTermination
                0x08001f68       0x5c build/tasks.o
 .text.prvIdleTask
                0x08001fc4       0x28 build/tasks.o
 .text.vTaskSwitchContext
                0x08001fec       0x9c build/tasks.o
                0x08001fec                vTaskSwitchContext
 .text.vTaskPlaceOnEventList
                0x08002088       0x30 build/tasks.o
                0x08002088                vTaskPlaceOnEventList
 .text.xTaskRemoveFromEventList
                0x080020b8       0x8c build/tasks.o
                0x080020b8                xTaskRemoveFromEventList
 .text.vTaskSetTimeOutState
                0x08002144       0x2c build/tasks.o
                0x08002144                vTaskSetTimeOutState
 .text.xTaskCheckForTimeOut
                0x08002170       0x80 build/tasks.o
                0x08002170                xTaskCheckForTimeOut
 .text.vTaskMissedYield
                0x080021f0        0xc build/tasks.o
                0x080021f0                vTaskMissedYield
 .text.xTaskGetSchedulerState
                0x080021fc       0x20 build/tasks.o
                0x080021fc                xTaskGetSchedulerState
 .text.vTaskPriorityInherit
                0x0800221c       0xa4 build/tasks.o
                0x0800221c                vTaskPriorityInherit
 .text.xTaskPriorityDisinherit
                0x080022c0       0xb4 build/tasks.o
                0x080022c0                xTaskPriorityDisinherit
 .text.pvTaskIncrementMutexHeldCount
                0x08002374       0x1c build/tasks.o
                0x08002374                pvTaskIncrementMutexHeldCount
 .text.USBH_UserProcess
                0x08002390       0x2c build/usb_host.o
 .text.MX_USB_HOST_Init
                0x080023bc       0x2c build/usb_host.o
                0x080023bc                MX_USB_HOST_Init
 .text.HAL_Init
                0x080023e8       0x34 build/stm32f4xx_hal.o
                0x080023e8                HAL_Init
 .text.HAL_IncTick
                0x0800241c       0x10 build/stm32f4xx_hal.o
                0x0800241c                HAL_IncTick
 .text.HAL_GetTick
                0x0800242c        0xc build/stm32f4xx_hal.o
                0x0800242c                HAL_GetTick
 .text.HAL_Delay
                0x08002438       0x24 build/stm32f4xx_hal.o
                0x08002438                HAL_Delay
 .text.UART_SetConfig
                0x0800245c      0x344 build/stm32f4xx_hal_uart.o
 .text.UART_WaitOnFlagUntilTimeout
                0x080027a0       0x64 build/stm32f4xx_hal_uart.o
 .text.HAL_UART_Init
                0x08002804       0x5e build/stm32f4xx_hal_uart.o
                0x08002804                HAL_UART_Init
 .text.HAL_UART_Transmit
                0x08002862       0xe2 build/stm32f4xx_hal_uart.o
                0x08002862                HAL_UART_Transmit
 .text.HAL_UART_Receive
                0x08002944       0xe6 build/stm32f4xx_hal_uart.o
                0x08002944                HAL_UART_Receive
 *fill*         0x08002a2a        0x2 
 .text.HAL_GPIO_Init
                0x08002a2c      0x1cc build/stm32f4xx_hal_gpio.o
                0x08002a2c                HAL_GPIO_Init
 .text.HAL_GPIO_DeInit
                0x08002bf8      0x120 build/stm32f4xx_hal_gpio.o
                0x08002bf8                HAL_GPIO_DeInit
 .text.HAL_GPIO_WritePin
                0x08002d18        0xc build/stm32f4xx_hal_gpio.o
                0x08002d18                HAL_GPIO_WritePin
 .text.HAL_NVIC_SetPriorityGrouping
                0x08002d24       0x24 build/stm32f4xx_hal_cortex.o
                0x08002d24                HAL_NVIC_SetPriorityGrouping
 .text.HAL_NVIC_SetPriority
                0x08002d48       0x64 build/stm32f4xx_hal_cortex.o
                0x08002d48                HAL_NVIC_SetPriority
 .text.HAL_NVIC_EnableIRQ
                0x08002dac       0x18 build/stm32f4xx_hal_cortex.o
                0x08002dac                HAL_NVIC_EnableIRQ
 .text.HAL_SYSTICK_Config
                0x08002dc4       0x2c build/stm32f4xx_hal_cortex.o
                0x08002dc4                HAL_SYSTICK_Config
 .text.HAL_SYSTICK_CLKSourceConfig
                0x08002df0       0x20 build/stm32f4xx_hal_cortex.o
                0x08002df0                HAL_SYSTICK_CLKSourceConfig
 .text.HAL_HCD_MspInit
                0x08002e10       0x78 build/usbh_conf.o
                0x08002e10                HAL_HCD_MspInit
 .text.HAL_HCD_SOF_Callback
                0x08002e88        0xc build/usbh_conf.o
                0x08002e88                HAL_HCD_SOF_Callback
 .text.HAL_HCD_Connect_Callback
                0x08002e94        0xc build/usbh_conf.o
                0x08002e94                HAL_HCD_Connect_Callback
 .text.HAL_HCD_Disconnect_Callback
                0x08002ea0        0xc build/usbh_conf.o
                0x08002ea0                HAL_HCD_Disconnect_Callback
 .text.HAL_HCD_HC_NotifyURBChange_Callback
                0x08002eac        0xc build/usbh_conf.o
                0x08002eac                HAL_HCD_HC_NotifyURBChange_Callback
 .text.USBH_LL_Init
                0x08002eb8       0x5c build/usbh_conf.o
                0x08002eb8                USBH_LL_Init
 .text.USBH_LL_Start
                0x08002f14       0x1c build/usbh_conf.o
                0x08002f14                USBH_LL_Start
 .text.USBH_LL_Stop
                0x08002f30       0x1c build/usbh_conf.o
                0x08002f30                USBH_LL_Stop
 .text.USBH_LL_GetSpeed
                0x08002f4c       0x1c build/usbh_conf.o
                0x08002f4c                USBH_LL_GetSpeed
 .text.USBH_LL_ResetPort
                0x08002f68       0x1c build/usbh_conf.o
                0x08002f68                USBH_LL_ResetPort
 .text.USBH_LL_GetLastXferSize
                0x08002f84        0xc build/usbh_conf.o
                0x08002f84                USBH_LL_GetLastXferSize
 .text.USBH_LL_OpenPipe
                0x08002f90       0x32 build/usbh_conf.o
                0x08002f90                USBH_LL_OpenPipe
 .text.USBH_LL_ClosePipe
                0x08002fc2       0x1c build/usbh_conf.o
                0x08002fc2                USBH_LL_ClosePipe
 .text.USBH_LL_SubmitURB
                0x08002fde       0x36 build/usbh_conf.o
                0x08002fde                USBH_LL_SubmitURB
 .text.USBH_LL_GetURBState
                0x08003014        0xc build/usbh_conf.o
                0x08003014                USBH_LL_GetURBState
 .text.USBH_LL_DriverVBUS
                0x08003020        0xc build/usbh_conf.o
                0x08003020                USBH_LL_DriverVBUS
 .text.USBH_LL_SetToggle
                0x0800302c       0x32 build/usbh_conf.o
                0x0800302c                USBH_LL_SetToggle
 .text.USBH_LL_GetToggle
                0x0800305e       0x2a build/usbh_conf.o
                0x0800305e                USBH_LL_GetToggle
 .text.USBH_Delay
                0x08003088        0x8 build/usbh_conf.o
                0x08003088                USBH_Delay
 .text.I2Cx_MspInit
                0x08003090       0x88 build/stm32f4_discovery.o
 .text.I2Cx_Init
                0x08003118       0x3c build/stm32f4_discovery.o
 .text.I2Cx_Error
                0x08003154       0x14 build/stm32f4_discovery.o
 .text.I2Cx_WriteData
                0x08003168       0x38 build/stm32f4_discovery.o
 .text.I2Cx_ReadData
                0x080031a0       0x40 build/stm32f4_discovery.o
 .text.AUDIO_IO_Init
                0x080031e0       0x64 build/stm32f4_discovery.o
                0x080031e0                AUDIO_IO_Init
 .text.AUDIO_IO_DeInit
                0x08003244        0x2 build/stm32f4_discovery.o
                0x08003244                AUDIO_IO_DeInit
 .text.AUDIO_IO_Write
                0x08003246        0x8 build/stm32f4_discovery.o
                0x08003246                AUDIO_IO_Write
 .text.AUDIO_IO_Read
                0x0800324e        0x8 build/stm32f4_discovery.o
                0x0800324e                AUDIO_IO_Read
 *fill*         0x08003256        0x2 
 .text.I2S3_Init
                0x08003258       0x40 build/stm32f4_discovery_audio.o
 .text.BSP_AUDIO_OUT_Play
                0x08003298       0x40 build/stm32f4_discovery_audio.o
                0x08003298                BSP_AUDIO_OUT_Play
 .text.BSP_AUDIO_OUT_ChangeBuffer
                0x080032d8       0x14 build/stm32f4_discovery_audio.o
                0x080032d8                BSP_AUDIO_OUT_ChangeBuffer
 .text.BSP_AUDIO_OUT_Pause
                0x080032ec       0x24 build/stm32f4_discovery_audio.o
                0x080032ec                BSP_AUDIO_OUT_Pause
 .text.BSP_AUDIO_OUT_Resume
                0x08003310       0x24 build/stm32f4_discovery_audio.o
                0x08003310                BSP_AUDIO_OUT_Resume
 .text.BSP_AUDIO_OUT_Stop
                0x08003334       0x44 build/stm32f4_discovery_audio.o
                0x08003334                BSP_AUDIO_OUT_Stop
 .text.BSP_AUDIO_OUT_ClockConfig
                0x08003378       0x6c build/stm32f4_discovery_audio.o
                0x08003378                BSP_AUDIO_OUT_ClockConfig
 .text.BSP_AUDIO_OUT_MspInit
                0x080033e4      0x11c build/stm32f4_discovery_audio.o
                0x080033e4                BSP_AUDIO_OUT_MspInit
 .text.BSP_AUDIO_OUT_Init
                0x08003500       0x80 build/stm32f4_discovery_audio.o
                0x08003500                BSP_AUDIO_OUT_Init
 .text.HAL_I2S_TxCpltCallback
                0x08003580       0x18 build/stm32f4_discovery_audio.o
                0x08003580                HAL_I2S_TxCpltCallback
 .text.HAL_I2S_TxHalfCpltCallback
                0x08003598       0x18 build/stm32f4_discovery_audio.o
                0x08003598                HAL_I2S_TxHalfCpltCallback
 .text.BSP_AUDIO_IN_TransferComplete_CallBack
                0x080035b0        0x2 build/stm32f4_discovery_audio.o
                0x080035b0                BSP_AUDIO_IN_TransferComplete_CallBack
 .text.HAL_I2S_RxCpltCallback
                0x080035b2        0x8 build/stm32f4_discovery_audio.o
                0x080035b2                HAL_I2S_RxCpltCallback
 .text.BSP_AUDIO_IN_Error_Callback
                0x080035ba        0x2 build/stm32f4_discovery_audio.o
                0x080035ba                BSP_AUDIO_IN_Error_Callback
 .text.HAL_I2S_ErrorCallback
                0x080035bc       0x2c build/stm32f4_discovery_audio.o
                0x080035bc                HAL_I2S_ErrorCallback
 .text.HAL_I2SEx_TxRxCpltCallback
                0x080035e8        0x2 build/stm32f4xx_hal_i2s_ex.o
                0x080035e8                HAL_I2SEx_TxRxCpltCallback
 *fill*         0x080035ea        0x2 
 .text.I2SEx_FullDuplexTx_IT
                0x080035ec       0xa4 build/stm32f4xx_hal_i2s_ex.o
 .text.I2SEx_FullDuplexRx_IT
                0x08003690       0xa4 build/stm32f4xx_hal_i2s_ex.o
 .text.HAL_I2SEx_FullDuplex_IRQHandler
                0x08003734      0x208 build/stm32f4xx_hal_i2s_ex.o
                0x08003734                HAL_I2SEx_FullDuplex_IRQHandler
 .text.USBH_GetFreePipe
                0x0800393c       0x26 build/usbh_pipes.o
 .text.USBH_OpenPipe
                0x08003962       0x20 build/usbh_pipes.o
                0x08003962                USBH_OpenPipe
 .text.USBH_ClosePipe
                0x08003982        0xa build/usbh_pipes.o
                0x08003982                USBH_ClosePipe
 .text.USBH_AllocPipe
                0x0800398c       0x24 build/usbh_pipes.o
                0x0800398c                USBH_AllocPipe
 .text.USBH_FreePipe
                0x080039b0       0x16 build/usbh_pipes.o
                0x080039b0                USBH_FreePipe
 .text.USBH_MSC_SCSI_TestUnitReady
                0x080039c6       0x4a build/usbh_msc_scsi.o
                0x080039c6                USBH_MSC_SCSI_TestUnitReady
 .text.USBH_MSC_SCSI_ReadCapacity
                0x08003a10       0x88 build/usbh_msc_scsi.o
                0x08003a10                USBH_MSC_SCSI_ReadCapacity
 .text.USBH_MSC_SCSI_Inquiry
                0x08003a98       0xd0 build/usbh_msc_scsi.o
                0x08003a98                USBH_MSC_SCSI_Inquiry
 .text.USBH_MSC_SCSI_RequestSense
                0x08003b68       0x96 build/usbh_msc_scsi.o
                0x08003b68                USBH_MSC_SCSI_RequestSense
 .text.USBH_MSC_SCSI_Write
                0x08003bfe       0x8a build/usbh_msc_scsi.o
                0x08003bfe                USBH_MSC_SCSI_Write
 .text.USBH_MSC_SCSI_Read
                0x08003c88       0x8c build/usbh_msc_scsi.o
                0x08003c88                USBH_MSC_SCSI_Read
 .text.ld_word  0x08003d14        0xa build/ff.o
 .text.ld_dword
                0x08003d1e       0x16 build/ff.o
 .text.st_word  0x08003d34        0x8 build/ff.o
 .text.st_dword
                0x08003d3c       0x14 build/ff.o
 .text.mem_cpy  0x08003d50       0x12 build/ff.o
 .text.mem_set  0x08003d62        0xa build/ff.o
 .text.mem_cmp  0x08003d6c       0x1e build/ff.o
 .text.chk_chr  0x08003d8a       0x10 build/ff.o
 *fill*         0x08003d9a        0x2 
 .text.chk_lock
                0x08003d9c       0x74 build/ff.o
 .text.enq_lock
                0x08003e10       0x20 build/ff.o
 .text.inc_lock
                0x08003e30       0xa4 build/ff.o
 .text.dec_lock
                0x08003ed4       0x40 build/ff.o
 .text.clear_lock
                0x08003f14       0x3c build/ff.o
 .text.clust2sect
                0x08003f50       0x18 build/ff.o
 .text.clmt_clust
                0x08003f68       0x22 build/ff.o
 .text.ld_clust
                0x08003f8a       0x26 build/ff.o
 .text.st_clust
                0x08003fb0       0x26 build/ff.o
 *fill*         0x08003fd6        0x2 
 .text.create_name
                0x08003fd8       0xd4 build/ff.o
 .text.get_ldnumber
                0x080040ac       0x54 build/ff.o
 .text.lock_fs  0x08004100       0x1a build/ff.o
 .text.validate
                0x0800411a       0x40 build/ff.o
 .text.sync_window
                0x0800415a       0x54 build/ff.o
 .text.move_window
                0x080041ae       0x36 build/ff.o
 .text.check_fs
                0x080041e4       0x7c build/ff.o
 .text.find_volume
                0x08004260      0x2dc build/ff.o
 .text.put_fat  0x0800453c      0x10a build/ff.o
 .text.get_fat  0x08004646       0xce build/ff.o
 .text.dir_sdi  0x08004714       0xb0 build/ff.o
 .text.create_chain
                0x080047c4       0xc4 build/ff.o
 .text.remove_chain
                0x08004888       0x7e build/ff.o
 .text.dir_next
                0x08004906      0x11e build/ff.o
 .text.dir_find
                0x08004a24       0x5a build/ff.o
 .text.follow_path
                0x08004a7e       0x8c build/ff.o
 .text.dir_alloc
                0x08004b0a       0x50 build/ff.o
 .text.dir_register
                0x08004b5a       0x3e build/ff.o
 .text.unlock_fs
                0x08004b98       0x1a build/ff.o
 *fill*         0x08004bb2        0x2 
 .text.sync_fs  0x08004bb4       0x8c build/ff.o
 .text.f_mount  0x08004c40       0x88 build/ff.o
                0x08004c40                f_mount
 .text.f_open   0x08004cc8      0x236 build/ff.o
                0x08004cc8                f_open
 .text.f_read   0x08004efe      0x1d6 build/ff.o
                0x08004efe                f_read
 .text.f_sync   0x080050d4       0xb0 build/ff.o
                0x080050d4                f_sync
 .text.f_close  0x08005184       0x3a build/ff.o
                0x08005184                f_close
 .text.f_lseek  0x080051be      0x306 build/ff.o
                0x080051be                f_lseek
 .text.wait_for_char
                0x080054c4       0x28 build/main.o
 .text.print_char
                0x080054ec       0x20 build/main.o
 .text.fd_fetch
                0x0800550c       0x16 build/main.o
 *fill*         0x08005522        0x2 
 .text.MX_GPIO_Init
                0x08005524      0x14c build/main.o
 .text.mp3_decoder_fill_buffer
                0x08005670       0x44 build/main.o
 .text._sbrk_r  0x080056b4       0x48 build/main.o
                0x080056b4                _sbrk_r
 .text._read_r  0x080056fc       0x1c build/main.o
                0x080056fc                _read_r
 .text._write_r
                0x08005718       0x1c build/main.o
                0x08005718                _write_r
 .text.WavePlayerStop
                0x08005734        0xa build/main.o
                0x08005734                WavePlayerStop
 .text.WavePlayerPauseResume
                0x0800573e       0x10 build/main.o
                0x0800573e                WavePlayerPauseResume
 .text.WavePlayerInit
                0x0800574e        0xe build/main.o
                0x0800574e                WavePlayerInit
 .text.BSP_AUDIO_OUT_HalfTransfer_CallBack
                0x0800575c        0xc build/main.o
                0x0800575c                BSP_AUDIO_OUT_HalfTransfer_CallBack
 .text.BSP_AUDIO_OUT_TransferComplete_CallBack
                0x08005768       0x1c build/main.o
                0x08005768                BSP_AUDIO_OUT_TransferComplete_CallBack
 .text.BSP_AUDIO_OUT_Error_CallBack
                0x08005784        0x2 build/main.o
                0x08005784                BSP_AUDIO_OUT_Error_CallBack
 *fill*         0x08005786        0x2 
 .text.mp3_decoder_init
                0x08005788       0x24 build/main.o
                0x08005788                mp3_decoder_init
 .text.mp3_decoder_run_internal
                0x080057ac       0xf4 build/main.o
                0x080057ac                mp3_decoder_run_internal
 .text.mp3_decoder_detach
                0x080058a0        0xa build/main.o
                0x080058a0                mp3_decoder_detach
 .text.mp3_decoder_create
                0x080058aa       0x14 build/main.o
                0x080058aa                mp3_decoder_create
 .text.mp3_decoder_delete
                0x080058be       0x10 build/main.o
                0x080058be                mp3_decoder_delete
 *fill*         0x080058ce        0x2 
 .text.mp3_decoder_run
                0x080058d0       0x44 build/main.o
                0x080058d0                mp3_decoder_run
 .text.ProvideAudioBuffer
                0x08005914       0x28 build/main.o
                0x08005914                ProvideAudioBuffer
 .text.mp3_callback
                0x0800593c       0x24 build/main.o
 .text.HAL_TIM_PeriodElapsedCallback
                0x08005960       0x18 build/main.o
                0x08005960                HAL_TIM_PeriodElapsedCallback
 .text._Error_Handler
                0x08005978        0x2 build/main.o
                0x08005978                _Error_Handler
 *fill*         0x0800597a        0x2 
 .text.WavePlayBack
                0x0800597c      0x168 build/main.o
                0x0800597c                WavePlayBack
 .text.StartDefaultTask
                0x08005ae4      0x198 build/main.o
                0x08005ae4                StartDefaultTask
 .text.MX_USART2_UART_Init
                0x08005c7c       0x3c build/main.o
 .text.MX_I2C1_Init
                0x08005cb8       0x44 build/main.o
 .text.MX_SPI1_Init
                0x08005cfc       0x48 build/main.o
 .text.MX_RNG_Init
                0x08005d44       0x28 build/main.o
 .text.MX_I2S2_Init
                0x08005d6c       0x40 build/main.o
 .text.MX_I2S3_Init
                0x08005dac       0x40 build/main.o
 .text.SystemClock_Config
                0x08005dec       0xe8 build/main.o
                0x08005dec                SystemClock_Config
 .text.main     0x08005ed4       0x50 build/main.o
                0x08005ed4                main
 .text.DeInitStateMachine
                0x08005f24       0x4c build/usbh_core.o
 .text.USBH_HandleSof
                0x08005f70       0x1a build/usbh_core.o
 .text.USBH_HandleEnum
                0x08005f8a      0x1a2 build/usbh_core.o
 .text.USBH_Init
                0x0800612c       0x68 build/usbh_core.o
                0x0800612c                USBH_Init
 .text.USBH_RegisterClass
                0x08006194       0x22 build/usbh_core.o
                0x08006194                USBH_RegisterClass
 .text.USBH_SelectInterface
                0x080061b6       0x14 build/usbh_core.o
                0x080061b6                USBH_SelectInterface
 .text.USBH_FindInterface
                0x080061ca       0x52 build/usbh_core.o
                0x080061ca                USBH_FindInterface
 .text.USBH_Start
                0x0800621c       0x14 build/usbh_core.o
                0x0800621c                USBH_Start
 .text.USBH_Process
                0x08006230      0x1ce build/usbh_core.o
                0x08006230                USBH_Process
 .text.USBH_Process_OS
                0x080063fe       0x22 build/usbh_core.o
 .text.USBH_LL_SetTimer
                0x08006420        0x6 build/usbh_core.o
                0x08006420                USBH_LL_SetTimer
 .text.USBH_LL_IncTimer
                0x08006426       0x12 build/usbh_core.o
                0x08006426                USBH_LL_IncTimer
 .text.USBH_LL_Connect
                0x08006438       0x36 build/usbh_core.o
                0x08006438                USBH_LL_Connect
 .text.USBH_LL_Disconnect
                0x0800646e       0x44 build/usbh_core.o
                0x0800646e                USBH_LL_Disconnect
 .text.USBH_LL_NotifyURBChange
                0x080064b2       0x12 build/usbh_core.o
                0x080064b2                USBH_LL_NotifyURBChange
 .text.prvIsQueueFull
                0x080064c4       0x1e build/queue.o
 .text.prvIsQueueEmpty
                0x080064e2       0x1a build/queue.o
 .text.prvCopyDataToQueue
                0x080064fc       0x76 build/queue.o
 .text.prvCopyDataFromQueue
                0x08006572       0x24 build/queue.o
 .text.prvUnlockQueue
                0x08006596       0x6e build/queue.o
 .text.xQueueGenericReset
                0x08006604       0x80 build/queue.o
                0x08006604                xQueueGenericReset
 .text.prvInitialiseNewQueue
                0x08006684       0x1c build/queue.o
 .text.xQueueGenericCreate
                0x080066a0       0x48 build/queue.o
                0x080066a0                xQueueGenericCreate
 .text.xQueueGenericSend
                0x080066e8      0x188 build/queue.o
                0x080066e8                xQueueGenericSend
 .text.xQueueGenericSendFromISR
                0x08006870       0xde build/queue.o
                0x08006870                xQueueGenericSendFromISR
 .text.xQueueGiveFromISR
                0x0800694e       0xbc build/queue.o
                0x0800694e                xQueueGiveFromISR
 *fill*         0x08006a0a        0x2 
 .text.xQueueGenericReceive
                0x08006a0c      0x1b0 build/queue.o
                0x08006a0c                xQueueGenericReceive
 .text.xQueueReceiveFromISR
                0x08006bbc       0xb6 build/queue.o
                0x08006bbc                xQueueReceiveFromISR
 *fill*         0x08006c72        0x2 
 .text.vQueueUnregisterQueue
                0x08006c74       0x2c build/queue.o
                0x08006c74                vQueueUnregisterQueue
 .text.vQueueDelete
                0x08006ca0       0x24 build/queue.o
                0x08006ca0                vQueueDelete
 .text.HCD_RXQLVL_IRQHandler
                0x08006cc4       0x7c build/stm32f4xx_hal_hcd.o
 .text.HAL_HCD_HC_Init
                0x08006d40       0x72 build/stm32f4xx_hal_hcd.o
                0x08006d40                HAL_HCD_HC_Init
 .text.HAL_HCD_HC_Halt
                0x08006db2       0x24 build/stm32f4xx_hal_hcd.o
                0x08006db2                HAL_HCD_HC_Halt
 .text.HAL_HCD_Init
                0x08006dd6       0x78 build/stm32f4xx_hal_hcd.o
                0x08006dd6                HAL_HCD_Init
 .text.HAL_HCD_HC_SubmitRequest
                0x08006e4e      0x1cc build/stm32f4xx_hal_hcd.o
                0x08006e4e                HAL_HCD_HC_SubmitRequest
 .text.HCD_Port_IRQHandler
                0x0800701a       0xc8 build/stm32f4xx_hal_hcd.o
 .text.HCD_HC_IN_IRQHandler
                0x080070e2      0x28c build/stm32f4xx_hal_hcd.o
 .text.HCD_HC_OUT_IRQHandler
                0x0800736e      0x2a4 build/stm32f4xx_hal_hcd.o
 .text.HAL_HCD_IRQHandler
                0x08007612      0x142 build/stm32f4xx_hal_hcd.o
                0x08007612                HAL_HCD_IRQHandler
 .text.HAL_HCD_Start
                0x08007754       0x2c build/stm32f4xx_hal_hcd.o
                0x08007754                HAL_HCD_Start
 .text.HAL_HCD_Stop
                0x08007780       0x24 build/stm32f4xx_hal_hcd.o
                0x08007780                HAL_HCD_Stop
 .text.HAL_HCD_ResetPort
                0x080077a4        0xa build/stm32f4xx_hal_hcd.o
                0x080077a4                HAL_HCD_ResetPort
 .text.HAL_HCD_HC_GetURBState
                0x080077ae        0xe build/stm32f4xx_hal_hcd.o
                0x080077ae                HAL_HCD_HC_GetURBState
 .text.HAL_HCD_HC_GetXferCount
                0x080077bc        0xc build/stm32f4xx_hal_hcd.o
                0x080077bc                HAL_HCD_HC_GetXferCount
 .text.HAL_HCD_GetCurrentFrame
                0x080077c8        0xa build/stm32f4xx_hal_hcd.o
                0x080077c8                HAL_HCD_GetCurrentFrame
 .text.HAL_HCD_GetCurrentSpeed
                0x080077d2        0xa build/stm32f4xx_hal_hcd.o
                0x080077d2                HAL_HCD_GetCurrentSpeed
 .text.DMA_SetConfig
                0x080077dc       0x2c build/stm32f4xx_hal_dma.o
 .text.DMA_CalcBaseAndBitshift
                0x08007808       0x3c build/stm32f4xx_hal_dma.o
 .text.DMA_CheckFifoParam
                0x08007844       0x8e build/stm32f4xx_hal_dma.o
 *fill*         0x080078d2        0x2 
 .text.HAL_DMA_Init
                0x080078d4       0xd0 build/stm32f4xx_hal_dma.o
                0x080078d4                HAL_DMA_Init
 .text.HAL_DMA_DeInit
                0x080079a4       0x58 build/stm32f4xx_hal_dma.o
                0x080079a4                HAL_DMA_DeInit
 .text.HAL_DMA_Start_IT
                0x080079fc       0x74 build/stm32f4xx_hal_dma.o
                0x080079fc                HAL_DMA_Start_IT
 .text.HAL_DMA_Abort
                0x08007a70       0x94 build/stm32f4xx_hal_dma.o
                0x08007a70                HAL_DMA_Abort
 .text.HAL_DMA_IRQHandler
                0x08007b04      0x1dc build/stm32f4xx_hal_dma.o
                0x08007b04                HAL_DMA_IRQHandler
 .text.HL_Default_Handler
                0x08007ce0       0x10 build/stm32f4xx_it.o
                0x08007ce0                HL_Default_Handler
 .text.DMA1_Stream7_IRQHandler
                0x08007cf0       0x10 build/stm32f4xx_it.o
                0x08007cf0                DMA1_Stream7_IRQHandler
 .text.SysTick_Handler
                0x08007d00        0x8 build/stm32f4xx_it.o
                0x08007d00                SysTick_Handler
 .text.TIM1_TRG_COM_TIM11_IRQHandler
                0x08007d08       0x10 build/stm32f4xx_it.o
                0x08007d08                TIM1_TRG_COM_TIM11_IRQHandler
 .text.OTG_FS_IRQHandler
                0x08007d18       0x10 build/stm32f4xx_it.o
                0x08007d18                OTG_FS_IRQHandler
 .text.HAL_TIMEx_CommutationCallback
                0x08007d28        0x2 build/stm32f4xx_hal_tim_ex.o
                0x08007d28                HAL_TIMEx_CommutationCallback
 .text.HAL_TIMEx_BreakCallback
                0x08007d2a        0x2 build/stm32f4xx_hal_tim_ex.o
                0x08007d2a                HAL_TIMEx_BreakCallback
 .text.prvHeapInit
                0x08007d2c       0x64 build/heap_4.o
 .text.prvInsertBlockIntoFreeList
                0x08007d90       0x58 build/heap_4.o
 .text.pvPortMalloc
                0x08007de8      0x108 build/heap_4.o
                0x08007de8                pvPortMalloc
 .text.vPortFree
                0x08007ef0       0x70 build/heap_4.o
                0x08007ef0                vPortFree
 .text.USBH_MSC_DecodeCSW
                0x08007f60       0x50 build/usbh_msc_bot.o
 .text.USBH_MSC_BOT_Abort
                0x08007fb0       0x22 build/usbh_msc_bot.o
 .text.USBH_MSC_BOT_REQ_Reset
                0x08007fd2       0x1a build/usbh_msc_bot.o
                0x08007fd2                USBH_MSC_BOT_REQ_Reset
 .text.USBH_MSC_BOT_REQ_GetMaxLUN
                0x08007fec       0x1a build/usbh_msc_bot.o
                0x08007fec                USBH_MSC_BOT_REQ_GetMaxLUN
 *fill*         0x08008006        0x2 
 .text.USBH_MSC_BOT_Init
                0x08008008       0x24 build/usbh_msc_bot.o
                0x08008008                USBH_MSC_BOT_Init
 .text.USBH_MSC_BOT_Process
                0x0800802c      0x2d2 build/usbh_msc_bot.o
                0x0800802c                USBH_MSC_BOT_Process
 .text.USB_CoreInit
                0x080082fe       0x7c build/stm32f4xx_ll_usb.o
                0x080082fe                USB_CoreInit
 .text.USB_EnableGlobalInt
                0x0800837a        0xc build/stm32f4xx_ll_usb.o
                0x0800837a                USB_EnableGlobalInt
 .text.USB_DisableGlobalInt
                0x08008386        0xc build/stm32f4xx_ll_usb.o
                0x08008386                USB_DisableGlobalInt
 .text.USB_SetCurrentMode
                0x08008392       0x2c build/stm32f4xx_ll_usb.o
                0x08008392                USB_SetCurrentMode
 *fill*         0x080083be        0x2 
 .text.USB_FlushTxFifo
                0x080083c0       0x28 build/stm32f4xx_ll_usb.o
                0x080083c0                USB_FlushTxFifo
 .text.USB_FlushRxFifo
                0x080083e8       0x24 build/stm32f4xx_ll_usb.o
                0x080083e8                USB_FlushRxFifo
 .text.USB_WritePacket
                0x0800840c       0x28 build/stm32f4xx_ll_usb.o
                0x0800840c                USB_WritePacket
 .text.USB_ReadPacket
                0x08008434       0x28 build/stm32f4xx_ll_usb.o
                0x08008434                USB_ReadPacket
 .text.USB_ReadInterrupts
                0x0800845c        0x8 build/stm32f4xx_ll_usb.o
                0x0800845c                USB_ReadInterrupts
 .text.USB_GetMode
                0x08008464        0x8 build/stm32f4xx_ll_usb.o
                0x08008464                USB_GetMode
 .text.USB_CoreReset
                0x0800846c       0x3c build/stm32f4xx_ll_usb.o
 .text.USB_HostInit
                0x080084a8       0xec build/stm32f4xx_ll_usb.o
                0x080084a8                USB_HostInit
 .text.USB_InitFSLSPClkSel
                0x08008594       0x40 build/stm32f4xx_ll_usb.o
                0x08008594                USB_InitFSLSPClkSel
 .text.USB_ResetPort
                0x080085d4       0x34 build/stm32f4xx_ll_usb.o
                0x080085d4                USB_ResetPort
 .text.USB_DriveVbus
                0x08008608       0x42 build/stm32f4xx_ll_usb.o
                0x08008608                USB_DriveVbus
 .text.USB_GetHostSpeed
                0x0800864a       0x12 build/stm32f4xx_ll_usb.o
                0x0800864a                USB_GetHostSpeed
 .text.USB_GetCurrentFrame
                0x0800865c        0xa build/stm32f4xx_ll_usb.o
                0x0800865c                USB_GetCurrentFrame
 .text.USB_HC_Init
                0x08008666       0xea build/stm32f4xx_ll_usb.o
                0x08008666                USB_HC_Init
 .text.USB_HC_StartXfer
                0x08008750      0x27c build/stm32f4xx_ll_usb.o
                0x08008750                USB_HC_StartXfer
 .text.USB_HC_ReadInterrupt
                0x080089cc       0x1e build/stm32f4xx_ll_usb.o
                0x080089cc                USB_HC_ReadInterrupt
 .text.USB_HC_Halt
                0x080089ea      0x1d2 build/stm32f4xx_ll_usb.o
                0x080089ea                USB_HC_Halt
 .text.USB_DoPing
                0x08008bbc       0x78 build/stm32f4xx_ll_usb.o
                0x08008bbc                USB_DoPing
 .text.USB_StopHost
                0x08008c34      0x108 build/stm32f4xx_ll_usb.o
                0x08008c34                USB_StopHost
 .text.prvTaskExitError
                0x08008d3c       0x34 build/port.o
 .text.prvPortStartFirstTask
                0x08008d70       0x20 build/port.o
 .text.vPortEnableVFP
                0x08008d90       0x14 build/port.o
 .text.pxPortInitialiseStack
                0x08008da4       0x2c build/port.o
                0x08008da4                pxPortInitialiseStack
 .text.SVC_Handler
                0x08008dd0       0x24 build/port.o
                0x08008dd0                SVC_Handler
 .text.vPortEnterCritical
                0x08008df4       0x44 build/port.o
                0x08008df4                vPortEnterCritical
 .text.vPortExitCritical
                0x08008e38       0x2c build/port.o
                0x08008e38                vPortExitCritical
 *fill*         0x08008e64        0xc 
 .text.PendSV_Handler
                0x08008e70       0x64 build/port.o
                0x08008e70                PendSV_Handler
 .text.xPortSysTickHandler
                0x08008ed4       0x2c build/port.o
                0x08008ed4                xPortSysTickHandler
 .text.vPortSetupTimerInterrupt
                0x08008f00       0x2c build/port.o
                0x08008f00                vPortSetupTimerInterrupt
 .text.xPortStartScheduler
                0x08008f2c       0xec build/port.o
                0x08008f2c                xPortStartScheduler
 .text.vPortValidateInterruptPriority
                0x08009018       0x5c build/port.o
                0x08009018                vPortValidateInterruptPriority
 .text.I2C_IsAcknowledgeFailed
                0x08009074       0x2a build/stm32f4xx_hal_i2c.o
 .text.I2C_WaitOnFlagUntilTimeout
                0x0800909e       0x68 build/stm32f4xx_hal_i2c.o
 .text.I2C_WaitOnMasterAddressFlagUntilTimeout
                0x08009106       0x90 build/stm32f4xx_hal_i2c.o
 .text.I2C_WaitOnTXEFlagUntilTimeout
                0x08009196       0x4e build/stm32f4xx_hal_i2c.o
 .text.I2C_RequestMemoryWrite
                0x080091e4       0xd4 build/stm32f4xx_hal_i2c.o
 .text.I2C_RequestMemoryRead
                0x080092b8      0x148 build/stm32f4xx_hal_i2c.o
 .text.I2C_WaitOnBTFFlagUntilTimeout
                0x08009400       0x4e build/stm32f4xx_hal_i2c.o
 .text.I2C_WaitOnRXNEFlagUntilTimeout
                0x0800944e       0x5c build/stm32f4xx_hal_i2c.o
 *fill*         0x080094aa        0x2 
 .text.HAL_I2C_Init
                0x080094ac      0x11c build/stm32f4xx_hal_i2c.o
                0x080094ac                HAL_I2C_Init
 .text.HAL_I2C_DeInit
                0x080095c8       0x32 build/stm32f4xx_hal_i2c.o
                0x080095c8                HAL_I2C_DeInit
 *fill*         0x080095fa        0x2 
 .text.HAL_I2C_Mem_Write
                0x080095fc      0x17c build/stm32f4xx_hal_i2c.o
                0x080095fc                HAL_I2C_Mem_Write
 .text.HAL_I2C_Mem_Read
                0x08009778      0x2f4 build/stm32f4xx_hal_i2c.o
                0x08009778                HAL_I2C_Mem_Read
 .text.HAL_I2C_GetState
                0x08009a6c        0x6 build/stm32f4xx_hal_i2c.o
                0x08009a6c                HAL_I2C_GetState
 .text.USBH_ParseDevDesc
                0x08009a72       0x5c build/usbh_ctlreq.o
 .text.USBH_ParseInterfaceDesc
                0x08009ace       0x26 build/usbh_ctlreq.o
 .text.USBH_ParseEPDesc
                0x08009af4       0x20 build/usbh_ctlreq.o
 .text.USBH_ParseStringDesc
                0x08009b14       0x34 build/usbh_ctlreq.o
 .text.USBH_HandleControl
                0x08009b48      0x288 build/usbh_ctlreq.o
 .text.USBH_GetNextDesc
                0x08009dd0        0xe build/usbh_ctlreq.o
                0x08009dd0                USBH_GetNextDesc
 .text.USBH_ParseCfgDesc
                0x08009dde       0xc8 build/usbh_ctlreq.o
 .text.USBH_CtlReq
                0x08009ea6       0x4a build/usbh_ctlreq.o
                0x08009ea6                USBH_CtlReq
 .text.USBH_GetDescriptor
                0x08009ef0       0x3c build/usbh_ctlreq.o
                0x08009ef0                USBH_GetDescriptor
 .text.USBH_Get_DevDesc
                0x08009f2c       0x32 build/usbh_ctlreq.o
                0x08009f2c                USBH_Get_DevDesc
 .text.USBH_Get_CfgDesc
                0x08009f5e       0x32 build/usbh_ctlreq.o
                0x08009f5e                USBH_Get_CfgDesc
 .text.USBH_Get_StringDesc
                0x08009f90       0x30 build/usbh_ctlreq.o
                0x08009f90                USBH_Get_StringDesc
 .text.USBH_SetAddress
                0x08009fc0       0x22 build/usbh_ctlreq.o
                0x08009fc0                USBH_SetAddress
 .text.USBH_SetCfg
                0x08009fe2       0x22 build/usbh_ctlreq.o
                0x08009fe2                USBH_SetCfg
 .text.USBH_ClrFeature
                0x0800a004       0x24 build/usbh_ctlreq.o
                0x0800a004                USBH_ClrFeature
 .text.HAL_RCCEx_PeriphCLKConfig
                0x0800a028      0x154 build/stm32f4xx_hal_rcc_ex.o
                0x0800a028                HAL_RCCEx_PeriphCLKConfig
 .text.HAL_RCCEx_GetPeriphCLKConfig
                0x0800a17c       0x30 build/stm32f4xx_hal_rcc_ex.o
                0x0800a17c                HAL_RCCEx_GetPeriphCLKConfig
 .text.HAL_RCCEx_GetPeriphCLKFreq
                0x0800a1ac       0x74 build/stm32f4xx_hal_rcc_ex.o
                0x0800a1ac                HAL_RCCEx_GetPeriphCLKFreq
 .text.USBH_initialize
                0x0800a220        0x4 build/usbh_diskio.o
                0x0800a220                USBH_initialize
 .text.USBH_status
                0x0800a224       0x18 build/usbh_diskio.o
                0x0800a224                USBH_status
 .text.USBH_read
                0x0800a23c       0x40 build/usbh_diskio.o
                0x0800a23c                USBH_read
 .text.USBH_ioctl
                0x0800a27c       0x68 build/usbh_diskio.o
                0x0800a27c                USBH_ioctl
 .text.USBH_write
                0x0800a2e4       0x4c build/usbh_diskio.o
                0x0800a2e4                USBH_write
 .text.HAL_SPI_Init
                0x0800a330       0x80 build/stm32f4xx_hal_spi.o
                0x0800a330                HAL_SPI_Init
 .text.disk_status
                0x0800a3b0       0x18 build/diskio.o
                0x0800a3b0                disk_status
 .text.disk_initialize
                0x0800a3c8       0x28 build/diskio.o
                0x0800a3c8                disk_initialize
 .text.disk_read
                0x0800a3f0       0x18 build/diskio.o
                0x0800a3f0                disk_read
 .text.disk_write
                0x0800a408       0x18 build/diskio.o
                0x0800a408                disk_write
 .text.disk_ioctl
                0x0800a420       0x18 build/diskio.o
                0x0800a420                disk_ioctl
 .text.USBH_CtlSendSetup
                0x0800a438       0x22 build/usbh_ioreq.o
                0x0800a438                USBH_CtlSendSetup
 .text.USBH_CtlSendData
                0x0800a45a       0x2c build/usbh_ioreq.o
                0x0800a45a                USBH_CtlSendData
 .text.USBH_CtlReceiveData
                0x0800a486       0x20 build/usbh_ioreq.o
                0x0800a486                USBH_CtlReceiveData
 .text.USBH_BulkSendData
                0x0800a4a6       0x2c build/usbh_ioreq.o
                0x0800a4a6                USBH_BulkSendData
 .text.USBH_BulkReceiveData
                0x0800a4d2       0x20 build/usbh_ioreq.o
                0x0800a4d2                USBH_BulkReceiveData
 .text.HAL_MspInit
                0x0800a4f2       0x5e build/stm32f4xx_hal_msp.o
                0x0800a4f2                HAL_MspInit
 .text.HAL_I2C_MspInit
                0x0800a550       0x54 build/stm32f4xx_hal_msp.o
                0x0800a550                HAL_I2C_MspInit
 .text.HAL_I2C_MspDeInit
                0x0800a5a4       0x30 build/stm32f4xx_hal_msp.o
                0x0800a5a4                HAL_I2C_MspDeInit
 .text.HAL_I2S_MspInit
                0x0800a5d4       0xc0 build/stm32f4xx_hal_msp.o
                0x0800a5d4                HAL_I2S_MspInit
 .text.HAL_RNG_MspInit
                0x0800a694       0x30 build/stm32f4xx_hal_msp.o
                0x0800a694                HAL_RNG_MspInit
 .text.HAL_SPI_MspInit
                0x0800a6c4       0x50 build/stm32f4xx_hal_msp.o
                0x0800a6c4                HAL_SPI_MspInit
 .text.HAL_UART_MspInit
                0x0800a714       0x54 build/stm32f4xx_hal_msp.o
                0x0800a714                HAL_UART_MspInit
 .text.vListInitialise
                0x0800a768       0x16 build/list.o
                0x0800a768                vListInitialise
 .text.vListInitialiseItem
                0x0800a77e        0x6 build/list.o
                0x0800a77e                vListInitialiseItem
 .text.vListInsertEnd
                0x0800a784       0x18 build/list.o
                0x0800a784                vListInsertEnd
 .text.vListInsert
                0x0800a79c       0x34 build/list.o
                0x0800a79c                vListInsert
 .text.uxListRemove
                0x0800a7d0       0x26 build/list.o
                0x0800a7d0                uxListRemove
 *fill*         0x0800a7f6        0x2 
 .text.HAL_RCC_OscConfig
                0x0800a7f8      0x378 build/stm32f4xx_hal_rcc.o
                0x0800a7f8                HAL_RCC_OscConfig
 .text.HAL_RCC_GetSysClockFreq
                0x0800ab70       0xd4 build/stm32f4xx_hal_rcc.o
                0x0800ab70                HAL_RCC_GetSysClockFreq
 .text.HAL_RCC_ClockConfig
                0x0800ac44      0x158 build/stm32f4xx_hal_rcc.o
                0x0800ac44                HAL_RCC_ClockConfig
 .text.HAL_RCC_GetHCLKFreq
                0x0800ad9c        0xc build/stm32f4xx_hal_rcc.o
                0x0800ad9c                HAL_RCC_GetHCLKFreq
 .text.HAL_RCC_GetPCLK1Freq
                0x0800ada8       0x20 build/stm32f4xx_hal_rcc.o
                0x0800ada8                HAL_RCC_GetPCLK1Freq
 .text.HAL_RCC_GetPCLK2Freq
                0x0800adc8       0x20 build/stm32f4xx_hal_rcc.o
                0x0800adc8                HAL_RCC_GetPCLK2Freq
 .text.HAL_RCC_GetClockConfig
                0x0800ade8       0x3c build/stm32f4xx_hal_rcc.o
                0x0800ade8                HAL_RCC_GetClockConfig
 .text.MX_FATFS_Init
                0x0800ae24       0x1c build/fatfs.o
                0x0800ae24                MX_FATFS_Init
 .text.get_fattime
                0x0800ae40        0x4 build/fatfs.o
                0x0800ae40                get_fattime
 .text.ff_cre_syncobj
                0x0800ae44       0x20 build/syscall.o
                0x0800ae44                ff_cre_syncobj
 .text.ff_del_syncobj
                0x0800ae64        0xa build/syscall.o
                0x0800ae64                ff_del_syncobj
 .text.ff_req_grant
                0x0800ae6e       0x14 build/syscall.o
                0x0800ae6e                ff_req_grant
 .text.ff_rel_grant
                0x0800ae82        0x8 build/syscall.o
                0x0800ae82                ff_rel_grant
 .text.cs43l22_SetFrequency
                0x0800ae8a        0x4 build/cs43l22.o
                0x0800ae8a                cs43l22_SetFrequency
 .text.cs43l22_Reset
                0x0800ae8e        0x4 build/cs43l22.o
                0x0800ae8e                cs43l22_Reset
 .text.CODEC_IO_Write
                0x0800ae92        0xa build/cs43l22.o
 .text.cs43l22_SetVolume
                0x0800ae9c       0x64 build/cs43l22.o
                0x0800ae9c                cs43l22_SetVolume
 .text.cs43l22_Init
                0x0800af00       0xf8 build/cs43l22.o
                0x0800af00                cs43l22_Init
 .text.cs43l22_SetMute
                0x0800aff8       0x5c build/cs43l22.o
                0x0800aff8                cs43l22_SetMute
 .text.cs43l22_Play
                0x0800b054       0x40 build/cs43l22.o
                0x0800b054                cs43l22_Play
 .text.cs43l22_Pause
                0x0800b094       0x1a build/cs43l22.o
                0x0800b094                cs43l22_Pause
 *fill*         0x0800b0ae        0x2 
 .text.cs43l22_Resume
                0x0800b0b0       0x48 build/cs43l22.o
                0x0800b0b0                cs43l22_Resume
 .text.cs43l22_Stop
                0x0800b0f8       0x34 build/cs43l22.o
                0x0800b0f8                cs43l22_Stop
 .text.cs43l22_SetOutputMode
                0x0800b12c       0x70 build/cs43l22.o
                0x0800b12c                cs43l22_SetOutputMode
 .text.cs43l22_DeInit
                0x0800b19c        0x8 build/cs43l22.o
                0x0800b19c                cs43l22_DeInit
 .text.cs43l22_ReadID
                0x0800b1a4       0x16 build/cs43l22.o
                0x0800b1a4                cs43l22_ReadID
 .text.MP3ClearBadFrame
                0x0800b1ba       0x30 build/mp3dec.o
 .text.MP3InitDecoder
                0x0800b1ea        0x8 build/mp3dec.o
                0x0800b1ea                MP3InitDecoder
 .text.MP3FreeDecoder
                0x0800b1f2        0xc build/mp3dec.o
                0x0800b1f2                MP3FreeDecoder
 .text.MP3FindSyncWord
                0x0800b1fe       0x28 build/mp3dec.o
                0x0800b1fe                MP3FindSyncWord
 .text.MP3FindFreeSync
                0x0800b226       0x4e build/mp3dec.o
 .text.MP3GetLastFrameInfo
                0x0800b274       0x6c build/mp3dec.o
                0x0800b274                MP3GetLastFrameInfo
 .text.MP3Decode
                0x0800b2e0      0x2be build/mp3dec.o
                0x0800b2e0                MP3Decode
 .text.xmp3fixpt_SetBitstreamPointer
                0x0800b59e        0xc build/bitstream.o
                0x0800b59e                xmp3fixpt_SetBitstreamPointer
 .text.xmp3fixpt_GetBits
                0x0800b5aa       0xba build/bitstream.o
                0x0800b5aa                xmp3fixpt_GetBits
 .text.xmp3fixpt_CalcBitsUsed
                0x0800b664        0xe build/bitstream.o
                0x0800b664                xmp3fixpt_CalcBitsUsed
 .text.xmp3fixpt_CheckPadBit
                0x0800b672       0x1c build/bitstream.o
                0x0800b672                xmp3fixpt_CheckPadBit
 *fill*         0x0800b68e        0x2 
 .text.xmp3fixpt_UnpackFrameHeader
                0x0800b690      0x1fc build/bitstream.o
                0x0800b690                xmp3fixpt_UnpackFrameHeader
 .text.xmp3fixpt_UnpackSideInfo
                0x0800b88c      0x2ba build/bitstream.o
                0x0800b88c                xmp3fixpt_UnpackSideInfo
 .text.ClearBuffer
                0x0800bb46       0x10 build/buffers.o
 *fill*         0x0800bb56        0x2 
 .text.xmp3fixpt_AllocateBuffers
                0x0800bb58       0x98 build/buffers.o
                0x0800bb58                xmp3fixpt_AllocateBuffers
 .text.xmp3fixpt_FreeBuffers
                0x0800bbf0        0x2 build/buffers.o
                0x0800bbf0                xmp3fixpt_FreeBuffers
 *fill*         0x0800bbf2        0x2 
 .text.xmp3fixpt_FDCT32
                0x0800bbf4      0x6cc build/dct32.o
                0x0800bbf4                xmp3fixpt_FDCT32
 .text.xmp3fixpt_Dequantize
                0x0800c2c0      0x288 build/dequant.o
                0x0800c2c0                xmp3fixpt_Dequantize
 .text.DequantBlock
                0x0800c548      0x174 build/dqchan.o
 .text.xmp3fixpt_DequantChannel
                0x0800c6bc      0x220 build/dqchan.o
                0x0800c6bc                xmp3fixpt_DequantChannel
 .text.DecodeHuffmanPairs
                0x0800c8dc      0x380 build/huffman.o
 .text.DecodeHuffmanQuads
                0x0800cc5c      0x164 build/huffman.o
 .text.xmp3fixpt_DecodeHuffman
                0x0800cdc0      0x28c build/huffman.o
                0x0800cdc0                xmp3fixpt_DecodeHuffman
 .text.AntiAlias
                0x0800d04c      0x1ac build/imdct.o
 .text.WinPrevious
                0x0800d1f8      0x154 build/imdct.o
 .text.FreqInvertRescale
                0x0800d34c      0x166 build/imdct.o
 *fill*         0x0800d4b2        0x2 
 .text.IMDCT12x3
                0x0800d4b4      0x3f0 build/imdct.o
 .text.IMDCT36  0x0800d8a4      0x484 build/imdct.o
 .text.HybridTransform
                0x0800dd28      0x166 build/imdct.o
 *fill*         0x0800de8e        0x2 
 .text.xmp3fixpt_IMDCT
                0x0800de90      0x1cc build/imdct.o
                0x0800de90                xmp3fixpt_IMDCT
 .text.xmp3fixpt_PolyphaseMono
                0x0800e05c      0x2e2 build/polyphase.o
                0x0800e05c                xmp3fixpt_PolyphaseMono
 .text.xmp3fixpt_PolyphaseStereo
                0x0800e33e      0x548 build/polyphase.o
                0x0800e33e                xmp3fixpt_PolyphaseStereo
 *fill*         0x0800e886        0x2 
 .text.UnpackSFMPEG1
                0x0800e888      0x18c build/scalfact.o
 .text.UnpackSFMPEG2
                0x0800ea14      0x294 build/scalfact.o
 .text.xmp3fixpt_UnpackScaleFactors
                0x0800eca8      0x132 build/scalfact.o
                0x0800eca8                xmp3fixpt_UnpackScaleFactors
 .text.xmp3fixpt_MidSideProc
                0x0800edda       0x56 build/stproc.o
                0x0800edda                xmp3fixpt_MidSideProc
 .text.xmp3fixpt_IntensityProcMPEG1
                0x0800ee30      0x2b0 build/stproc.o
                0x0800ee30                xmp3fixpt_IntensityProcMPEG1
 .text.xmp3fixpt_IntensityProcMPEG2
                0x0800f0e0      0x254 build/stproc.o
                0x0800f0e0                xmp3fixpt_IntensityProcMPEG2
 .text.xmp3fixpt_Subband
                0x0800f334      0x110 build/subband.o
                0x0800f334                xmp3fixpt_Subband
 .text.Reset_Handler
                0x0800f444       0x50 build/startup_stm32f407xx.o
                0x0800f444                Reset_Handler
 .text.Default_Handler
                0x0800f494        0x4 build/startup_stm32f407xx.o
                0x0800f494                RTC_Alarm_IRQHandler
                0x0800f494                HASH_RNG_IRQHandler
                0x0800f494                EXTI2_IRQHandler
                0x0800f494                TIM8_CC_IRQHandler
                0x0800f494                DebugMon_Handler
                0x0800f494                TIM1_CC_IRQHandler
                0x0800f494                DMA2_Stream5_IRQHandler
                0x0800f494                HardFault_Handler
                0x0800f494                DMA1_Stream5_IRQHandler
                0x0800f494                PVD_IRQHandler
                0x0800f494                SDIO_IRQHandler
                0x0800f494                TAMP_STAMP_IRQHandler
                0x0800f494                NMI_Handler
                0x0800f494                CAN2_RX1_IRQHandler
                0x0800f494                EXTI3_IRQHandler
                0x0800f494                TIM8_TRG_COM_TIM14_IRQHandler
                0x0800f494                TIM1_UP_TIM10_IRQHandler
                0x0800f494                TIM8_UP_TIM13_IRQHandler
                0x0800f494                I2C3_ER_IRQHandler
                0x0800f494                EXTI0_IRQHandler
                0x0800f494                I2C2_EV_IRQHandler
                0x0800f494                DMA1_Stream2_IRQHandler
                0x0800f494                CAN1_RX0_IRQHandler
                0x0800f494                FPU_IRQHandler
                0x0800f494                OTG_HS_WKUP_IRQHandler
                0x0800f494                UsageFault_Handler
                0x0800f494                CAN2_SCE_IRQHandler
                0x0800f494                DMA2_Stream2_IRQHandler
                0x0800f494                SPI1_IRQHandler
                0x0800f494                TIM6_DAC_IRQHandler
                0x0800f494                TIM1_BRK_TIM9_IRQHandler
                0x0800f494                DCMI_IRQHandler
                0x0800f494                CAN2_RX0_IRQHandler
                0x0800f494                DMA2_Stream3_IRQHandler
                0x0800f494                USART6_IRQHandler
                0x0800f494                USART3_IRQHandler
                0x0800f494                CAN1_RX1_IRQHandler
                0x0800f494                UART5_IRQHandler
                0x0800f494                DMA2_Stream0_IRQHandler
                0x0800f494                TIM4_IRQHandler
                0x0800f494                I2C1_EV_IRQHandler
                0x0800f494                DMA1_Stream6_IRQHandler
                0x0800f494                DMA1_Stream1_IRQHandler
                0x0800f494                UART4_IRQHandler
                0x0800f494                TIM3_IRQHandler
                0x0800f494                RCC_IRQHandler
                0x0800f494                TIM8_BRK_TIM12_IRQHandler
                0x0800f494                Default_Handler
                0x0800f494                EXTI15_10_IRQHandler
                0x0800f494                ADC_IRQHandler
                0x0800f494                TIM7_IRQHandler
                0x0800f494                CAN2_TX_IRQHandler
                0x0800f494                TIM5_IRQHandler
                0x0800f494                DMA2_Stream7_IRQHandler
                0x0800f494                I2C3_EV_IRQHandler
                0x0800f494                EXTI9_5_IRQHandler
                0x0800f494                RTC_WKUP_IRQHandler
                0x0800f494                ETH_WKUP_IRQHandler
                0x0800f494                SPI2_IRQHandler
                0x0800f494                OTG_HS_EP1_IN_IRQHandler
                0x0800f494                MemManage_Handler
                0x0800f494                DMA1_Stream0_IRQHandler
                0x0800f494                CAN1_TX_IRQHandler
                0x0800f494                EXTI4_IRQHandler
                0x0800f494                FSMC_IRQHandler
                0x0800f494                ETH_IRQHandler
                0x0800f494                OTG_HS_EP1_OUT_IRQHandler
                0x0800f494                WWDG_IRQHandler
                0x0800f494                TIM2_IRQHandler
                0x0800f494                OTG_FS_WKUP_IRQHandler
                0x0800f494                OTG_HS_IRQHandler
                0x0800f494                EXTI1_IRQHandler
                0x0800f494                USART2_IRQHandler
                0x0800f494                I2C2_ER_IRQHandler
                0x0800f494                DMA2_Stream1_IRQHandler
                0x0800f494                CAN1_SCE_IRQHandler
                0x0800f494                FLASH_IRQHandler
                0x0800f494                DMA2_Stream4_IRQHandler
                0x0800f494                BusFault_Handler
                0x0800f494                USART1_IRQHandler
                0x0800f494                SPI3_IRQHandler
                0x0800f494                DMA1_Stream4_IRQHandler
                0x0800f494                I2C1_ER_IRQHandler
                0x0800f494                DMA2_Stream6_IRQHandler
                0x0800f494                DMA1_Stream3_IRQHandler
 .text.__libc_init_array
                0x0800f498       0x48 c:/gcc_toolchain/6_2017-q1-update/bin/../lib/gcc/arm-none-eabi/6.3.1/../../../../arm-none-eabi/lib/thumb/v7e-m/fpv4-sp/hard\libc_nano.a(lib_a-init.o)
                0x0800f498                __libc_init_array
 .text.malloc   0x0800f4e0       0x10 c:/gcc_toolchain/6_2017-q1-update/bin/../lib/gcc/arm-none-eabi/6.3.1/../../../../arm-none-eabi/lib/thumb/v7e-m/fpv4-sp/hard\libc_nano.a(lib_a-malloc.o)
                0x0800f4e0                malloc
 .text.free     0x0800f4f0       0x10 c:/gcc_toolchain/6_2017-q1-update/bin/../lib/gcc/arm-none-eabi/6.3.1/../../../../arm-none-eabi/lib/thumb/v7e-m/fpv4-sp/hard\libc_nano.a(lib_a-malloc.o)
                0x0800f4f0                free
 .text.memcpy   0x0800f500       0x16 c:/gcc_toolchain/6_2017-q1-update/bin/../lib/gcc/arm-none-eabi/6.3.1/../../../../arm-none-eabi/lib/thumb/v7e-m/fpv4-sp/hard\libc_nano.a(lib_a-memcpy-stub.o)
                0x0800f500                memcpy
 .text.memmove  0x0800f516       0x34 c:/gcc_toolchain/6_2017-q1-update/bin/../lib/gcc/arm-none-eabi/6.3.1/../../../../arm-none-eabi/lib/thumb/v7e-m/fpv4-sp/hard\libc_nano.a(lib_a-memmove.o)
                0x0800f516                memmove
 .text.memset   0x0800f54a       0x10 c:/gcc_toolchain/6_2017-q1-update/bin/../lib/gcc/arm-none-eabi/6.3.1/../../../../arm-none-eabi/lib/thumb/v7e-m/fpv4-sp/hard\libc_nano.a(lib_a-memset.o)
                0x0800f54a                memset
 *fill*         0x0800f55a        0x2 
 .text._free_r  0x0800f55c       0x9c c:/gcc_toolchain/6_2017-q1-update/bin/../lib/gcc/arm-none-eabi/6.3.1/../../../../arm-none-eabi/lib/thumb/v7e-m/fpv4-sp/hard\libc_nano.a(lib_a-nano-freer.o)
                0x0800f55c                _free_r
 .text._malloc_r
                0x0800f5f8       0xbc c:/gcc_toolchain/6_2017-q1-update/bin/../lib/gcc/arm-none-eabi/6.3.1/../../../../arm-none-eabi/lib/thumb/v7e-m/fpv4-sp/hard\libc_nano.a(lib_a-nano-mallocr.o)
                0x0800f5f8                _malloc_r
 .text.printf   0x0800f6b4       0x30 c:/gcc_toolchain/6_2017-q1-update/bin/../lib/gcc/arm-none-eabi/6.3.1/../../../../arm-none-eabi/lib/thumb/v7e-m/fpv4-sp/hard\libc_nano.a(lib_a-printf.o)
                0x0800f6b4                iprintf
                0x0800f6b4                printf
 .text._cleanup_r
                0x0800f6e4        0xc c:/gcc_toolchain/6_2017-q1-update/bin/../lib/gcc/arm-none-eabi/6.3.1/../../../../arm-none-eabi/lib/thumb/v7e-m/fpv4-sp/hard\libc_nano.a(lib_a-findfp.o)
                0x0800f6e4                _cleanup_r
 .text.std.isra.0
                0x0800f6f0       0x48 c:/gcc_toolchain/6_2017-q1-update/bin/../lib/gcc/arm-none-eabi/6.3.1/../../../../arm-none-eabi/lib/thumb/v7e-m/fpv4-sp/hard\libc_nano.a(lib_a-findfp.o)
 .text.__sfmoreglue
                0x0800f738       0x2c c:/gcc_toolchain/6_2017-q1-update/bin/../lib/gcc/arm-none-eabi/6.3.1/../../../../arm-none-eabi/lib/thumb/v7e-m/fpv4-sp/hard\libc_nano.a(lib_a-findfp.o)
                0x0800f738                __sfmoreglue
 .text.__sinit  0x0800f764       0x60 c:/gcc_toolchain/6_2017-q1-update/bin/../lib/gcc/arm-none-eabi/6.3.1/../../../../arm-none-eabi/lib/thumb/v7e-m/fpv4-sp/hard\libc_nano.a(lib_a-findfp.o)
                0x0800f764                __sinit
 .text.__sfp    0x0800f7c4       0x78 c:/gcc_toolchain/6_2017-q1-update/bin/../lib/gcc/arm-none-eabi/6.3.1/../../../../arm-none-eabi/lib/thumb/v7e-m/fpv4-sp/hard\libc_nano.a(lib_a-findfp.o)
                0x0800f7c4                __sfp
 .text._fwalk_reent
                0x0800f83c       0x3c c:/gcc_toolchain/6_2017-q1-update/bin/../lib/gcc/arm-none-eabi/6.3.1/../../../../arm-none-eabi/lib/thumb/v7e-m/fpv4-sp/hard\libc_nano.a(lib_a-fwalk.o)
                0x0800f83c                _fwalk_reent
 .text.__malloc_lock
                0x0800f878        0x2 c:/gcc_toolchain/6_2017-q1-update/bin/../lib/gcc/arm-none-eabi/6.3.1/../../../../arm-none-eabi/lib/thumb/v7e-m/fpv4-sp/hard\libc_nano.a(lib_a-mlock.o)
                0x0800f878                __malloc_lock
 .text.__malloc_unlock
                0x0800f87a        0x2 c:/gcc_toolchain/6_2017-q1-update/bin/../lib/gcc/arm-none-eabi/6.3.1/../../../../arm-none-eabi/lib/thumb/v7e-m/fpv4-sp/hard\libc_nano.a(lib_a-mlock.o)
                0x0800f87a                __malloc_unlock
 .text.__sfputc_r
                0x0800f87c       0x30 c:/gcc_toolchain/6_2017-q1-update/bin/../lib/gcc/arm-none-eabi/6.3.1/../../../../arm-none-eabi/lib/thumb/v7e-m/fpv4-sp/hard\libc_nano.a(lib_a-nano-vfprintf.o)
 .text.__sfputs_r
                0x0800f8ac       0x24 c:/gcc_toolchain/6_2017-q1-update/bin/../lib/gcc/arm-none-eabi/6.3.1/../../../../arm-none-eabi/lib/thumb/v7e-m/fpv4-sp/hard\libc_nano.a(lib_a-nano-vfprintf.o)
                0x0800f8ac                __sfputs_r
 .text._vfprintf_r
                0x0800f8d0      0x22c c:/gcc_toolchain/6_2017-q1-update/bin/../lib/gcc/arm-none-eabi/6.3.1/../../../../arm-none-eabi/lib/thumb/v7e-m/fpv4-sp/hard\libc_nano.a(lib_a-nano-vfprintf.o)
                0x0800f8d0                _vfprintf_r
                0x0800f8d0                _vfiprintf_r
 .text._printf_common
                0x0800fafc       0xec c:/gcc_toolchain/6_2017-q1-update/bin/../lib/gcc/arm-none-eabi/6.3.1/../../../../arm-none-eabi/lib/thumb/v7e-m/fpv4-sp/hard\libc_nano.a(lib_a-nano-vfprintf_i.o)
                0x0800fafc                _printf_common
 .text._printf_i
                0x0800fbe8      0x240 c:/gcc_toolchain/6_2017-q1-update/bin/../lib/gcc/arm-none-eabi/6.3.1/../../../../arm-none-eabi/lib/thumb/v7e-m/fpv4-sp/hard\libc_nano.a(lib_a-nano-vfprintf_i.o)
                0x0800fbe8                _printf_i
 .text.__sread  0x0800fe28       0x22 c:/gcc_toolchain/6_2017-q1-update/bin/../lib/gcc/arm-none-eabi/6.3.1/../../../../arm-none-eabi/lib/thumb/v7e-m/fpv4-sp/hard\libc_nano.a(lib_a-stdio.o)
                0x0800fe28                __sread
 .text.__swrite
                0x0800fe4a       0x38 c:/gcc_toolchain/6_2017-q1-update/bin/../lib/gcc/arm-none-eabi/6.3.1/../../../../arm-none-eabi/lib/thumb/v7e-m/fpv4-sp/hard\libc_nano.a(lib_a-stdio.o)
                0x0800fe4a                __swrite
 .text.__sseek  0x0800fe82       0x24 c:/gcc_toolchain/6_2017-q1-update/bin/../lib/gcc/arm-none-eabi/6.3.1/../../../../arm-none-eabi/lib/thumb/v7e-m/fpv4-sp/hard\libc_nano.a(lib_a-stdio.o)
                0x0800fe82                __sseek
 .text.__sclose
                0x0800fea6        0x8 c:/gcc_toolchain/6_2017-q1-update/bin/../lib/gcc/arm-none-eabi/6.3.1/../../../../arm-none-eabi/lib/thumb/v7e-m/fpv4-sp/hard\libc_nano.a(lib_a-stdio.o)
                0x0800fea6                __sclose
 *fill*         0x0800feae        0x2 
 .text.__swbuf_r
                0x0800feb0       0xa4 c:/gcc_toolchain/6_2017-q1-update/bin/../lib/gcc/arm-none-eabi/6.3.1/../../../../arm-none-eabi/lib/thumb/v7e-m/fpv4-sp/hard\libc_nano.a(lib_a-wbuf.o)
                0x0800feb0                __swbuf_r
 .text.__swsetup_r
                0x0800ff54       0xdc c:/gcc_toolchain/6_2017-q1-update/bin/../lib/gcc/arm-none-eabi/6.3.1/../../../../arm-none-eabi/lib/thumb/v7e-m/fpv4-sp/hard\libc_nano.a(lib_a-wsetup.o)
                0x0800ff54                __swsetup_r
 .text._close_r
                0x08010030       0x20 c:/gcc_toolchain/6_2017-q1-update/bin/../lib/gcc/arm-none-eabi/6.3.1/../../../../arm-none-eabi/lib/thumb/v7e-m/fpv4-sp/hard\libc_nano.a(lib_a-closer.o)
                0x08010030                _close_r
 .text.__sflush_r
                0x08010050      0x110 c:/gcc_toolchain/6_2017-q1-update/bin/../lib/gcc/arm-none-eabi/6.3.1/../../../../arm-none-eabi/lib/thumb/v7e-m/fpv4-sp/hard\libc_nano.a(lib_a-fflush.o)
                0x08010050                __sflush_r
 .text._fflush_r
                0x08010160       0x54 c:/gcc_toolchain/6_2017-q1-update/bin/../lib/gcc/arm-none-eabi/6.3.1/../../../../arm-none-eabi/lib/thumb/v7e-m/fpv4-sp/hard\libc_nano.a(lib_a-fflush.o)
                0x08010160                _fflush_r
 .text._lseek_r
                0x080101b4       0x24 c:/gcc_toolchain/6_2017-q1-update/bin/../lib/gcc/arm-none-eabi/6.3.1/../../../../arm-none-eabi/lib/thumb/v7e-m/fpv4-sp/hard\libc_nano.a(lib_a-lseekr.o)
                0x080101b4                _lseek_r
 .text.__swhatbuf_r
                0x080101d8       0x48 c:/gcc_toolchain/6_2017-q1-update/bin/../lib/gcc/arm-none-eabi/6.3.1/../../../../arm-none-eabi/lib/thumb/v7e-m/fpv4-sp/hard\libc_nano.a(lib_a-makebuf.o)
                0x080101d8                __swhatbuf_r
 .text.__smakebuf_r
                0x08010220       0x80 c:/gcc_toolchain/6_2017-q1-update/bin/../lib/gcc/arm-none-eabi/6.3.1/../../../../arm-none-eabi/lib/thumb/v7e-m/fpv4-sp/hard\libc_nano.a(lib_a-makebuf.o)
                0x08010220                __smakebuf_r
 .text._fstat_r
                0x080102a0       0x24 c:/gcc_toolchain/6_2017-q1-update/bin/../lib/gcc/arm-none-eabi/6.3.1/../../../../arm-none-eabi/lib/thumb/v7e-m/fpv4-sp/hard\libc_nano.a(lib_a-fstatr.o)
                0x080102a0                _fstat_r
 .text._isatty_r
                0x080102c4       0x20 c:/gcc_toolchain/6_2017-q1-update/bin/../lib/gcc/arm-none-eabi/6.3.1/../../../../arm-none-eabi/lib/thumb/v7e-m/fpv4-sp/hard\libc_nano.a(lib_a-isattyr.o)
                0x080102c4                _isatty_r
 .text._close   0x080102e4       0x10 c:/gcc_toolchain/6_2017-q1-update/bin/../lib/gcc/arm-none-eabi/6.3.1/../../../../arm-none-eabi/lib/thumb/v7e-m/fpv4-sp/hard\libnosys.a(close.o)
                0x080102e4                _close
 .text._fstat   0x080102f4       0x10 c:/gcc_toolchain/6_2017-q1-update/bin/../lib/gcc/arm-none-eabi/6.3.1/../../../../arm-none-eabi/lib/thumb/v7e-m/fpv4-sp/hard\libnosys.a(fstat.o)
                0x080102f4                _fstat
 .text._isatty  0x08010304       0x10 c:/gcc_toolchain/6_2017-q1-update/bin/../lib/gcc/arm-none-eabi/6.3.1/../../../../arm-none-eabi/lib/thumb/v7e-m/fpv4-sp/hard\libnosys.a(isatty.o)
                0x08010304                _isatty
 .text._lseek   0x08010314       0x10 c:/gcc_toolchain/6_2017-q1-update/bin/../lib/gcc/arm-none-eabi/6.3.1/../../../../arm-none-eabi/lib/thumb/v7e-m/fpv4-sp/hard\libnosys.a(lseek.o)
                0x08010314                _lseek
 *(.glue_7)
 .glue_7        0x08010324        0x0 linker stubs
 *(.glue_7t)
 .glue_7t       0x08010324        0x0 linker stubs
 *(.eh_frame)
 .eh_frame      0x08010324        0x0 c:/gcc_toolchain/6_2017-q1-update/bin/../lib/gcc/arm-none-eabi/6.3.1/thumb/v7e-m/fpv4-sp/hard/crtbegin.o
 *(.init)
 .init          0x08010324        0x4 c:/gcc_toolchain/6_2017-q1-update/bin/../lib/gcc/arm-none-eabi/6.3.1/thumb/v7e-m/fpv4-sp/hard/crti.o
                0x08010324                _init
 .init          0x08010328        0x8 c:/gcc_toolchain/6_2017-q1-update/bin/../lib/gcc/arm-none-eabi/6.3.1/thumb/v7e-m/fpv4-sp/hard/crtn.o
 *(.fini)
 .fini          0x08010330        0x4 c:/gcc_toolchain/6_2017-q1-update/bin/../lib/gcc/arm-none-eabi/6.3.1/thumb/v7e-m/fpv4-sp/hard/crti.o
                0x08010330                _fini
 .fini          0x08010334        0x8 c:/gcc_toolchain/6_2017-q1-update/bin/../lib/gcc/arm-none-eabi/6.3.1/thumb/v7e-m/fpv4-sp/hard/crtn.o
                0x0801033c                . = ALIGN (0x4)
                0x0801033c                _etext = .

.vfp11_veneer   0x0801033c        0x0
 .vfp11_veneer  0x0801033c        0x0 linker stubs

.v4_bx          0x0801033c        0x0
 .v4_bx         0x0801033c        0x0 linker stubs

.iplt           0x0801033c        0x0
 .iplt          0x0801033c        0x0 c:/gcc_toolchain/6_2017-q1-update/bin/../lib/gcc/arm-none-eabi/6.3.1/thumb/v7e-m/fpv4-sp/hard/crtbegin.o

.rodata         0x0801033c     0x36ec
                0x0801033c                . = ALIGN (0x4)
 *(.rodata)
 .rodata        0x0801033c       0x14 build/main.o
 .rodata        0x08010350       0x1c build/usbh_core.o
 *(.rodata*)
 .rodata.str1.4
                0x0801036c        0x4 build/usbh_msc.o
 .rodata.AHBPrescTable
                0x08010370       0x10 build/system_stm32f4xx.o
                0x08010370                AHBPrescTable
 .rodata.APBPrescTable
                0x08010380        0x8 build/system_stm32f4xx.o
                0x08010380                APBPrescTable
 .rodata.vTaskStartScheduler.str1.4
                0x08010388        0x5 build/tasks.o
 *fill*         0x0801038d        0x3 
 .rodata.USBH_LL_Init.str1.4
                0x08010390       0x10 build/usbh_conf.o
 .rodata.I2SFreq
                0x080103a0       0x20 build/stm32f4_discovery_audio.o
                0x080103a0                I2SFreq
 .rodata.I2SPLLN
                0x080103c0       0x20 build/stm32f4_discovery_audio.o
                0x080103c0                I2SPLLN
 .rodata.I2SPLLR
                0x080103e0       0x20 build/stm32f4_discovery_audio.o
                0x080103e0                I2SPLLR
 .rodata.ExCvt  0x08010400       0x80 build/ff.o
 .rodata.create_name.str1.4
                0x08010480        0xf build/ff.o
 *fill*         0x0801048f        0x1 
 .rodata.StartDefaultTask.str1.4
                0x08010490       0xbf build/main.o
                                 0xc7 (size before relaxing)
 *fill*         0x0801054f        0x1 
 .rodata.WavePlayBack.str1.4
                0x08010550        0xb build/main.o
 *fill*         0x0801055b        0x1 
 .rodata.mp3_decoder_run_internal.str1.4
                0x0801055c       0x19 build/main.o
 *fill*         0x08010575        0x3 
 .rodata.str1.4
                0x08010578        0xc build/main.o
 .rodata.str1.4
                0x08010584        0xc build/usbh_core.o
 .rodata.flagBitshiftOffset.9140
                0x08010590        0x8 build/stm32f4xx_hal_dma.o
 .rodata.HL_Default_Handler.str1.4
                0x08010598       0x14 build/stm32f4xx_it.o
                                 0x13 (size before relaxing)
 .rodata.USBH_Driver
                0x080105ac       0x14 build/usbh_diskio.o
                0x080105ac                USBH_Driver
 .rodata.xmp3fixpt_bitrateTab
                0x080105c0      0x10e build/mp3tabs.o
                0x080105c0                xmp3fixpt_bitrateTab
 *fill*         0x080106ce        0x2 
 .rodata.xmp3fixpt_samplerateTab
                0x080106d0       0x24 build/mp3tabs.o
                0x080106d0                xmp3fixpt_samplerateTab
 .rodata.xmp3fixpt_samplesPerFrameTab
                0x080106f4       0x12 build/mp3tabs.o
                0x080106f4                xmp3fixpt_samplesPerFrameTab
 *fill*         0x08010706        0x2 
 .rodata.xmp3fixpt_sfBandTable
                0x08010708      0x29a build/mp3tabs.o
                0x08010708                xmp3fixpt_sfBandTable
 *fill*         0x080109a2        0x2 
 .rodata.xmp3fixpt_sideBytesTab
                0x080109a4        0xc build/mp3tabs.o
                0x080109a4                xmp3fixpt_sideBytesTab
 .rodata.xmp3fixpt_slotTab
                0x080109b0      0x10e build/mp3tabs.o
                0x080109b0                xmp3fixpt_slotTab
 *fill*         0x08010abe        0x2 
 .rodata.dcttab
                0x08010ac0       0xc0 build/dct32.o
 .rodata.poly43hi
                0x08010b80       0x14 build/dqchan.o
 .rodata.poly43lo
                0x08010b94       0x14 build/dqchan.o
 .rodata.pow14  0x08010ba8       0x10 build/dqchan.o
 .rodata.pow2exp
                0x08010bb8       0x20 build/dqchan.o
 .rodata.pow2frac
                0x08010bd8       0x20 build/dqchan.o
 .rodata.pow43  0x08010bf8       0xc0 build/dqchan.o
 .rodata.pow43_14
                0x08010cb8      0x100 build/dqchan.o
 .rodata.preTab
                0x08010db8       0x16 build/dqchan.o
 *fill*         0x08010dce        0x2 
 .rodata.xmp3fixpt_huffTabLookup
                0x08010dd0      0x100 build/hufftabs.o
                0x08010dd0                xmp3fixpt_huffTabLookup
 .rodata.xmp3fixpt_huffTabOffset
                0x08010ed0       0x80 build/hufftabs.o
                0x08010ed0                xmp3fixpt_huffTabOffset
 .rodata.xmp3fixpt_huffTable
                0x08010f50     0x2124 build/hufftabs.o
                0x08010f50                xmp3fixpt_huffTable
 .rodata.xmp3fixpt_quadTabMaxBits
                0x08013074        0x8 build/hufftabs.o
                0x08013074                xmp3fixpt_quadTabMaxBits
 .rodata.xmp3fixpt_quadTabOffset
                0x0801307c        0x8 build/hufftabs.o
                0x0801307c                xmp3fixpt_quadTabOffset
 .rodata.xmp3fixpt_quadTable
                0x08013084       0x50 build/hufftabs.o
                0x08013084                xmp3fixpt_quadTable
 .rodata.c18    0x080130d4       0x24 build/imdct.o
 .rodata.fastWin36
                0x080130f8       0x48 build/imdct.o
 .rodata.NRTab  0x08013140       0x48 build/scalfact.o
 .rodata.SFLenTab
                0x08013188       0x20 build/scalfact.o
 .rodata.xmp3fixpt_ISFIIP
                0x080131a8       0x10 build/trigtabs_fixpt.o
                0x080131a8                xmp3fixpt_ISFIIP
 .rodata.xmp3fixpt_ISFMpeg1
                0x080131b8       0x38 build/trigtabs_fixpt.o
                0x080131b8                xmp3fixpt_ISFMpeg1
 .rodata.xmp3fixpt_ISFMpeg2
                0x080131f0      0x100 build/trigtabs_fixpt.o
                0x080131f0                xmp3fixpt_ISFMpeg2
 .rodata.xmp3fixpt_csa
                0x080132f0       0x40 build/trigtabs_fixpt.o
                0x080132f0                xmp3fixpt_csa
 .rodata.xmp3fixpt_imdctWin
                0x08013330      0x240 build/trigtabs_fixpt.o
                0x08013330                xmp3fixpt_imdctWin
 .rodata.xmp3fixpt_polyCoef
                0x08013570      0x420 build/trigtabs_fixpt.o
                0x08013570                xmp3fixpt_polyCoef
 .rodata._global_impure_ptr
                0x08013990        0x4 c:/gcc_toolchain/6_2017-q1-update/bin/../lib/gcc/arm-none-eabi/6.3.1/../../../../arm-none-eabi/lib/thumb/v7e-m/fpv4-sp/hard\libc_nano.a(lib_a-impure.o)
                0x08013990                _global_impure_ptr
 .rodata.__sf_fake_stderr
                0x08013994       0x20 c:/gcc_toolchain/6_2017-q1-update/bin/../lib/gcc/arm-none-eabi/6.3.1/../../../../arm-none-eabi/lib/thumb/v7e-m/fpv4-sp/hard\libc_nano.a(lib_a-findfp.o)
                0x08013994                __sf_fake_stderr
 .rodata.__sf_fake_stdin
                0x080139b4       0x20 c:/gcc_toolchain/6_2017-q1-update/bin/../lib/gcc/arm-none-eabi/6.3.1/../../../../arm-none-eabi/lib/thumb/v7e-m/fpv4-sp/hard\libc_nano.a(lib_a-findfp.o)
                0x080139b4                __sf_fake_stdin
 .rodata.__sf_fake_stdout
                0x080139d4       0x20 c:/gcc_toolchain/6_2017-q1-update/bin/../lib/gcc/arm-none-eabi/6.3.1/../../../../arm-none-eabi/lib/thumb/v7e-m/fpv4-sp/hard\libc_nano.a(lib_a-findfp.o)
                0x080139d4                __sf_fake_stdout
 .rodata._vfprintf_r.str1.1
                0x080139f4       0x11 c:/gcc_toolchain/6_2017-q1-update/bin/../lib/gcc/arm-none-eabi/6.3.1/../../../../arm-none-eabi/lib/thumb/v7e-m/fpv4-sp/hard\libc_nano.a(lib_a-nano-vfprintf.o)
 .rodata._printf_i.str1.1
                0x08013a05       0x22 c:/gcc_toolchain/6_2017-q1-update/bin/../lib/gcc/arm-none-eabi/6.3.1/../../../../arm-none-eabi/lib/thumb/v7e-m/fpv4-sp/hard\libc_nano.a(lib_a-nano-vfprintf_i.o)
                0x08013a28                . = ALIGN (0x4)
 *fill*         0x08013a27        0x1 

.ARM.extab
 *(.ARM.extab* .gnu.linkonce.armextab.*)

.ARM            0x08013a28        0x8
                0x08013a28                __exidx_start = .
 *(.ARM.exidx*)
 .ARM.exidx     0x08013a28        0x8 c:/gcc_toolchain/6_2017-q1-update/bin/../lib/gcc/arm-none-eabi/6.3.1/thumb/v7e-m/fpv4-sp/hard\libgcc.a(_udivmoddi4.o)
                0x08013a30                __exidx_end = .

.rel.dyn        0x08013a30        0x0
 .rel.iplt      0x08013a30        0x0 c:/gcc_toolchain/6_2017-q1-update/bin/../lib/gcc/arm-none-eabi/6.3.1/thumb/v7e-m/fpv4-sp/hard/crtbegin.o

.preinit_array  0x08013a30        0x0
                0x08013a30                PROVIDE (__preinit_array_start, .)
 *(.preinit_array*)
                0x08013a30                PROVIDE (__preinit_array_end, .)

.init_array     0x08013a30        0x4
                0x08013a30                PROVIDE (__init_array_start, .)
 *(SORT(.init_array.*))
 *(.init_array*)
 .init_array    0x08013a30        0x4 c:/gcc_toolchain/6_2017-q1-update/bin/../lib/gcc/arm-none-eabi/6.3.1/thumb/v7e-m/fpv4-sp/hard/crtbegin.o
                0x08013a34                PROVIDE (__init_array_end, .)

.fini_array     0x08013a34        0x4
                [!provide]                PROVIDE (__fini_array_start, .)
 *(SORT(.fini_array.*))
 *(.fini_array*)
 .fini_array    0x08013a34        0x4 c:/gcc_toolchain/6_2017-q1-update/bin/../lib/gcc/arm-none-eabi/6.3.1/thumb/v7e-m/fpv4-sp/hard/crtbegin.o
                [!provide]                PROVIDE (__fini_array_end, .)
                0x08013a38                _sidata = LOADADDR (.data)

.data           0x20000000       0xc8 load address 0x08013a38
                0x20000000                . = ALIGN (0x4)
                0x20000000                _sdata = .
 *(.data)
 *(.data*)
 .data.USBH_msc
                0x20000000       0x20 build/usbh_msc.o
                0x20000000                USBH_msc
 .data.SystemCoreClock
                0x20000020        0x4 build/system_stm32f4xx.o
                0x20000020                SystemCoreClock
 .data.I2cxTimeout
                0x20000024        0x4 build/stm32f4_discovery.o
                0x20000024                I2cxTimeout
 .data.__malloc_margin
                0x20000028        0x4 build/main.o
                0x20000028                __malloc_margin
 .data.uxCriticalNesting
                0x2000002c        0x4 build/port.o
 .data.Is_cs43l22_Stop
                0x20000030        0x1 build/cs43l22.o
 *fill*         0x20000031        0x3 
 .data.cs43l22_drv
                0x20000034       0x30 build/cs43l22.o
                0x20000034                cs43l22_drv
 .data._impure_ptr
                0x20000064        0x4 c:/gcc_toolchain/6_2017-q1-update/bin/../lib/gcc/arm-none-eabi/6.3.1/../../../../arm-none-eabi/lib/thumb/v7e-m/fpv4-sp/hard\libc_nano.a(lib_a-impure.o)
                0x20000064                _impure_ptr
 .data.impure_data
                0x20000068       0x60 c:/gcc_toolchain/6_2017-q1-update/bin/../lib/gcc/arm-none-eabi/6.3.1/../../../../arm-none-eabi/lib/thumb/v7e-m/fpv4-sp/hard\libc_nano.a(lib_a-impure.o)
                0x200000c8                . = ALIGN (0x4)
                0x200000c8                _edata = .
                0x08013b00                _siccmram = LOADADDR (.ccmram)

.jcr            0x200000c8        0x0 load address 0x08013b00
 .jcr           0x200000c8        0x0 c:/gcc_toolchain/6_2017-q1-update/bin/../lib/gcc/arm-none-eabi/6.3.1/thumb/v7e-m/fpv4-sp/hard/crtbegin.o

.igot.plt       0x200000c8        0x0 load address 0x08013b00
 .igot.plt      0x200000c8        0x0 c:/gcc_toolchain/6_2017-q1-update/bin/../lib/gcc/arm-none-eabi/6.3.1/thumb/v7e-m/fpv4-sp/hard/crtbegin.o

.ccmram         0x10000000        0x0 load address 0x08013b00
                0x10000000                . = ALIGN (0x4)
                0x10000000                _sccmram = .
 *(.ccmram)
 *(.ccmram*)
                0x10000000                . = ALIGN (0x4)
                0x10000000                _eccmram = .
                0x10000000                . = ALIGN (0x4)

.bss            0x200000c8    0x122d0
                0x200000c8                _sbss = .
                0x200000c8                __bss_start__ = _sbss
 *(.bss)
 .bss           0x200000c8       0x1c c:/gcc_toolchain/6_2017-q1-update/bin/../lib/gcc/arm-none-eabi/6.3.1/thumb/v7e-m/fpv4-sp/hard/crtbegin.o
 *(.bss*)
 .bss.disk      0x200000e4        0xc build/ff_gen_drv.o
                0x200000e4                disk
 .bss.pxCurrentTCB
                0x200000f0        0x4 build/tasks.o
                0x200000f0                pxCurrentTCB
 .bss.pxDelayedTaskList
                0x200000f4        0x4 build/tasks.o
 .bss.pxOverflowDelayedTaskList
                0x200000f8        0x4 build/tasks.o
 .bss.pxReadyTasksLists
                0x200000fc       0x8c build/tasks.o
 .bss.uxCurrentNumberOfTasks
                0x20000188        0x4 build/tasks.o
 .bss.uxDeletedTasksWaitingCleanUp
                0x2000018c        0x4 build/tasks.o
 .bss.uxPendedTicks
                0x20000190        0x4 build/tasks.o
 .bss.uxSchedulerSuspended
                0x20000194        0x4 build/tasks.o
 .bss.uxTaskNumber
                0x20000198        0x4 build/tasks.o
 .bss.uxTopReadyPriority
                0x2000019c        0x4 build/tasks.o
 .bss.xDelayedTaskList1
                0x200001a0       0x14 build/tasks.o
 .bss.xDelayedTaskList2
                0x200001b4       0x14 build/tasks.o
 .bss.xIdleTaskHandle
                0x200001c8        0x4 build/tasks.o
 .bss.xNextTaskUnblockTime
                0x200001cc        0x4 build/tasks.o
 .bss.xNumOfOverflows
                0x200001d0        0x4 build/tasks.o
 .bss.xPendingReadyList
                0x200001d4       0x14 build/tasks.o
 .bss.xSchedulerRunning
                0x200001e8        0x4 build/tasks.o
 .bss.xSuspendedTaskList
                0x200001ec       0x14 build/tasks.o
 .bss.xTasksWaitingTermination
                0x20000200       0x14 build/tasks.o
 .bss.xTickCount
                0x20000214        0x4 build/tasks.o
 .bss.xYieldPending
                0x20000218        0x4 build/tasks.o
 .bss.Appli_state
                0x2000021c        0x1 build/usb_host.o
                0x2000021c                Appli_state
 *fill*         0x2000021d        0x3 
 .bss.I2cHandle
                0x20000220       0x54 build/stm32f4_discovery.o
 .bss.hdma_i2sTx.9307
                0x20000274       0x60 build/stm32f4_discovery_audio.o
 .bss.pAudioDrv
                0x200002d4        0x4 build/stm32f4_discovery_audio.o
 .bss.FatFs     0x200002d8        0x4 build/ff.o
 .bss.Files     0x200002dc       0x20 build/ff.o
 .bss.Fsid      0x200002fc        0x2 build/ff.o
 *fill*         0x200002fe        0x2 
 .bss.AudioPlayStart
                0x20000300        0x4 build/main.o
                0x20000300                AudioPlayStart
 .bss.AudioRemSize
                0x20000304        0x4 build/main.o
 .bss.CmdIndex  0x20000308        0x4 build/main.o
                0x20000308                CmdIndex
 .bss.WaveDataLength
                0x2000030c        0x4 build/main.o
 .bss.audio_is_playing
                0x20000310        0x1 build/main.o
 .bss.buf_switch
                0x20000311        0x1 build/main.o
 .bss.buffer_offset
                0x20000312        0x1 build/main.o
                0x20000312                buffer_offset
 *fill*         0x20000313        0x1 
 .bss.decode_buf0
                0x20000314     0x2000 build/main.o
 .bss.decode_buf1
                0x20002314     0x2000 build/main.o
 .bss.file.12216
                0x20004314      0x230 build/main.o
 .bss.fs        0x20004544      0x234 build/main.o
 .bss.line.12215
                0x20004778       0x32 build/main.o
 *fill*         0x200047aa        0x2 
 .bss.mp3_fd_buffer
                0x200047ac     0x2000 build/main.o
 .bss.song.12220
                0x200067ac      0x230 build/main.o
 .bss.pxEnd     0x200069dc        0x4 build/heap_4.o
 .bss.ucHeap    0x200069e0     0x3c00 build/heap_4.o
 .bss.xBlockAllocatedBit
                0x2000a5e0        0x4 build/heap_4.o
 .bss.xFreeBytesRemaining
                0x2000a5e4        0x4 build/heap_4.o
 .bss.xMinimumEverFreeBytesRemaining
                0x2000a5e8        0x4 build/heap_4.o
 .bss.xStart    0x2000a5ec        0x8 build/heap_4.o
 .bss.ucMaxSysCallPriority
                0x2000a5f4        0x1 build/port.o
 *fill*         0x2000a5f5        0x3 
 .bss.ulMaxPRIGROUPValue
                0x2000a5f8        0x4 build/port.o
 .bss.OutputDev
                0x2000a5fc        0x1 build/cs43l22.o
                0x2000a5fc                OutputDev
 *fill*         0x2000a5fd        0x3 
 .bss.s_di.5747
                0x2000a600      0x348 build/buffers.o
 .bss.s_fh.5743
                0x2000a948       0x38 build/buffers.o
 .bss.s_hi.5746
                0x2000a980     0x1210 build/buffers.o
 .bss.s_mi.5748
                0x2000bb90     0x1b20 build/buffers.o
 .bss.s_mp3DecInfo.5742
                0x2000d6b0      0x7f0 build/buffers.o
 .bss.s_sbi.5749
                0x2000dea0     0x2204 build/buffers.o
 .bss.s_sfi.5745
                0x200100a4      0x11c build/buffers.o
 .bss.s_si.5744
                0x200101c0      0x148 build/buffers.o
 .bss.__malloc_free_list
                0x20010308        0x4 c:/gcc_toolchain/6_2017-q1-update/bin/../lib/gcc/arm-none-eabi/6.3.1/../../../../arm-none-eabi/lib/thumb/v7e-m/fpv4-sp/hard\libc_nano.a(lib_a-nano-mallocr.o)
                0x20010308                __malloc_free_list
 .bss.__malloc_sbrk_start
                0x2001030c        0x4 c:/gcc_toolchain/6_2017-q1-update/bin/../lib/gcc/arm-none-eabi/6.3.1/../../../../arm-none-eabi/lib/thumb/v7e-m/fpv4-sp/hard\libc_nano.a(lib_a-nano-mallocr.o)
                0x2001030c                __malloc_sbrk_start
 *(COMMON)
 COMMON         0x20010310       0x3c build/stm32f4xx_hal_timebase_TIM.o
                0x20010310                htim11
 COMMON         0x2001034c      0x3d0 build/usb_host.o
                0x2001034c                hUsbHostFS
 COMMON         0x2001071c        0x4 build/stm32f4xx_hal.o
                0x2001071c                uwTick
 COMMON         0x20010720      0x298 build/usbh_conf.o
                0x20010720                hhcd_USB_OTG_FS
 COMMON         0x200109b8      0x134 build/stm32f4_discovery_audio.o
                0x200109b8                PDM_FilterConfig
                0x200109c4                PDM_FilterHandler
                0x20010a5c                hAudioOutI2s
                0x20010aa4                hAudioInI2s
 COMMON         0x20010aec     0x13fc build/main.o
                0x20010aec                defaultTaskHandle
                0x20010af0                RepeatState
                0x20010af4                hi2c1
                0x20010b48                __brkval
                0x20010b4c                PauseResumeStatus
                0x20010b50                Audio_Buffer
                0x20011b50                Directory
                0x20011b80                hrng
                0x20011b8c                PressCount
                0x20011b90                hspi1
                0x20011be8                huart2
                0x20011c28                FileRead
                0x20011e58                hi2s2
                0x20011ea0                hi2s3
 COMMON         0x20011ee8       0x40 build/queue.o
                0x20011ee8                xQueueRegistry
 COMMON         0x20011f28      0x469 build/fatfs.o
                0x20011f28                USBHPath
                0x20011f2c                USBHFile
                0x2001215c                USBHFatFS
                0x20012390                retUSBH
 *fill*         0x20012391        0x3 
 COMMON         0x20012394        0x4 c:/gcc_toolchain/6_2017-q1-update/bin/../lib/gcc/arm-none-eabi/6.3.1/../../../../arm-none-eabi/lib/thumb/v7e-m/fpv4-sp/hard\libc_nano.a(lib_a-reent.o)
                0x20012394                errno
                0x20012398                . = ALIGN (0x4)
                0x20012398                _ebss = .
                0x20012398                __bss_end__ = _ebss

._user_heap_stack
                0x20012398      0x600
                0x20012398                . = ALIGN (0x8)
                0x20012398                PROVIDE (end, .)
                [!provide]                PROVIDE (_end, .)
                0x20012598                . = (. + _Min_Heap_Size)
 *fill*         0x20012398      0x200 
                0x20012998                . = (. + _Min_Stack_Size)
 *fill*         0x20012598      0x400 
                0x20012998                . = ALIGN (0x8)

/DISCARD/
 libc.a(*)
 libm.a(*)
 libgcc.a(*)

.ARM.attributes
                0x00000000       0x30
 *(.ARM.attributes)
 .ARM.attributes
                0x00000000       0x22 c:/gcc_toolchain/6_2017-q1-update/bin/../lib/gcc/arm-none-eabi/6.3.1/thumb/v7e-m/fpv4-sp/hard/crti.o
 .ARM.attributes
                0x00000022       0x34 c:/gcc_toolchain/6_2017-q1-update/bin/../lib/gcc/arm-none-eabi/6.3.1/thumb/v7e-m/fpv4-sp/hard/crtbegin.o
 .ARM.attributes
                0x00000056       0x39 build/cmsis_os.o
 .ARM.attributes
                0x0000008f       0x39 build/usbh_msc.o
 .ARM.attributes
                0x000000c8       0x39 build/stm32f4xx_hal_tim.o
 .ARM.attributes
                0x00000101       0x39 build/stm32f4xx_hal_timebase_TIM.o
 .ARM.attributes
                0x0000013a       0x39 build/stm32f4xx_hal_rng.o
 .ARM.attributes
                0x00000173       0x39 build/stm32f4xx_hal_i2s.o
 .ARM.attributes
                0x000001ac       0x39 build/system_stm32f4xx.o
 .ARM.attributes
                0x000001e5       0x39 build/ff_gen_drv.o
 .ARM.attributes
                0x0000021e       0x39 build/tasks.o
 .ARM.attributes
                0x00000257       0x39 build/usb_host.o
 .ARM.attributes
                0x00000290       0x39 build/stm32f4xx_hal.o
 .ARM.attributes
                0x000002c9       0x39 build/stm32f4xx_hal_uart.o
 .ARM.attributes
                0x00000302       0x39 build/stm32f4xx_hal_gpio.o
 .ARM.attributes
                0x0000033b       0x39 build/stm32f4xx_hal_cortex.o
 .ARM.attributes
                0x00000374       0x39 build/usbh_conf.o
 .ARM.attributes
                0x000003ad       0x39 build/stm32f4_discovery.o
 .ARM.attributes
                0x000003e6       0x39 build/stm32f4_discovery_audio.o
 .ARM.attributes
                0x0000041f       0x39 build/stm32f4xx_hal_i2s_ex.o
 .ARM.attributes
                0x00000458       0x39 build/usbh_pipes.o
 .ARM.attributes
                0x00000491       0x39 build/usbh_msc_scsi.o
 .ARM.attributes
                0x000004ca       0x39 build/ff.o
 .ARM.attributes
                0x00000503       0x39 build/main.o
 .ARM.attributes
                0x0000053c       0x39 build/usbh_core.o
 .ARM.attributes
                0x00000575       0x39 build/queue.o
 .ARM.attributes
                0x000005ae       0x39 build/stm32f4xx_hal_hcd.o
 .ARM.attributes
                0x000005e7       0x39 build/stm32f4xx_hal_dma.o
 .ARM.attributes
                0x00000620       0x39 build/stm32f4xx_it.o
 .ARM.attributes
                0x00000659       0x39 build/stm32f4xx_hal_tim_ex.o
 .ARM.attributes
                0x00000692       0x39 build/heap_4.o
 .ARM.attributes
                0x000006cb       0x39 build/usbh_msc_bot.o
 .ARM.attributes
                0x00000704       0x39 build/stm32f4xx_ll_usb.o
 .ARM.attributes
                0x0000073d       0x39 build/port.o
 .ARM.attributes
                0x00000776       0x39 build/stm32f4xx_hal_i2c.o
 .ARM.attributes
                0x000007af       0x39 build/usbh_ctlreq.o
 .ARM.attributes
                0x000007e8       0x39 build/stm32f4xx_hal_rcc_ex.o
 .ARM.attributes
                0x00000821       0x39 build/usbh_diskio.o
 .ARM.attributes
                0x0000085a       0x39 build/stm32f4xx_hal_spi.o
 .ARM.attributes
                0x00000893       0x39 build/diskio.o
 .ARM.attributes
                0x000008cc       0x39 build/usbh_ioreq.o
 .ARM.attributes
                0x00000905       0x39 build/stm32f4xx_hal_msp.o
 .ARM.attributes
                0x0000093e       0x39 build/list.o
 .ARM.attributes
                0x00000977       0x39 build/stm32f4xx_hal_rcc.o
 .ARM.attributes
                0x000009b0       0x39 build/fatfs.o
 .ARM.attributes
                0x000009e9       0x39 build/syscall.o
 .ARM.attributes
                0x00000a22       0x39 build/cs43l22.o
 .ARM.attributes
                0x00000a5b       0x39 build/mp3dec.o
 .ARM.attributes
                0x00000a94       0x39 build/mp3tabs.o
 .ARM.attributes
                0x00000acd       0x39 build/bitstream.o
 .ARM.attributes
                0x00000b06       0x39 build/buffers.o
 .ARM.attributes
                0x00000b3f       0x39 build/dct32.o
 .ARM.attributes
                0x00000b78       0x39 build/dequant.o
 .ARM.attributes
                0x00000bb1       0x39 build/dqchan.o
 .ARM.attributes
                0x00000bea       0x39 build/huffman.o
 .ARM.attributes
                0x00000c23       0x39 build/hufftabs.o
 .ARM.attributes
                0x00000c5c       0x39 build/imdct.o
 .ARM.attributes
                0x00000c95       0x39 build/polyphase.o
 .ARM.attributes
                0x00000cce       0x39 build/scalfact.o
 .ARM.attributes
                0x00000d07       0x39 build/stproc.o
 .ARM.attributes
                0x00000d40       0x39 build/subband.o
 .ARM.attributes
                0x00000d79       0x39 build/trigtabs_fixpt.o
 .ARM.attributes
                0x00000db2       0x21 build/startup_stm32f407xx.o
 .ARM.attributes
                0x00000dd3       0x34 c:/gcc_toolchain/6_2017-q1-update/bin/../lib/gcc/arm-none-eabi/6.3.1/../../../../arm-none-eabi/lib/thumb/v7e-m/fpv4-sp/hard\libc_nano.a(lib_a-impure.o)
 .ARM.attributes
                0x00000e07       0x34 c:/gcc_toolchain/6_2017-q1-update/bin/../lib/gcc/arm-none-eabi/6.3.1/../../../../arm-none-eabi/lib/thumb/v7e-m/fpv4-sp/hard\libc_nano.a(lib_a-init.o)
 .ARM.attributes
                0x00000e3b       0x34 c:/gcc_toolchain/6_2017-q1-update/bin/../lib/gcc/arm-none-eabi/6.3.1/../../../../arm-none-eabi/lib/thumb/v7e-m/fpv4-sp/hard\libc_nano.a(lib_a-malloc.o)
 .ARM.attributes
                0x00000e6f       0x34 c:/gcc_toolchain/6_2017-q1-update/bin/../lib/gcc/arm-none-eabi/6.3.1/../../../../arm-none-eabi/lib/thumb/v7e-m/fpv4-sp/hard\libc_nano.a(lib_a-memcpy-stub.o)
 .ARM.attributes
                0x00000ea3       0x34 c:/gcc_toolchain/6_2017-q1-update/bin/../lib/gcc/arm-none-eabi/6.3.1/../../../../arm-none-eabi/lib/thumb/v7e-m/fpv4-sp/hard\libc_nano.a(lib_a-memmove.o)
 .ARM.attributes
                0x00000ed7       0x34 c:/gcc_toolchain/6_2017-q1-update/bin/../lib/gcc/arm-none-eabi/6.3.1/../../../../arm-none-eabi/lib/thumb/v7e-m/fpv4-sp/hard\libc_nano.a(lib_a-memset.o)
 .ARM.attributes
                0x00000f0b       0x34 c:/gcc_toolchain/6_2017-q1-update/bin/../lib/gcc/arm-none-eabi/6.3.1/../../../../arm-none-eabi/lib/thumb/v7e-m/fpv4-sp/hard\libc_nano.a(lib_a-nano-freer.o)
 .ARM.attributes
                0x00000f3f       0x34 c:/gcc_toolchain/6_2017-q1-update/bin/../lib/gcc/arm-none-eabi/6.3.1/../../../../arm-none-eabi/lib/thumb/v7e-m/fpv4-sp/hard\libc_nano.a(lib_a-nano-mallocr.o)
 .ARM.attributes
                0x00000f73       0x34 c:/gcc_toolchain/6_2017-q1-update/bin/../lib/gcc/arm-none-eabi/6.3.1/../../../../arm-none-eabi/lib/thumb/v7e-m/fpv4-sp/hard\libc_nano.a(lib_a-printf.o)
 .ARM.attributes
                0x00000fa7       0x34 c:/gcc_toolchain/6_2017-q1-update/bin/../lib/gcc/arm-none-eabi/6.3.1/../../../../arm-none-eabi/lib/thumb/v7e-m/fpv4-sp/hard\libc_nano.a(lib_a-findfp.o)
 .ARM.attributes
                0x00000fdb       0x34 c:/gcc_toolchain/6_2017-q1-update/bin/../lib/gcc/arm-none-eabi/6.3.1/../../../../arm-none-eabi/lib/thumb/v7e-m/fpv4-sp/hard\libc_nano.a(lib_a-fwalk.o)
 .ARM.attributes
                0x0000100f       0x34 c:/gcc_toolchain/6_2017-q1-update/bin/../lib/gcc/arm-none-eabi/6.3.1/../../../../arm-none-eabi/lib/thumb/v7e-m/fpv4-sp/hard\libc_nano.a(lib_a-mlock.o)
 .ARM.attributes
                0x00001043       0x34 c:/gcc_toolchain/6_2017-q1-update/bin/../lib/gcc/arm-none-eabi/6.3.1/../../../../arm-none-eabi/lib/thumb/v7e-m/fpv4-sp/hard\libc_nano.a(lib_a-nano-vfprintf.o)
 .ARM.attributes
                0x00001077       0x34 c:/gcc_toolchain/6_2017-q1-update/bin/../lib/gcc/arm-none-eabi/6.3.1/../../../../arm-none-eabi/lib/thumb/v7e-m/fpv4-sp/hard\libc_nano.a(lib_a-nano-vfprintf_i.o)
 .ARM.attributes
                0x000010ab       0x34 c:/gcc_toolchain/6_2017-q1-update/bin/../lib/gcc/arm-none-eabi/6.3.1/../../../../arm-none-eabi/lib/thumb/v7e-m/fpv4-sp/hard\libc_nano.a(lib_a-stdio.o)
 .ARM.attributes
                0x000010df       0x34 c:/gcc_toolchain/6_2017-q1-update/bin/../lib/gcc/arm-none-eabi/6.3.1/../../../../arm-none-eabi/lib/thumb/v7e-m/fpv4-sp/hard\libc_nano.a(lib_a-wbuf.o)
 .ARM.attributes
                0x00001113       0x34 c:/gcc_toolchain/6_2017-q1-update/bin/../lib/gcc/arm-none-eabi/6.3.1/../../../../arm-none-eabi/lib/thumb/v7e-m/fpv4-sp/hard\libc_nano.a(lib_a-wsetup.o)
 .ARM.attributes
                0x00001147       0x34 c:/gcc_toolchain/6_2017-q1-update/bin/../lib/gcc/arm-none-eabi/6.3.1/../../../../arm-none-eabi/lib/thumb/v7e-m/fpv4-sp/hard\libc_nano.a(lib_a-closer.o)
 .ARM.attributes
                0x0000117b       0x34 c:/gcc_toolchain/6_2017-q1-update/bin/../lib/gcc/arm-none-eabi/6.3.1/../../../../arm-none-eabi/lib/thumb/v7e-m/fpv4-sp/hard\libc_nano.a(lib_a-fflush.o)
 .ARM.attributes
                0x000011af       0x34 c:/gcc_toolchain/6_2017-q1-update/bin/../lib/gcc/arm-none-eabi/6.3.1/../../../../arm-none-eabi/lib/thumb/v7e-m/fpv4-sp/hard\libc_nano.a(lib_a-lseekr.o)
 .ARM.attributes
                0x000011e3       0x34 c:/gcc_toolchain/6_2017-q1-update/bin/../lib/gcc/arm-none-eabi/6.3.1/../../../../arm-none-eabi/lib/thumb/v7e-m/fpv4-sp/hard\libc_nano.a(lib_a-makebuf.o)
 .ARM.attributes
                0x00001217       0x20 c:/gcc_toolchain/6_2017-q1-update/bin/../lib/gcc/arm-none-eabi/6.3.1/../../../../arm-none-eabi/lib/thumb/v7e-m/fpv4-sp/hard\libc_nano.a(lib_a-memchr.o)
 .ARM.attributes
                0x00001237       0x34 c:/gcc_toolchain/6_2017-q1-update/bin/../lib/gcc/arm-none-eabi/6.3.1/../../../../arm-none-eabi/lib/thumb/v7e-m/fpv4-sp/hard\libc_nano.a(lib_a-reent.o)
 .ARM.attributes
                0x0000126b       0x34 c:/gcc_toolchain/6_2017-q1-update/bin/../lib/gcc/arm-none-eabi/6.3.1/../../../../arm-none-eabi/lib/thumb/v7e-m/fpv4-sp/hard\libc_nano.a(lib_a-fstatr.o)
 .ARM.attributes
                0x0000129f       0x34 c:/gcc_toolchain/6_2017-q1-update/bin/../lib/gcc/arm-none-eabi/6.3.1/../../../../arm-none-eabi/lib/thumb/v7e-m/fpv4-sp/hard\libc_nano.a(lib_a-isattyr.o)
 .ARM.attributes
                0x000012d3       0x34 c:/gcc_toolchain/6_2017-q1-update/bin/../lib/gcc/arm-none-eabi/6.3.1/../../../../arm-none-eabi/lib/thumb/v7e-m/fpv4-sp/hard\libnosys.a(close.o)
 .ARM.attributes
                0x00001307       0x34 c:/gcc_toolchain/6_2017-q1-update/bin/../lib/gcc/arm-none-eabi/6.3.1/../../../../arm-none-eabi/lib/thumb/v7e-m/fpv4-sp/hard\libnosys.a(fstat.o)
 .ARM.attributes
                0x0000133b       0x34 c:/gcc_toolchain/6_2017-q1-update/bin/../lib/gcc/arm-none-eabi/6.3.1/../../../../arm-none-eabi/lib/thumb/v7e-m/fpv4-sp/hard\libnosys.a(isatty.o)
 .ARM.attributes
                0x0000136f       0x34 c:/gcc_toolchain/6_2017-q1-update/bin/../lib/gcc/arm-none-eabi/6.3.1/../../../../arm-none-eabi/lib/thumb/v7e-m/fpv4-sp/hard\libnosys.a(lseek.o)
 .ARM.attributes
                0x000013a3       0x22 c:/gcc_toolchain/6_2017-q1-update/bin/../lib/gcc/arm-none-eabi/6.3.1/thumb/v7e-m/fpv4-sp/hard\libgcc.a(_aeabi_uldivmod.o)
 .ARM.attributes
                0x000013c5       0x34 c:/gcc_toolchain/6_2017-q1-update/bin/../lib/gcc/arm-none-eabi/6.3.1/thumb/v7e-m/fpv4-sp/hard\libgcc.a(_udivmoddi4.o)
 .ARM.attributes
                0x000013f9       0x22 c:/gcc_toolchain/6_2017-q1-update/bin/../lib/gcc/arm-none-eabi/6.3.1/thumb/v7e-m/fpv4-sp/hard\libgcc.a(_dvmd_tls.o)
 .ARM.attributes
                0x0000141b       0x22 c:/gcc_toolchain/6_2017-q1-update/bin/../lib/gcc/arm-none-eabi/6.3.1/thumb/v7e-m/fpv4-sp/hard/crtn.o
OUTPUT(build/MP3Player.elf elf32-littlearm)

.debug_info     0x00000000    0x62ea1
 .debug_info    0x00000000     0x2594 build/cmsis_os.o
 .debug_info    0x00002594     0x2171 build/usbh_msc.o
 .debug_info    0x00004705     0x3a02 build/stm32f4xx_hal_tim.o
 .debug_info    0x00008107     0x157e build/stm32f4xx_hal_timebase_TIM.o
 .debug_info    0x00009685      0xe6b build/stm32f4xx_hal_rng.o
 .debug_info    0x0000a4f0     0x19b5 build/stm32f4xx_hal_i2s.o
 .debug_info    0x0000bea5      0xe68 build/system_stm32f4xx.o
 .debug_info    0x0000cd0d     0x1627 build/ff_gen_drv.o
 .debug_info    0x0000e334     0x2b18 build/tasks.o
 .debug_info    0x00010e4c     0x13fc build/usb_host.o
 .debug_info    0x00012248     0x129e build/stm32f4xx_hal.o
 .debug_info    0x000134e6     0x2149 build/stm32f4xx_hal_uart.o
 .debug_info    0x0001562f     0x10e7 build/stm32f4xx_hal_gpio.o
 .debug_info    0x00016716     0x18f9 build/stm32f4xx_hal_cortex.o
 .debug_info    0x0001800f     0x270f build/usbh_conf.o
 .debug_info    0x0001a71e     0x246a build/stm32f4_discovery.o
 .debug_info    0x0001cb88     0x2808 build/stm32f4_discovery_audio.o
 .debug_info    0x0001f390     0x1771 build/stm32f4xx_hal_i2s_ex.o
 .debug_info    0x00020b01     0x14f7 build/usbh_pipes.o
 .debug_info    0x00021ff8     0x1d07 build/usbh_msc_scsi.o
 .debug_info    0x00023cff     0x56e7 build/ff.o
 .debug_info    0x000293e6     0x4c86 build/main.o
 .debug_info    0x0002e06c     0x21ad build/usbh_core.o
 .debug_info    0x00030219     0x2127 build/queue.o
 .debug_info    0x00032340     0x1b5a build/stm32f4xx_hal_hcd.o
 .debug_info    0x00033e9a     0x13ce build/stm32f4xx_hal_dma.o
 .debug_info    0x00035268     0x179e build/stm32f4xx_it.o
 .debug_info    0x00036a06     0x1d46 build/stm32f4xx_hal_tim_ex.o
 .debug_info    0x0003874c      0xd6c build/heap_4.o
 .debug_info    0x000394b8     0x1e40 build/usbh_msc_bot.o
 .debug_info    0x0003b2f8     0x2186 build/stm32f4xx_ll_usb.o
 .debug_info    0x0003d47e      0x558 build/port.o
 .debug_info    0x0003d9d6     0x396c build/stm32f4xx_hal_i2c.o
 .debug_info    0x00041342     0x1dda build/usbh_ctlreq.o
 .debug_info    0x0004311c      0xf1a build/stm32f4xx_hal_rcc_ex.o
 .debug_info    0x00044036     0x1913 build/usbh_diskio.o
 .debug_info    0x00045949     0x243b build/stm32f4xx_hal_spi.o
 .debug_info    0x00047d84     0x16af build/diskio.o
 .debug_info    0x00049433     0x1863 build/usbh_ioreq.o
 .debug_info    0x0004ac96     0x212e build/stm32f4xx_hal_msp.o
 .debug_info    0x0004cdc4      0xbd8 build/list.o
 .debug_info    0x0004d99c     0x13c0 build/stm32f4xx_hal_rcc.o
 .debug_info    0x0004ed5c     0x1784 build/fatfs.o
 .debug_info    0x000504e0     0x1512 build/syscall.o
 .debug_info    0x000519f2      0xac7 build/cs43l22.o
 .debug_info    0x000524b9     0x13cd build/mp3dec.o
 .debug_info    0x00053886      0x222 build/mp3tabs.o
 .debug_info    0x00053aa8      0xdf0 build/bitstream.o
 .debug_info    0x00054898     0x16d5 build/buffers.o
 .debug_info    0x00055f6d      0xfa0 build/dct32.o
 .debug_info    0x00056f0d      0xd14 build/dequant.o
 .debug_info    0x00057c21      0xd24 build/dqchan.o
 .debug_info    0x00058945      0xdfb build/huffman.o
 .debug_info    0x00059740      0x47c build/hufftabs.o
 .debug_info    0x00059bbc     0x3372 build/imdct.o
 .debug_info    0x0005cf2e     0x31e5 build/polyphase.o
 .debug_info    0x00060113      0xfe3 build/scalfact.o
 .debug_info    0x000610f6     0x103b build/stproc.o
 .debug_info    0x00062131      0x87c build/subband.o
 .debug_info    0x000629ad      0x4ac build/trigtabs_fixpt.o
 .debug_info    0x00062e59       0x48 build/startup_stm32f407xx.o

.debug_abbrev   0x00000000     0xa50e
 .debug_abbrev  0x00000000      0x3cf build/cmsis_os.o
 .debug_abbrev  0x000003cf      0x358 build/usbh_msc.o
 .debug_abbrev  0x00000727      0x30c build/stm32f4xx_hal_tim.o
 .debug_abbrev  0x00000a33      0x277 build/stm32f4xx_hal_timebase_TIM.o
 .debug_abbrev  0x00000caa      0x2e7 build/stm32f4xx_hal_rng.o
 .debug_abbrev  0x00000f91      0x343 build/stm32f4xx_hal_i2s.o
 .debug_abbrev  0x000012d4      0x1e6 build/system_stm32f4xx.o
 .debug_abbrev  0x000014ba      0x2d0 build/ff_gen_drv.o
 .debug_abbrev  0x0000178a      0x3fe build/tasks.o
 .debug_abbrev  0x00001b88      0x288 build/usb_host.o
 .debug_abbrev  0x00001e10      0x2ee build/stm32f4xx_hal.o
 .debug_abbrev  0x000020fe      0x373 build/stm32f4xx_hal_uart.o
 .debug_abbrev  0x00002471      0x2bc build/stm32f4xx_hal_gpio.o
 .debug_abbrev  0x0000272d      0x3da build/stm32f4xx_hal_cortex.o
 .debug_abbrev  0x00002b07      0x367 build/usbh_conf.o
 .debug_abbrev  0x00002e6e      0x336 build/stm32f4_discovery.o
 .debug_abbrev  0x000031a4      0x383 build/stm32f4_discovery_audio.o
 .debug_abbrev  0x00003527      0x318 build/stm32f4xx_hal_i2s_ex.o
 .debug_abbrev  0x0000383f      0x2b7 build/usbh_pipes.o
 .debug_abbrev  0x00003af6      0x2e2 build/usbh_msc_scsi.o
 .debug_abbrev  0x00003dd8      0x389 build/ff.o
 .debug_abbrev  0x00004161      0x4da build/main.o
 .debug_abbrev  0x0000463b      0x411 build/usbh_core.o
 .debug_abbrev  0x00004a4c      0x38b build/queue.o
 .debug_abbrev  0x00004dd7      0x323 build/stm32f4xx_hal_hcd.o
 .debug_abbrev  0x000050fa      0x326 build/stm32f4xx_hal_dma.o
 .debug_abbrev  0x00005420      0x22a build/stm32f4xx_it.o
 .debug_abbrev  0x0000564a      0x2f4 build/stm32f4xx_hal_tim_ex.o
 .debug_abbrev  0x0000593e      0x312 build/heap_4.o
 .debug_abbrev  0x00005c50      0x2ff build/usbh_msc_bot.o
 .debug_abbrev  0x00005f4f      0x31e build/stm32f4xx_ll_usb.o
 .debug_abbrev  0x0000626d      0x21f build/port.o
 .debug_abbrev  0x0000648c      0x32c build/stm32f4xx_hal_i2c.o
 .debug_abbrev  0x000067b8      0x374 build/usbh_ctlreq.o
 .debug_abbrev  0x00006b2c      0x277 build/stm32f4xx_hal_rcc_ex.o
 .debug_abbrev  0x00006da3      0x2b3 build/usbh_diskio.o
 .debug_abbrev  0x00007056      0x321 build/stm32f4xx_hal_spi.o
 .debug_abbrev  0x00007377      0x2c0 build/diskio.o
 .debug_abbrev  0x00007637      0x261 build/usbh_ioreq.o
 .debug_abbrev  0x00007898      0x29f build/stm32f4xx_hal_msp.o
 .debug_abbrev  0x00007b37      0x217 build/list.o
 .debug_abbrev  0x00007d4e      0x324 build/stm32f4xx_hal_rcc.o
 .debug_abbrev  0x00008072      0x275 build/fatfs.o
 .debug_abbrev  0x000082e7      0x295 build/syscall.o
 .debug_abbrev  0x0000857c      0x1fd build/cs43l22.o
 .debug_abbrev  0x00008779      0x314 build/mp3dec.o
 .debug_abbrev  0x00008a8d       0x88 build/mp3tabs.o
 .debug_abbrev  0x00008b15      0x290 build/bitstream.o
 .debug_abbrev  0x00008da5      0x265 build/buffers.o
 .debug_abbrev  0x0000900a      0x1b5 build/dct32.o
 .debug_abbrev  0x000091bf      0x1f8 build/dequant.o
 .debug_abbrev  0x000093b7      0x21b build/dqchan.o
 .debug_abbrev  0x000095d2      0x1ff build/huffman.o
 .debug_abbrev  0x000097d1       0xdd build/hufftabs.o
 .debug_abbrev  0x000098ae      0x35c build/imdct.o
 .debug_abbrev  0x00009c0a      0x26a build/polyphase.o
 .debug_abbrev  0x00009e74      0x206 build/scalfact.o
 .debug_abbrev  0x0000a07a      0x220 build/stproc.o
 .debug_abbrev  0x0000a29a      0x174 build/subband.o
 .debug_abbrev  0x0000a40e       0xee build/trigtabs_fixpt.o
 .debug_abbrev  0x0000a4fc       0x12 build/startup_stm32f407xx.o

.debug_loc      0x00000000    0x31c21
 .debug_loc     0x00000000     0x16ee build/cmsis_os.o
 .debug_loc     0x000016ee      0xac7 build/usbh_msc.o
 .debug_loc     0x000021b5     0x3f30 build/stm32f4xx_hal_tim.o
 .debug_loc     0x000060e5       0xae build/stm32f4xx_hal_timebase_TIM.o
 .debug_loc     0x00006193      0x398 build/stm32f4xx_hal_rng.o
 .debug_loc     0x0000652b     0x12d2 build/stm32f4xx_hal_i2s.o
 .debug_loc     0x000077fd      0x13e build/system_stm32f4xx.o
 .debug_loc     0x0000793b      0x2ab build/ff_gen_drv.o
 .debug_loc     0x00007be6     0x1a02 build/tasks.o
 .debug_loc     0x000095e8       0x20 build/usb_host.o
 .debug_loc     0x00009608      0x101 build/stm32f4xx_hal.o
 .debug_loc     0x00009709     0x19e6 build/stm32f4xx_hal_uart.o
 .debug_loc     0x0000b0ef      0x4b9 build/stm32f4xx_hal_gpio.o
 .debug_loc     0x0000b5a8      0x65e build/stm32f4xx_hal_cortex.o
 .debug_loc     0x0000bc06      0xc7d build/usbh_conf.o
 .debug_loc     0x0000c883      0x846 build/stm32f4_discovery.o
 .debug_loc     0x0000d0c9      0xc4a build/stm32f4_discovery_audio.o
 .debug_loc     0x0000dd13      0xe5c build/stm32f4xx_hal_i2s_ex.o
 .debug_loc     0x0000eb6f      0x244 build/usbh_pipes.o
 .debug_loc     0x0000edb3      0x6dc build/usbh_msc_scsi.o
 .debug_loc     0x0000f48f     0x5117 build/ff.o
 .debug_loc     0x000145a6      0xb8d build/main.o
 .debug_loc     0x00015133      0xaf7 build/usbh_core.o
 .debug_loc     0x00015c2a     0x113e build/queue.o
 .debug_loc     0x00016d68      0xd7e build/stm32f4xx_hal_hcd.o
 .debug_loc     0x00017ae6      0xc1d build/stm32f4xx_hal_dma.o
 .debug_loc     0x00018703       0xa0 build/stm32f4xx_it.o
 .debug_loc     0x000187a3     0x1298 build/stm32f4xx_hal_tim_ex.o
 .debug_loc     0x00019a3b      0x324 build/heap_4.o
 .debug_loc     0x00019d5f      0x6f7 build/usbh_msc_bot.o
 .debug_loc     0x0001a456     0x1b56 build/stm32f4xx_ll_usb.o
 .debug_loc     0x0001bfac      0x168 build/port.o
 .debug_loc     0x0001c114     0x3cc8 build/stm32f4xx_hal_i2c.o
 .debug_loc     0x0001fddc      0xe02 build/usbh_ctlreq.o
 .debug_loc     0x00020bde      0x30d build/stm32f4xx_hal_rcc_ex.o
 .debug_loc     0x00020eeb      0x4de build/usbh_diskio.o
 .debug_loc     0x000213c9     0x203c build/stm32f4xx_hal_spi.o
 .debug_loc     0x00023405      0x29c build/diskio.o
 .debug_loc     0x000236a1      0x707 build/usbh_ioreq.o
 .debug_loc     0x00023da8      0x36f build/stm32f4xx_hal_msp.o
 .debug_loc     0x00024117       0x9c build/list.o
 .debug_loc     0x000241b3      0x4d0 build/stm32f4xx_hal_rcc.o
 .debug_loc     0x00024683       0x20 build/fatfs.o
 .debug_loc     0x000246a3      0x18d build/syscall.o
 .debug_loc     0x00024830      0x80e build/cs43l22.o
 .debug_loc     0x0002503e      0x7d2 build/mp3dec.o
 .debug_loc     0x00025810      0x51e build/bitstream.o
 .debug_loc     0x00025d2e       0x3f build/buffers.o
 .debug_loc     0x00025d6d     0x171c build/dct32.o
 .debug_loc     0x00027489      0x2cc build/dequant.o
 .debug_loc     0x00027755      0x903 build/dqchan.o
 .debug_loc     0x00028058     0x1161 build/huffman.o
 .debug_loc     0x000291b9     0x3c4b build/imdct.o
 .debug_loc     0x0002ce04     0x30dd build/polyphase.o
 .debug_loc     0x0002fee1      0x939 build/scalfact.o
 .debug_loc     0x0003081a     0x1278 build/stproc.o
 .debug_loc     0x00031a92      0x18f build/subband.o

.debug_aranges  0x00000000     0x2638
 .debug_aranges
                0x00000000      0x1d8 build/cmsis_os.o
 .debug_aranges
                0x000001d8       0x78 build/usbh_msc.o
 .debug_aranges
                0x00000250      0x368 build/stm32f4xx_hal_tim.o
 .debug_aranges
                0x000005b8       0x30 build/stm32f4xx_hal_timebase_TIM.o
 .debug_aranges
                0x000005e8       0x80 build/stm32f4xx_hal_rng.o
 .debug_aranges
                0x00000668      0x108 build/stm32f4xx_hal_i2s.o
 .debug_aranges
                0x00000770       0x28 build/system_stm32f4xx.o
 .debug_aranges
                0x00000798       0x40 build/ff_gen_drv.o
 .debug_aranges
                0x000007d8      0x190 build/tasks.o
 .debug_aranges
                0x00000968       0x28 build/usb_host.o
 .debug_aranges
                0x00000990       0xc8 build/stm32f4xx_hal.o
 .debug_aranges
                0x00000a58      0x1d0 build/stm32f4xx_hal_uart.o
 .debug_aranges
                0x00000c28       0x58 build/stm32f4xx_hal_gpio.o
 .debug_aranges
                0x00000c80       0xa8 build/stm32f4xx_hal_cortex.o
 .debug_aranges
                0x00000d28       0xc0 build/usbh_conf.o
 .debug_aranges
                0x00000de8       0xd8 build/stm32f4_discovery.o
 .debug_aranges
                0x00000ec0      0x140 build/stm32f4_discovery_audio.o
 .debug_aranges
                0x00001000       0x78 build/stm32f4xx_hal_i2s_ex.o
 .debug_aranges
                0x00001078       0x40 build/usbh_pipes.o
 .debug_aranges
                0x000010b8       0x48 build/usbh_msc_scsi.o
 .debug_aranges
                0x00001100      0x218 build/ff.o
 .debug_aranges
                0x00001318      0x130 build/main.o
 .debug_aranges
                0x00001448       0xb8 build/usbh_core.o
 .debug_aranges
                0x00001500       0xe0 build/queue.o
 .debug_aranges
                0x000015e0       0xe0 build/stm32f4xx_hal_hcd.o
 .debug_aranges
                0x000016c0       0x90 build/stm32f4xx_hal_dma.o
 .debug_aranges
                0x00001750       0x40 build/stm32f4xx_it.o
 .debug_aranges
                0x00001790      0x140 build/stm32f4xx_hal_tim_ex.o
 .debug_aranges
                0x000018d0       0x50 build/heap_4.o
 .debug_aranges
                0x00001920       0x48 build/usbh_msc_bot.o
 .debug_aranges
                0x00001968      0x180 build/stm32f4xx_ll_usb.o
 .debug_aranges
                0x00001ae8       0x80 build/port.o
 .debug_aranges
                0x00001b68      0x268 build/stm32f4xx_hal_i2c.o
 .debug_aranges
                0x00001dd0       0x98 build/usbh_ctlreq.o
 .debug_aranges
                0x00001e68       0x38 build/stm32f4xx_hal_rcc_ex.o
 .debug_aranges
                0x00001ea0       0x40 build/usbh_diskio.o
 .debug_aranges
                0x00001ee0      0x1c8 build/stm32f4xx_hal_spi.o
 .debug_aranges
                0x000020a8       0x48 build/diskio.o
 .debug_aranges
                0x000020f0       0x60 build/usbh_ioreq.o
 .debug_aranges
                0x00002150       0x70 build/stm32f4xx_hal_msp.o
 .debug_aranges
                0x000021c0       0x40 build/list.o
 .debug_aranges
                0x00002200       0x88 build/stm32f4xx_hal_rcc.o
 .debug_aranges
                0x00002288       0x28 build/fatfs.o
 .debug_aranges
                0x000022b0       0x38 build/syscall.o
 .debug_aranges
                0x000022e8       0x80 build/cs43l22.o
 .debug_aranges
                0x00002368       0x58 build/mp3dec.o
 .debug_aranges
                0x000023c0       0x18 build/mp3tabs.o
 .debug_aranges
                0x000023d8       0x48 build/bitstream.o
 .debug_aranges
                0x00002420       0x30 build/buffers.o
 .debug_aranges
                0x00002450       0x20 build/dct32.o
 .debug_aranges
                0x00002470       0x20 build/dequant.o
 .debug_aranges
                0x00002490       0x28 build/dqchan.o
 .debug_aranges
                0x000024b8       0x30 build/huffman.o
 .debug_aranges
                0x000024e8       0x18 build/hufftabs.o
 .debug_aranges
                0x00002500       0x50 build/imdct.o
 .debug_aranges
                0x00002550       0x28 build/polyphase.o
 .debug_aranges
                0x00002578       0x30 build/scalfact.o
 .debug_aranges
                0x000025a8       0x30 build/stproc.o
 .debug_aranges
                0x000025d8       0x20 build/subband.o
 .debug_aranges
                0x000025f8       0x18 build/trigtabs_fixpt.o
 .debug_aranges
                0x00002610       0x28 build/startup_stm32f407xx.o

.debug_ranges   0x00000000     0x2440
 .debug_ranges  0x00000000      0x1c8 build/cmsis_os.o
 .debug_ranges  0x000001c8       0x68 build/usbh_msc.o
 .debug_ranges  0x00000230      0x358 build/stm32f4xx_hal_tim.o
 .debug_ranges  0x00000588       0x20 build/stm32f4xx_hal_timebase_TIM.o
 .debug_ranges  0x000005a8       0x70 build/stm32f4xx_hal_rng.o
 .debug_ranges  0x00000618       0xf8 build/stm32f4xx_hal_i2s.o
 .debug_ranges  0x00000710       0x18 build/system_stm32f4xx.o
 .debug_ranges  0x00000728       0x30 build/ff_gen_drv.o
 .debug_ranges  0x00000758      0x228 build/tasks.o
 .debug_ranges  0x00000980       0x18 build/usb_host.o
 .debug_ranges  0x00000998       0xb8 build/stm32f4xx_hal.o
 .debug_ranges  0x00000a50      0x1c0 build/stm32f4xx_hal_uart.o
 .debug_ranges  0x00000c10       0x48 build/stm32f4xx_hal_gpio.o
 .debug_ranges  0x00000c58       0xf8 build/stm32f4xx_hal_cortex.o
 .debug_ranges  0x00000d50       0xb0 build/usbh_conf.o
 .debug_ranges  0x00000e00       0xc8 build/stm32f4_discovery.o
 .debug_ranges  0x00000ec8      0x130 build/stm32f4_discovery_audio.o
 .debug_ranges  0x00000ff8       0x80 build/stm32f4xx_hal_i2s_ex.o
 .debug_ranges  0x00001078       0x30 build/usbh_pipes.o
 .debug_ranges  0x000010a8       0x38 build/usbh_msc_scsi.o
 .debug_ranges  0x000010e0      0x208 build/ff.o
 .debug_ranges  0x000012e8      0x120 build/main.o
 .debug_ranges  0x00001408       0xa8 build/usbh_core.o
 .debug_ranges  0x000014b0      0x180 build/queue.o
 .debug_ranges  0x00001630       0xd0 build/stm32f4xx_hal_hcd.o
 .debug_ranges  0x00001700       0x80 build/stm32f4xx_hal_dma.o
 .debug_ranges  0x00001780       0x30 build/stm32f4xx_it.o
 .debug_ranges  0x000017b0      0x130 build/stm32f4xx_hal_tim_ex.o
 .debug_ranges  0x000018e0       0x40 build/heap_4.o
 .debug_ranges  0x00001920       0x38 build/usbh_msc_bot.o
 .debug_ranges  0x00001958      0x170 build/stm32f4xx_ll_usb.o
 .debug_ranges  0x00001ac8       0x88 build/port.o
 .debug_ranges  0x00001b50      0x258 build/stm32f4xx_hal_i2c.o
 .debug_ranges  0x00001da8       0x88 build/usbh_ctlreq.o
 .debug_ranges  0x00001e30       0x28 build/stm32f4xx_hal_rcc_ex.o
 .debug_ranges  0x00001e58       0x30 build/usbh_diskio.o
 .debug_ranges  0x00001e88      0x1b8 build/stm32f4xx_hal_spi.o
 .debug_ranges  0x00002040       0x38 build/diskio.o
 .debug_ranges  0x00002078       0x50 build/usbh_ioreq.o
 .debug_ranges  0x000020c8       0x60 build/stm32f4xx_hal_msp.o
 .debug_ranges  0x00002128       0x30 build/list.o
 .debug_ranges  0x00002158       0x78 build/stm32f4xx_hal_rcc.o
 .debug_ranges  0x000021d0       0x18 build/fatfs.o
 .debug_ranges  0x000021e8       0x28 build/syscall.o
 .debug_ranges  0x00002210       0x70 build/cs43l22.o
 .debug_ranges  0x00002280       0x48 build/mp3dec.o
 .debug_ranges  0x000022c8       0x38 build/bitstream.o
 .debug_ranges  0x00002300       0x20 build/buffers.o
 .debug_ranges  0x00002320       0x10 build/dct32.o
 .debug_ranges  0x00002330       0x10 build/dequant.o
 .debug_ranges  0x00002340       0x18 build/dqchan.o
 .debug_ranges  0x00002358       0x20 build/huffman.o
 .debug_ranges  0x00002378       0x40 build/imdct.o
 .debug_ranges  0x000023b8       0x18 build/polyphase.o
 .debug_ranges  0x000023d0       0x20 build/scalfact.o
 .debug_ranges  0x000023f0       0x20 build/stproc.o
 .debug_ranges  0x00002410       0x10 build/subband.o
 .debug_ranges  0x00002420       0x20 build/startup_stm32f407xx.o

.debug_line     0x00000000    0x1434b
 .debug_line    0x00000000      0x895 build/cmsis_os.o
 .debug_line    0x00000895      0x5ca build/usbh_msc.o
 .debug_line    0x00000e5f     0x133e build/stm32f4xx_hal_tim.o
 .debug_line    0x0000219d      0x24d build/stm32f4xx_hal_timebase_TIM.o
 .debug_line    0x000023ea      0x362 build/stm32f4xx_hal_rng.o
 .debug_line    0x0000274c      0x7c2 build/stm32f4xx_hal_i2s.o
 .debug_line    0x00002f0e      0x1ae build/system_stm32f4xx.o
 .debug_line    0x000030bc      0x366 build/ff_gen_drv.o
 .debug_line    0x00003422      0xaae build/tasks.o
 .debug_line    0x00003ed0      0x2f7 build/usb_host.o
 .debug_line    0x000041c7      0x37c build/stm32f4xx_hal.o
 .debug_line    0x00004543      0xb28 build/stm32f4xx_hal_uart.o
 .debug_line    0x0000506b      0x36d build/stm32f4xx_hal_gpio.o
 .debug_line    0x000053d8      0x3f3 build/stm32f4xx_hal_cortex.o
 .debug_line    0x000057cb      0x582 build/usbh_conf.o
 .debug_line    0x00005d4d      0x49b build/stm32f4_discovery.o
 .debug_line    0x000061e8      0x704 build/stm32f4_discovery_audio.o
 .debug_line    0x000068ec      0x802 build/stm32f4xx_hal_i2s_ex.o
 .debug_line    0x000070ee      0x365 build/usbh_pipes.o
 .debug_line    0x00007453      0x457 build/usbh_msc_scsi.o
 .debug_line    0x000078aa     0x1407 build/ff.o
 .debug_line    0x00008cb1      0x9f1 build/main.o
 .debug_line    0x000096a2      0x5eb build/usbh_core.o
 .debug_line    0x00009c8d      0x785 build/queue.o
 .debug_line    0x0000a412      0x5af build/stm32f4xx_hal_hcd.o
 .debug_line    0x0000a9c1      0x514 build/stm32f4xx_hal_dma.o
 .debug_line    0x0000aed5      0x2e8 build/stm32f4xx_it.o
 .debug_line    0x0000b1bd      0x7c9 build/stm32f4xx_hal_tim_ex.o
 .debug_line    0x0000b986      0x31e build/heap_4.o
 .debug_line    0x0000bca4      0x522 build/usbh_msc_bot.o
 .debug_line    0x0000c1c6      0x85a build/stm32f4xx_ll_usb.o
 .debug_line    0x0000ca20      0x29c build/port.o
 .debug_line    0x0000ccbc     0x13da build/stm32f4xx_hal_i2c.o
 .debug_line    0x0000e096      0x5d8 build/usbh_ctlreq.o
 .debug_line    0x0000e66e      0x2d7 build/stm32f4xx_hal_rcc_ex.o
 .debug_line    0x0000e945      0x3b9 build/usbh_diskio.o
 .debug_line    0x0000ecfe      0xbf2 build/stm32f4xx_hal_spi.o
 .debug_line    0x0000f8f0      0x35f build/diskio.o
 .debug_line    0x0000fc4f      0x3af build/usbh_ioreq.o
 .debug_line    0x0000fffe      0x389 build/stm32f4xx_hal_msp.o
 .debug_line    0x00010387      0x277 build/list.o
 .debug_line    0x000105fe      0x484 build/stm32f4xx_hal_rcc.o
 .debug_line    0x00010a82      0x349 build/fatfs.o
 .debug_line    0x00010dcb      0x361 build/syscall.o
 .debug_line    0x0001112c      0x236 build/cs43l22.o
 .debug_line    0x00011362      0x2f6 build/mp3dec.o
 .debug_line    0x00011658       0x51 build/mp3tabs.o
 .debug_line    0x000116a9      0x2b5 build/bitstream.o
 .debug_line    0x0001195e      0x1bc build/buffers.o
 .debug_line    0x00011b1a      0x4cc build/dct32.o
 .debug_line    0x00011fe6      0x15c build/dequant.o
 .debug_line    0x00012142      0x26c build/dqchan.o
 .debug_line    0x000123ae      0x2a7 build/huffman.o
 .debug_line    0x00012655       0x6a build/hufftabs.o
 .debug_line    0x000126bf      0xb40 build/imdct.o
 .debug_line    0x000131ff      0x7ef build/polyphase.o
 .debug_line    0x000139ee      0x295 build/scalfact.o
 .debug_line    0x00013c83      0x4f7 build/stproc.o
 .debug_line    0x0001417a       0xed build/subband.o
 .debug_line    0x00014267       0x70 build/trigtabs_fixpt.o
 .debug_line    0x000142d7       0x74 build/startup_stm32f407xx.o

.debug_str      0x00000000     0xb667
 .debug_str     0x00000000     0x100c build/cmsis_os.o
                               0x1186 (size before relaxing)
 .debug_str     0x0000100c      0xeb7 build/usbh_msc.o
                               0x156b (size before relaxing)
 .debug_str     0x00001ec3     0x1151 build/stm32f4xx_hal_tim.o
                               0x179a (size before relaxing)
 .debug_str     0x00003014      0x731 build/stm32f4xx_hal_timebase_TIM.o
                               0x114b (size before relaxing)
 .debug_str     0x00003745      0x213 build/stm32f4xx_hal_rng.o
                                0x842 (size before relaxing)
 .debug_str     0x00003958      0x424 build/stm32f4xx_hal_i2s.o
                                0xd05 (size before relaxing)
 .debug_str     0x00003d7c       0xa7 build/system_stm32f4xx.o
                                0x744 (size before relaxing)
 .debug_str     0x00003e23      0x162 build/ff_gen_drv.o
                                0xef5 (size before relaxing)
 .debug_str     0x00003f85      0x99c build/tasks.o
                               0x11c6 (size before relaxing)
 .debug_str     0x00004921       0xcf build/usb_host.o
                                0xe76 (size before relaxing)
 .debug_str     0x000049f0      0x24b build/stm32f4xx_hal.o
                                0xe7d (size before relaxing)
 .debug_str     0x00004c3b      0x6a6 build/stm32f4xx_hal_uart.o
                                0xfd7 (size before relaxing)
 .debug_str     0x000052e1      0x1c3 build/stm32f4xx_hal_gpio.o
                                0x8d5 (size before relaxing)
 .debug_str     0x000054a4      0x34a build/stm32f4xx_hal_cortex.o
                               0x100a (size before relaxing)
 .debug_str     0x000057ee      0x77e build/usbh_conf.o
                               0x1cd6 (size before relaxing)
 .debug_str     0x00005f6c      0x6bc build/stm32f4_discovery.o
                               0x16a8 (size before relaxing)
 .debug_str     0x00006628      0x5b2 build/stm32f4_discovery_audio.o
                               0x1823 (size before relaxing)
 .debug_str     0x00006bda      0x1ce build/stm32f4xx_hal_i2s_ex.o
                                0xc39 (size before relaxing)
 .debug_str     0x00006da8       0x55 build/usbh_pipes.o
                                0xea2 (size before relaxing)
 .debug_str     0x00006dfd       0x64 build/usbh_msc_scsi.o
                               0x1339 (size before relaxing)
 .debug_str     0x00006e61      0x619 build/ff.o
                               0x1496 (size before relaxing)
 .debug_str     0x0000747a      0x8bb build/main.o
                               0x30dd (size before relaxing)
 .debug_str     0x00007d35      0x19d build/usbh_core.o
                               0x13fe (size before relaxing)
 .debug_str     0x00007ed2      0x329 build/queue.o
                                0xcc6 (size before relaxing)
 .debug_str     0x000081fb      0x2fd build/stm32f4xx_hal_hcd.o
                                0xe99 (size before relaxing)
 .debug_str     0x000084f8      0x2ac build/stm32f4xx_hal_dma.o
                                0xb66 (size before relaxing)
 .debug_str     0x000087a4       0x7e build/stm32f4xx_it.o
                               0x101d (size before relaxing)
 .debug_str     0x00008822      0x50a build/stm32f4xx_hal_tim_ex.o
                               0x105a (size before relaxing)
 .debug_str     0x00008d2c      0x1e9 build/heap_4.o
                                0x7bf (size before relaxing)
 .debug_str     0x00008f15      0x11f build/usbh_msc_bot.o
                               0x14df (size before relaxing)
 .debug_str     0x00009034      0x448 build/stm32f4xx_ll_usb.o
                                0xf85 (size before relaxing)
 .debug_str     0x0000947c      0x175 build/port.o
                                0x445 (size before relaxing)
 .debug_str     0x000095f1      0x751 build/stm32f4xx_hal_i2c.o
                               0x131b (size before relaxing)
 .debug_str     0x00009d42      0x1d3 build/usbh_ctlreq.o
                               0x1140 (size before relaxing)
 .debug_str     0x00009f15       0x93 build/stm32f4xx_hal_rcc_ex.o
                                0x872 (size before relaxing)
 .debug_str     0x00009fa8       0x4e build/usbh_diskio.o
                               0x10cd (size before relaxing)
 .debug_str     0x00009ff6      0x47e build/stm32f4xx_hal_spi.o
                                0xf5f (size before relaxing)
 .debug_str     0x0000a474       0x2b build/diskio.o
                                0xe9f (size before relaxing)
 .debug_str     0x0000a49f       0x94 build/usbh_ioreq.o
                                0xf0c (size before relaxing)
 .debug_str     0x0000a533       0x18 build/stm32f4xx_hal_msp.o
                               0x16fc (size before relaxing)
 .debug_str     0x0000a54b       0x6c build/list.o
                                0x6e0 (size before relaxing)
 .debug_str     0x0000a5b7       0xfc build/stm32f4xx_hal_rcc.o
                                0xa84 (size before relaxing)
 .debug_str     0x0000a6b3        0xc build/fatfs.o
                                0xf98 (size before relaxing)
 .debug_str     0x0000a6bf       0x48 build/syscall.o
                                0xf85 (size before relaxing)
 .debug_str     0x0000a707      0x133 build/cs43l22.o
                                0x3b2 (size before relaxing)
 .debug_str     0x0000a83a      0x372 build/mp3dec.o
                                0xb03 (size before relaxing)
 .debug_str     0x0000abac       0x14 build/mp3tabs.o
                                0x231 (size before relaxing)
 .debug_str     0x0000abc0      0x386 build/bitstream.o
                                0x793 (size before relaxing)
 .debug_str     0x0000af46      0x16f build/buffers.o
                                0xc44 (size before relaxing)
 .debug_str     0x0000b0b5       0x4d build/dct32.o
                                0x40b (size before relaxing)
 .debug_str     0x0000b102       0x90 build/dequant.o
                                0x7fe (size before relaxing)
 .debug_str     0x0000b192       0xd5 build/dqchan.o
                                0x6bf (size before relaxing)
 .debug_str     0x0000b267       0x9d build/huffman.o
                                0x7f1 (size before relaxing)
 .debug_str     0x0000b304       0x1a build/hufftabs.o
                                0x3c7 (size before relaxing)
 .debug_str     0x0000b31e      0x173 build/imdct.o
                                0x87f (size before relaxing)
 .debug_str     0x0000b491       0xb3 build/polyphase.o
                                0x46f (size before relaxing)
 .debug_str     0x0000b544       0x7e build/scalfact.o
                                0x81a (size before relaxing)
 .debug_str     0x0000b5c2       0x4f build/stproc.o
                                0x5d3 (size before relaxing)
 .debug_str     0x0000b611       0x20 build/subband.o
                                0x5f3 (size before relaxing)
 .debug_str     0x0000b631       0x36 build/trigtabs_fixpt.o
                                0x3e3 (size before relaxing)

.comment        0x00000000       0x7f
 .comment       0x00000000       0x7f build/cmsis_os.o
                                 0x80 (size before relaxing)
 .comment       0x0000007f       0x80 build/usbh_msc.o
 .comment       0x0000007f       0x80 build/stm32f4xx_hal_tim.o
 .comment       0x0000007f       0x80 build/stm32f4xx_hal_timebase_TIM.o
 .comment       0x0000007f       0x80 build/stm32f4xx_hal_rng.o
 .comment       0x0000007f       0x80 build/stm32f4xx_hal_i2s.o
 .comment       0x0000007f       0x80 build/system_stm32f4xx.o
 .comment       0x0000007f       0x80 build/ff_gen_drv.o
 .comment       0x0000007f       0x80 build/tasks.o
 .comment       0x0000007f       0x80 build/usb_host.o
 .comment       0x0000007f       0x80 build/stm32f4xx_hal.o
 .comment       0x0000007f       0x80 build/stm32f4xx_hal_uart.o
 .comment       0x0000007f       0x80 build/stm32f4xx_hal_gpio.o
 .comment       0x0000007f       0x80 build/stm32f4xx_hal_cortex.o
 .comment       0x0000007f       0x80 build/usbh_conf.o
 .comment       0x0000007f       0x80 build/stm32f4_discovery.o
 .comment       0x0000007f       0x80 build/stm32f4_discovery_audio.o
 .comment       0x0000007f       0x80 build/stm32f4xx_hal_i2s_ex.o
 .comment       0x0000007f       0x80 build/usbh_pipes.o
 .comment       0x0000007f       0x80 build/usbh_msc_scsi.o
 .comment       0x0000007f       0x80 build/ff.o
 .comment       0x0000007f       0x80 build/main.o
 .comment       0x0000007f       0x80 build/usbh_core.o
 .comment       0x0000007f       0x80 build/queue.o
 .comment       0x0000007f       0x80 build/stm32f4xx_hal_hcd.o
 .comment       0x0000007f       0x80 build/stm32f4xx_hal_dma.o
 .comment       0x0000007f       0x80 build/stm32f4xx_it.o
 .comment       0x0000007f       0x80 build/stm32f4xx_hal_tim_ex.o
 .comment       0x0000007f       0x80 build/heap_4.o
 .comment       0x0000007f       0x80 build/usbh_msc_bot.o
 .comment       0x0000007f       0x80 build/stm32f4xx_ll_usb.o
 .comment       0x0000007f       0x80 build/port.o
 .comment       0x0000007f       0x80 build/stm32f4xx_hal_i2c.o
 .comment       0x0000007f       0x80 build/usbh_ctlreq.o
 .comment       0x0000007f       0x80 build/stm32f4xx_hal_rcc_ex.o
 .comment       0x0000007f       0x80 build/usbh_diskio.o
 .comment       0x0000007f       0x80 build/stm32f4xx_hal_spi.o
 .comment       0x0000007f       0x80 build/diskio.o
 .comment       0x0000007f       0x80 build/usbh_ioreq.o
 .comment       0x0000007f       0x80 build/stm32f4xx_hal_msp.o
 .comment       0x0000007f       0x80 build/list.o
 .comment       0x0000007f       0x80 build/stm32f4xx_hal_rcc.o
 .comment       0x0000007f       0x80 build/fatfs.o
 .comment       0x0000007f       0x80 build/syscall.o
 .comment       0x0000007f       0x80 build/cs43l22.o
 .comment       0x0000007f       0x80 build/mp3dec.o
 .comment       0x0000007f       0x80 build/mp3tabs.o
 .comment       0x0000007f       0x80 build/bitstream.o
 .comment       0x0000007f       0x80 build/buffers.o
 .comment       0x0000007f       0x80 build/dct32.o
 .comment       0x0000007f       0x80 build/dequant.o
 .comment       0x0000007f       0x80 build/dqchan.o
 .comment       0x0000007f       0x80 build/huffman.o
 .comment       0x0000007f       0x80 build/hufftabs.o
 .comment       0x0000007f       0x80 build/imdct.o
 .comment       0x0000007f       0x80 build/polyphase.o
 .comment       0x0000007f       0x80 build/scalfact.o
 .comment       0x0000007f       0x80 build/stproc.o
 .comment       0x0000007f       0x80 build/subband.o
 .comment       0x0000007f       0x80 build/trigtabs_fixpt.o

.debug_frame    0x00000000     0x8208
 .debug_frame   0x00000000      0x62c build/cmsis_os.o
 .debug_frame   0x0000062c      0x17c build/usbh_msc.o
 .debug_frame   0x000007a8      0xb18 build/stm32f4xx_hal_tim.o
 .debug_frame   0x000012c0       0x54 build/stm32f4xx_hal_timebase_TIM.o
 .debug_frame   0x00001314      0x134 build/stm32f4xx_hal_rng.o
 .debug_frame   0x00001448      0x364 build/stm32f4xx_hal_i2s.o
 .debug_frame   0x000017ac       0x30 build/system_stm32f4xx.o
 .debug_frame   0x000017dc       0x88 build/ff_gen_drv.o
 .debug_frame   0x00001864      0x588 build/tasks.o
 .debug_frame   0x00001dec       0x3c build/usb_host.o
 .debug_frame   0x00001e28      0x1a8 build/stm32f4xx_hal.o
 .debug_frame   0x00001fd0      0x57c build/stm32f4xx_hal_uart.o
 .debug_frame   0x0000254c       0xe4 build/stm32f4xx_hal_gpio.o
 .debug_frame   0x00002630      0x16c build/stm32f4xx_hal_cortex.o
 .debug_frame   0x0000279c      0x26c build/usbh_conf.o
 .debug_frame   0x00002a08      0x2f4 build/stm32f4_discovery.o
 .debug_frame   0x00002cfc      0x42c build/stm32f4_discovery_audio.o
 .debug_frame   0x00003128      0x1c0 build/stm32f4xx_hal_i2s_ex.o
 .debug_frame   0x000032e8       0x8c build/usbh_pipes.o
 .debug_frame   0x00003374       0xe0 build/usbh_msc_scsi.o
 .debug_frame   0x00003454      0x960 build/ff.o
 .debug_frame   0x00003db4      0x3f8 build/main.o
 .debug_frame   0x000041ac      0x248 build/usbh_core.o
 .debug_frame   0x000043f4      0x318 build/queue.o
 .debug_frame   0x0000470c      0x2d0 build/stm32f4xx_hal_hcd.o
 .debug_frame   0x000049dc      0x1a8 build/stm32f4xx_hal_dma.o
 .debug_frame   0x00004b84       0x9c build/stm32f4xx_it.o
 .debug_frame   0x00004c20      0x3f0 build/stm32f4xx_hal_tim_ex.o
 .debug_frame   0x00005010       0xbc build/heap_4.o
 .debug_frame   0x000050cc       0xbc build/usbh_msc_bot.o
 .debug_frame   0x00005188      0x4fc build/stm32f4xx_ll_usb.o
 .debug_frame   0x00005684      0x100 build/port.o
 .debug_frame   0x00005784      0x95c build/stm32f4xx_hal_i2c.o
 .debug_frame   0x000060e0      0x204 build/usbh_ctlreq.o
 .debug_frame   0x000062e4       0x78 build/stm32f4xx_hal_rcc_ex.o
 .debug_frame   0x0000635c       0xa8 build/usbh_diskio.o
 .debug_frame   0x00006404      0x5e8 build/stm32f4xx_hal_spi.o
 .debug_frame   0x000069ec       0xb4 build/diskio.o
 .debug_frame   0x00006aa0      0x154 build/usbh_ioreq.o
 .debug_frame   0x00006bf4      0x148 build/stm32f4xx_hal_msp.o
 .debug_frame   0x00006d3c       0x70 build/list.o
 .debug_frame   0x00006dac      0x1a4 build/stm32f4xx_hal_rcc.o
 .debug_frame   0x00006f50       0x3c build/fatfs.o
 .debug_frame   0x00006f8c       0x84 build/syscall.o
 .debug_frame   0x00007010      0x190 build/cs43l22.o
 .debug_frame   0x000071a0      0x160 build/mp3dec.o
 .debug_frame   0x00007300       0xe0 build/bitstream.o
 .debug_frame   0x000073e0       0x5c build/buffers.o
 .debug_frame   0x0000743c       0x48 build/dct32.o
 .debug_frame   0x00007484       0x80 build/dequant.o
 .debug_frame   0x00007504       0x84 build/dqchan.o
 .debug_frame   0x00007588       0xc0 build/huffman.o
 .debug_frame   0x00007648      0x19c build/imdct.o
 .debug_frame   0x000077e4       0x7c build/polyphase.o
 .debug_frame   0x00007860       0xac build/scalfact.o
 .debug_frame   0x0000790c       0xa4 build/stproc.o
 .debug_frame   0x000079b0       0x68 build/subband.o
 .debug_frame   0x00007a18       0x2c c:/gcc_toolchain/6_2017-q1-update/bin/../lib/gcc/arm-none-eabi/6.3.1/../../../../arm-none-eabi/lib/thumb/v7e-m/fpv4-sp/hard\libc_nano.a(lib_a-init.o)
 .debug_frame   0x00007a44       0x30 c:/gcc_toolchain/6_2017-q1-update/bin/../lib/gcc/arm-none-eabi/6.3.1/../../../../arm-none-eabi/lib/thumb/v7e-m/fpv4-sp/hard\libc_nano.a(lib_a-malloc.o)
 .debug_frame   0x00007a74       0x28 c:/gcc_toolchain/6_2017-q1-update/bin/../lib/gcc/arm-none-eabi/6.3.1/../../../../arm-none-eabi/lib/thumb/v7e-m/fpv4-sp/hard\libc_nano.a(lib_a-memcpy-stub.o)
 .debug_frame   0x00007a9c       0x28 c:/gcc_toolchain/6_2017-q1-update/bin/../lib/gcc/arm-none-eabi/6.3.1/../../../../arm-none-eabi/lib/thumb/v7e-m/fpv4-sp/hard\libc_nano.a(lib_a-memmove.o)
 .debug_frame   0x00007ac4       0x20 c:/gcc_toolchain/6_2017-q1-update/bin/../lib/gcc/arm-none-eabi/6.3.1/../../../../arm-none-eabi/lib/thumb/v7e-m/fpv4-sp/hard\libc_nano.a(lib_a-memset.o)
 .debug_frame   0x00007ae4       0x38 c:/gcc_toolchain/6_2017-q1-update/bin/../lib/gcc/arm-none-eabi/6.3.1/../../../../arm-none-eabi/lib/thumb/v7e-m/fpv4-sp/hard\libc_nano.a(lib_a-nano-freer.o)
 .debug_frame   0x00007b1c       0x2c c:/gcc_toolchain/6_2017-q1-update/bin/../lib/gcc/arm-none-eabi/6.3.1/../../../../arm-none-eabi/lib/thumb/v7e-m/fpv4-sp/hard\libc_nano.a(lib_a-nano-mallocr.o)
 .debug_frame   0x00007b48       0x74 c:/gcc_toolchain/6_2017-q1-update/bin/../lib/gcc/arm-none-eabi/6.3.1/../../../../arm-none-eabi/lib/thumb/v7e-m/fpv4-sp/hard\libc_nano.a(lib_a-printf.o)
 .debug_frame   0x00007bbc      0x11c c:/gcc_toolchain/6_2017-q1-update/bin/../lib/gcc/arm-none-eabi/6.3.1/../../../../arm-none-eabi/lib/thumb/v7e-m/fpv4-sp/hard\libc_nano.a(lib_a-findfp.o)
 .debug_frame   0x00007cd8       0x54 c:/gcc_toolchain/6_2017-q1-update/bin/../lib/gcc/arm-none-eabi/6.3.1/../../../../arm-none-eabi/lib/thumb/v7e-m/fpv4-sp/hard\libc_nano.a(lib_a-fwalk.o)
 .debug_frame   0x00007d2c       0x30 c:/gcc_toolchain/6_2017-q1-update/bin/../lib/gcc/arm-none-eabi/6.3.1/../../../../arm-none-eabi/lib/thumb/v7e-m/fpv4-sp/hard\libc_nano.a(lib_a-mlock.o)
 .debug_frame   0x00007d5c       0xac c:/gcc_toolchain/6_2017-q1-update/bin/../lib/gcc/arm-none-eabi/6.3.1/../../../../arm-none-eabi/lib/thumb/v7e-m/fpv4-sp/hard\libc_nano.a(lib_a-nano-vfprintf.o)
 .debug_frame   0x00007e08       0x60 c:/gcc_toolchain/6_2017-q1-update/bin/../lib/gcc/arm-none-eabi/6.3.1/../../../../arm-none-eabi/lib/thumb/v7e-m/fpv4-sp/hard\libc_nano.a(lib_a-nano-vfprintf_i.o)
 .debug_frame   0x00007e68       0x88 c:/gcc_toolchain/6_2017-q1-update/bin/../lib/gcc/arm-none-eabi/6.3.1/../../../../arm-none-eabi/lib/thumb/v7e-m/fpv4-sp/hard\libc_nano.a(lib_a-stdio.o)
 .debug_frame   0x00007ef0       0x40 c:/gcc_toolchain/6_2017-q1-update/bin/../lib/gcc/arm-none-eabi/6.3.1/../../../../arm-none-eabi/lib/thumb/v7e-m/fpv4-sp/hard\libc_nano.a(lib_a-wbuf.o)
 .debug_frame   0x00007f30       0x2c c:/gcc_toolchain/6_2017-q1-update/bin/../lib/gcc/arm-none-eabi/6.3.1/../../../../arm-none-eabi/lib/thumb/v7e-m/fpv4-sp/hard\libc_nano.a(lib_a-wsetup.o)
 .debug_frame   0x00007f5c       0x2c c:/gcc_toolchain/6_2017-q1-update/bin/../lib/gcc/arm-none-eabi/6.3.1/../../../../arm-none-eabi/lib/thumb/v7e-m/fpv4-sp/hard\libc_nano.a(lib_a-closer.o)
 .debug_frame   0x00007f88       0x68 c:/gcc_toolchain/6_2017-q1-update/bin/../lib/gcc/arm-none-eabi/6.3.1/../../../../arm-none-eabi/lib/thumb/v7e-m/fpv4-sp/hard\libc_nano.a(lib_a-fflush.o)
 .debug_frame   0x00007ff0       0x2c c:/gcc_toolchain/6_2017-q1-update/bin/../lib/gcc/arm-none-eabi/6.3.1/../../../../arm-none-eabi/lib/thumb/v7e-m/fpv4-sp/hard\libc_nano.a(lib_a-lseekr.o)
 .debug_frame   0x0000801c       0x58 c:/gcc_toolchain/6_2017-q1-update/bin/../lib/gcc/arm-none-eabi/6.3.1/../../../../arm-none-eabi/lib/thumb/v7e-m/fpv4-sp/hard\libc_nano.a(lib_a-makebuf.o)
 .debug_frame   0x00008074       0x5c c:/gcc_toolchain/6_2017-q1-update/bin/../lib/gcc/arm-none-eabi/6.3.1/../../../../arm-none-eabi/lib/thumb/v7e-m/fpv4-sp/hard\libc_nano.a(lib_a-reent.o)
 .debug_frame   0x000080d0       0x2c c:/gcc_toolchain/6_2017-q1-update/bin/../lib/gcc/arm-none-eabi/6.3.1/../../../../arm-none-eabi/lib/thumb/v7e-m/fpv4-sp/hard\libc_nano.a(lib_a-fstatr.o)
 .debug_frame   0x000080fc       0x2c c:/gcc_toolchain/6_2017-q1-update/bin/../lib/gcc/arm-none-eabi/6.3.1/../../../../arm-none-eabi/lib/thumb/v7e-m/fpv4-sp/hard\libc_nano.a(lib_a-isattyr.o)
 .debug_frame   0x00008128       0x20 c:/gcc_toolchain/6_2017-q1-update/bin/../lib/gcc/arm-none-eabi/6.3.1/../../../../arm-none-eabi/lib/thumb/v7e-m/fpv4-sp/hard\libnosys.a(close.o)
 .debug_frame   0x00008148       0x20 c:/gcc_toolchain/6_2017-q1-update/bin/../lib/gcc/arm-none-eabi/6.3.1/../../../../arm-none-eabi/lib/thumb/v7e-m/fpv4-sp/hard\libnosys.a(fstat.o)
 .debug_frame   0x00008168       0x20 c:/gcc_toolchain/6_2017-q1-update/bin/../lib/gcc/arm-none-eabi/6.3.1/../../../../arm-none-eabi/lib/thumb/v7e-m/fpv4-sp/hard\libnosys.a(isatty.o)
 .debug_frame   0x00008188       0x20 c:/gcc_toolchain/6_2017-q1-update/bin/../lib/gcc/arm-none-eabi/6.3.1/../../../../arm-none-eabi/lib/thumb/v7e-m/fpv4-sp/hard\libnosys.a(lseek.o)
 .debug_frame   0x000081a8       0x2c c:/gcc_toolchain/6_2017-q1-update/bin/../lib/gcc/arm-none-eabi/6.3.1/thumb/v7e-m/fpv4-sp/hard\libgcc.a(_aeabi_uldivmod.o)
 .debug_frame   0x000081d4       0x34 c:/gcc_toolchain/6_2017-q1-update/bin/../lib/gcc/arm-none-eabi/6.3.1/thumb/v7e-m/fpv4-sp/hard\libgcc.a(_udivmoddi4.o)

.stab           0x00000000       0x6c
 .stab          0x00000000       0x24 c:/gcc_toolchain/6_2017-q1-update/bin/../lib/gcc/arm-none-eabi/6.3.1/../../../../arm-none-eabi/lib/thumb/v7e-m/fpv4-sp/hard\libnosys.a(close.o)
 .stab          0x00000024       0x18 c:/gcc_toolchain/6_2017-q1-update/bin/../lib/gcc/arm-none-eabi/6.3.1/../../../../arm-none-eabi/lib/thumb/v7e-m/fpv4-sp/hard\libnosys.a(fstat.o)
                                 0x24 (size before relaxing)
 .stab          0x0000003c       0x18 c:/gcc_toolchain/6_2017-q1-update/bin/../lib/gcc/arm-none-eabi/6.3.1/../../../../arm-none-eabi/lib/thumb/v7e-m/fpv4-sp/hard\libnosys.a(isatty.o)
                                 0x24 (size before relaxing)
 .stab          0x00000054       0x18 c:/gcc_toolchain/6_2017-q1-update/bin/../lib/gcc/arm-none-eabi/6.3.1/../../../../arm-none-eabi/lib/thumb/v7e-m/fpv4-sp/hard\libnosys.a(lseek.o)
                                 0x24 (size before relaxing)

.stabstr        0x00000000       0xe3
 .stabstr       0x00000000       0xe3 c:/gcc_toolchain/6_2017-q1-update/bin/../lib/gcc/arm-none-eabi/6.3.1/../../../../arm-none-eabi/lib/thumb/v7e-m/fpv4-sp/hard\libnosys.a(close.o)

Cross Reference Table

Symbol                                            File
ACCELERO_IO_ITConfig                              build/stm32f4_discovery.o
ACCELERO_IO_Init                                  build/stm32f4_discovery.o
ACCELERO_IO_Read                                  build/stm32f4_discovery.o
ACCELERO_IO_Write                                 build/stm32f4_discovery.o
ADC_IRQHandler                                    build/startup_stm32f407xx.o
AHBPrescTable                                     build/system_stm32f4xx.o
                                                  build/stm32f4xx_hal_rcc.o
APBPrescTable                                     build/system_stm32f4xx.o
                                                  build/stm32f4xx_hal_rcc.o
AUDIO_IO_DeInit                                   build/stm32f4_discovery.o
                                                  build/cs43l22.o
AUDIO_IO_Init                                     build/stm32f4_discovery.o
                                                  build/cs43l22.o
AUDIO_IO_Read                                     build/stm32f4_discovery.o
                                                  build/cs43l22.o
AUDIO_IO_Write                                    build/stm32f4_discovery.o
                                                  build/cs43l22.o
Appli_state                                       build/usb_host.o
                                                  build/main.o
AudioInVolume                                     build/stm32f4_discovery_audio.o
AudioPlayStart                                    build/main.o
Audio_Buffer                                      build/main.o
BSP_AUDIO_IN_ClockConfig                          build/stm32f4_discovery_audio.o
BSP_AUDIO_IN_Error_Callback                       build/stm32f4_discovery_audio.o
BSP_AUDIO_IN_HalfTransfer_CallBack                build/stm32f4_discovery_audio.o
BSP_AUDIO_IN_Init                                 build/stm32f4_discovery_audio.o
BSP_AUDIO_IN_MspDeInit                            build/stm32f4_discovery_audio.o
BSP_AUDIO_IN_MspInit                              build/stm32f4_discovery_audio.o
BSP_AUDIO_IN_PDMToPCM                             build/stm32f4_discovery_audio.o
BSP_AUDIO_IN_Pause                                build/stm32f4_discovery_audio.o
BSP_AUDIO_IN_Record                               build/stm32f4_discovery_audio.o
BSP_AUDIO_IN_Resume                               build/stm32f4_discovery_audio.o
BSP_AUDIO_IN_SetVolume                            build/stm32f4_discovery_audio.o
BSP_AUDIO_IN_Stop                                 build/stm32f4_discovery_audio.o
BSP_AUDIO_IN_TransferComplete_CallBack            build/stm32f4_discovery_audio.o
BSP_AUDIO_OUT_ChangeBuffer                        build/stm32f4_discovery_audio.o
                                                  build/main.o
BSP_AUDIO_OUT_ClockConfig                         build/stm32f4_discovery_audio.o
BSP_AUDIO_OUT_Error_CallBack                      build/main.o
                                                  build/stm32f4_discovery_audio.o
BSP_AUDIO_OUT_HalfTransfer_CallBack               build/main.o
                                                  build/stm32f4_discovery_audio.o
BSP_AUDIO_OUT_Init                                build/stm32f4_discovery_audio.o
                                                  build/main.o
BSP_AUDIO_OUT_MspDeInit                           build/stm32f4_discovery_audio.o
BSP_AUDIO_OUT_MspInit                             build/stm32f4_discovery_audio.o
BSP_AUDIO_OUT_Pause                               build/stm32f4_discovery_audio.o
                                                  build/main.o
BSP_AUDIO_OUT_Play                                build/stm32f4_discovery_audio.o
                                                  build/main.o
BSP_AUDIO_OUT_Resume                              build/stm32f4_discovery_audio.o
                                                  build/main.o
BSP_AUDIO_OUT_SetFrequency                        build/stm32f4_discovery_audio.o
BSP_AUDIO_OUT_SetMute                             build/stm32f4_discovery_audio.o
BSP_AUDIO_OUT_SetOutputMode                       build/stm32f4_discovery_audio.o
BSP_AUDIO_OUT_SetVolume                           build/stm32f4_discovery_audio.o
BSP_AUDIO_OUT_Stop                                build/stm32f4_discovery_audio.o
                                                  build/main.o
BSP_AUDIO_OUT_TransferComplete_CallBack           build/main.o
                                                  build/stm32f4_discovery_audio.o
BSP_GetVersion                                    build/stm32f4_discovery.o
BSP_LED_Init                                      build/stm32f4_discovery.o
BSP_LED_Off                                       build/stm32f4_discovery.o
BSP_LED_On                                        build/stm32f4_discovery.o
BSP_LED_Toggle                                    build/stm32f4_discovery.o
BSP_PB_GetState                                   build/stm32f4_discovery.o
BSP_PB_Init                                       build/stm32f4_discovery.o
BUTTON_IRQn                                       build/stm32f4_discovery.o
BUTTON_PIN                                        build/stm32f4_discovery.o
BUTTON_PORT                                       build/stm32f4_discovery.o
BusFault_Handler                                  build/startup_stm32f407xx.o
CAN1_RX0_IRQHandler                               build/startup_stm32f407xx.o
CAN1_RX1_IRQHandler                               build/startup_stm32f407xx.o
CAN1_SCE_IRQHandler                               build/startup_stm32f407xx.o
CAN1_TX_IRQHandler                                build/startup_stm32f407xx.o
CAN2_RX0_IRQHandler                               build/startup_stm32f407xx.o
CAN2_RX1_IRQHandler                               build/startup_stm32f407xx.o
CAN2_SCE_IRQHandler                               build/startup_stm32f407xx.o
CAN2_TX_IRQHandler                                build/startup_stm32f407xx.o
CmdIndex                                          build/main.o
DCMI_IRQHandler                                   build/startup_stm32f407xx.o
DMA1_Stream0_IRQHandler                           build/startup_stm32f407xx.o
DMA1_Stream1_IRQHandler                           build/startup_stm32f407xx.o
DMA1_Stream2_IRQHandler                           build/startup_stm32f407xx.o
DMA1_Stream3_IRQHandler                           build/startup_stm32f407xx.o
DMA1_Stream4_IRQHandler                           build/startup_stm32f407xx.o
DMA1_Stream5_IRQHandler                           build/startup_stm32f407xx.o
DMA1_Stream6_IRQHandler                           build/startup_stm32f407xx.o
DMA1_Stream7_IRQHandler                           build/stm32f4xx_it.o
DMA2_Stream0_IRQHandler                           build/startup_stm32f407xx.o
DMA2_Stream1_IRQHandler                           build/startup_stm32f407xx.o
DMA2_Stream2_IRQHandler                           build/startup_stm32f407xx.o
DMA2_Stream3_IRQHandler                           build/startup_stm32f407xx.o
DMA2_Stream4_IRQHandler                           build/startup_stm32f407xx.o
DMA2_Stream5_IRQHandler                           build/startup_stm32f407xx.o
DMA2_Stream6_IRQHandler                           build/startup_stm32f407xx.o
DMA2_Stream7_IRQHandler                           build/startup_stm32f407xx.o
DebugMon_Handler                                  build/startup_stm32f407xx.o
Default_Handler                                   build/startup_stm32f407xx.o
Directory                                         build/main.o
ETH_IRQHandler                                    build/startup_stm32f407xx.o
ETH_WKUP_IRQHandler                               build/startup_stm32f407xx.o
EXTI0_IRQHandler                                  build/startup_stm32f407xx.o
EXTI15_10_IRQHandler                              build/startup_stm32f407xx.o
EXTI1_IRQHandler                                  build/startup_stm32f407xx.o
EXTI2_IRQHandler                                  build/startup_stm32f407xx.o
EXTI3_IRQHandler                                  build/startup_stm32f407xx.o
EXTI4_IRQHandler                                  build/startup_stm32f407xx.o
EXTI9_5_IRQHandler                                build/startup_stm32f407xx.o
FATFS_GetAttachedDriversNbr                       build/ff_gen_drv.o
FATFS_LinkDriver                                  build/ff_gen_drv.o
                                                  build/fatfs.o
FATFS_LinkDriverEx                                build/ff_gen_drv.o
FATFS_UnLinkDriver                                build/ff_gen_drv.o
FATFS_UnLinkDriverEx                              build/ff_gen_drv.o
FLASH_Erase_Sector                                build/stm32f4xx_hal_flash_ex.o
                                                  build/stm32f4xx_hal_flash.o
FLASH_FlushCaches                                 build/stm32f4xx_hal_flash_ex.o
                                                  build/stm32f4xx_hal_flash.o
FLASH_IRQHandler                                  build/startup_stm32f407xx.o
FLASH_WaitForLastOperation                        build/stm32f4xx_hal_flash.o
                                                  build/stm32f4xx_hal_flash_ex.o
FPU_IRQHandler                                    build/startup_stm32f407xx.o
FSMC_IRQHandler                                   build/startup_stm32f407xx.o
FileRead                                          build/main.o
GPIO_PIN                                          build/stm32f4_discovery.o
GPIO_PORT                                         build/stm32f4_discovery.o
HAL_DBGMCU_DisableDBGSleepMode                    build/stm32f4xx_hal.o
HAL_DBGMCU_DisableDBGStandbyMode                  build/stm32f4xx_hal.o
HAL_DBGMCU_DisableDBGStopMode                     build/stm32f4xx_hal.o
HAL_DBGMCU_EnableDBGSleepMode                     build/stm32f4xx_hal.o
HAL_DBGMCU_EnableDBGStandbyMode                   build/stm32f4xx_hal.o
HAL_DBGMCU_EnableDBGStopMode                      build/stm32f4xx_hal.o
HAL_DMAEx_ChangeMemory                            build/stm32f4xx_hal_dma_ex.o
HAL_DMAEx_MultiBufferStart                        build/stm32f4xx_hal_dma_ex.o
HAL_DMAEx_MultiBufferStart_IT                     build/stm32f4xx_hal_dma_ex.o
HAL_DMA_Abort                                     build/stm32f4xx_hal_dma.o
                                                  build/stm32f4xx_hal_spi.o
                                                  build/stm32f4xx_hal_uart.o
                                                  build/stm32f4xx_hal_i2s.o
                                                  build/stm32f4xx_hal_tim.o
HAL_DMA_Abort_IT                                  build/stm32f4xx_hal_dma.o
                                                  build/stm32f4xx_hal_spi.o
                                                  build/stm32f4xx_hal_i2c.o
                                                  build/stm32f4xx_hal_uart.o
HAL_DMA_DeInit                                    build/stm32f4xx_hal_dma.o
                                                  build/stm32f4_discovery_audio.o
HAL_DMA_GetError                                  build/stm32f4xx_hal_dma.o
                                                  build/stm32f4xx_hal_i2c.o
HAL_DMA_GetState                                  build/stm32f4xx_hal_dma.o
HAL_DMA_IRQHandler                                build/stm32f4xx_hal_dma.o
                                                  build/stm32f4xx_it.o
HAL_DMA_Init                                      build/stm32f4xx_hal_dma.o
                                                  build/stm32f4_discovery_audio.o
HAL_DMA_PollForTransfer                           build/stm32f4xx_hal_dma.o
HAL_DMA_RegisterCallback                          build/stm32f4xx_hal_dma.o
HAL_DMA_Start                                     build/stm32f4xx_hal_dma.o
HAL_DMA_Start_IT                                  build/stm32f4xx_hal_dma.o
                                                  build/stm32f4xx_hal_spi.o
                                                  build/stm32f4xx_hal_i2c.o
                                                  build/stm32f4xx_hal_tim_ex.o
                                                  build/stm32f4xx_hal_i2s_ex.o
                                                  build/stm32f4xx_hal_uart.o
                                                  build/stm32f4xx_hal_i2s.o
                                                  build/stm32f4xx_hal_tim.o
HAL_DMA_UnRegisterCallback                        build/stm32f4xx_hal_dma.o
HAL_DeInit                                        build/stm32f4xx_hal.o
HAL_Delay                                         build/stm32f4xx_hal.o
                                                  build/stm32f4xx_ll_usb.o
                                                  build/stm32f4_discovery_audio.o
                                                  build/stm32f4_discovery.o
                                                  build/usbh_conf.o
HAL_DisableCompensationCell                       build/stm32f4xx_hal.o
HAL_EnableCompensationCell                        build/stm32f4xx_hal.o
HAL_FLASHEx_Erase                                 build/stm32f4xx_hal_flash_ex.o
HAL_FLASHEx_Erase_IT                              build/stm32f4xx_hal_flash_ex.o
HAL_FLASHEx_OBGetConfig                           build/stm32f4xx_hal_flash_ex.o
HAL_FLASHEx_OBProgram                             build/stm32f4xx_hal_flash_ex.o
HAL_FLASH_EndOfOperationCallback                  build/stm32f4xx_hal_flash.o
HAL_FLASH_GetError                                build/stm32f4xx_hal_flash.o
HAL_FLASH_IRQHandler                              build/stm32f4xx_hal_flash.o
HAL_FLASH_Lock                                    build/stm32f4xx_hal_flash.o
HAL_FLASH_OB_Launch                               build/stm32f4xx_hal_flash.o
HAL_FLASH_OB_Lock                                 build/stm32f4xx_hal_flash.o
HAL_FLASH_OB_Unlock                               build/stm32f4xx_hal_flash.o
HAL_FLASH_OperationErrorCallback                  build/stm32f4xx_hal_flash.o
HAL_FLASH_Program                                 build/stm32f4xx_hal_flash.o
HAL_FLASH_Program_IT                              build/stm32f4xx_hal_flash.o
HAL_FLASH_Unlock                                  build/stm32f4xx_hal_flash.o
HAL_GPIO_DeInit                                   build/stm32f4xx_hal_gpio.o
                                                  build/stm32f4xx_hal_msp.o
                                                  build/stm32f4_discovery_audio.o
                                                  build/usbh_conf.o
HAL_GPIO_EXTI_Callback                            build/stm32f4xx_hal_gpio.o
HAL_GPIO_EXTI_IRQHandler                          build/stm32f4xx_hal_gpio.o
HAL_GPIO_Init                                     build/stm32f4xx_hal_gpio.o
                                                  build/stm32f4xx_hal_rcc.o
                                                  build/stm32f4xx_hal_msp.o
                                                  build/main.o
                                                  build/stm32f4_discovery_audio.o
                                                  build/stm32f4_discovery.o
                                                  build/usbh_conf.o
HAL_GPIO_LockPin                                  build/stm32f4xx_hal_gpio.o
HAL_GPIO_ReadPin                                  build/stm32f4xx_hal_gpio.o
                                                  build/stm32f4_discovery.o
HAL_GPIO_TogglePin                                build/stm32f4xx_hal_gpio.o
                                                  build/stm32f4_discovery.o
HAL_GPIO_WritePin                                 build/stm32f4xx_hal_gpio.o
                                                  build/main.o
                                                  build/stm32f4_discovery_audio.o
                                                  build/stm32f4_discovery.o
HAL_GetDEVID                                      build/stm32f4xx_hal.o
HAL_GetHalVersion                                 build/stm32f4xx_hal.o
HAL_GetREVID                                      build/stm32f4xx_hal.o
HAL_GetTick                                       build/stm32f4xx_hal.o
                                                  build/stm32f4xx_hal_flash.o
                                                  build/stm32f4xx_hal_rcc.o
                                                  build/stm32f4xx_hal_spi.o
                                                  build/stm32f4xx_hal_rcc_ex.o
                                                  build/stm32f4xx_hal_i2c.o
                                                  build/stm32f4xx_hal_dma.o
                                                  build/stm32f4xx_hal_i2s_ex.o
                                                  build/stm32f4xx_hal_uart.o
                                                  build/stm32f4xx_hal_pwr_ex.o
                                                  build/stm32f4xx_hal_i2s.o
                                                  build/stm32f4xx_hal_rng.o
HAL_GetUID                                        build/stm32f4xx_hal.o
HAL_HCD_Connect_Callback                          build/usbh_conf.o
HAL_HCD_DeInit                                    build/stm32f4xx_hal_hcd.o
                                                  build/usbh_conf.o
HAL_HCD_Disconnect_Callback                       build/usbh_conf.o
HAL_HCD_GetCurrentFrame                           build/stm32f4xx_hal_hcd.o
                                                  build/usbh_conf.o
HAL_HCD_GetCurrentSpeed                           build/stm32f4xx_hal_hcd.o
                                                  build/usbh_conf.o
HAL_HCD_GetState                                  build/stm32f4xx_hal_hcd.o
HAL_HCD_HC_GetState                               build/stm32f4xx_hal_hcd.o
HAL_HCD_HC_GetURBState                            build/stm32f4xx_hal_hcd.o
                                                  build/usbh_conf.o
HAL_HCD_HC_GetXferCount                           build/stm32f4xx_hal_hcd.o
                                                  build/usbh_conf.o
HAL_HCD_HC_Halt                                   build/stm32f4xx_hal_hcd.o
                                                  build/usbh_conf.o
HAL_HCD_HC_Init                                   build/stm32f4xx_hal_hcd.o
                                                  build/usbh_conf.o
HAL_HCD_HC_NotifyURBChange_Callback               build/usbh_conf.o
HAL_HCD_HC_SubmitRequest                          build/stm32f4xx_hal_hcd.o
                                                  build/usbh_conf.o
HAL_HCD_IRQHandler                                build/stm32f4xx_hal_hcd.o
                                                  build/stm32f4xx_it.o
HAL_HCD_Init                                      build/stm32f4xx_hal_hcd.o
                                                  build/usbh_conf.o
HAL_HCD_MspDeInit                                 build/usbh_conf.o
HAL_HCD_MspInit                                   build/usbh_conf.o
HAL_HCD_ResetPort                                 build/stm32f4xx_hal_hcd.o
                                                  build/usbh_conf.o
HAL_HCD_SOF_Callback                              build/usbh_conf.o
