ARM GAS  C:\Users\Student\AppData\Local\Temp\cctYr88L.s 			page 1


   1              		.cpu cortex-m4
   2              		.eabi_attribute 27, 1
   3              		.eabi_attribute 28, 1
   4              		.eabi_attribute 20, 1
   5              		.eabi_attribute 21, 1
   6              		.eabi_attribute 23, 3
   7              		.eabi_attribute 24, 1
   8              		.eabi_attribute 25, 1
   9              		.eabi_attribute 26, 1
  10              		.eabi_attribute 30, 1
  11              		.eabi_attribute 34, 1
  12              		.eabi_attribute 18, 4
  13              		.file	"stm32f4xx_ll_usb.c"
  14              		.text
  15              	.Ltext0:
  16              		.cfi_sections	.debug_frame
  17              		.section	.text.USB_CoreInit,"ax",%progbits
  18              		.align	1
  19              		.global	USB_CoreInit
  20              		.syntax unified
  21              		.thumb
  22              		.thumb_func
  23              		.fpu fpv4-sp-d16
  25              	USB_CoreInit:
  26              	.LFB124:
  27              		.file 1 "Drivers/STM32F4xx_HAL_Driver/Src/stm32f4xx_ll_usb.c"
   1:Drivers/STM32F4xx_HAL_Driver/Src/stm32f4xx_ll_usb.c **** /**
   2:Drivers/STM32F4xx_HAL_Driver/Src/stm32f4xx_ll_usb.c ****   ******************************************************************************
   3:Drivers/STM32F4xx_HAL_Driver/Src/stm32f4xx_ll_usb.c ****   * @file    stm32f4xx_ll_usb.c
   4:Drivers/STM32F4xx_HAL_Driver/Src/stm32f4xx_ll_usb.c ****   * @author  MCD Application Team
   5:Drivers/STM32F4xx_HAL_Driver/Src/stm32f4xx_ll_usb.c ****   * @brief   USB Low Layer HAL module driver.
   6:Drivers/STM32F4xx_HAL_Driver/Src/stm32f4xx_ll_usb.c ****   *    
   7:Drivers/STM32F4xx_HAL_Driver/Src/stm32f4xx_ll_usb.c ****   *          This file provides firmware functions to manage the following 
   8:Drivers/STM32F4xx_HAL_Driver/Src/stm32f4xx_ll_usb.c ****   *          functionalities of the USB Peripheral Controller:
   9:Drivers/STM32F4xx_HAL_Driver/Src/stm32f4xx_ll_usb.c ****   *           + Initialization/de-initialization functions
  10:Drivers/STM32F4xx_HAL_Driver/Src/stm32f4xx_ll_usb.c ****   *           + I/O operation functions
  11:Drivers/STM32F4xx_HAL_Driver/Src/stm32f4xx_ll_usb.c ****   *           + Peripheral Control functions 
  12:Drivers/STM32F4xx_HAL_Driver/Src/stm32f4xx_ll_usb.c ****   *           + Peripheral State functions
  13:Drivers/STM32F4xx_HAL_Driver/Src/stm32f4xx_ll_usb.c ****   *         
  14:Drivers/STM32F4xx_HAL_Driver/Src/stm32f4xx_ll_usb.c ****   @verbatim
  15:Drivers/STM32F4xx_HAL_Driver/Src/stm32f4xx_ll_usb.c ****   ==============================================================================
  16:Drivers/STM32F4xx_HAL_Driver/Src/stm32f4xx_ll_usb.c ****                     ##### How to use this driver #####
  17:Drivers/STM32F4xx_HAL_Driver/Src/stm32f4xx_ll_usb.c ****   ==============================================================================
  18:Drivers/STM32F4xx_HAL_Driver/Src/stm32f4xx_ll_usb.c ****     [..]
  19:Drivers/STM32F4xx_HAL_Driver/Src/stm32f4xx_ll_usb.c ****       (#) Fill parameters of Init structure in USB_OTG_CfgTypeDef structure.
  20:Drivers/STM32F4xx_HAL_Driver/Src/stm32f4xx_ll_usb.c ****   
  21:Drivers/STM32F4xx_HAL_Driver/Src/stm32f4xx_ll_usb.c ****       (#) Call USB_CoreInit() API to initialize the USB Core peripheral.
  22:Drivers/STM32F4xx_HAL_Driver/Src/stm32f4xx_ll_usb.c **** 
  23:Drivers/STM32F4xx_HAL_Driver/Src/stm32f4xx_ll_usb.c ****       (#) The upper HAL HCD/PCD driver will call the right routines for its internal processes.
  24:Drivers/STM32F4xx_HAL_Driver/Src/stm32f4xx_ll_usb.c **** 
  25:Drivers/STM32F4xx_HAL_Driver/Src/stm32f4xx_ll_usb.c ****   @endverbatim
  26:Drivers/STM32F4xx_HAL_Driver/Src/stm32f4xx_ll_usb.c ****   ******************************************************************************
  27:Drivers/STM32F4xx_HAL_Driver/Src/stm32f4xx_ll_usb.c ****   * @attention
  28:Drivers/STM32F4xx_HAL_Driver/Src/stm32f4xx_ll_usb.c ****   *
  29:Drivers/STM32F4xx_HAL_Driver/Src/stm32f4xx_ll_usb.c ****   * <h2><center>&copy; COPYRIGHT(c) 2017 STMicroelectronics</center></h2>
  30:Drivers/STM32F4xx_HAL_Driver/Src/stm32f4xx_ll_usb.c ****   *
  31:Drivers/STM32F4xx_HAL_Driver/Src/stm32f4xx_ll_usb.c ****   * Redistribution and use in source and binary forms, with or without modification,
ARM GAS  C:\Users\Student\AppData\Local\Temp\cctYr88L.s 			page 2


  32:Drivers/STM32F4xx_HAL_Driver/Src/stm32f4xx_ll_usb.c ****   * are permitted provided that the following conditions are met:
  33:Drivers/STM32F4xx_HAL_Driver/Src/stm32f4xx_ll_usb.c ****   *   1. Redistributions of source code must retain the above copyright notice,
  34:Drivers/STM32F4xx_HAL_Driver/Src/stm32f4xx_ll_usb.c ****   *      this list of conditions and the following disclaimer.
  35:Drivers/STM32F4xx_HAL_Driver/Src/stm32f4xx_ll_usb.c ****   *   2. Redistributions in binary form must reproduce the above copyright notice,
  36:Drivers/STM32F4xx_HAL_Driver/Src/stm32f4xx_ll_usb.c ****   *      this list of conditions and the following disclaimer in the documentation
  37:Drivers/STM32F4xx_HAL_Driver/Src/stm32f4xx_ll_usb.c ****   *      and/or other materials provided with the distribution.
  38:Drivers/STM32F4xx_HAL_Driver/Src/stm32f4xx_ll_usb.c ****   *   3. Neither the name of STMicroelectronics nor the names of its contributors
  39:Drivers/STM32F4xx_HAL_Driver/Src/stm32f4xx_ll_usb.c ****   *      may be used to endorse or promote products derived from this software
  40:Drivers/STM32F4xx_HAL_Driver/Src/stm32f4xx_ll_usb.c ****   *      without specific prior written permission.
  41:Drivers/STM32F4xx_HAL_Driver/Src/stm32f4xx_ll_usb.c ****   *
  42:Drivers/STM32F4xx_HAL_Driver/Src/stm32f4xx_ll_usb.c ****   * THIS SOFTWARE IS PROVIDED BY THE COPYRIGHT HOLDERS AND CONTRIBUTORS "AS IS"
  43:Drivers/STM32F4xx_HAL_Driver/Src/stm32f4xx_ll_usb.c ****   * AND ANY EXPRESS OR IMPLIED WARRANTIES, INCLUDING, BUT NOT LIMITED TO, THE
  44:Drivers/STM32F4xx_HAL_Driver/Src/stm32f4xx_ll_usb.c ****   * IMPLIED WARRANTIES OF MERCHANTABILITY AND FITNESS FOR A PARTICULAR PURPOSE ARE
  45:Drivers/STM32F4xx_HAL_Driver/Src/stm32f4xx_ll_usb.c ****   * DISCLAIMED. IN NO EVENT SHALL THE COPYRIGHT HOLDER OR CONTRIBUTORS BE LIABLE
  46:Drivers/STM32F4xx_HAL_Driver/Src/stm32f4xx_ll_usb.c ****   * FOR ANY DIRECT, INDIRECT, INCIDENTAL, SPECIAL, EXEMPLARY, OR CONSEQUENTIAL
  47:Drivers/STM32F4xx_HAL_Driver/Src/stm32f4xx_ll_usb.c ****   * DAMAGES (INCLUDING, BUT NOT LIMITED TO, PROCUREMENT OF SUBSTITUTE GOODS OR
  48:Drivers/STM32F4xx_HAL_Driver/Src/stm32f4xx_ll_usb.c ****   * SERVICES; LOSS OF USE, DATA, OR PROFITS; OR BUSINESS INTERRUPTION) HOWEVER
  49:Drivers/STM32F4xx_HAL_Driver/Src/stm32f4xx_ll_usb.c ****   * CAUSED AND ON ANY THEORY OF LIABILITY, WHETHER IN CONTRACT, STRICT LIABILITY,
  50:Drivers/STM32F4xx_HAL_Driver/Src/stm32f4xx_ll_usb.c ****   * OR TORT (INCLUDING NEGLIGENCE OR OTHERWISE) ARISING IN ANY WAY OUT OF THE USE
  51:Drivers/STM32F4xx_HAL_Driver/Src/stm32f4xx_ll_usb.c ****   * OF THIS SOFTWARE, EVEN IF ADVISED OF THE POSSIBILITY OF SUCH DAMAGE.
  52:Drivers/STM32F4xx_HAL_Driver/Src/stm32f4xx_ll_usb.c ****   *
  53:Drivers/STM32F4xx_HAL_Driver/Src/stm32f4xx_ll_usb.c ****   ******************************************************************************
  54:Drivers/STM32F4xx_HAL_Driver/Src/stm32f4xx_ll_usb.c ****   */ 
  55:Drivers/STM32F4xx_HAL_Driver/Src/stm32f4xx_ll_usb.c **** 
  56:Drivers/STM32F4xx_HAL_Driver/Src/stm32f4xx_ll_usb.c **** /* Includes ------------------------------------------------------------------*/
  57:Drivers/STM32F4xx_HAL_Driver/Src/stm32f4xx_ll_usb.c **** #include "stm32f4xx_hal.h"
  58:Drivers/STM32F4xx_HAL_Driver/Src/stm32f4xx_ll_usb.c **** 
  59:Drivers/STM32F4xx_HAL_Driver/Src/stm32f4xx_ll_usb.c **** /** @addtogroup STM32F4xx_LL_USB_DRIVER
  60:Drivers/STM32F4xx_HAL_Driver/Src/stm32f4xx_ll_usb.c ****   * @{
  61:Drivers/STM32F4xx_HAL_Driver/Src/stm32f4xx_ll_usb.c ****   */
  62:Drivers/STM32F4xx_HAL_Driver/Src/stm32f4xx_ll_usb.c **** 
  63:Drivers/STM32F4xx_HAL_Driver/Src/stm32f4xx_ll_usb.c **** #if defined(HAL_PCD_MODULE_ENABLED) || defined(HAL_HCD_MODULE_ENABLED)
  64:Drivers/STM32F4xx_HAL_Driver/Src/stm32f4xx_ll_usb.c **** #if defined(STM32F405xx) || defined(STM32F415xx) || defined(STM32F407xx) || defined(STM32F417xx) ||
  65:Drivers/STM32F4xx_HAL_Driver/Src/stm32f4xx_ll_usb.c ****     defined(STM32F427xx) || defined(STM32F437xx) || defined(STM32F429xx) || defined(STM32F439xx) ||
  66:Drivers/STM32F4xx_HAL_Driver/Src/stm32f4xx_ll_usb.c ****     defined(STM32F401xC) || defined(STM32F401xE) || defined(STM32F411xE) || defined(STM32F446xx) ||
  67:Drivers/STM32F4xx_HAL_Driver/Src/stm32f4xx_ll_usb.c ****     defined(STM32F469xx) || defined(STM32F479xx) || defined(STM32F412Zx) || defined(STM32F412Vx) ||
  68:Drivers/STM32F4xx_HAL_Driver/Src/stm32f4xx_ll_usb.c ****     defined(STM32F412Rx) || defined(STM32F412Cx) || defined(STM32F413xx) || defined(STM32F423xx)
  69:Drivers/STM32F4xx_HAL_Driver/Src/stm32f4xx_ll_usb.c **** /* Private typedef -----------------------------------------------------------*/
  70:Drivers/STM32F4xx_HAL_Driver/Src/stm32f4xx_ll_usb.c **** /* Private define ------------------------------------------------------------*/
  71:Drivers/STM32F4xx_HAL_Driver/Src/stm32f4xx_ll_usb.c **** /* Private macro -------------------------------------------------------------*/
  72:Drivers/STM32F4xx_HAL_Driver/Src/stm32f4xx_ll_usb.c **** /* Private variables ---------------------------------------------------------*/
  73:Drivers/STM32F4xx_HAL_Driver/Src/stm32f4xx_ll_usb.c **** /* Private function prototypes -----------------------------------------------*/
  74:Drivers/STM32F4xx_HAL_Driver/Src/stm32f4xx_ll_usb.c **** /* Private functions ---------------------------------------------------------*/
  75:Drivers/STM32F4xx_HAL_Driver/Src/stm32f4xx_ll_usb.c **** static HAL_StatusTypeDef USB_CoreReset(USB_OTG_GlobalTypeDef *USBx);
  76:Drivers/STM32F4xx_HAL_Driver/Src/stm32f4xx_ll_usb.c **** 
  77:Drivers/STM32F4xx_HAL_Driver/Src/stm32f4xx_ll_usb.c **** /* Exported functions --------------------------------------------------------*/
  78:Drivers/STM32F4xx_HAL_Driver/Src/stm32f4xx_ll_usb.c **** 
  79:Drivers/STM32F4xx_HAL_Driver/Src/stm32f4xx_ll_usb.c **** /** @defgroup LL_USB_Exported_Functions USB Low Layer Exported Functions
  80:Drivers/STM32F4xx_HAL_Driver/Src/stm32f4xx_ll_usb.c ****   * @{
  81:Drivers/STM32F4xx_HAL_Driver/Src/stm32f4xx_ll_usb.c ****   */
  82:Drivers/STM32F4xx_HAL_Driver/Src/stm32f4xx_ll_usb.c **** 
  83:Drivers/STM32F4xx_HAL_Driver/Src/stm32f4xx_ll_usb.c **** /** @defgroup LL_USB_Group1 Initialization/de-initialization functions 
  84:Drivers/STM32F4xx_HAL_Driver/Src/stm32f4xx_ll_usb.c ****  *  @brief    Initialization and Configuration functions 
  85:Drivers/STM32F4xx_HAL_Driver/Src/stm32f4xx_ll_usb.c ****  *
  86:Drivers/STM32F4xx_HAL_Driver/Src/stm32f4xx_ll_usb.c **** @verbatim    
  87:Drivers/STM32F4xx_HAL_Driver/Src/stm32f4xx_ll_usb.c ****  ===============================================================================
  88:Drivers/STM32F4xx_HAL_Driver/Src/stm32f4xx_ll_usb.c ****               ##### Initialization/de-initialization functions #####
ARM GAS  C:\Users\Student\AppData\Local\Temp\cctYr88L.s 			page 3


  89:Drivers/STM32F4xx_HAL_Driver/Src/stm32f4xx_ll_usb.c ****  ===============================================================================
  90:Drivers/STM32F4xx_HAL_Driver/Src/stm32f4xx_ll_usb.c ****     [..]  This section provides functions allowing to:
  91:Drivers/STM32F4xx_HAL_Driver/Src/stm32f4xx_ll_usb.c ****  
  92:Drivers/STM32F4xx_HAL_Driver/Src/stm32f4xx_ll_usb.c **** @endverbatim
  93:Drivers/STM32F4xx_HAL_Driver/Src/stm32f4xx_ll_usb.c ****   * @{
  94:Drivers/STM32F4xx_HAL_Driver/Src/stm32f4xx_ll_usb.c ****   */
  95:Drivers/STM32F4xx_HAL_Driver/Src/stm32f4xx_ll_usb.c **** 
  96:Drivers/STM32F4xx_HAL_Driver/Src/stm32f4xx_ll_usb.c **** /**
  97:Drivers/STM32F4xx_HAL_Driver/Src/stm32f4xx_ll_usb.c ****   * @brief  Initializes the USB Core
  98:Drivers/STM32F4xx_HAL_Driver/Src/stm32f4xx_ll_usb.c ****   * @param  USBx USB Instance
  99:Drivers/STM32F4xx_HAL_Driver/Src/stm32f4xx_ll_usb.c ****   * @param  cfg  pointer to a USB_OTG_CfgTypeDef structure that contains
 100:Drivers/STM32F4xx_HAL_Driver/Src/stm32f4xx_ll_usb.c ****   *         the configuration information for the specified USBx peripheral.
 101:Drivers/STM32F4xx_HAL_Driver/Src/stm32f4xx_ll_usb.c ****   * @retval HAL status
 102:Drivers/STM32F4xx_HAL_Driver/Src/stm32f4xx_ll_usb.c ****   */
 103:Drivers/STM32F4xx_HAL_Driver/Src/stm32f4xx_ll_usb.c **** HAL_StatusTypeDef USB_CoreInit(USB_OTG_GlobalTypeDef *USBx, USB_OTG_CfgTypeDef cfg)
 104:Drivers/STM32F4xx_HAL_Driver/Src/stm32f4xx_ll_usb.c **** {
  28              		.loc 1 104 0
  29              		.cfi_startproc
  30              		@ args = 56, pretend = 16, frame = 0
  31              		@ frame_needed = 0, uses_anonymous_args = 0
  32              	.LVL0:
  33 0000 84B0     		sub	sp, sp, #16
  34              	.LCFI0:
  35              		.cfi_def_cfa_offset 16
  36 0002 10B5     		push	{r4, lr}
  37              	.LCFI1:
  38              		.cfi_def_cfa_offset 24
  39              		.cfi_offset 4, -24
  40              		.cfi_offset 14, -20
  41 0004 0446     		mov	r4, r0
  42 0006 03A8     		add	r0, sp, #12
  43              	.LVL1:
  44 0008 80E80E00 		stm	r0, {r1, r2, r3}
 105:Drivers/STM32F4xx_HAL_Driver/Src/stm32f4xx_ll_usb.c ****   if (cfg.phy_itface == USB_OTG_ULPI_PHY)
  45              		.loc 1 105 0
  46 000c 089B     		ldr	r3, [sp, #32]
  47 000e 012B     		cmp	r3, #1
  48 0010 11D0     		beq	.L7
 106:Drivers/STM32F4xx_HAL_Driver/Src/stm32f4xx_ll_usb.c ****   {
 107:Drivers/STM32F4xx_HAL_Driver/Src/stm32f4xx_ll_usb.c ****     
 108:Drivers/STM32F4xx_HAL_Driver/Src/stm32f4xx_ll_usb.c ****     USBx->GCCFG &= ~(USB_OTG_GCCFG_PWRDWN);
 109:Drivers/STM32F4xx_HAL_Driver/Src/stm32f4xx_ll_usb.c **** 
 110:Drivers/STM32F4xx_HAL_Driver/Src/stm32f4xx_ll_usb.c ****     /* Init The ULPI Interface */
 111:Drivers/STM32F4xx_HAL_Driver/Src/stm32f4xx_ll_usb.c ****     USBx->GUSBCFG &= ~(USB_OTG_GUSBCFG_TSDPS | USB_OTG_GUSBCFG_ULPIFSLS | USB_OTG_GUSBCFG_PHYSEL);
 112:Drivers/STM32F4xx_HAL_Driver/Src/stm32f4xx_ll_usb.c ****    
 113:Drivers/STM32F4xx_HAL_Driver/Src/stm32f4xx_ll_usb.c ****     /* Select vbus source */
 114:Drivers/STM32F4xx_HAL_Driver/Src/stm32f4xx_ll_usb.c ****     USBx->GUSBCFG &= ~(USB_OTG_GUSBCFG_ULPIEVBUSD | USB_OTG_GUSBCFG_ULPIEVBUSI);
 115:Drivers/STM32F4xx_HAL_Driver/Src/stm32f4xx_ll_usb.c ****     if(cfg.use_external_vbus == 1U)
 116:Drivers/STM32F4xx_HAL_Driver/Src/stm32f4xx_ll_usb.c ****     {
 117:Drivers/STM32F4xx_HAL_Driver/Src/stm32f4xx_ll_usb.c ****       USBx->GUSBCFG |= USB_OTG_GUSBCFG_ULPIEVBUSD;
 118:Drivers/STM32F4xx_HAL_Driver/Src/stm32f4xx_ll_usb.c ****     }
 119:Drivers/STM32F4xx_HAL_Driver/Src/stm32f4xx_ll_usb.c ****     /* Reset after a PHY select  */
 120:Drivers/STM32F4xx_HAL_Driver/Src/stm32f4xx_ll_usb.c ****     USB_CoreReset(USBx); 
 121:Drivers/STM32F4xx_HAL_Driver/Src/stm32f4xx_ll_usb.c ****   }
 122:Drivers/STM32F4xx_HAL_Driver/Src/stm32f4xx_ll_usb.c ****   else /* FS interface (embedded Phy) */
 123:Drivers/STM32F4xx_HAL_Driver/Src/stm32f4xx_ll_usb.c ****   {
 124:Drivers/STM32F4xx_HAL_Driver/Src/stm32f4xx_ll_usb.c ****     /* Select FS Embedded PHY */
ARM GAS  C:\Users\Student\AppData\Local\Temp\cctYr88L.s 			page 4


 125:Drivers/STM32F4xx_HAL_Driver/Src/stm32f4xx_ll_usb.c ****     USBx->GUSBCFG |= USB_OTG_GUSBCFG_PHYSEL;
  49              		.loc 1 125 0
  50 0012 E368     		ldr	r3, [r4, #12]
  51 0014 43F04003 		orr	r3, r3, #64
  52 0018 E360     		str	r3, [r4, #12]
 126:Drivers/STM32F4xx_HAL_Driver/Src/stm32f4xx_ll_usb.c ****     
 127:Drivers/STM32F4xx_HAL_Driver/Src/stm32f4xx_ll_usb.c ****     /* Reset after a PHY select and set Host mode */
 128:Drivers/STM32F4xx_HAL_Driver/Src/stm32f4xx_ll_usb.c ****     USB_CoreReset(USBx);
  53              		.loc 1 128 0
  54 001a 2046     		mov	r0, r4
  55 001c FFF7FEFF 		bl	USB_CoreReset
  56              	.LVL2:
 129:Drivers/STM32F4xx_HAL_Driver/Src/stm32f4xx_ll_usb.c ****     
 130:Drivers/STM32F4xx_HAL_Driver/Src/stm32f4xx_ll_usb.c ****     /* Deactivate the power down*/
 131:Drivers/STM32F4xx_HAL_Driver/Src/stm32f4xx_ll_usb.c ****     USBx->GCCFG = USB_OTG_GCCFG_PWRDWN;
  57              		.loc 1 131 0
  58 0020 4FF48033 		mov	r3, #65536
  59 0024 A363     		str	r3, [r4, #56]
  60              	.L4:
 132:Drivers/STM32F4xx_HAL_Driver/Src/stm32f4xx_ll_usb.c ****   }
 133:Drivers/STM32F4xx_HAL_Driver/Src/stm32f4xx_ll_usb.c ****  
 134:Drivers/STM32F4xx_HAL_Driver/Src/stm32f4xx_ll_usb.c ****   if(cfg.dma_enable == ENABLE)
  61              		.loc 1 134 0
  62 0026 069B     		ldr	r3, [sp, #24]
  63 0028 012B     		cmp	r3, #1
  64 002a 1ED0     		beq	.L8
  65              	.L5:
 135:Drivers/STM32F4xx_HAL_Driver/Src/stm32f4xx_ll_usb.c ****   {
 136:Drivers/STM32F4xx_HAL_Driver/Src/stm32f4xx_ll_usb.c ****     USBx->GAHBCFG |= USB_OTG_GAHBCFG_HBSTLEN_2;
 137:Drivers/STM32F4xx_HAL_Driver/Src/stm32f4xx_ll_usb.c ****     USBx->GAHBCFG |= USB_OTG_GAHBCFG_DMAEN;
 138:Drivers/STM32F4xx_HAL_Driver/Src/stm32f4xx_ll_usb.c ****   }  
 139:Drivers/STM32F4xx_HAL_Driver/Src/stm32f4xx_ll_usb.c **** 
 140:Drivers/STM32F4xx_HAL_Driver/Src/stm32f4xx_ll_usb.c ****   return HAL_OK;
 141:Drivers/STM32F4xx_HAL_Driver/Src/stm32f4xx_ll_usb.c **** }
  66              		.loc 1 141 0
  67 002c 0020     		movs	r0, #0
  68 002e BDE81040 		pop	{r4, lr}
  69              	.LCFI2:
  70              		.cfi_remember_state
  71              		.cfi_restore 14
  72              		.cfi_restore 4
  73              		.cfi_def_cfa_offset 16
  74              	.LVL3:
  75 0032 04B0     		add	sp, sp, #16
  76              	.LCFI3:
  77              		.cfi_def_cfa_offset 0
  78 0034 7047     		bx	lr
  79              	.LVL4:
  80              	.L7:
  81              	.LCFI4:
  82              		.cfi_restore_state
 108:Drivers/STM32F4xx_HAL_Driver/Src/stm32f4xx_ll_usb.c **** 
  83              		.loc 1 108 0
  84 0036 A36B     		ldr	r3, [r4, #56]
  85 0038 23F48033 		bic	r3, r3, #65536
  86 003c A363     		str	r3, [r4, #56]
 111:Drivers/STM32F4xx_HAL_Driver/Src/stm32f4xx_ll_usb.c ****    
ARM GAS  C:\Users\Student\AppData\Local\Temp\cctYr88L.s 			page 5


  87              		.loc 1 111 0
  88 003e E368     		ldr	r3, [r4, #12]
  89 0040 23F48403 		bic	r3, r3, #4325376
  90 0044 23F04003 		bic	r3, r3, #64
  91 0048 E360     		str	r3, [r4, #12]
 114:Drivers/STM32F4xx_HAL_Driver/Src/stm32f4xx_ll_usb.c ****     if(cfg.use_external_vbus == 1U)
  92              		.loc 1 114 0
  93 004a E368     		ldr	r3, [r4, #12]
  94 004c 23F44013 		bic	r3, r3, #3145728
  95 0050 E360     		str	r3, [r4, #12]
 115:Drivers/STM32F4xx_HAL_Driver/Src/stm32f4xx_ll_usb.c ****     {
  96              		.loc 1 115 0
  97 0052 0F9B     		ldr	r3, [sp, #60]
  98 0054 012B     		cmp	r3, #1
  99 0056 03D0     		beq	.L9
 100              	.L3:
 120:Drivers/STM32F4xx_HAL_Driver/Src/stm32f4xx_ll_usb.c ****   }
 101              		.loc 1 120 0
 102 0058 2046     		mov	r0, r4
 103 005a FFF7FEFF 		bl	USB_CoreReset
 104              	.LVL5:
 105 005e E2E7     		b	.L4
 106              	.L9:
 117:Drivers/STM32F4xx_HAL_Driver/Src/stm32f4xx_ll_usb.c ****     }
 107              		.loc 1 117 0
 108 0060 E368     		ldr	r3, [r4, #12]
 109 0062 43F48013 		orr	r3, r3, #1048576
 110 0066 E360     		str	r3, [r4, #12]
 111 0068 F6E7     		b	.L3
 112              	.L8:
 136:Drivers/STM32F4xx_HAL_Driver/Src/stm32f4xx_ll_usb.c ****     USBx->GAHBCFG |= USB_OTG_GAHBCFG_DMAEN;
 113              		.loc 1 136 0
 114 006a A368     		ldr	r3, [r4, #8]
 115 006c 43F00603 		orr	r3, r3, #6
 116 0070 A360     		str	r3, [r4, #8]
 137:Drivers/STM32F4xx_HAL_Driver/Src/stm32f4xx_ll_usb.c ****   }  
 117              		.loc 1 137 0
 118 0072 A368     		ldr	r3, [r4, #8]
 119 0074 43F02003 		orr	r3, r3, #32
 120 0078 A360     		str	r3, [r4, #8]
 121 007a D7E7     		b	.L5
 122              		.cfi_endproc
 123              	.LFE124:
 125              		.section	.text.USB_EnableGlobalInt,"ax",%progbits
 126              		.align	1
 127              		.global	USB_EnableGlobalInt
 128              		.syntax unified
 129              		.thumb
 130              		.thumb_func
 131              		.fpu fpv4-sp-d16
 133              	USB_EnableGlobalInt:
 134              	.LFB125:
 142:Drivers/STM32F4xx_HAL_Driver/Src/stm32f4xx_ll_usb.c **** 
 143:Drivers/STM32F4xx_HAL_Driver/Src/stm32f4xx_ll_usb.c **** /**
 144:Drivers/STM32F4xx_HAL_Driver/Src/stm32f4xx_ll_usb.c ****   * @brief  USB_EnableGlobalInt
 145:Drivers/STM32F4xx_HAL_Driver/Src/stm32f4xx_ll_usb.c ****   *         Enables the controller's Global Int in the AHB Config reg
 146:Drivers/STM32F4xx_HAL_Driver/Src/stm32f4xx_ll_usb.c ****   * @param  USBx  Selected device
ARM GAS  C:\Users\Student\AppData\Local\Temp\cctYr88L.s 			page 6


 147:Drivers/STM32F4xx_HAL_Driver/Src/stm32f4xx_ll_usb.c ****   * @retval HAL status
 148:Drivers/STM32F4xx_HAL_Driver/Src/stm32f4xx_ll_usb.c ****   */
 149:Drivers/STM32F4xx_HAL_Driver/Src/stm32f4xx_ll_usb.c **** HAL_StatusTypeDef USB_EnableGlobalInt(USB_OTG_GlobalTypeDef *USBx)
 150:Drivers/STM32F4xx_HAL_Driver/Src/stm32f4xx_ll_usb.c **** {
 135              		.loc 1 150 0
 136              		.cfi_startproc
 137              		@ args = 0, pretend = 0, frame = 0
 138              		@ frame_needed = 0, uses_anonymous_args = 0
 139              		@ link register save eliminated.
 140              	.LVL6:
 151:Drivers/STM32F4xx_HAL_Driver/Src/stm32f4xx_ll_usb.c ****   USBx->GAHBCFG |= USB_OTG_GAHBCFG_GINT;
 141              		.loc 1 151 0
 142 0000 8368     		ldr	r3, [r0, #8]
 143 0002 43F00103 		orr	r3, r3, #1
 144 0006 8360     		str	r3, [r0, #8]
 152:Drivers/STM32F4xx_HAL_Driver/Src/stm32f4xx_ll_usb.c ****   return HAL_OK;
 153:Drivers/STM32F4xx_HAL_Driver/Src/stm32f4xx_ll_usb.c **** }
 145              		.loc 1 153 0
 146 0008 0020     		movs	r0, #0
 147              	.LVL7:
 148 000a 7047     		bx	lr
 149              		.cfi_endproc
 150              	.LFE125:
 152              		.section	.text.USB_DisableGlobalInt,"ax",%progbits
 153              		.align	1
 154              		.global	USB_DisableGlobalInt
 155              		.syntax unified
 156              		.thumb
 157              		.thumb_func
 158              		.fpu fpv4-sp-d16
 160              	USB_DisableGlobalInt:
 161              	.LFB126:
 154:Drivers/STM32F4xx_HAL_Driver/Src/stm32f4xx_ll_usb.c **** 
 155:Drivers/STM32F4xx_HAL_Driver/Src/stm32f4xx_ll_usb.c **** 
 156:Drivers/STM32F4xx_HAL_Driver/Src/stm32f4xx_ll_usb.c **** /**
 157:Drivers/STM32F4xx_HAL_Driver/Src/stm32f4xx_ll_usb.c ****   * @brief  USB_DisableGlobalInt
 158:Drivers/STM32F4xx_HAL_Driver/Src/stm32f4xx_ll_usb.c ****   *         Disable the controller's Global Int in the AHB Config reg
 159:Drivers/STM32F4xx_HAL_Driver/Src/stm32f4xx_ll_usb.c ****   * @param  USBx  Selected device
 160:Drivers/STM32F4xx_HAL_Driver/Src/stm32f4xx_ll_usb.c ****   * @retval HAL status
 161:Drivers/STM32F4xx_HAL_Driver/Src/stm32f4xx_ll_usb.c **** */
 162:Drivers/STM32F4xx_HAL_Driver/Src/stm32f4xx_ll_usb.c **** HAL_StatusTypeDef USB_DisableGlobalInt(USB_OTG_GlobalTypeDef *USBx)
 163:Drivers/STM32F4xx_HAL_Driver/Src/stm32f4xx_ll_usb.c **** {
 162              		.loc 1 163 0
 163              		.cfi_startproc
 164              		@ args = 0, pretend = 0, frame = 0
 165              		@ frame_needed = 0, uses_anonymous_args = 0
 166              		@ link register save eliminated.
 167              	.LVL8:
 164:Drivers/STM32F4xx_HAL_Driver/Src/stm32f4xx_ll_usb.c ****   USBx->GAHBCFG &= ~USB_OTG_GAHBCFG_GINT;
 168              		.loc 1 164 0
 169 0000 8368     		ldr	r3, [r0, #8]
 170 0002 23F00103 		bic	r3, r3, #1
 171 0006 8360     		str	r3, [r0, #8]
 165:Drivers/STM32F4xx_HAL_Driver/Src/stm32f4xx_ll_usb.c ****   return HAL_OK;
 166:Drivers/STM32F4xx_HAL_Driver/Src/stm32f4xx_ll_usb.c **** }
 172              		.loc 1 166 0
 173 0008 0020     		movs	r0, #0
ARM GAS  C:\Users\Student\AppData\Local\Temp\cctYr88L.s 			page 7


 174              	.LVL9:
 175 000a 7047     		bx	lr
 176              		.cfi_endproc
 177              	.LFE126:
 179              		.section	.text.USB_SetCurrentMode,"ax",%progbits
 180              		.align	1
 181              		.global	USB_SetCurrentMode
 182              		.syntax unified
 183              		.thumb
 184              		.thumb_func
 185              		.fpu fpv4-sp-d16
 187              	USB_SetCurrentMode:
 188              	.LFB127:
 167:Drivers/STM32F4xx_HAL_Driver/Src/stm32f4xx_ll_usb.c ****    
 168:Drivers/STM32F4xx_HAL_Driver/Src/stm32f4xx_ll_usb.c **** /**
 169:Drivers/STM32F4xx_HAL_Driver/Src/stm32f4xx_ll_usb.c ****   * @brief  USB_SetCurrentMode : Set functional mode
 170:Drivers/STM32F4xx_HAL_Driver/Src/stm32f4xx_ll_usb.c ****   * @param  USBx  Selected device
 171:Drivers/STM32F4xx_HAL_Driver/Src/stm32f4xx_ll_usb.c ****   * @param  mode   current core mode
 172:Drivers/STM32F4xx_HAL_Driver/Src/stm32f4xx_ll_usb.c ****   *          This parameter can be one of these values:
 173:Drivers/STM32F4xx_HAL_Driver/Src/stm32f4xx_ll_usb.c ****   *            @arg USB_OTG_DEVICE_MODE: Peripheral mode
 174:Drivers/STM32F4xx_HAL_Driver/Src/stm32f4xx_ll_usb.c ****   *            @arg USB_OTG_HOST_MODE: Host mode
 175:Drivers/STM32F4xx_HAL_Driver/Src/stm32f4xx_ll_usb.c ****   *            @arg USB_OTG_DRD_MODE: Dual Role Device mode  
 176:Drivers/STM32F4xx_HAL_Driver/Src/stm32f4xx_ll_usb.c ****   * @retval HAL status
 177:Drivers/STM32F4xx_HAL_Driver/Src/stm32f4xx_ll_usb.c ****   */
 178:Drivers/STM32F4xx_HAL_Driver/Src/stm32f4xx_ll_usb.c **** HAL_StatusTypeDef USB_SetCurrentMode(USB_OTG_GlobalTypeDef *USBx , USB_OTG_ModeTypeDef mode)
 179:Drivers/STM32F4xx_HAL_Driver/Src/stm32f4xx_ll_usb.c **** {
 189              		.loc 1 179 0
 190              		.cfi_startproc
 191              		@ args = 0, pretend = 0, frame = 0
 192              		@ frame_needed = 0, uses_anonymous_args = 0
 193              	.LVL10:
 194 0000 08B5     		push	{r3, lr}
 195              	.LCFI5:
 196              		.cfi_def_cfa_offset 8
 197              		.cfi_offset 3, -8
 198              		.cfi_offset 14, -4
 180:Drivers/STM32F4xx_HAL_Driver/Src/stm32f4xx_ll_usb.c ****   USBx->GUSBCFG &= ~(USB_OTG_GUSBCFG_FHMOD | USB_OTG_GUSBCFG_FDMOD); 
 199              		.loc 1 180 0
 200 0002 C368     		ldr	r3, [r0, #12]
 201 0004 23F0C043 		bic	r3, r3, #1610612736
 202 0008 C360     		str	r3, [r0, #12]
 181:Drivers/STM32F4xx_HAL_Driver/Src/stm32f4xx_ll_usb.c ****   
 182:Drivers/STM32F4xx_HAL_Driver/Src/stm32f4xx_ll_usb.c ****   if ( mode == USB_OTG_HOST_MODE)
 203              		.loc 1 182 0
 204 000a 0129     		cmp	r1, #1
 205 000c 09D0     		beq	.L16
 183:Drivers/STM32F4xx_HAL_Driver/Src/stm32f4xx_ll_usb.c ****   {
 184:Drivers/STM32F4xx_HAL_Driver/Src/stm32f4xx_ll_usb.c ****     USBx->GUSBCFG |= USB_OTG_GUSBCFG_FHMOD; 
 185:Drivers/STM32F4xx_HAL_Driver/Src/stm32f4xx_ll_usb.c ****   }
 186:Drivers/STM32F4xx_HAL_Driver/Src/stm32f4xx_ll_usb.c ****   else if ( mode == USB_OTG_DEVICE_MODE)
 206              		.loc 1 186 0
 207 000e 19B9     		cbnz	r1, .L14
 187:Drivers/STM32F4xx_HAL_Driver/Src/stm32f4xx_ll_usb.c ****   {
 188:Drivers/STM32F4xx_HAL_Driver/Src/stm32f4xx_ll_usb.c ****     USBx->GUSBCFG |= USB_OTG_GUSBCFG_FDMOD; 
 208              		.loc 1 188 0
 209 0010 C368     		ldr	r3, [r0, #12]
 210 0012 43F08043 		orr	r3, r3, #1073741824
ARM GAS  C:\Users\Student\AppData\Local\Temp\cctYr88L.s 			page 8


 211 0016 C360     		str	r3, [r0, #12]
 212              	.L14:
 189:Drivers/STM32F4xx_HAL_Driver/Src/stm32f4xx_ll_usb.c ****   }
 190:Drivers/STM32F4xx_HAL_Driver/Src/stm32f4xx_ll_usb.c ****   HAL_Delay(50U);
 213              		.loc 1 190 0
 214 0018 3220     		movs	r0, #50
 215              	.LVL11:
 216 001a FFF7FEFF 		bl	HAL_Delay
 217              	.LVL12:
 191:Drivers/STM32F4xx_HAL_Driver/Src/stm32f4xx_ll_usb.c ****   
 192:Drivers/STM32F4xx_HAL_Driver/Src/stm32f4xx_ll_usb.c ****   return HAL_OK;
 193:Drivers/STM32F4xx_HAL_Driver/Src/stm32f4xx_ll_usb.c **** }
 218              		.loc 1 193 0
 219 001e 0020     		movs	r0, #0
 220 0020 08BD     		pop	{r3, pc}
 221              	.LVL13:
 222              	.L16:
 184:Drivers/STM32F4xx_HAL_Driver/Src/stm32f4xx_ll_usb.c ****   }
 223              		.loc 1 184 0
 224 0022 C368     		ldr	r3, [r0, #12]
 225 0024 43F00053 		orr	r3, r3, #536870912
 226 0028 C360     		str	r3, [r0, #12]
 227 002a F5E7     		b	.L14
 228              		.cfi_endproc
 229              	.LFE127:
 231              		.section	.text.USB_DevInit,"ax",%progbits
 232              		.align	1
 233              		.global	USB_DevInit
 234              		.syntax unified
 235              		.thumb
 236              		.thumb_func
 237              		.fpu fpv4-sp-d16
 239              	USB_DevInit:
 240              	.LFB128:
 194:Drivers/STM32F4xx_HAL_Driver/Src/stm32f4xx_ll_usb.c **** 
 195:Drivers/STM32F4xx_HAL_Driver/Src/stm32f4xx_ll_usb.c **** /**
 196:Drivers/STM32F4xx_HAL_Driver/Src/stm32f4xx_ll_usb.c ****   * @brief  USB_DevInit : Initializes the USB_OTG controller registers 
 197:Drivers/STM32F4xx_HAL_Driver/Src/stm32f4xx_ll_usb.c ****   *         for device mode
 198:Drivers/STM32F4xx_HAL_Driver/Src/stm32f4xx_ll_usb.c ****   * @param  USBx  Selected device
 199:Drivers/STM32F4xx_HAL_Driver/Src/stm32f4xx_ll_usb.c ****   * @param  cfg   pointer to a USB_OTG_CfgTypeDef structure that contains
 200:Drivers/STM32F4xx_HAL_Driver/Src/stm32f4xx_ll_usb.c ****   *         the configuration information for the specified USBx peripheral.
 201:Drivers/STM32F4xx_HAL_Driver/Src/stm32f4xx_ll_usb.c ****   * @retval HAL status
 202:Drivers/STM32F4xx_HAL_Driver/Src/stm32f4xx_ll_usb.c ****   */
 203:Drivers/STM32F4xx_HAL_Driver/Src/stm32f4xx_ll_usb.c **** HAL_StatusTypeDef USB_DevInit (USB_OTG_GlobalTypeDef *USBx, USB_OTG_CfgTypeDef cfg)
 204:Drivers/STM32F4xx_HAL_Driver/Src/stm32f4xx_ll_usb.c **** {
 241              		.loc 1 204 0
 242              		.cfi_startproc
 243              		@ args = 56, pretend = 16, frame = 0
 244              		@ frame_needed = 0, uses_anonymous_args = 0
 245              	.LVL14:
 246 0000 84B0     		sub	sp, sp, #16
 247              	.LCFI6:
 248              		.cfi_def_cfa_offset 16
 249 0002 F8B5     		push	{r3, r4, r5, r6, r7, lr}
 250              	.LCFI7:
 251              		.cfi_def_cfa_offset 40
 252              		.cfi_offset 3, -40
ARM GAS  C:\Users\Student\AppData\Local\Temp\cctYr88L.s 			page 9


 253              		.cfi_offset 4, -36
 254              		.cfi_offset 5, -32
 255              		.cfi_offset 6, -28
 256              		.cfi_offset 7, -24
 257              		.cfi_offset 14, -20
 258 0004 0546     		mov	r5, r0
 259 0006 07A8     		add	r0, sp, #28
 260              	.LVL15:
 261 0008 80E80E00 		stm	r0, {r1, r2, r3}
 262              	.LVL16:
 205:Drivers/STM32F4xx_HAL_Driver/Src/stm32f4xx_ll_usb.c ****   uint32_t i = 0U;
 206:Drivers/STM32F4xx_HAL_Driver/Src/stm32f4xx_ll_usb.c **** 
 207:Drivers/STM32F4xx_HAL_Driver/Src/stm32f4xx_ll_usb.c ****   /*Activate VBUS Sensing B */
 208:Drivers/STM32F4xx_HAL_Driver/Src/stm32f4xx_ll_usb.c **** #if defined(STM32F446xx) || defined(STM32F469xx) || defined(STM32F479xx) || defined(STM32F412Zx) ||
 209:Drivers/STM32F4xx_HAL_Driver/Src/stm32f4xx_ll_usb.c ****     defined(STM32F412Rx) || defined(STM32F412Cx) || defined(STM32F413xx) || defined(STM32F423xx)
 210:Drivers/STM32F4xx_HAL_Driver/Src/stm32f4xx_ll_usb.c ****   USBx->GCCFG |= USB_OTG_GCCFG_VBDEN;
 211:Drivers/STM32F4xx_HAL_Driver/Src/stm32f4xx_ll_usb.c ****   
 212:Drivers/STM32F4xx_HAL_Driver/Src/stm32f4xx_ll_usb.c ****   if (cfg.vbus_sensing_enable == 0U)
 213:Drivers/STM32F4xx_HAL_Driver/Src/stm32f4xx_ll_usb.c ****   {
 214:Drivers/STM32F4xx_HAL_Driver/Src/stm32f4xx_ll_usb.c ****     /* Deactivate VBUS Sensing B */
 215:Drivers/STM32F4xx_HAL_Driver/Src/stm32f4xx_ll_usb.c ****     USBx->GCCFG &= ~USB_OTG_GCCFG_VBDEN;
 216:Drivers/STM32F4xx_HAL_Driver/Src/stm32f4xx_ll_usb.c ****     
 217:Drivers/STM32F4xx_HAL_Driver/Src/stm32f4xx_ll_usb.c ****     /* B-peripheral session valid override enable*/ 
 218:Drivers/STM32F4xx_HAL_Driver/Src/stm32f4xx_ll_usb.c ****     USBx->GOTGCTL |= USB_OTG_GOTGCTL_BVALOEN;
 219:Drivers/STM32F4xx_HAL_Driver/Src/stm32f4xx_ll_usb.c ****     USBx->GOTGCTL |= USB_OTG_GOTGCTL_BVALOVAL;
 220:Drivers/STM32F4xx_HAL_Driver/Src/stm32f4xx_ll_usb.c ****   }
 221:Drivers/STM32F4xx_HAL_Driver/Src/stm32f4xx_ll_usb.c **** #else
 222:Drivers/STM32F4xx_HAL_Driver/Src/stm32f4xx_ll_usb.c ****   if (cfg.vbus_sensing_enable == 0U)
 263              		.loc 1 222 0
 264 000c 119F     		ldr	r7, [sp, #68]
 265 000e 1FBB     		cbnz	r7, .L18
 223:Drivers/STM32F4xx_HAL_Driver/Src/stm32f4xx_ll_usb.c ****   {
 224:Drivers/STM32F4xx_HAL_Driver/Src/stm32f4xx_ll_usb.c ****     USBx->GCCFG |= USB_OTG_GCCFG_NOVBUSSENS;
 266              		.loc 1 224 0
 267 0010 AB6B     		ldr	r3, [r5, #56]
 268 0012 43F40013 		orr	r3, r3, #2097152
 269 0016 AB63     		str	r3, [r5, #56]
 270              	.L19:
 225:Drivers/STM32F4xx_HAL_Driver/Src/stm32f4xx_ll_usb.c ****   }
 226:Drivers/STM32F4xx_HAL_Driver/Src/stm32f4xx_ll_usb.c ****   else
 227:Drivers/STM32F4xx_HAL_Driver/Src/stm32f4xx_ll_usb.c ****   {
 228:Drivers/STM32F4xx_HAL_Driver/Src/stm32f4xx_ll_usb.c ****     /* Enable VBUS */
 229:Drivers/STM32F4xx_HAL_Driver/Src/stm32f4xx_ll_usb.c ****     USBx->GCCFG |= USB_OTG_GCCFG_VBUSBSEN;
 230:Drivers/STM32F4xx_HAL_Driver/Src/stm32f4xx_ll_usb.c ****   }
 231:Drivers/STM32F4xx_HAL_Driver/Src/stm32f4xx_ll_usb.c **** #endif /* STM32F446xx || STM32F469xx || STM32F479xx || STM32F412Zx || STM32F412Rx || STM32F412Vx ||
 232:Drivers/STM32F4xx_HAL_Driver/Src/stm32f4xx_ll_usb.c ****   
 233:Drivers/STM32F4xx_HAL_Driver/Src/stm32f4xx_ll_usb.c ****   /* Restart the Phy Clock */
 234:Drivers/STM32F4xx_HAL_Driver/Src/stm32f4xx_ll_usb.c ****   USBx_PCGCCTL = 0U;
 271              		.loc 1 234 0
 272 0018 2C46     		mov	r4, r5
 273 001a 0023     		movs	r3, #0
 274 001c C5F8003E 		str	r3, [r5, #3584]
 235:Drivers/STM32F4xx_HAL_Driver/Src/stm32f4xx_ll_usb.c ****   
 236:Drivers/STM32F4xx_HAL_Driver/Src/stm32f4xx_ll_usb.c ****   /* Device mode configuration */
 237:Drivers/STM32F4xx_HAL_Driver/Src/stm32f4xx_ll_usb.c ****   USBx_DEVICE->DCFG |= DCFG_FRAME_INTERVAL_80;
 275              		.loc 1 237 0
 276 0020 05F50066 		add	r6, r5, #2048
ARM GAS  C:\Users\Student\AppData\Local\Temp\cctYr88L.s 			page 10


 277 0024 D5F80038 		ldr	r3, [r5, #2048]
 278 0028 C5F80038 		str	r3, [r5, #2048]
 238:Drivers/STM32F4xx_HAL_Driver/Src/stm32f4xx_ll_usb.c ****   
 239:Drivers/STM32F4xx_HAL_Driver/Src/stm32f4xx_ll_usb.c ****   if(cfg.phy_itface  == USB_OTG_ULPI_PHY)
 279              		.loc 1 239 0
 280 002c 0C9B     		ldr	r3, [sp, #48]
 281 002e 012B     		cmp	r3, #1
 282 0030 17D0     		beq	.L36
 283              	.LVL17:
 240:Drivers/STM32F4xx_HAL_Driver/Src/stm32f4xx_ll_usb.c ****   {
 241:Drivers/STM32F4xx_HAL_Driver/Src/stm32f4xx_ll_usb.c ****     if(cfg.speed == USB_OTG_SPEED_HIGH)
 242:Drivers/STM32F4xx_HAL_Driver/Src/stm32f4xx_ll_usb.c ****     {      
 243:Drivers/STM32F4xx_HAL_Driver/Src/stm32f4xx_ll_usb.c ****       /* Set High speed phy */
 244:Drivers/STM32F4xx_HAL_Driver/Src/stm32f4xx_ll_usb.c ****       USB_SetDevSpeed (USBx , USB_OTG_SPEED_HIGH);
 245:Drivers/STM32F4xx_HAL_Driver/Src/stm32f4xx_ll_usb.c ****     }
 246:Drivers/STM32F4xx_HAL_Driver/Src/stm32f4xx_ll_usb.c ****     else 
 247:Drivers/STM32F4xx_HAL_Driver/Src/stm32f4xx_ll_usb.c ****     {
 248:Drivers/STM32F4xx_HAL_Driver/Src/stm32f4xx_ll_usb.c ****       /* set High speed phy in Full speed mode */
 249:Drivers/STM32F4xx_HAL_Driver/Src/stm32f4xx_ll_usb.c ****       USB_SetDevSpeed (USBx , USB_OTG_SPEED_HIGH_IN_FULL);
 250:Drivers/STM32F4xx_HAL_Driver/Src/stm32f4xx_ll_usb.c ****     }
 251:Drivers/STM32F4xx_HAL_Driver/Src/stm32f4xx_ll_usb.c ****   }
 252:Drivers/STM32F4xx_HAL_Driver/Src/stm32f4xx_ll_usb.c ****   else
 253:Drivers/STM32F4xx_HAL_Driver/Src/stm32f4xx_ll_usb.c ****   {
 254:Drivers/STM32F4xx_HAL_Driver/Src/stm32f4xx_ll_usb.c ****     /* Set Full speed phy */
 255:Drivers/STM32F4xx_HAL_Driver/Src/stm32f4xx_ll_usb.c ****     USB_SetDevSpeed (USBx , USB_OTG_SPEED_FULL);
 284              		.loc 1 255 0
 285 0032 0321     		movs	r1, #3
 286 0034 2846     		mov	r0, r5
 287 0036 FFF7FEFF 		bl	USB_SetDevSpeed
 288              	.LVL18:
 289              	.L22:
 256:Drivers/STM32F4xx_HAL_Driver/Src/stm32f4xx_ll_usb.c ****   }
 257:Drivers/STM32F4xx_HAL_Driver/Src/stm32f4xx_ll_usb.c **** 
 258:Drivers/STM32F4xx_HAL_Driver/Src/stm32f4xx_ll_usb.c ****   /* Flush the FIFOs */
 259:Drivers/STM32F4xx_HAL_Driver/Src/stm32f4xx_ll_usb.c ****   USB_FlushTxFifo(USBx , 0x10U); /* all Tx FIFOs */
 290              		.loc 1 259 0
 291 003a 1021     		movs	r1, #16
 292 003c 2846     		mov	r0, r5
 293 003e FFF7FEFF 		bl	USB_FlushTxFifo
 294              	.LVL19:
 260:Drivers/STM32F4xx_HAL_Driver/Src/stm32f4xx_ll_usb.c ****   USB_FlushRxFifo(USBx);
 295              		.loc 1 260 0
 296 0042 2846     		mov	r0, r5
 297 0044 FFF7FEFF 		bl	USB_FlushRxFifo
 298              	.LVL20:
 261:Drivers/STM32F4xx_HAL_Driver/Src/stm32f4xx_ll_usb.c ****   
 262:Drivers/STM32F4xx_HAL_Driver/Src/stm32f4xx_ll_usb.c ****   /* Clear all pending Device Interrupts */
 263:Drivers/STM32F4xx_HAL_Driver/Src/stm32f4xx_ll_usb.c ****   USBx_DEVICE->DIEPMSK = 0U;
 299              		.loc 1 263 0
 300 0048 0023     		movs	r3, #0
 301 004a 3361     		str	r3, [r6, #16]
 264:Drivers/STM32F4xx_HAL_Driver/Src/stm32f4xx_ll_usb.c ****   USBx_DEVICE->DOEPMSK = 0U;
 302              		.loc 1 264 0
 303 004c 7361     		str	r3, [r6, #20]
 265:Drivers/STM32F4xx_HAL_Driver/Src/stm32f4xx_ll_usb.c ****   USBx_DEVICE->DAINT = 0xFFFFFFFFU;
 304              		.loc 1 265 0
 305 004e 4FF0FF32 		mov	r2, #-1
ARM GAS  C:\Users\Student\AppData\Local\Temp\cctYr88L.s 			page 11


 306 0052 B261     		str	r2, [r6, #24]
 266:Drivers/STM32F4xx_HAL_Driver/Src/stm32f4xx_ll_usb.c ****   USBx_DEVICE->DAINTMSK = 0U;
 307              		.loc 1 266 0
 308 0054 F361     		str	r3, [r6, #28]
 267:Drivers/STM32F4xx_HAL_Driver/Src/stm32f4xx_ll_usb.c ****   
 268:Drivers/STM32F4xx_HAL_Driver/Src/stm32f4xx_ll_usb.c ****   for (i = 0U; i < cfg.dev_endpoints; i++)
 309              		.loc 1 268 0
 310 0056 19E0     		b	.L23
 311              	.LVL21:
 312              	.L18:
 229:Drivers/STM32F4xx_HAL_Driver/Src/stm32f4xx_ll_usb.c ****   }
 313              		.loc 1 229 0
 314 0058 AB6B     		ldr	r3, [r5, #56]
 315 005a 43F40023 		orr	r3, r3, #524288
 316 005e AB63     		str	r3, [r5, #56]
 317 0060 DAE7     		b	.L19
 318              	.LVL22:
 319              	.L36:
 241:Drivers/STM32F4xx_HAL_Driver/Src/stm32f4xx_ll_usb.c ****     {      
 320              		.loc 1 241 0
 321 0062 099B     		ldr	r3, [sp, #36]
 322 0064 23B9     		cbnz	r3, .L21
 244:Drivers/STM32F4xx_HAL_Driver/Src/stm32f4xx_ll_usb.c ****     }
 323              		.loc 1 244 0
 324 0066 0021     		movs	r1, #0
 325 0068 2846     		mov	r0, r5
 326 006a FFF7FEFF 		bl	USB_SetDevSpeed
 327              	.LVL23:
 328 006e E4E7     		b	.L22
 329              	.L21:
 249:Drivers/STM32F4xx_HAL_Driver/Src/stm32f4xx_ll_usb.c ****     }
 330              		.loc 1 249 0
 331 0070 0121     		movs	r1, #1
 332 0072 2846     		mov	r0, r5
 333 0074 FFF7FEFF 		bl	USB_SetDevSpeed
 334              	.LVL24:
 335 0078 DFE7     		b	.L22
 336              	.LVL25:
 337              	.L38:
 269:Drivers/STM32F4xx_HAL_Driver/Src/stm32f4xx_ll_usb.c ****   {
 270:Drivers/STM32F4xx_HAL_Driver/Src/stm32f4xx_ll_usb.c ****     if ((USBx_INEP(i)->DIEPCTL & USB_OTG_DIEPCTL_EPENA) == USB_OTG_DIEPCTL_EPENA)
 271:Drivers/STM32F4xx_HAL_Driver/Src/stm32f4xx_ll_usb.c ****     {
 272:Drivers/STM32F4xx_HAL_Driver/Src/stm32f4xx_ll_usb.c ****       USBx_INEP(i)->DIEPCTL = (USB_OTG_DIEPCTL_EPDIS | USB_OTG_DIEPCTL_SNAK);
 338              		.loc 1 272 0
 339 007a 4FF09040 		mov	r0, #1207959552
 340 007e C2F80009 		str	r0, [r2, #2304]
 341              	.L25:
 273:Drivers/STM32F4xx_HAL_Driver/Src/stm32f4xx_ll_usb.c ****     }
 274:Drivers/STM32F4xx_HAL_Driver/Src/stm32f4xx_ll_usb.c ****     else
 275:Drivers/STM32F4xx_HAL_Driver/Src/stm32f4xx_ll_usb.c ****     {
 276:Drivers/STM32F4xx_HAL_Driver/Src/stm32f4xx_ll_usb.c ****       USBx_INEP(i)->DIEPCTL = 0U;
 277:Drivers/STM32F4xx_HAL_Driver/Src/stm32f4xx_ll_usb.c ****     }
 278:Drivers/STM32F4xx_HAL_Driver/Src/stm32f4xx_ll_usb.c ****     
 279:Drivers/STM32F4xx_HAL_Driver/Src/stm32f4xx_ll_usb.c ****     USBx_INEP(i)->DIEPTSIZ = 0U;
 342              		.loc 1 279 0 discriminator 2
 343 0082 0022     		movs	r2, #0
 344 0084 0A61     		str	r2, [r1, #16]
ARM GAS  C:\Users\Student\AppData\Local\Temp\cctYr88L.s 			page 12


 280:Drivers/STM32F4xx_HAL_Driver/Src/stm32f4xx_ll_usb.c ****     USBx_INEP(i)->DIEPINT  = 0xFFU;
 345              		.loc 1 280 0 discriminator 2
 346 0086 FF22     		movs	r2, #255
 347 0088 8A60     		str	r2, [r1, #8]
 268:Drivers/STM32F4xx_HAL_Driver/Src/stm32f4xx_ll_usb.c ****   {
 348              		.loc 1 268 0 discriminator 2
 349 008a 0133     		adds	r3, r3, #1
 350              	.LVL26:
 351              	.L23:
 268:Drivers/STM32F4xx_HAL_Driver/Src/stm32f4xx_ll_usb.c ****   {
 352              		.loc 1 268 0 is_stmt 0 discriminator 1
 353 008c 0799     		ldr	r1, [sp, #28]
 354 008e 8B42     		cmp	r3, r1
 355 0090 0BD2     		bcs	.L37
 270:Drivers/STM32F4xx_HAL_Driver/Src/stm32f4xx_ll_usb.c ****     {
 356              		.loc 1 270 0 is_stmt 1
 357 0092 04EB4312 		add	r2, r4, r3, lsl #5
 358 0096 02F51061 		add	r1, r2, #2304
 359 009a D2F80009 		ldr	r0, [r2, #2304]
 360 009e 0028     		cmp	r0, #0
 361 00a0 EBDB     		blt	.L38
 276:Drivers/STM32F4xx_HAL_Driver/Src/stm32f4xx_ll_usb.c ****     }
 362              		.loc 1 276 0
 363 00a2 0020     		movs	r0, #0
 364 00a4 C2F80009 		str	r0, [r2, #2304]
 365 00a8 EBE7     		b	.L25
 366              	.L37:
 367 00aa 0023     		movs	r3, #0
 368              	.LVL27:
 369 00ac 08E0     		b	.L27
 370              	.LVL28:
 371              	.L40:
 281:Drivers/STM32F4xx_HAL_Driver/Src/stm32f4xx_ll_usb.c ****   }
 282:Drivers/STM32F4xx_HAL_Driver/Src/stm32f4xx_ll_usb.c ****   
 283:Drivers/STM32F4xx_HAL_Driver/Src/stm32f4xx_ll_usb.c ****   for (i = 0U; i < cfg.dev_endpoints; i++)
 284:Drivers/STM32F4xx_HAL_Driver/Src/stm32f4xx_ll_usb.c ****   {
 285:Drivers/STM32F4xx_HAL_Driver/Src/stm32f4xx_ll_usb.c ****     if ((USBx_OUTEP(i)->DOEPCTL & USB_OTG_DOEPCTL_EPENA) == USB_OTG_DOEPCTL_EPENA)
 286:Drivers/STM32F4xx_HAL_Driver/Src/stm32f4xx_ll_usb.c ****     {
 287:Drivers/STM32F4xx_HAL_Driver/Src/stm32f4xx_ll_usb.c ****       USBx_OUTEP(i)->DOEPCTL = (USB_OTG_DOEPCTL_EPDIS | USB_OTG_DOEPCTL_SNAK);
 372              		.loc 1 287 0
 373 00ae 4FF0904E 		mov	lr, #1207959552
 374 00b2 C2F800EB 		str	lr, [r2, #2816]
 375              	.L29:
 288:Drivers/STM32F4xx_HAL_Driver/Src/stm32f4xx_ll_usb.c ****     }
 289:Drivers/STM32F4xx_HAL_Driver/Src/stm32f4xx_ll_usb.c ****     else
 290:Drivers/STM32F4xx_HAL_Driver/Src/stm32f4xx_ll_usb.c ****     {
 291:Drivers/STM32F4xx_HAL_Driver/Src/stm32f4xx_ll_usb.c ****       USBx_OUTEP(i)->DOEPCTL = 0U;
 292:Drivers/STM32F4xx_HAL_Driver/Src/stm32f4xx_ll_usb.c ****     }
 293:Drivers/STM32F4xx_HAL_Driver/Src/stm32f4xx_ll_usb.c ****     
 294:Drivers/STM32F4xx_HAL_Driver/Src/stm32f4xx_ll_usb.c ****     USBx_OUTEP(i)->DOEPTSIZ = 0U;
 376              		.loc 1 294 0 discriminator 2
 377 00b6 0022     		movs	r2, #0
 378 00b8 0261     		str	r2, [r0, #16]
 295:Drivers/STM32F4xx_HAL_Driver/Src/stm32f4xx_ll_usb.c ****     USBx_OUTEP(i)->DOEPINT  = 0xFFU;
 379              		.loc 1 295 0 discriminator 2
 380 00ba FF22     		movs	r2, #255
 381 00bc 8260     		str	r2, [r0, #8]
ARM GAS  C:\Users\Student\AppData\Local\Temp\cctYr88L.s 			page 13


 283:Drivers/STM32F4xx_HAL_Driver/Src/stm32f4xx_ll_usb.c ****   {
 382              		.loc 1 283 0 discriminator 2
 383 00be 0133     		adds	r3, r3, #1
 384              	.LVL29:
 385              	.L27:
 283:Drivers/STM32F4xx_HAL_Driver/Src/stm32f4xx_ll_usb.c ****   {
 386              		.loc 1 283 0 is_stmt 0 discriminator 1
 387 00c0 8B42     		cmp	r3, r1
 388 00c2 0DD2     		bcs	.L39
 285:Drivers/STM32F4xx_HAL_Driver/Src/stm32f4xx_ll_usb.c ****     {
 389              		.loc 1 285 0 is_stmt 1
 390 00c4 04EB4312 		add	r2, r4, r3, lsl #5
 391 00c8 02F53060 		add	r0, r2, #2816
 392 00cc D2F800EB 		ldr	lr, [r2, #2816]
 393 00d0 BEF1000F 		cmp	lr, #0
 394 00d4 EBDB     		blt	.L40
 291:Drivers/STM32F4xx_HAL_Driver/Src/stm32f4xx_ll_usb.c ****     }
 395              		.loc 1 291 0
 396 00d6 4FF0000E 		mov	lr, #0
 397 00da C2F800EB 		str	lr, [r2, #2816]
 398 00de EAE7     		b	.L29
 399              	.L39:
 296:Drivers/STM32F4xx_HAL_Driver/Src/stm32f4xx_ll_usb.c ****   }
 297:Drivers/STM32F4xx_HAL_Driver/Src/stm32f4xx_ll_usb.c ****   
 298:Drivers/STM32F4xx_HAL_Driver/Src/stm32f4xx_ll_usb.c ****   USBx_DEVICE->DIEPMSK &= ~(USB_OTG_DIEPMSK_TXFURM);
 400              		.loc 1 298 0
 401 00e0 3369     		ldr	r3, [r6, #16]
 402              	.LVL30:
 403 00e2 23F48073 		bic	r3, r3, #256
 404 00e6 3361     		str	r3, [r6, #16]
 299:Drivers/STM32F4xx_HAL_Driver/Src/stm32f4xx_ll_usb.c ****   
 300:Drivers/STM32F4xx_HAL_Driver/Src/stm32f4xx_ll_usb.c ****   if (cfg.dma_enable == 1U)
 405              		.loc 1 300 0
 406 00e8 0A9B     		ldr	r3, [sp, #40]
 407 00ea 012B     		cmp	r3, #1
 408 00ec 1AD0     		beq	.L41
 409              	.L31:
 301:Drivers/STM32F4xx_HAL_Driver/Src/stm32f4xx_ll_usb.c ****   {
 302:Drivers/STM32F4xx_HAL_Driver/Src/stm32f4xx_ll_usb.c ****     /*Set threshold parameters */
 303:Drivers/STM32F4xx_HAL_Driver/Src/stm32f4xx_ll_usb.c ****     USBx_DEVICE->DTHRCTL = (USB_OTG_DTHRCTL_TXTHRLEN_6 | USB_OTG_DTHRCTL_RXTHRLEN_6);
 304:Drivers/STM32F4xx_HAL_Driver/Src/stm32f4xx_ll_usb.c ****     USBx_DEVICE->DTHRCTL |= (USB_OTG_DTHRCTL_RXTHREN | USB_OTG_DTHRCTL_ISOTHREN | USB_OTG_DTHRCTL_N
 305:Drivers/STM32F4xx_HAL_Driver/Src/stm32f4xx_ll_usb.c ****     
 306:Drivers/STM32F4xx_HAL_Driver/Src/stm32f4xx_ll_usb.c ****     i= USBx_DEVICE->DTHRCTL;
 307:Drivers/STM32F4xx_HAL_Driver/Src/stm32f4xx_ll_usb.c ****   }
 308:Drivers/STM32F4xx_HAL_Driver/Src/stm32f4xx_ll_usb.c ****   
 309:Drivers/STM32F4xx_HAL_Driver/Src/stm32f4xx_ll_usb.c ****   /* Disable all interrupts. */
 310:Drivers/STM32F4xx_HAL_Driver/Src/stm32f4xx_ll_usb.c ****   USBx->GINTMSK = 0U;
 410              		.loc 1 310 0
 411 00ee 0022     		movs	r2, #0
 412 00f0 AA61     		str	r2, [r5, #24]
 311:Drivers/STM32F4xx_HAL_Driver/Src/stm32f4xx_ll_usb.c ****   
 312:Drivers/STM32F4xx_HAL_Driver/Src/stm32f4xx_ll_usb.c ****   /* Clear any pending interrupts */
 313:Drivers/STM32F4xx_HAL_Driver/Src/stm32f4xx_ll_usb.c ****   USBx->GINTSTS = 0xBFFFFFFFU;
 413              		.loc 1 313 0
 414 00f2 6FF08042 		mvn	r2, #1073741824
 415 00f6 6A61     		str	r2, [r5, #20]
 314:Drivers/STM32F4xx_HAL_Driver/Src/stm32f4xx_ll_usb.c **** 
ARM GAS  C:\Users\Student\AppData\Local\Temp\cctYr88L.s 			page 14


 315:Drivers/STM32F4xx_HAL_Driver/Src/stm32f4xx_ll_usb.c ****   /* Enable the common interrupts */
 316:Drivers/STM32F4xx_HAL_Driver/Src/stm32f4xx_ll_usb.c ****   if (cfg.dma_enable == DISABLE)
 416              		.loc 1 316 0
 417 00f8 1BB9     		cbnz	r3, .L32
 317:Drivers/STM32F4xx_HAL_Driver/Src/stm32f4xx_ll_usb.c ****   {
 318:Drivers/STM32F4xx_HAL_Driver/Src/stm32f4xx_ll_usb.c ****     USBx->GINTMSK |= USB_OTG_GINTMSK_RXFLVLM; 
 418              		.loc 1 318 0
 419 00fa AB69     		ldr	r3, [r5, #24]
 420 00fc 43F01003 		orr	r3, r3, #16
 421 0100 AB61     		str	r3, [r5, #24]
 422              	.L32:
 319:Drivers/STM32F4xx_HAL_Driver/Src/stm32f4xx_ll_usb.c ****   }
 320:Drivers/STM32F4xx_HAL_Driver/Src/stm32f4xx_ll_usb.c ****   
 321:Drivers/STM32F4xx_HAL_Driver/Src/stm32f4xx_ll_usb.c ****   /* Enable interrupts matching to the Device mode ONLY */
 322:Drivers/STM32F4xx_HAL_Driver/Src/stm32f4xx_ll_usb.c ****   USBx->GINTMSK |= (USB_OTG_GINTMSK_USBSUSPM | USB_OTG_GINTMSK_USBRST |\
 423              		.loc 1 322 0
 424 0102 AA69     		ldr	r2, [r5, #24]
 425 0104 104B     		ldr	r3, .L43
 426 0106 1343     		orrs	r3, r3, r2
 427 0108 AB61     		str	r3, [r5, #24]
 323:Drivers/STM32F4xx_HAL_Driver/Src/stm32f4xx_ll_usb.c ****                     USB_OTG_GINTMSK_ENUMDNEM | USB_OTG_GINTMSK_IEPINT |\
 324:Drivers/STM32F4xx_HAL_Driver/Src/stm32f4xx_ll_usb.c ****                     USB_OTG_GINTMSK_OEPINT   | USB_OTG_GINTMSK_IISOIXFRM|\
 325:Drivers/STM32F4xx_HAL_Driver/Src/stm32f4xx_ll_usb.c ****                     USB_OTG_GINTMSK_PXFRM_IISOOXFRM | USB_OTG_GINTMSK_WUIM);
 326:Drivers/STM32F4xx_HAL_Driver/Src/stm32f4xx_ll_usb.c ****   
 327:Drivers/STM32F4xx_HAL_Driver/Src/stm32f4xx_ll_usb.c ****   if(cfg.Sof_enable)
 428              		.loc 1 327 0
 429 010a 0D9B     		ldr	r3, [sp, #52]
 430 010c 1BB1     		cbz	r3, .L33
 328:Drivers/STM32F4xx_HAL_Driver/Src/stm32f4xx_ll_usb.c ****   {
 329:Drivers/STM32F4xx_HAL_Driver/Src/stm32f4xx_ll_usb.c ****     USBx->GINTMSK |= USB_OTG_GINTMSK_SOFM;
 431              		.loc 1 329 0
 432 010e AB69     		ldr	r3, [r5, #24]
 433 0110 43F00803 		orr	r3, r3, #8
 434 0114 AB61     		str	r3, [r5, #24]
 435              	.L33:
 330:Drivers/STM32F4xx_HAL_Driver/Src/stm32f4xx_ll_usb.c ****   }
 331:Drivers/STM32F4xx_HAL_Driver/Src/stm32f4xx_ll_usb.c **** 
 332:Drivers/STM32F4xx_HAL_Driver/Src/stm32f4xx_ll_usb.c ****   if (cfg.vbus_sensing_enable == ENABLE)
 436              		.loc 1 332 0
 437 0116 012F     		cmp	r7, #1
 438 0118 0ED0     		beq	.L42
 439              	.L34:
 333:Drivers/STM32F4xx_HAL_Driver/Src/stm32f4xx_ll_usb.c ****   {
 334:Drivers/STM32F4xx_HAL_Driver/Src/stm32f4xx_ll_usb.c ****     USBx->GINTMSK |= (USB_OTG_GINTMSK_SRQIM | USB_OTG_GINTMSK_OTGINT); 
 335:Drivers/STM32F4xx_HAL_Driver/Src/stm32f4xx_ll_usb.c ****   }
 336:Drivers/STM32F4xx_HAL_Driver/Src/stm32f4xx_ll_usb.c ****   
 337:Drivers/STM32F4xx_HAL_Driver/Src/stm32f4xx_ll_usb.c ****   return HAL_OK;
 338:Drivers/STM32F4xx_HAL_Driver/Src/stm32f4xx_ll_usb.c **** }
 440              		.loc 1 338 0
 441 011a 0020     		movs	r0, #0
 442 011c BDE8F840 		pop	{r3, r4, r5, r6, r7, lr}
 443              	.LCFI8:
 444              		.cfi_remember_state
 445              		.cfi_restore 14
 446              		.cfi_restore 7
 447              		.cfi_restore 6
 448              		.cfi_restore 5
ARM GAS  C:\Users\Student\AppData\Local\Temp\cctYr88L.s 			page 15


 449              		.cfi_restore 4
 450              		.cfi_restore 3
 451              		.cfi_def_cfa_offset 16
 452              	.LVL31:
 453 0120 04B0     		add	sp, sp, #16
 454              	.LCFI9:
 455              		.cfi_def_cfa_offset 0
 456 0122 7047     		bx	lr
 457              	.LVL32:
 458              	.L41:
 459              	.LCFI10:
 460              		.cfi_restore_state
 303:Drivers/STM32F4xx_HAL_Driver/Src/stm32f4xx_ll_usb.c ****     USBx_DEVICE->DTHRCTL |= (USB_OTG_DTHRCTL_RXTHREN | USB_OTG_DTHRCTL_ISOTHREN | USB_OTG_DTHRCTL_N
 461              		.loc 1 303 0
 462 0124 094A     		ldr	r2, .L43+4
 463 0126 3263     		str	r2, [r6, #48]
 304:Drivers/STM32F4xx_HAL_Driver/Src/stm32f4xx_ll_usb.c ****     
 464              		.loc 1 304 0
 465 0128 326B     		ldr	r2, [r6, #48]
 466 012a 42F48032 		orr	r2, r2, #65536
 467 012e 42F00302 		orr	r2, r2, #3
 468 0132 3263     		str	r2, [r6, #48]
 306:Drivers/STM32F4xx_HAL_Driver/Src/stm32f4xx_ll_usb.c ****   }
 469              		.loc 1 306 0
 470 0134 326B     		ldr	r2, [r6, #48]
 471 0136 DAE7     		b	.L31
 472              	.L42:
 334:Drivers/STM32F4xx_HAL_Driver/Src/stm32f4xx_ll_usb.c ****   }
 473              		.loc 1 334 0
 474 0138 AB69     		ldr	r3, [r5, #24]
 475 013a 43F08043 		orr	r3, r3, #1073741824
 476 013e 43F00403 		orr	r3, r3, #4
 477 0142 AB61     		str	r3, [r5, #24]
 478 0144 E9E7     		b	.L34
 479              	.L44:
 480 0146 00BF     		.align	2
 481              	.L43:
 482 0148 00383C80 		.word	-2143537152
 483 014c 00018000 		.word	8388864
 484              		.cfi_endproc
 485              	.LFE128:
 487              		.section	.text.USB_FlushTxFifo,"ax",%progbits
 488              		.align	1
 489              		.global	USB_FlushTxFifo
 490              		.syntax unified
 491              		.thumb
 492              		.thumb_func
 493              		.fpu fpv4-sp-d16
 495              	USB_FlushTxFifo:
 496              	.LFB129:
 339:Drivers/STM32F4xx_HAL_Driver/Src/stm32f4xx_ll_usb.c **** 
 340:Drivers/STM32F4xx_HAL_Driver/Src/stm32f4xx_ll_usb.c **** 
 341:Drivers/STM32F4xx_HAL_Driver/Src/stm32f4xx_ll_usb.c **** /**
 342:Drivers/STM32F4xx_HAL_Driver/Src/stm32f4xx_ll_usb.c ****   * @brief  USB_OTG_FlushTxFifo : Flush a Tx FIFO
 343:Drivers/STM32F4xx_HAL_Driver/Src/stm32f4xx_ll_usb.c ****   * @param  USBx  Selected device
 344:Drivers/STM32F4xx_HAL_Driver/Src/stm32f4xx_ll_usb.c ****   * @param  num  FIFO number
 345:Drivers/STM32F4xx_HAL_Driver/Src/stm32f4xx_ll_usb.c ****   *         This parameter can be a value from 1 to 15
ARM GAS  C:\Users\Student\AppData\Local\Temp\cctYr88L.s 			page 16


 346:Drivers/STM32F4xx_HAL_Driver/Src/stm32f4xx_ll_usb.c ****             15 means Flush all Tx FIFOs
 347:Drivers/STM32F4xx_HAL_Driver/Src/stm32f4xx_ll_usb.c ****   * @retval HAL status
 348:Drivers/STM32F4xx_HAL_Driver/Src/stm32f4xx_ll_usb.c ****   */
 349:Drivers/STM32F4xx_HAL_Driver/Src/stm32f4xx_ll_usb.c **** HAL_StatusTypeDef USB_FlushTxFifo (USB_OTG_GlobalTypeDef *USBx, uint32_t num )
 350:Drivers/STM32F4xx_HAL_Driver/Src/stm32f4xx_ll_usb.c **** {
 497              		.loc 1 350 0
 498              		.cfi_startproc
 499              		@ args = 0, pretend = 0, frame = 0
 500              		@ frame_needed = 0, uses_anonymous_args = 0
 501              		@ link register save eliminated.
 502              	.LVL33:
 351:Drivers/STM32F4xx_HAL_Driver/Src/stm32f4xx_ll_usb.c ****   uint32_t count = 0;
 352:Drivers/STM32F4xx_HAL_Driver/Src/stm32f4xx_ll_usb.c ****   
 353:Drivers/STM32F4xx_HAL_Driver/Src/stm32f4xx_ll_usb.c ****   USBx->GRSTCTL = ( USB_OTG_GRSTCTL_TXFFLSH |(uint32_t)( num << 6)); 
 503              		.loc 1 353 0
 504 0000 8901     		lsls	r1, r1, #6
 505              	.LVL34:
 506 0002 41F02001 		orr	r1, r1, #32
 507 0006 0161     		str	r1, [r0, #16]
 351:Drivers/STM32F4xx_HAL_Driver/Src/stm32f4xx_ll_usb.c ****   uint32_t count = 0;
 508              		.loc 1 351 0
 509 0008 0023     		movs	r3, #0
 510              	.LVL35:
 511              	.L47:
 354:Drivers/STM32F4xx_HAL_Driver/Src/stm32f4xx_ll_usb.c ****   
 355:Drivers/STM32F4xx_HAL_Driver/Src/stm32f4xx_ll_usb.c ****   do
 356:Drivers/STM32F4xx_HAL_Driver/Src/stm32f4xx_ll_usb.c ****   {
 357:Drivers/STM32F4xx_HAL_Driver/Src/stm32f4xx_ll_usb.c ****     if (++count > 200000)
 512              		.loc 1 357 0
 513 000a 0133     		adds	r3, r3, #1
 514              	.LVL36:
 515 000c 054A     		ldr	r2, .L49
 516 000e 9342     		cmp	r3, r2
 517 0010 05D8     		bhi	.L48
 358:Drivers/STM32F4xx_HAL_Driver/Src/stm32f4xx_ll_usb.c ****     {
 359:Drivers/STM32F4xx_HAL_Driver/Src/stm32f4xx_ll_usb.c ****       return HAL_TIMEOUT;
 360:Drivers/STM32F4xx_HAL_Driver/Src/stm32f4xx_ll_usb.c ****     }
 361:Drivers/STM32F4xx_HAL_Driver/Src/stm32f4xx_ll_usb.c ****   }
 362:Drivers/STM32F4xx_HAL_Driver/Src/stm32f4xx_ll_usb.c ****   while ((USBx->GRSTCTL & USB_OTG_GRSTCTL_TXFFLSH) == USB_OTG_GRSTCTL_TXFFLSH);
 518              		.loc 1 362 0
 519 0012 0269     		ldr	r2, [r0, #16]
 520 0014 12F0200F 		tst	r2, #32
 521 0018 F7D1     		bne	.L47
 363:Drivers/STM32F4xx_HAL_Driver/Src/stm32f4xx_ll_usb.c ****   
 364:Drivers/STM32F4xx_HAL_Driver/Src/stm32f4xx_ll_usb.c ****   return HAL_OK;
 522              		.loc 1 364 0
 523 001a 0020     		movs	r0, #0
 524              	.LVL37:
 525 001c 7047     		bx	lr
 526              	.LVL38:
 527              	.L48:
 359:Drivers/STM32F4xx_HAL_Driver/Src/stm32f4xx_ll_usb.c ****     }
 528              		.loc 1 359 0
 529 001e 0320     		movs	r0, #3
 530              	.LVL39:
 365:Drivers/STM32F4xx_HAL_Driver/Src/stm32f4xx_ll_usb.c **** }
 531              		.loc 1 365 0
ARM GAS  C:\Users\Student\AppData\Local\Temp\cctYr88L.s 			page 17


 532 0020 7047     		bx	lr
 533              	.L50:
 534 0022 00BF     		.align	2
 535              	.L49:
 536 0024 400D0300 		.word	200000
 537              		.cfi_endproc
 538              	.LFE129:
 540              		.section	.text.USB_FlushRxFifo,"ax",%progbits
 541              		.align	1
 542              		.global	USB_FlushRxFifo
 543              		.syntax unified
 544              		.thumb
 545              		.thumb_func
 546              		.fpu fpv4-sp-d16
 548              	USB_FlushRxFifo:
 549              	.LFB130:
 366:Drivers/STM32F4xx_HAL_Driver/Src/stm32f4xx_ll_usb.c **** 
 367:Drivers/STM32F4xx_HAL_Driver/Src/stm32f4xx_ll_usb.c **** 
 368:Drivers/STM32F4xx_HAL_Driver/Src/stm32f4xx_ll_usb.c **** /**
 369:Drivers/STM32F4xx_HAL_Driver/Src/stm32f4xx_ll_usb.c ****   * @brief  USB_FlushRxFifo : Flush Rx FIFO
 370:Drivers/STM32F4xx_HAL_Driver/Src/stm32f4xx_ll_usb.c ****   * @param  USBx  Selected device
 371:Drivers/STM32F4xx_HAL_Driver/Src/stm32f4xx_ll_usb.c ****   * @retval HAL status
 372:Drivers/STM32F4xx_HAL_Driver/Src/stm32f4xx_ll_usb.c ****   */
 373:Drivers/STM32F4xx_HAL_Driver/Src/stm32f4xx_ll_usb.c **** HAL_StatusTypeDef USB_FlushRxFifo(USB_OTG_GlobalTypeDef *USBx)
 374:Drivers/STM32F4xx_HAL_Driver/Src/stm32f4xx_ll_usb.c **** {
 550              		.loc 1 374 0
 551              		.cfi_startproc
 552              		@ args = 0, pretend = 0, frame = 0
 553              		@ frame_needed = 0, uses_anonymous_args = 0
 554              		@ link register save eliminated.
 555              	.LVL40:
 375:Drivers/STM32F4xx_HAL_Driver/Src/stm32f4xx_ll_usb.c ****   uint32_t count = 0;
 376:Drivers/STM32F4xx_HAL_Driver/Src/stm32f4xx_ll_usb.c ****   
 377:Drivers/STM32F4xx_HAL_Driver/Src/stm32f4xx_ll_usb.c ****   USBx->GRSTCTL = USB_OTG_GRSTCTL_RXFFLSH;
 556              		.loc 1 377 0
 557 0000 1023     		movs	r3, #16
 558 0002 0361     		str	r3, [r0, #16]
 375:Drivers/STM32F4xx_HAL_Driver/Src/stm32f4xx_ll_usb.c ****   uint32_t count = 0;
 559              		.loc 1 375 0
 560 0004 0023     		movs	r3, #0
 561              	.LVL41:
 562              	.L53:
 378:Drivers/STM32F4xx_HAL_Driver/Src/stm32f4xx_ll_usb.c ****   
 379:Drivers/STM32F4xx_HAL_Driver/Src/stm32f4xx_ll_usb.c ****   do
 380:Drivers/STM32F4xx_HAL_Driver/Src/stm32f4xx_ll_usb.c ****   {
 381:Drivers/STM32F4xx_HAL_Driver/Src/stm32f4xx_ll_usb.c ****     if (++count > 200000)
 563              		.loc 1 381 0
 564 0006 0133     		adds	r3, r3, #1
 565              	.LVL42:
 566 0008 054A     		ldr	r2, .L55
 567 000a 9342     		cmp	r3, r2
 568 000c 05D8     		bhi	.L54
 382:Drivers/STM32F4xx_HAL_Driver/Src/stm32f4xx_ll_usb.c ****     {
 383:Drivers/STM32F4xx_HAL_Driver/Src/stm32f4xx_ll_usb.c ****       return HAL_TIMEOUT;
 384:Drivers/STM32F4xx_HAL_Driver/Src/stm32f4xx_ll_usb.c ****     }
 385:Drivers/STM32F4xx_HAL_Driver/Src/stm32f4xx_ll_usb.c ****   }
 386:Drivers/STM32F4xx_HAL_Driver/Src/stm32f4xx_ll_usb.c ****   while ((USBx->GRSTCTL & USB_OTG_GRSTCTL_RXFFLSH) == USB_OTG_GRSTCTL_RXFFLSH);
ARM GAS  C:\Users\Student\AppData\Local\Temp\cctYr88L.s 			page 18


 569              		.loc 1 386 0
 570 000e 0269     		ldr	r2, [r0, #16]
 571 0010 12F0100F 		tst	r2, #16
 572 0014 F7D1     		bne	.L53
 387:Drivers/STM32F4xx_HAL_Driver/Src/stm32f4xx_ll_usb.c ****   
 388:Drivers/STM32F4xx_HAL_Driver/Src/stm32f4xx_ll_usb.c ****   return HAL_OK;
 573              		.loc 1 388 0
 574 0016 0020     		movs	r0, #0
 575              	.LVL43:
 576 0018 7047     		bx	lr
 577              	.LVL44:
 578              	.L54:
 383:Drivers/STM32F4xx_HAL_Driver/Src/stm32f4xx_ll_usb.c ****     }
 579              		.loc 1 383 0
 580 001a 0320     		movs	r0, #3
 581              	.LVL45:
 389:Drivers/STM32F4xx_HAL_Driver/Src/stm32f4xx_ll_usb.c **** }
 582              		.loc 1 389 0
 583 001c 7047     		bx	lr
 584              	.L56:
 585 001e 00BF     		.align	2
 586              	.L55:
 587 0020 400D0300 		.word	200000
 588              		.cfi_endproc
 589              	.LFE130:
 591              		.section	.text.USB_SetDevSpeed,"ax",%progbits
 592              		.align	1
 593              		.global	USB_SetDevSpeed
 594              		.syntax unified
 595              		.thumb
 596              		.thumb_func
 597              		.fpu fpv4-sp-d16
 599              	USB_SetDevSpeed:
 600              	.LFB131:
 390:Drivers/STM32F4xx_HAL_Driver/Src/stm32f4xx_ll_usb.c **** 
 391:Drivers/STM32F4xx_HAL_Driver/Src/stm32f4xx_ll_usb.c **** /**
 392:Drivers/STM32F4xx_HAL_Driver/Src/stm32f4xx_ll_usb.c ****   * @brief  USB_SetDevSpeed :Initializes the DevSpd field of DCFG register 
 393:Drivers/STM32F4xx_HAL_Driver/Src/stm32f4xx_ll_usb.c ****   *         depending the PHY type and the enumeration speed of the device.
 394:Drivers/STM32F4xx_HAL_Driver/Src/stm32f4xx_ll_usb.c ****   * @param  USBx  Selected device
 395:Drivers/STM32F4xx_HAL_Driver/Src/stm32f4xx_ll_usb.c ****   * @param  speed  device speed
 396:Drivers/STM32F4xx_HAL_Driver/Src/stm32f4xx_ll_usb.c ****   *          This parameter can be one of these values:
 397:Drivers/STM32F4xx_HAL_Driver/Src/stm32f4xx_ll_usb.c ****   *            @arg USB_OTG_SPEED_HIGH: High speed mode
 398:Drivers/STM32F4xx_HAL_Driver/Src/stm32f4xx_ll_usb.c ****   *            @arg USB_OTG_SPEED_HIGH_IN_FULL: High speed core in Full Speed mode
 399:Drivers/STM32F4xx_HAL_Driver/Src/stm32f4xx_ll_usb.c ****   *            @arg USB_OTG_SPEED_FULL: Full speed mode
 400:Drivers/STM32F4xx_HAL_Driver/Src/stm32f4xx_ll_usb.c ****   *            @arg USB_OTG_SPEED_LOW: Low speed mode
 401:Drivers/STM32F4xx_HAL_Driver/Src/stm32f4xx_ll_usb.c ****   * @retval  Hal status
 402:Drivers/STM32F4xx_HAL_Driver/Src/stm32f4xx_ll_usb.c ****   */
 403:Drivers/STM32F4xx_HAL_Driver/Src/stm32f4xx_ll_usb.c **** HAL_StatusTypeDef USB_SetDevSpeed(USB_OTG_GlobalTypeDef *USBx , uint8_t speed)
 404:Drivers/STM32F4xx_HAL_Driver/Src/stm32f4xx_ll_usb.c **** {
 601              		.loc 1 404 0
 602              		.cfi_startproc
 603              		@ args = 0, pretend = 0, frame = 0
 604              		@ frame_needed = 0, uses_anonymous_args = 0
 605              		@ link register save eliminated.
 606              	.LVL46:
 405:Drivers/STM32F4xx_HAL_Driver/Src/stm32f4xx_ll_usb.c ****   USBx_DEVICE->DCFG |= speed;
 607              		.loc 1 405 0
ARM GAS  C:\Users\Student\AppData\Local\Temp\cctYr88L.s 			page 19


 608 0000 D0F80038 		ldr	r3, [r0, #2048]
 609 0004 1943     		orrs	r1, r1, r3
 610              	.LVL47:
 611 0006 C0F80018 		str	r1, [r0, #2048]
 406:Drivers/STM32F4xx_HAL_Driver/Src/stm32f4xx_ll_usb.c ****   return HAL_OK;
 407:Drivers/STM32F4xx_HAL_Driver/Src/stm32f4xx_ll_usb.c **** }
 612              		.loc 1 407 0
 613 000a 0020     		movs	r0, #0
 614              	.LVL48:
 615 000c 7047     		bx	lr
 616              		.cfi_endproc
 617              	.LFE131:
 619              		.section	.text.USB_GetDevSpeed,"ax",%progbits
 620              		.align	1
 621              		.global	USB_GetDevSpeed
 622              		.syntax unified
 623              		.thumb
 624              		.thumb_func
 625              		.fpu fpv4-sp-d16
 627              	USB_GetDevSpeed:
 628              	.LFB132:
 408:Drivers/STM32F4xx_HAL_Driver/Src/stm32f4xx_ll_usb.c **** 
 409:Drivers/STM32F4xx_HAL_Driver/Src/stm32f4xx_ll_usb.c **** /**
 410:Drivers/STM32F4xx_HAL_Driver/Src/stm32f4xx_ll_usb.c ****   * @brief  USB_GetDevSpeed :Return the  Dev Speed 
 411:Drivers/STM32F4xx_HAL_Driver/Src/stm32f4xx_ll_usb.c ****   * @param  USBx  Selected device
 412:Drivers/STM32F4xx_HAL_Driver/Src/stm32f4xx_ll_usb.c ****   * @retval speed : device speed
 413:Drivers/STM32F4xx_HAL_Driver/Src/stm32f4xx_ll_usb.c ****   *          This parameter can be one of these values:
 414:Drivers/STM32F4xx_HAL_Driver/Src/stm32f4xx_ll_usb.c ****   *            @arg USB_OTG_SPEED_HIGH: High speed mode
 415:Drivers/STM32F4xx_HAL_Driver/Src/stm32f4xx_ll_usb.c ****   *            @arg USB_OTG_SPEED_FULL: Full speed mode
 416:Drivers/STM32F4xx_HAL_Driver/Src/stm32f4xx_ll_usb.c ****   *            @arg USB_OTG_SPEED_LOW: Low speed mode
 417:Drivers/STM32F4xx_HAL_Driver/Src/stm32f4xx_ll_usb.c ****   */
 418:Drivers/STM32F4xx_HAL_Driver/Src/stm32f4xx_ll_usb.c **** uint8_t USB_GetDevSpeed(USB_OTG_GlobalTypeDef *USBx)
 419:Drivers/STM32F4xx_HAL_Driver/Src/stm32f4xx_ll_usb.c **** {
 629              		.loc 1 419 0
 630              		.cfi_startproc
 631              		@ args = 0, pretend = 0, frame = 0
 632              		@ frame_needed = 0, uses_anonymous_args = 0
 633              		@ link register save eliminated.
 634              	.LVL49:
 420:Drivers/STM32F4xx_HAL_Driver/Src/stm32f4xx_ll_usb.c ****   uint8_t speed = 0U;
 421:Drivers/STM32F4xx_HAL_Driver/Src/stm32f4xx_ll_usb.c ****   
 422:Drivers/STM32F4xx_HAL_Driver/Src/stm32f4xx_ll_usb.c ****   if((USBx_DEVICE->DSTS & USB_OTG_DSTS_ENUMSPD) == DSTS_ENUMSPD_HS_PHY_30MHZ_OR_60MHZ)
 635              		.loc 1 422 0
 636 0000 D0F80838 		ldr	r3, [r0, #2056]
 637 0004 00F50060 		add	r0, r0, #2048
 638              	.LVL50:
 639 0008 13F0060F 		tst	r3, #6
 640 000c 10D0     		beq	.L60
 423:Drivers/STM32F4xx_HAL_Driver/Src/stm32f4xx_ll_usb.c ****   {
 424:Drivers/STM32F4xx_HAL_Driver/Src/stm32f4xx_ll_usb.c ****     speed = USB_OTG_SPEED_HIGH;
 425:Drivers/STM32F4xx_HAL_Driver/Src/stm32f4xx_ll_usb.c ****   }
 426:Drivers/STM32F4xx_HAL_Driver/Src/stm32f4xx_ll_usb.c ****   else if (((USBx_DEVICE->DSTS & USB_OTG_DSTS_ENUMSPD) == DSTS_ENUMSPD_FS_PHY_30MHZ_OR_60MHZ)||
 641              		.loc 1 426 0
 642 000e 8368     		ldr	r3, [r0, #8]
 643 0010 03F00603 		and	r3, r3, #6
 644 0014 022B     		cmp	r3, #2
 645 0016 0DD0     		beq	.L61
ARM GAS  C:\Users\Student\AppData\Local\Temp\cctYr88L.s 			page 20


 427:Drivers/STM32F4xx_HAL_Driver/Src/stm32f4xx_ll_usb.c ****            ((USBx_DEVICE->DSTS & USB_OTG_DSTS_ENUMSPD) == DSTS_ENUMSPD_FS_PHY_48MHZ))
 646              		.loc 1 427 0 discriminator 1
 647 0018 8368     		ldr	r3, [r0, #8]
 648 001a 03F00603 		and	r3, r3, #6
 426:Drivers/STM32F4xx_HAL_Driver/Src/stm32f4xx_ll_usb.c ****            ((USBx_DEVICE->DSTS & USB_OTG_DSTS_ENUMSPD) == DSTS_ENUMSPD_FS_PHY_48MHZ))
 649              		.loc 1 426 0 discriminator 1
 650 001e 062B     		cmp	r3, #6
 651 0020 0AD0     		beq	.L62
 428:Drivers/STM32F4xx_HAL_Driver/Src/stm32f4xx_ll_usb.c ****   {
 429:Drivers/STM32F4xx_HAL_Driver/Src/stm32f4xx_ll_usb.c ****     speed = USB_OTG_SPEED_FULL;
 430:Drivers/STM32F4xx_HAL_Driver/Src/stm32f4xx_ll_usb.c ****   }
 431:Drivers/STM32F4xx_HAL_Driver/Src/stm32f4xx_ll_usb.c ****   else if((USBx_DEVICE->DSTS & USB_OTG_DSTS_ENUMSPD) == DSTS_ENUMSPD_LS_PHY_6MHZ)
 652              		.loc 1 431 0
 653 0022 8368     		ldr	r3, [r0, #8]
 654 0024 03F00603 		and	r3, r3, #6
 655 0028 042B     		cmp	r3, #4
 656 002a 07D0     		beq	.L63
 420:Drivers/STM32F4xx_HAL_Driver/Src/stm32f4xx_ll_usb.c ****   
 657              		.loc 1 420 0
 658 002c 0020     		movs	r0, #0
 659              	.LVL51:
 660 002e 7047     		bx	lr
 661              	.L60:
 424:Drivers/STM32F4xx_HAL_Driver/Src/stm32f4xx_ll_usb.c ****   }
 662              		.loc 1 424 0
 663 0030 0020     		movs	r0, #0
 664 0032 7047     		bx	lr
 665              	.L61:
 429:Drivers/STM32F4xx_HAL_Driver/Src/stm32f4xx_ll_usb.c ****   }
 666              		.loc 1 429 0
 667 0034 0320     		movs	r0, #3
 668 0036 7047     		bx	lr
 669              	.L62:
 670 0038 0320     		movs	r0, #3
 671 003a 7047     		bx	lr
 672              	.L63:
 432:Drivers/STM32F4xx_HAL_Driver/Src/stm32f4xx_ll_usb.c ****   {
 433:Drivers/STM32F4xx_HAL_Driver/Src/stm32f4xx_ll_usb.c ****     speed = USB_OTG_SPEED_LOW;
 673              		.loc 1 433 0
 674 003c 0220     		movs	r0, #2
 675              	.LVL52:
 434:Drivers/STM32F4xx_HAL_Driver/Src/stm32f4xx_ll_usb.c ****   }
 435:Drivers/STM32F4xx_HAL_Driver/Src/stm32f4xx_ll_usb.c ****   
 436:Drivers/STM32F4xx_HAL_Driver/Src/stm32f4xx_ll_usb.c ****   return speed;
 437:Drivers/STM32F4xx_HAL_Driver/Src/stm32f4xx_ll_usb.c **** }
 676              		.loc 1 437 0
 677 003e 7047     		bx	lr
 678              		.cfi_endproc
 679              	.LFE132:
 681              		.section	.text.USB_ActivateEndpoint,"ax",%progbits
 682              		.align	1
 683              		.global	USB_ActivateEndpoint
 684              		.syntax unified
 685              		.thumb
 686              		.thumb_func
 687              		.fpu fpv4-sp-d16
 689              	USB_ActivateEndpoint:
ARM GAS  C:\Users\Student\AppData\Local\Temp\cctYr88L.s 			page 21


 690              	.LFB133:
 438:Drivers/STM32F4xx_HAL_Driver/Src/stm32f4xx_ll_usb.c **** 
 439:Drivers/STM32F4xx_HAL_Driver/Src/stm32f4xx_ll_usb.c **** /**
 440:Drivers/STM32F4xx_HAL_Driver/Src/stm32f4xx_ll_usb.c ****   * @brief  Activate and configure an endpoint
 441:Drivers/STM32F4xx_HAL_Driver/Src/stm32f4xx_ll_usb.c ****   * @param  USBx  Selected device
 442:Drivers/STM32F4xx_HAL_Driver/Src/stm32f4xx_ll_usb.c ****   * @param  ep pointer to endpoint structure
 443:Drivers/STM32F4xx_HAL_Driver/Src/stm32f4xx_ll_usb.c ****   * @retval HAL status
 444:Drivers/STM32F4xx_HAL_Driver/Src/stm32f4xx_ll_usb.c ****   */
 445:Drivers/STM32F4xx_HAL_Driver/Src/stm32f4xx_ll_usb.c **** HAL_StatusTypeDef USB_ActivateEndpoint(USB_OTG_GlobalTypeDef *USBx, USB_OTG_EPTypeDef *ep)
 446:Drivers/STM32F4xx_HAL_Driver/Src/stm32f4xx_ll_usb.c **** {
 691              		.loc 1 446 0
 692              		.cfi_startproc
 693              		@ args = 0, pretend = 0, frame = 0
 694              		@ frame_needed = 0, uses_anonymous_args = 0
 695              		@ link register save eliminated.
 696              	.LVL53:
 697 0000 30B4     		push	{r4, r5}
 698              	.LCFI11:
 699              		.cfi_def_cfa_offset 8
 700              		.cfi_offset 4, -8
 701              		.cfi_offset 5, -4
 447:Drivers/STM32F4xx_HAL_Driver/Src/stm32f4xx_ll_usb.c ****   if (ep->is_in == 1U)
 702              		.loc 1 447 0
 703 0002 4B78     		ldrb	r3, [r1, #1]	@ zero_extendqisi2
 704 0004 012B     		cmp	r3, #1
 705 0006 22D0     		beq	.L68
 448:Drivers/STM32F4xx_HAL_Driver/Src/stm32f4xx_ll_usb.c ****   {
 449:Drivers/STM32F4xx_HAL_Driver/Src/stm32f4xx_ll_usb.c ****    USBx_DEVICE->DAINTMSK |= USB_OTG_DAINTMSK_IEPM & ((1U << (ep->num)));
 450:Drivers/STM32F4xx_HAL_Driver/Src/stm32f4xx_ll_usb.c ****    
 451:Drivers/STM32F4xx_HAL_Driver/Src/stm32f4xx_ll_usb.c ****     if (((USBx_INEP(ep->num)->DIEPCTL) & USB_OTG_DIEPCTL_USBAEP) == 0U)
 452:Drivers/STM32F4xx_HAL_Driver/Src/stm32f4xx_ll_usb.c ****     {
 453:Drivers/STM32F4xx_HAL_Driver/Src/stm32f4xx_ll_usb.c ****       USBx_INEP(ep->num)->DIEPCTL |= ((ep->maxpacket & USB_OTG_DIEPCTL_MPSIZ ) | (ep->type << 18U) 
 454:Drivers/STM32F4xx_HAL_Driver/Src/stm32f4xx_ll_usb.c ****         ((ep->num) << 22U) | (USB_OTG_DIEPCTL_SD0PID_SEVNFRM) | (USB_OTG_DIEPCTL_USBAEP)); 
 455:Drivers/STM32F4xx_HAL_Driver/Src/stm32f4xx_ll_usb.c ****     } 
 456:Drivers/STM32F4xx_HAL_Driver/Src/stm32f4xx_ll_usb.c ****   }
 457:Drivers/STM32F4xx_HAL_Driver/Src/stm32f4xx_ll_usb.c ****   else
 458:Drivers/STM32F4xx_HAL_Driver/Src/stm32f4xx_ll_usb.c ****   {
 459:Drivers/STM32F4xx_HAL_Driver/Src/stm32f4xx_ll_usb.c ****      USBx_DEVICE->DAINTMSK |= USB_OTG_DAINTMSK_OEPM & ((1U << (ep->num)) << 16U);
 706              		.loc 1 459 0
 707 0008 D0F81C38 		ldr	r3, [r0, #2076]
 708 000c 0D78     		ldrb	r5, [r1]	@ zero_extendqisi2
 709 000e 0122     		movs	r2, #1
 710 0010 AA40     		lsls	r2, r2, r5
 711 0012 43EA0243 		orr	r3, r3, r2, lsl #16
 712 0016 C0F81C38 		str	r3, [r0, #2076]
 460:Drivers/STM32F4xx_HAL_Driver/Src/stm32f4xx_ll_usb.c ****      
 461:Drivers/STM32F4xx_HAL_Driver/Src/stm32f4xx_ll_usb.c ****     if (((USBx_OUTEP(ep->num)->DOEPCTL) & USB_OTG_DOEPCTL_USBAEP) == 0U)
 713              		.loc 1 461 0
 714 001a 0B78     		ldrb	r3, [r1]	@ zero_extendqisi2
 715 001c 00EB4310 		add	r0, r0, r3, lsl #5
 716              	.LVL54:
 717 0020 D0F8003B 		ldr	r3, [r0, #2816]
 718 0024 13F4004F 		tst	r3, #32768
 719 0028 0ED1     		bne	.L66
 462:Drivers/STM32F4xx_HAL_Driver/Src/stm32f4xx_ll_usb.c ****     {
 463:Drivers/STM32F4xx_HAL_Driver/Src/stm32f4xx_ll_usb.c ****       USBx_OUTEP(ep->num)->DOEPCTL |= ((ep->maxpacket & USB_OTG_DOEPCTL_MPSIZ ) | (ep->type << 18U)
 720              		.loc 1 463 0
ARM GAS  C:\Users\Student\AppData\Local\Temp\cctYr88L.s 			page 22


 721 002a D0F8003B 		ldr	r3, [r0, #2816]
 722 002e 8A68     		ldr	r2, [r1, #8]
 723 0030 C2F30A02 		ubfx	r2, r2, #0, #11
 724 0034 C978     		ldrb	r1, [r1, #3]	@ zero_extendqisi2
 725              	.LVL55:
 726 0036 42EA8142 		orr	r2, r2, r1, lsl #18
 727 003a 1343     		orrs	r3, r3, r2
 728 003c 43F08053 		orr	r3, r3, #268435456
 729 0040 43F40043 		orr	r3, r3, #32768
 730 0044 C0F8003B 		str	r3, [r0, #2816]
 731              	.L66:
 464:Drivers/STM32F4xx_HAL_Driver/Src/stm32f4xx_ll_usb.c ****        (USB_OTG_DIEPCTL_SD0PID_SEVNFRM)| (USB_OTG_DOEPCTL_USBAEP));
 465:Drivers/STM32F4xx_HAL_Driver/Src/stm32f4xx_ll_usb.c ****     } 
 466:Drivers/STM32F4xx_HAL_Driver/Src/stm32f4xx_ll_usb.c ****   }
 467:Drivers/STM32F4xx_HAL_Driver/Src/stm32f4xx_ll_usb.c ****   return HAL_OK;
 468:Drivers/STM32F4xx_HAL_Driver/Src/stm32f4xx_ll_usb.c **** }
 732              		.loc 1 468 0
 733 0048 0020     		movs	r0, #0
 734 004a 30BC     		pop	{r4, r5}
 735              	.LCFI12:
 736              		.cfi_remember_state
 737              		.cfi_restore 5
 738              		.cfi_restore 4
 739              		.cfi_def_cfa_offset 0
 740 004c 7047     		bx	lr
 741              	.LVL56:
 742              	.L68:
 743              	.LCFI13:
 744              		.cfi_restore_state
 449:Drivers/STM32F4xx_HAL_Driver/Src/stm32f4xx_ll_usb.c ****    
 745              		.loc 1 449 0
 746 004e D0F81C28 		ldr	r2, [r0, #2076]
 747 0052 0D78     		ldrb	r5, [r1]	@ zero_extendqisi2
 748 0054 AB40     		lsls	r3, r3, r5
 749 0056 9BB2     		uxth	r3, r3
 750 0058 1343     		orrs	r3, r3, r2
 751 005a C0F81C38 		str	r3, [r0, #2076]
 451:Drivers/STM32F4xx_HAL_Driver/Src/stm32f4xx_ll_usb.c ****     {
 752              		.loc 1 451 0
 753 005e 0C78     		ldrb	r4, [r1]	@ zero_extendqisi2
 754 0060 00EB4410 		add	r0, r0, r4, lsl #5
 755              	.LVL57:
 756 0064 D0F80039 		ldr	r3, [r0, #2304]
 757 0068 13F4004F 		tst	r3, #32768
 758 006c ECD1     		bne	.L66
 453:Drivers/STM32F4xx_HAL_Driver/Src/stm32f4xx_ll_usb.c ****         ((ep->num) << 22U) | (USB_OTG_DIEPCTL_SD0PID_SEVNFRM) | (USB_OTG_DIEPCTL_USBAEP)); 
 759              		.loc 1 453 0
 760 006e D0F80039 		ldr	r3, [r0, #2304]
 761 0072 8A68     		ldr	r2, [r1, #8]
 762 0074 C2F30A02 		ubfx	r2, r2, #0, #11
 763 0078 C978     		ldrb	r1, [r1, #3]	@ zero_extendqisi2
 764              	.LVL58:
 765 007a 42EA8142 		orr	r2, r2, r1, lsl #18
 766 007e 42EA8452 		orr	r2, r2, r4, lsl #22
 767 0082 1343     		orrs	r3, r3, r2
 768 0084 43F08053 		orr	r3, r3, #268435456
 769 0088 43F40043 		orr	r3, r3, #32768
ARM GAS  C:\Users\Student\AppData\Local\Temp\cctYr88L.s 			page 23


 770 008c C0F80039 		str	r3, [r0, #2304]
 771 0090 DAE7     		b	.L66
 772              		.cfi_endproc
 773              	.LFE133:
 775              		.section	.text.USB_ActivateDedicatedEndpoint,"ax",%progbits
 776              		.align	1
 777              		.global	USB_ActivateDedicatedEndpoint
 778              		.syntax unified
 779              		.thumb
 780              		.thumb_func
 781              		.fpu fpv4-sp-d16
 783              	USB_ActivateDedicatedEndpoint:
 784              	.LFB134:
 469:Drivers/STM32F4xx_HAL_Driver/Src/stm32f4xx_ll_usb.c **** /**
 470:Drivers/STM32F4xx_HAL_Driver/Src/stm32f4xx_ll_usb.c ****   * @brief  Activate and configure a dedicated endpoint
 471:Drivers/STM32F4xx_HAL_Driver/Src/stm32f4xx_ll_usb.c ****   * @param  USBx  Selected device
 472:Drivers/STM32F4xx_HAL_Driver/Src/stm32f4xx_ll_usb.c ****   * @param  ep pointer to endpoint structure
 473:Drivers/STM32F4xx_HAL_Driver/Src/stm32f4xx_ll_usb.c ****   * @retval HAL status
 474:Drivers/STM32F4xx_HAL_Driver/Src/stm32f4xx_ll_usb.c ****   */
 475:Drivers/STM32F4xx_HAL_Driver/Src/stm32f4xx_ll_usb.c **** HAL_StatusTypeDef USB_ActivateDedicatedEndpoint(USB_OTG_GlobalTypeDef *USBx, USB_OTG_EPTypeDef *ep)
 476:Drivers/STM32F4xx_HAL_Driver/Src/stm32f4xx_ll_usb.c **** {
 785              		.loc 1 476 0
 786              		.cfi_startproc
 787              		@ args = 0, pretend = 0, frame = 0
 788              		@ frame_needed = 0, uses_anonymous_args = 0
 789              		@ link register save eliminated.
 790              	.LVL59:
 791 0000 70B4     		push	{r4, r5, r6}
 792              	.LCFI14:
 793              		.cfi_def_cfa_offset 12
 794              		.cfi_offset 4, -12
 795              		.cfi_offset 5, -8
 796              		.cfi_offset 6, -4
 477:Drivers/STM32F4xx_HAL_Driver/Src/stm32f4xx_ll_usb.c ****   static __IO uint32_t debug = 0U;
 478:Drivers/STM32F4xx_HAL_Driver/Src/stm32f4xx_ll_usb.c ****   
 479:Drivers/STM32F4xx_HAL_Driver/Src/stm32f4xx_ll_usb.c ****   /* Read DEPCTLn register */
 480:Drivers/STM32F4xx_HAL_Driver/Src/stm32f4xx_ll_usb.c ****   if (ep->is_in == 1U)
 797              		.loc 1 480 0
 798 0002 4B78     		ldrb	r3, [r1, #1]	@ zero_extendqisi2
 799 0004 012B     		cmp	r3, #1
 800 0006 39D0     		beq	.L75
 481:Drivers/STM32F4xx_HAL_Driver/Src/stm32f4xx_ll_usb.c ****   {
 482:Drivers/STM32F4xx_HAL_Driver/Src/stm32f4xx_ll_usb.c ****     if (((USBx_INEP(ep->num)->DIEPCTL) & USB_OTG_DIEPCTL_USBAEP) == 0U)
 483:Drivers/STM32F4xx_HAL_Driver/Src/stm32f4xx_ll_usb.c ****     {
 484:Drivers/STM32F4xx_HAL_Driver/Src/stm32f4xx_ll_usb.c ****       USBx_INEP(ep->num)->DIEPCTL |= ((ep->maxpacket & USB_OTG_DIEPCTL_MPSIZ ) | (ep->type << 18U) 
 485:Drivers/STM32F4xx_HAL_Driver/Src/stm32f4xx_ll_usb.c ****         ((ep->num) << 22U) | (USB_OTG_DIEPCTL_SD0PID_SEVNFRM) | (USB_OTG_DIEPCTL_USBAEP)); 
 486:Drivers/STM32F4xx_HAL_Driver/Src/stm32f4xx_ll_usb.c ****     } 
 487:Drivers/STM32F4xx_HAL_Driver/Src/stm32f4xx_ll_usb.c ****     
 488:Drivers/STM32F4xx_HAL_Driver/Src/stm32f4xx_ll_usb.c ****     
 489:Drivers/STM32F4xx_HAL_Driver/Src/stm32f4xx_ll_usb.c ****     debug  |= ((ep->maxpacket & USB_OTG_DIEPCTL_MPSIZ ) | (ep->type << 18U) |\
 490:Drivers/STM32F4xx_HAL_Driver/Src/stm32f4xx_ll_usb.c ****         ((ep->num) << 22U) | (USB_OTG_DIEPCTL_SD0PID_SEVNFRM) | (USB_OTG_DIEPCTL_USBAEP)); 
 491:Drivers/STM32F4xx_HAL_Driver/Src/stm32f4xx_ll_usb.c ****     
 492:Drivers/STM32F4xx_HAL_Driver/Src/stm32f4xx_ll_usb.c ****    USBx_DEVICE->DEACHMSK |= USB_OTG_DAINTMSK_IEPM & ((1U << (ep->num)));
 493:Drivers/STM32F4xx_HAL_Driver/Src/stm32f4xx_ll_usb.c ****   }
 494:Drivers/STM32F4xx_HAL_Driver/Src/stm32f4xx_ll_usb.c ****   else
 495:Drivers/STM32F4xx_HAL_Driver/Src/stm32f4xx_ll_usb.c ****   {
 496:Drivers/STM32F4xx_HAL_Driver/Src/stm32f4xx_ll_usb.c ****     if (((USBx_OUTEP(ep->num)->DOEPCTL) & USB_OTG_DOEPCTL_USBAEP) == 0U)
ARM GAS  C:\Users\Student\AppData\Local\Temp\cctYr88L.s 			page 24


 801              		.loc 1 496 0
 802 0008 0D78     		ldrb	r5, [r1]	@ zero_extendqisi2
 803 000a 00EB4512 		add	r2, r0, r5, lsl #5
 804 000e D2F8003B 		ldr	r3, [r2, #2816]
 805 0012 13F4004F 		tst	r3, #32768
 806 0016 25D1     		bne	.L73
 497:Drivers/STM32F4xx_HAL_Driver/Src/stm32f4xx_ll_usb.c ****     {
 498:Drivers/STM32F4xx_HAL_Driver/Src/stm32f4xx_ll_usb.c ****       USBx_OUTEP(ep->num)->DOEPCTL |= ((ep->maxpacket & USB_OTG_DOEPCTL_MPSIZ ) | (ep->type << 18U)
 807              		.loc 1 498 0
 808 0018 D2F8004B 		ldr	r4, [r2, #2816]
 809 001c 8B68     		ldr	r3, [r1, #8]
 810 001e C3F30A03 		ubfx	r3, r3, #0, #11
 811 0022 CE78     		ldrb	r6, [r1, #3]	@ zero_extendqisi2
 812 0024 43EA8643 		orr	r3, r3, r6, lsl #18
 813 0028 43EA8553 		orr	r3, r3, r5, lsl #22
 814 002c 2343     		orrs	r3, r3, r4
 815 002e 43F40043 		orr	r3, r3, #32768
 816 0032 C2F8003B 		str	r3, [r2, #2816]
 499:Drivers/STM32F4xx_HAL_Driver/Src/stm32f4xx_ll_usb.c ****         ((ep->num) << 22U) | (USB_OTG_DOEPCTL_USBAEP));
 500:Drivers/STM32F4xx_HAL_Driver/Src/stm32f4xx_ll_usb.c ****       
 501:Drivers/STM32F4xx_HAL_Driver/Src/stm32f4xx_ll_usb.c ****       debug = (uint32_t)(((uint32_t )USBx) + USB_OTG_OUT_ENDPOINT_BASE + (0U)*USB_OTG_EP_REG_SIZE);
 817              		.loc 1 501 0
 818 0036 00F53063 		add	r3, r0, #2816
 819 003a 2A4A     		ldr	r2, .L76
 820 003c 1360     		str	r3, [r2]
 502:Drivers/STM32F4xx_HAL_Driver/Src/stm32f4xx_ll_usb.c ****       debug = (uint32_t )&USBx_OUTEP(ep->num)->DOEPCTL;
 821              		.loc 1 502 0
 822 003e 0D78     		ldrb	r5, [r1]	@ zero_extendqisi2
 823 0040 00EB4514 		add	r4, r0, r5, lsl #5
 824 0044 04F53064 		add	r4, r4, #2816
 825 0048 1460     		str	r4, [r2]
 503:Drivers/STM32F4xx_HAL_Driver/Src/stm32f4xx_ll_usb.c ****       debug |= ((ep->maxpacket & USB_OTG_DOEPCTL_MPSIZ ) | (ep->type << 18U) |\
 826              		.loc 1 503 0
 827 004a 8B68     		ldr	r3, [r1, #8]
 828 004c C3F30A03 		ubfx	r3, r3, #0, #11
 829 0050 CC78     		ldrb	r4, [r1, #3]	@ zero_extendqisi2
 830 0052 43EA8443 		orr	r3, r3, r4, lsl #18
 831 0056 43EA8553 		orr	r3, r3, r5, lsl #22
 832 005a 1468     		ldr	r4, [r2]
 833 005c 2343     		orrs	r3, r3, r4
 834 005e 43F40043 		orr	r3, r3, #32768
 835 0062 1360     		str	r3, [r2]
 836              	.L73:
 504:Drivers/STM32F4xx_HAL_Driver/Src/stm32f4xx_ll_usb.c ****         ((ep->num) << 22U) | (USB_OTG_DOEPCTL_USBAEP)); 
 505:Drivers/STM32F4xx_HAL_Driver/Src/stm32f4xx_ll_usb.c ****     } 
 506:Drivers/STM32F4xx_HAL_Driver/Src/stm32f4xx_ll_usb.c ****     
 507:Drivers/STM32F4xx_HAL_Driver/Src/stm32f4xx_ll_usb.c ****      USBx_DEVICE->DEACHMSK |= USB_OTG_DAINTMSK_OEPM & ((1U << (ep->num)) << 16U);
 837              		.loc 1 507 0
 838 0064 D0F83C38 		ldr	r3, [r0, #2108]
 839 0068 0978     		ldrb	r1, [r1]	@ zero_extendqisi2
 840              	.LVL60:
 841 006a 0122     		movs	r2, #1
 842 006c 8A40     		lsls	r2, r2, r1
 843 006e 43EA0243 		orr	r3, r3, r2, lsl #16
 844 0072 C0F83C38 		str	r3, [r0, #2108]
 845              	.L72:
 508:Drivers/STM32F4xx_HAL_Driver/Src/stm32f4xx_ll_usb.c ****   }
ARM GAS  C:\Users\Student\AppData\Local\Temp\cctYr88L.s 			page 25


 509:Drivers/STM32F4xx_HAL_Driver/Src/stm32f4xx_ll_usb.c **** 
 510:Drivers/STM32F4xx_HAL_Driver/Src/stm32f4xx_ll_usb.c ****   return HAL_OK;
 511:Drivers/STM32F4xx_HAL_Driver/Src/stm32f4xx_ll_usb.c **** }
 846              		.loc 1 511 0
 847 0076 0020     		movs	r0, #0
 848              	.LVL61:
 849 0078 70BC     		pop	{r4, r5, r6}
 850              	.LCFI15:
 851              		.cfi_remember_state
 852              		.cfi_restore 6
 853              		.cfi_restore 5
 854              		.cfi_restore 4
 855              		.cfi_def_cfa_offset 0
 856 007a 7047     		bx	lr
 857              	.LVL62:
 858              	.L75:
 859              	.LCFI16:
 860              		.cfi_restore_state
 482:Drivers/STM32F4xx_HAL_Driver/Src/stm32f4xx_ll_usb.c ****     {
 861              		.loc 1 482 0
 862 007c 0D78     		ldrb	r5, [r1]	@ zero_extendqisi2
 863 007e 00EB4514 		add	r4, r0, r5, lsl #5
 864 0082 D4F80039 		ldr	r3, [r4, #2304]
 865 0086 13F4004F 		tst	r3, #32768
 866 008a 10D1     		bne	.L71
 484:Drivers/STM32F4xx_HAL_Driver/Src/stm32f4xx_ll_usb.c ****         ((ep->num) << 22U) | (USB_OTG_DIEPCTL_SD0PID_SEVNFRM) | (USB_OTG_DIEPCTL_USBAEP)); 
 867              		.loc 1 484 0
 868 008c D4F80039 		ldr	r3, [r4, #2304]
 869 0090 8A68     		ldr	r2, [r1, #8]
 870 0092 C2F30A02 		ubfx	r2, r2, #0, #11
 871 0096 CE78     		ldrb	r6, [r1, #3]	@ zero_extendqisi2
 872 0098 42EA8642 		orr	r2, r2, r6, lsl #18
 873 009c 42EA8552 		orr	r2, r2, r5, lsl #22
 874 00a0 1343     		orrs	r3, r3, r2
 875 00a2 43F08053 		orr	r3, r3, #268435456
 876 00a6 43F40043 		orr	r3, r3, #32768
 877 00aa C4F80039 		str	r3, [r4, #2304]
 878              	.L71:
 489:Drivers/STM32F4xx_HAL_Driver/Src/stm32f4xx_ll_usb.c ****         ((ep->num) << 22U) | (USB_OTG_DIEPCTL_SD0PID_SEVNFRM) | (USB_OTG_DIEPCTL_USBAEP)); 
 879              		.loc 1 489 0
 880 00ae 8B68     		ldr	r3, [r1, #8]
 881 00b0 C3F30A03 		ubfx	r3, r3, #0, #11
 882 00b4 CA78     		ldrb	r2, [r1, #3]	@ zero_extendqisi2
 883 00b6 43EA8243 		orr	r3, r3, r2, lsl #18
 490:Drivers/STM32F4xx_HAL_Driver/Src/stm32f4xx_ll_usb.c ****     
 884              		.loc 1 490 0
 885 00ba 0978     		ldrb	r1, [r1]	@ zero_extendqisi2
 886              	.LVL63:
 489:Drivers/STM32F4xx_HAL_Driver/Src/stm32f4xx_ll_usb.c ****         ((ep->num) << 22U) | (USB_OTG_DIEPCTL_SD0PID_SEVNFRM) | (USB_OTG_DIEPCTL_USBAEP)); 
 887              		.loc 1 489 0
 888 00bc 43EA8153 		orr	r3, r3, r1, lsl #22
 889 00c0 084A     		ldr	r2, .L76
 890 00c2 1468     		ldr	r4, [r2]
 891 00c4 2343     		orrs	r3, r3, r4
 892 00c6 43F08053 		orr	r3, r3, #268435456
 893 00ca 43F40043 		orr	r3, r3, #32768
 894 00ce 1360     		str	r3, [r2]
ARM GAS  C:\Users\Student\AppData\Local\Temp\cctYr88L.s 			page 26


 492:Drivers/STM32F4xx_HAL_Driver/Src/stm32f4xx_ll_usb.c ****   }
 895              		.loc 1 492 0
 896 00d0 D0F83C28 		ldr	r2, [r0, #2108]
 897 00d4 0123     		movs	r3, #1
 898 00d6 8B40     		lsls	r3, r3, r1
 899 00d8 9BB2     		uxth	r3, r3
 900 00da 1343     		orrs	r3, r3, r2
 901 00dc C0F83C38 		str	r3, [r0, #2108]
 902 00e0 C9E7     		b	.L72
 903              	.L77:
 904 00e2 00BF     		.align	2
 905              	.L76:
 906 00e4 00000000 		.word	.LANCHOR0
 907              		.cfi_endproc
 908              	.LFE134:
 910              		.section	.text.USB_DeactivateEndpoint,"ax",%progbits
 911              		.align	1
 912              		.global	USB_DeactivateEndpoint
 913              		.syntax unified
 914              		.thumb
 915              		.thumb_func
 916              		.fpu fpv4-sp-d16
 918              	USB_DeactivateEndpoint:
 919              	.LFB135:
 512:Drivers/STM32F4xx_HAL_Driver/Src/stm32f4xx_ll_usb.c **** /**
 513:Drivers/STM32F4xx_HAL_Driver/Src/stm32f4xx_ll_usb.c ****   * @brief  De-activate and de-initialize an endpoint
 514:Drivers/STM32F4xx_HAL_Driver/Src/stm32f4xx_ll_usb.c ****   * @param  USBx  Selected device
 515:Drivers/STM32F4xx_HAL_Driver/Src/stm32f4xx_ll_usb.c ****   * @param  ep pointer to endpoint structure
 516:Drivers/STM32F4xx_HAL_Driver/Src/stm32f4xx_ll_usb.c ****   * @retval HAL status
 517:Drivers/STM32F4xx_HAL_Driver/Src/stm32f4xx_ll_usb.c ****   */
 518:Drivers/STM32F4xx_HAL_Driver/Src/stm32f4xx_ll_usb.c **** HAL_StatusTypeDef USB_DeactivateEndpoint(USB_OTG_GlobalTypeDef *USBx, USB_OTG_EPTypeDef *ep)
 519:Drivers/STM32F4xx_HAL_Driver/Src/stm32f4xx_ll_usb.c **** {
 920              		.loc 1 519 0
 921              		.cfi_startproc
 922              		@ args = 0, pretend = 0, frame = 0
 923              		@ frame_needed = 0, uses_anonymous_args = 0
 924              	.LVL64:
 925 0000 38B5     		push	{r3, r4, r5, lr}
 926              	.LCFI17:
 927              		.cfi_def_cfa_offset 16
 928              		.cfi_offset 3, -16
 929              		.cfi_offset 4, -12
 930              		.cfi_offset 5, -8
 931              		.cfi_offset 14, -4
 932              	.LVL65:
 520:Drivers/STM32F4xx_HAL_Driver/Src/stm32f4xx_ll_usb.c ****   uint32_t count = 0U;
 521:Drivers/STM32F4xx_HAL_Driver/Src/stm32f4xx_ll_usb.c ****   
 522:Drivers/STM32F4xx_HAL_Driver/Src/stm32f4xx_ll_usb.c ****   /* Disable the IN endpoint */
 523:Drivers/STM32F4xx_HAL_Driver/Src/stm32f4xx_ll_usb.c ****   if (ep->is_in == 1U)
 933              		.loc 1 523 0
 934 0002 4B78     		ldrb	r3, [r1, #1]	@ zero_extendqisi2
 935 0004 012B     		cmp	r3, #1
 936 0006 36D0     		beq	.L86
 524:Drivers/STM32F4xx_HAL_Driver/Src/stm32f4xx_ll_usb.c ****   {
 525:Drivers/STM32F4xx_HAL_Driver/Src/stm32f4xx_ll_usb.c ****     USBx_INEP(ep->num)->DIEPCTL &= ~USB_OTG_DIEPCTL_USBAEP;  
 526:Drivers/STM32F4xx_HAL_Driver/Src/stm32f4xx_ll_usb.c ****     
 527:Drivers/STM32F4xx_HAL_Driver/Src/stm32f4xx_ll_usb.c ****     /* sets the NAK bit for the IN endpoint */
ARM GAS  C:\Users\Student\AppData\Local\Temp\cctYr88L.s 			page 27


 528:Drivers/STM32F4xx_HAL_Driver/Src/stm32f4xx_ll_usb.c ****     USBx_INEP(ep->num)->DIEPCTL = USB_OTG_DIEPCTL_SNAK;
 529:Drivers/STM32F4xx_HAL_Driver/Src/stm32f4xx_ll_usb.c ****     
 530:Drivers/STM32F4xx_HAL_Driver/Src/stm32f4xx_ll_usb.c ****     /* Disable IN endpoint */
 531:Drivers/STM32F4xx_HAL_Driver/Src/stm32f4xx_ll_usb.c ****     USBx_INEP(ep->num)->DIEPCTL = USB_OTG_DIEPCTL_EPDIS;
 532:Drivers/STM32F4xx_HAL_Driver/Src/stm32f4xx_ll_usb.c ****     
 533:Drivers/STM32F4xx_HAL_Driver/Src/stm32f4xx_ll_usb.c ****     do
 534:Drivers/STM32F4xx_HAL_Driver/Src/stm32f4xx_ll_usb.c ****     {
 535:Drivers/STM32F4xx_HAL_Driver/Src/stm32f4xx_ll_usb.c ****       if (++count > 200000U)
 536:Drivers/STM32F4xx_HAL_Driver/Src/stm32f4xx_ll_usb.c ****       {
 537:Drivers/STM32F4xx_HAL_Driver/Src/stm32f4xx_ll_usb.c ****         return HAL_TIMEOUT;
 538:Drivers/STM32F4xx_HAL_Driver/Src/stm32f4xx_ll_usb.c ****       }
 539:Drivers/STM32F4xx_HAL_Driver/Src/stm32f4xx_ll_usb.c ****     }
 540:Drivers/STM32F4xx_HAL_Driver/Src/stm32f4xx_ll_usb.c ****     
 541:Drivers/STM32F4xx_HAL_Driver/Src/stm32f4xx_ll_usb.c ****     /*Wait for  EPDISD endpoint disabled interrupt*/ 
 542:Drivers/STM32F4xx_HAL_Driver/Src/stm32f4xx_ll_usb.c ****     while ((USBx_INEP(ep->num)->DIEPINT & USB_OTG_DIEPCTL_EPDIS) == USB_OTG_DIEPCTL_EPDIS);
 543:Drivers/STM32F4xx_HAL_Driver/Src/stm32f4xx_ll_usb.c ****     
 544:Drivers/STM32F4xx_HAL_Driver/Src/stm32f4xx_ll_usb.c ****     
 545:Drivers/STM32F4xx_HAL_Driver/Src/stm32f4xx_ll_usb.c ****     /* Flush any data remaining in the TxFIFO */
 546:Drivers/STM32F4xx_HAL_Driver/Src/stm32f4xx_ll_usb.c ****     USB_FlushTxFifo(USBx , 0x10U);
 547:Drivers/STM32F4xx_HAL_Driver/Src/stm32f4xx_ll_usb.c ****     
 548:Drivers/STM32F4xx_HAL_Driver/Src/stm32f4xx_ll_usb.c ****     /* Disable endpoint interrupts */
 549:Drivers/STM32F4xx_HAL_Driver/Src/stm32f4xx_ll_usb.c ****     USBx_DEVICE->DAINTMSK &= ~(USB_OTG_DAINTMSK_IEPM & ((1U << (ep->num))));   
 550:Drivers/STM32F4xx_HAL_Driver/Src/stm32f4xx_ll_usb.c ****   
 551:Drivers/STM32F4xx_HAL_Driver/Src/stm32f4xx_ll_usb.c ****   }
 552:Drivers/STM32F4xx_HAL_Driver/Src/stm32f4xx_ll_usb.c ****   else /* Disable the OUT endpoint */
 553:Drivers/STM32F4xx_HAL_Driver/Src/stm32f4xx_ll_usb.c ****   {
 554:Drivers/STM32F4xx_HAL_Driver/Src/stm32f4xx_ll_usb.c ****     
 555:Drivers/STM32F4xx_HAL_Driver/Src/stm32f4xx_ll_usb.c ****     USBx_OUTEP(ep->num)->DOEPCTL &= ~USB_OTG_DOEPCTL_USBAEP;  
 937              		.loc 1 555 0
 938 0008 0B78     		ldrb	r3, [r1]	@ zero_extendqisi2
 939 000a 0446     		mov	r4, r0
 940 000c 00EB4313 		add	r3, r0, r3, lsl #5
 941 0010 D3F8002B 		ldr	r2, [r3, #2816]
 942 0014 22F40042 		bic	r2, r2, #32768
 943 0018 C3F8002B 		str	r2, [r3, #2816]
 556:Drivers/STM32F4xx_HAL_Driver/Src/stm32f4xx_ll_usb.c ****     
 557:Drivers/STM32F4xx_HAL_Driver/Src/stm32f4xx_ll_usb.c ****     /* sets the NAK bit for the OUT endpoint */
 558:Drivers/STM32F4xx_HAL_Driver/Src/stm32f4xx_ll_usb.c ****     USBx_OUTEP(ep->num)->DOEPCTL = USB_OTG_DOEPCTL_SNAK;
 944              		.loc 1 558 0
 945 001c 0B78     		ldrb	r3, [r1]	@ zero_extendqisi2
 946 001e 00EB4313 		add	r3, r0, r3, lsl #5
 947 0022 4FF00062 		mov	r2, #134217728
 948 0026 C3F8002B 		str	r2, [r3, #2816]
 559:Drivers/STM32F4xx_HAL_Driver/Src/stm32f4xx_ll_usb.c ****     
 560:Drivers/STM32F4xx_HAL_Driver/Src/stm32f4xx_ll_usb.c ****     /* Disable OUT endpoint */
 561:Drivers/STM32F4xx_HAL_Driver/Src/stm32f4xx_ll_usb.c ****     USBx_OUTEP(ep->num)->DOEPCTL = USB_OTG_DOEPCTL_EPDIS;
 949              		.loc 1 561 0
 950 002a 0B78     		ldrb	r3, [r1]	@ zero_extendqisi2
 951 002c 00EB4313 		add	r3, r0, r3, lsl #5
 952 0030 4FF08042 		mov	r2, #1073741824
 953 0034 C3F8002B 		str	r2, [r3, #2816]
 520:Drivers/STM32F4xx_HAL_Driver/Src/stm32f4xx_ll_usb.c ****   
 954              		.loc 1 520 0
 955 0038 0022     		movs	r2, #0
 956              	.LVL66:
 957              	.L82:
 562:Drivers/STM32F4xx_HAL_Driver/Src/stm32f4xx_ll_usb.c ****     
ARM GAS  C:\Users\Student\AppData\Local\Temp\cctYr88L.s 			page 28


 563:Drivers/STM32F4xx_HAL_Driver/Src/stm32f4xx_ll_usb.c ****     do
 564:Drivers/STM32F4xx_HAL_Driver/Src/stm32f4xx_ll_usb.c ****     {
 565:Drivers/STM32F4xx_HAL_Driver/Src/stm32f4xx_ll_usb.c ****       if (++count > 200000U)
 958              		.loc 1 565 0
 959 003a 0132     		adds	r2, r2, #1
 960              	.LVL67:
 961 003c 2B4B     		ldr	r3, .L87
 962 003e 9A42     		cmp	r2, r3
 963 0040 52D8     		bhi	.L84
 566:Drivers/STM32F4xx_HAL_Driver/Src/stm32f4xx_ll_usb.c ****       {
 567:Drivers/STM32F4xx_HAL_Driver/Src/stm32f4xx_ll_usb.c ****         return HAL_TIMEOUT;
 568:Drivers/STM32F4xx_HAL_Driver/Src/stm32f4xx_ll_usb.c ****       }
 569:Drivers/STM32F4xx_HAL_Driver/Src/stm32f4xx_ll_usb.c ****     }
 570:Drivers/STM32F4xx_HAL_Driver/Src/stm32f4xx_ll_usb.c ****     
 571:Drivers/STM32F4xx_HAL_Driver/Src/stm32f4xx_ll_usb.c ****     /*Wait for  EPDISD endpoint disabled interrupt*/ 
 572:Drivers/STM32F4xx_HAL_Driver/Src/stm32f4xx_ll_usb.c ****     while ((USBx_OUTEP(ep->num)->DOEPINT & USB_OTG_DOEPINT_OTEPDIS) == USB_OTG_DOEPINT_OTEPDIS);
 964              		.loc 1 572 0
 965 0042 0B78     		ldrb	r3, [r1]	@ zero_extendqisi2
 966 0044 04EB4313 		add	r3, r4, r3, lsl #5
 967 0048 03F53063 		add	r3, r3, #2816
 968 004c 9B68     		ldr	r3, [r3, #8]
 969 004e 13F0100F 		tst	r3, #16
 970 0052 F2D1     		bne	.L82
 573:Drivers/STM32F4xx_HAL_Driver/Src/stm32f4xx_ll_usb.c ****     
 574:Drivers/STM32F4xx_HAL_Driver/Src/stm32f4xx_ll_usb.c ****     /* Set the "Clear the Global OUT NAK bit" to disable global OUT NAK mode */
 575:Drivers/STM32F4xx_HAL_Driver/Src/stm32f4xx_ll_usb.c ****     USBx_DEVICE->DCTL |= USB_OTG_DCTL_CGONAK;
 971              		.loc 1 575 0
 972 0054 D0F80438 		ldr	r3, [r0, #2052]
 973 0058 43F48063 		orr	r3, r3, #1024
 974 005c C0F80438 		str	r3, [r0, #2052]
 576:Drivers/STM32F4xx_HAL_Driver/Src/stm32f4xx_ll_usb.c ****     
 577:Drivers/STM32F4xx_HAL_Driver/Src/stm32f4xx_ll_usb.c ****     /* Disable endpoint interrupts */
 578:Drivers/STM32F4xx_HAL_Driver/Src/stm32f4xx_ll_usb.c ****     USBx_DEVICE->DAINTMSK &= ~(USB_OTG_DAINTMSK_OEPM & ((1U << (ep->num)) << 16U));         
 975              		.loc 1 578 0
 976 0060 D0F81C38 		ldr	r3, [r0, #2076]
 977 0064 0978     		ldrb	r1, [r1]	@ zero_extendqisi2
 978              	.LVL68:
 979 0066 0122     		movs	r2, #1
 980              	.LVL69:
 981 0068 8A40     		lsls	r2, r2, r1
 982 006a 23EA0243 		bic	r3, r3, r2, lsl #16
 983 006e C0F81C38 		str	r3, [r0, #2076]
 579:Drivers/STM32F4xx_HAL_Driver/Src/stm32f4xx_ll_usb.c ****   }
 580:Drivers/STM32F4xx_HAL_Driver/Src/stm32f4xx_ll_usb.c ****   return HAL_OK;
 984              		.loc 1 580 0
 985 0072 0020     		movs	r0, #0
 986              	.LVL70:
 987 0074 38BD     		pop	{r3, r4, r5, pc}
 988              	.LVL71:
 989              	.L86:
 525:Drivers/STM32F4xx_HAL_Driver/Src/stm32f4xx_ll_usb.c ****     
 990              		.loc 1 525 0
 991 0076 0B78     		ldrb	r3, [r1]	@ zero_extendqisi2
 992 0078 0446     		mov	r4, r0
 993 007a 00EB4313 		add	r3, r0, r3, lsl #5
 994 007e D3F80029 		ldr	r2, [r3, #2304]
 995 0082 22F40042 		bic	r2, r2, #32768
ARM GAS  C:\Users\Student\AppData\Local\Temp\cctYr88L.s 			page 29


 996 0086 C3F80029 		str	r2, [r3, #2304]
 528:Drivers/STM32F4xx_HAL_Driver/Src/stm32f4xx_ll_usb.c ****     
 997              		.loc 1 528 0
 998 008a 0B78     		ldrb	r3, [r1]	@ zero_extendqisi2
 999 008c 00EB4313 		add	r3, r0, r3, lsl #5
 1000 0090 4FF00062 		mov	r2, #134217728
 1001 0094 C3F80029 		str	r2, [r3, #2304]
 531:Drivers/STM32F4xx_HAL_Driver/Src/stm32f4xx_ll_usb.c ****     
 1002              		.loc 1 531 0
 1003 0098 0B78     		ldrb	r3, [r1]	@ zero_extendqisi2
 1004 009a 00EB4313 		add	r3, r0, r3, lsl #5
 1005 009e 4FF08042 		mov	r2, #1073741824
 1006 00a2 C3F80029 		str	r2, [r3, #2304]
 520:Drivers/STM32F4xx_HAL_Driver/Src/stm32f4xx_ll_usb.c ****   
 1007              		.loc 1 520 0
 1008 00a6 0022     		movs	r2, #0
 1009              	.LVL72:
 1010              	.L81:
 535:Drivers/STM32F4xx_HAL_Driver/Src/stm32f4xx_ll_usb.c ****       {
 1011              		.loc 1 535 0
 1012 00a8 0132     		adds	r2, r2, #1
 1013              	.LVL73:
 1014 00aa 104B     		ldr	r3, .L87
 1015 00ac 9A42     		cmp	r2, r3
 1016 00ae 19D8     		bhi	.L83
 542:Drivers/STM32F4xx_HAL_Driver/Src/stm32f4xx_ll_usb.c ****     
 1017              		.loc 1 542 0
 1018 00b0 0B78     		ldrb	r3, [r1]	@ zero_extendqisi2
 1019 00b2 04EB4313 		add	r3, r4, r3, lsl #5
 1020 00b6 03F51063 		add	r3, r3, #2304
 1021 00ba 9B68     		ldr	r3, [r3, #8]
 1022 00bc 13F0804F 		tst	r3, #1073741824
 1023 00c0 F2D1     		bne	.L81
 1024 00c2 0D46     		mov	r5, r1
 1025 00c4 0446     		mov	r4, r0
 546:Drivers/STM32F4xx_HAL_Driver/Src/stm32f4xx_ll_usb.c ****     
 1026              		.loc 1 546 0
 1027 00c6 1021     		movs	r1, #16
 1028              	.LVL74:
 1029 00c8 FFF7FEFF 		bl	USB_FlushTxFifo
 1030              	.LVL75:
 549:Drivers/STM32F4xx_HAL_Driver/Src/stm32f4xx_ll_usb.c ****   
 1031              		.loc 1 549 0
 1032 00cc D4F81C28 		ldr	r2, [r4, #2076]
 1033 00d0 2978     		ldrb	r1, [r5]	@ zero_extendqisi2
 1034 00d2 0123     		movs	r3, #1
 1035 00d4 8B40     		lsls	r3, r3, r1
 1036 00d6 9BB2     		uxth	r3, r3
 1037 00d8 22EA0303 		bic	r3, r2, r3
 1038 00dc C4F81C38 		str	r3, [r4, #2076]
 1039              		.loc 1 580 0
 1040 00e0 0020     		movs	r0, #0
 1041 00e2 38BD     		pop	{r3, r4, r5, pc}
 1042              	.LVL76:
 1043              	.L83:
 537:Drivers/STM32F4xx_HAL_Driver/Src/stm32f4xx_ll_usb.c ****       }
 1044              		.loc 1 537 0
ARM GAS  C:\Users\Student\AppData\Local\Temp\cctYr88L.s 			page 30


 1045 00e4 0320     		movs	r0, #3
 1046              	.LVL77:
 1047 00e6 38BD     		pop	{r3, r4, r5, pc}
 1048              	.LVL78:
 1049              	.L84:
 567:Drivers/STM32F4xx_HAL_Driver/Src/stm32f4xx_ll_usb.c ****       }
 1050              		.loc 1 567 0
 1051 00e8 0320     		movs	r0, #3
 1052              	.LVL79:
 581:Drivers/STM32F4xx_HAL_Driver/Src/stm32f4xx_ll_usb.c **** }
 1053              		.loc 1 581 0
 1054 00ea 38BD     		pop	{r3, r4, r5, pc}
 1055              	.LVL80:
 1056              	.L88:
 1057              		.align	2
 1058              	.L87:
 1059 00ec 400D0300 		.word	200000
 1060              		.cfi_endproc
 1061              	.LFE135:
 1063              		.section	.text.USB_DeactivateDedicatedEndpoint,"ax",%progbits
 1064              		.align	1
 1065              		.global	USB_DeactivateDedicatedEndpoint
 1066              		.syntax unified
 1067              		.thumb
 1068              		.thumb_func
 1069              		.fpu fpv4-sp-d16
 1071              	USB_DeactivateDedicatedEndpoint:
 1072              	.LFB136:
 582:Drivers/STM32F4xx_HAL_Driver/Src/stm32f4xx_ll_usb.c **** 
 583:Drivers/STM32F4xx_HAL_Driver/Src/stm32f4xx_ll_usb.c **** /**
 584:Drivers/STM32F4xx_HAL_Driver/Src/stm32f4xx_ll_usb.c ****   * @brief  De-activate and de-initialize a dedicated endpoint
 585:Drivers/STM32F4xx_HAL_Driver/Src/stm32f4xx_ll_usb.c ****   * @param  USBx  Selected device
 586:Drivers/STM32F4xx_HAL_Driver/Src/stm32f4xx_ll_usb.c ****   * @param  ep pointer to endpoint structure
 587:Drivers/STM32F4xx_HAL_Driver/Src/stm32f4xx_ll_usb.c ****   * @retval HAL status
 588:Drivers/STM32F4xx_HAL_Driver/Src/stm32f4xx_ll_usb.c ****   */
 589:Drivers/STM32F4xx_HAL_Driver/Src/stm32f4xx_ll_usb.c **** HAL_StatusTypeDef USB_DeactivateDedicatedEndpoint(USB_OTG_GlobalTypeDef *USBx, USB_OTG_EPTypeDef *e
 590:Drivers/STM32F4xx_HAL_Driver/Src/stm32f4xx_ll_usb.c **** {
 1073              		.loc 1 590 0
 1074              		.cfi_startproc
 1075              		@ args = 0, pretend = 0, frame = 0
 1076              		@ frame_needed = 0, uses_anonymous_args = 0
 1077              	.LVL81:
 1078 0000 38B5     		push	{r3, r4, r5, lr}
 1079              	.LCFI18:
 1080              		.cfi_def_cfa_offset 16
 1081              		.cfi_offset 3, -16
 1082              		.cfi_offset 4, -12
 1083              		.cfi_offset 5, -8
 1084              		.cfi_offset 14, -4
 1085              	.LVL82:
 591:Drivers/STM32F4xx_HAL_Driver/Src/stm32f4xx_ll_usb.c ****   uint32_t count = 0U;
 592:Drivers/STM32F4xx_HAL_Driver/Src/stm32f4xx_ll_usb.c ****   
 593:Drivers/STM32F4xx_HAL_Driver/Src/stm32f4xx_ll_usb.c ****   /* Disable the IN endpoint */
 594:Drivers/STM32F4xx_HAL_Driver/Src/stm32f4xx_ll_usb.c ****   if (ep->is_in == 1U)
 1086              		.loc 1 594 0
 1087 0002 4B78     		ldrb	r3, [r1, #1]	@ zero_extendqisi2
 1088 0004 012B     		cmp	r3, #1
ARM GAS  C:\Users\Student\AppData\Local\Temp\cctYr88L.s 			page 31


 1089 0006 36D0     		beq	.L97
 595:Drivers/STM32F4xx_HAL_Driver/Src/stm32f4xx_ll_usb.c ****   {
 596:Drivers/STM32F4xx_HAL_Driver/Src/stm32f4xx_ll_usb.c ****     USBx_INEP(ep->num)->DIEPCTL &= ~USB_OTG_DIEPCTL_USBAEP;  
 597:Drivers/STM32F4xx_HAL_Driver/Src/stm32f4xx_ll_usb.c ****     
 598:Drivers/STM32F4xx_HAL_Driver/Src/stm32f4xx_ll_usb.c ****     /* sets the NAK bit for the IN endpoint */
 599:Drivers/STM32F4xx_HAL_Driver/Src/stm32f4xx_ll_usb.c ****     USBx_INEP(ep->num)->DIEPCTL = USB_OTG_DIEPCTL_SNAK;
 600:Drivers/STM32F4xx_HAL_Driver/Src/stm32f4xx_ll_usb.c ****     
 601:Drivers/STM32F4xx_HAL_Driver/Src/stm32f4xx_ll_usb.c ****     /* Disable IN endpoint */
 602:Drivers/STM32F4xx_HAL_Driver/Src/stm32f4xx_ll_usb.c ****     USBx_INEP(ep->num)->DIEPCTL = USB_OTG_DIEPCTL_EPDIS;
 603:Drivers/STM32F4xx_HAL_Driver/Src/stm32f4xx_ll_usb.c ****     
 604:Drivers/STM32F4xx_HAL_Driver/Src/stm32f4xx_ll_usb.c ****     do
 605:Drivers/STM32F4xx_HAL_Driver/Src/stm32f4xx_ll_usb.c ****     {
 606:Drivers/STM32F4xx_HAL_Driver/Src/stm32f4xx_ll_usb.c ****       if (++count > 200000U)
 607:Drivers/STM32F4xx_HAL_Driver/Src/stm32f4xx_ll_usb.c ****       {
 608:Drivers/STM32F4xx_HAL_Driver/Src/stm32f4xx_ll_usb.c ****         return HAL_TIMEOUT;
 609:Drivers/STM32F4xx_HAL_Driver/Src/stm32f4xx_ll_usb.c ****       }
 610:Drivers/STM32F4xx_HAL_Driver/Src/stm32f4xx_ll_usb.c ****     }
 611:Drivers/STM32F4xx_HAL_Driver/Src/stm32f4xx_ll_usb.c ****     
 612:Drivers/STM32F4xx_HAL_Driver/Src/stm32f4xx_ll_usb.c ****     /*Wait for  EPDISD endpoint disabled interrupt*/ 
 613:Drivers/STM32F4xx_HAL_Driver/Src/stm32f4xx_ll_usb.c ****     while ((USBx_INEP(ep->num)->DIEPINT & USB_OTG_DIEPCTL_EPDIS) == USB_OTG_DIEPCTL_EPDIS);
 614:Drivers/STM32F4xx_HAL_Driver/Src/stm32f4xx_ll_usb.c ****     
 615:Drivers/STM32F4xx_HAL_Driver/Src/stm32f4xx_ll_usb.c ****     
 616:Drivers/STM32F4xx_HAL_Driver/Src/stm32f4xx_ll_usb.c ****     /* Flush any data remaining in the TxFIFO */
 617:Drivers/STM32F4xx_HAL_Driver/Src/stm32f4xx_ll_usb.c ****     USB_FlushTxFifo(USBx , 0x10U);
 618:Drivers/STM32F4xx_HAL_Driver/Src/stm32f4xx_ll_usb.c ****     
 619:Drivers/STM32F4xx_HAL_Driver/Src/stm32f4xx_ll_usb.c ****     /* Disable endpoint interrupts */
 620:Drivers/STM32F4xx_HAL_Driver/Src/stm32f4xx_ll_usb.c ****     USBx_DEVICE->DAINTMSK &= ~(USB_OTG_DAINTMSK_IEPM & ((1U << (ep->num))));   
 621:Drivers/STM32F4xx_HAL_Driver/Src/stm32f4xx_ll_usb.c ****   
 622:Drivers/STM32F4xx_HAL_Driver/Src/stm32f4xx_ll_usb.c ****   }
 623:Drivers/STM32F4xx_HAL_Driver/Src/stm32f4xx_ll_usb.c ****   else /* Disable the OUT endpoint */
 624:Drivers/STM32F4xx_HAL_Driver/Src/stm32f4xx_ll_usb.c ****   {
 625:Drivers/STM32F4xx_HAL_Driver/Src/stm32f4xx_ll_usb.c ****     
 626:Drivers/STM32F4xx_HAL_Driver/Src/stm32f4xx_ll_usb.c ****     USBx_OUTEP(ep->num)->DOEPCTL &= ~USB_OTG_DOEPCTL_USBAEP;  
 1090              		.loc 1 626 0
 1091 0008 0B78     		ldrb	r3, [r1]	@ zero_extendqisi2
 1092 000a 0446     		mov	r4, r0
 1093 000c 00EB4313 		add	r3, r0, r3, lsl #5
 1094 0010 D3F8002B 		ldr	r2, [r3, #2816]
 1095 0014 22F40042 		bic	r2, r2, #32768
 1096 0018 C3F8002B 		str	r2, [r3, #2816]
 627:Drivers/STM32F4xx_HAL_Driver/Src/stm32f4xx_ll_usb.c ****     
 628:Drivers/STM32F4xx_HAL_Driver/Src/stm32f4xx_ll_usb.c ****     /* sets the NAK bit for the OUT endpoint */
 629:Drivers/STM32F4xx_HAL_Driver/Src/stm32f4xx_ll_usb.c ****     USBx_OUTEP(ep->num)->DOEPCTL = USB_OTG_DOEPCTL_SNAK;
 1097              		.loc 1 629 0
 1098 001c 0B78     		ldrb	r3, [r1]	@ zero_extendqisi2
 1099 001e 00EB4313 		add	r3, r0, r3, lsl #5
 1100 0022 4FF00062 		mov	r2, #134217728
 1101 0026 C3F8002B 		str	r2, [r3, #2816]
 630:Drivers/STM32F4xx_HAL_Driver/Src/stm32f4xx_ll_usb.c ****     
 631:Drivers/STM32F4xx_HAL_Driver/Src/stm32f4xx_ll_usb.c ****     /* Disable OUT endpoint */
 632:Drivers/STM32F4xx_HAL_Driver/Src/stm32f4xx_ll_usb.c ****     USBx_OUTEP(ep->num)->DOEPCTL = USB_OTG_DOEPCTL_EPDIS;
 1102              		.loc 1 632 0
 1103 002a 0B78     		ldrb	r3, [r1]	@ zero_extendqisi2
 1104 002c 00EB4313 		add	r3, r0, r3, lsl #5
 1105 0030 4FF08042 		mov	r2, #1073741824
 1106 0034 C3F8002B 		str	r2, [r3, #2816]
 591:Drivers/STM32F4xx_HAL_Driver/Src/stm32f4xx_ll_usb.c ****   
ARM GAS  C:\Users\Student\AppData\Local\Temp\cctYr88L.s 			page 32


 1107              		.loc 1 591 0
 1108 0038 0022     		movs	r2, #0
 1109              	.LVL83:
 1110              	.L93:
 633:Drivers/STM32F4xx_HAL_Driver/Src/stm32f4xx_ll_usb.c ****     
 634:Drivers/STM32F4xx_HAL_Driver/Src/stm32f4xx_ll_usb.c ****     do
 635:Drivers/STM32F4xx_HAL_Driver/Src/stm32f4xx_ll_usb.c ****     {
 636:Drivers/STM32F4xx_HAL_Driver/Src/stm32f4xx_ll_usb.c ****       if (++count > 200000U)
 1111              		.loc 1 636 0
 1112 003a 0132     		adds	r2, r2, #1
 1113              	.LVL84:
 1114 003c 2B4B     		ldr	r3, .L98
 1115 003e 9A42     		cmp	r2, r3
 1116 0040 52D8     		bhi	.L95
 637:Drivers/STM32F4xx_HAL_Driver/Src/stm32f4xx_ll_usb.c ****       {
 638:Drivers/STM32F4xx_HAL_Driver/Src/stm32f4xx_ll_usb.c ****         return HAL_TIMEOUT;
 639:Drivers/STM32F4xx_HAL_Driver/Src/stm32f4xx_ll_usb.c ****       }
 640:Drivers/STM32F4xx_HAL_Driver/Src/stm32f4xx_ll_usb.c ****     }
 641:Drivers/STM32F4xx_HAL_Driver/Src/stm32f4xx_ll_usb.c ****     
 642:Drivers/STM32F4xx_HAL_Driver/Src/stm32f4xx_ll_usb.c ****     /*Wait for  EPDISD endpoint disabled interrupt*/ 
 643:Drivers/STM32F4xx_HAL_Driver/Src/stm32f4xx_ll_usb.c ****     while ((USBx_OUTEP(ep->num)->DOEPINT & USB_OTG_DOEPINT_OTEPDIS) == USB_OTG_DOEPINT_OTEPDIS);
 1117              		.loc 1 643 0
 1118 0042 0B78     		ldrb	r3, [r1]	@ zero_extendqisi2
 1119 0044 04EB4313 		add	r3, r4, r3, lsl #5
 1120 0048 03F53063 		add	r3, r3, #2816
 1121 004c 9B68     		ldr	r3, [r3, #8]
 1122 004e 13F0100F 		tst	r3, #16
 1123 0052 F2D1     		bne	.L93
 644:Drivers/STM32F4xx_HAL_Driver/Src/stm32f4xx_ll_usb.c ****     
 645:Drivers/STM32F4xx_HAL_Driver/Src/stm32f4xx_ll_usb.c ****     /* Set the "Clear the Global OUT NAK bit" to disable global OUT NAK mode */
 646:Drivers/STM32F4xx_HAL_Driver/Src/stm32f4xx_ll_usb.c ****     USBx_DEVICE->DCTL |= USB_OTG_DCTL_CGONAK;
 1124              		.loc 1 646 0
 1125 0054 D0F80438 		ldr	r3, [r0, #2052]
 1126 0058 43F48063 		orr	r3, r3, #1024
 1127 005c C0F80438 		str	r3, [r0, #2052]
 647:Drivers/STM32F4xx_HAL_Driver/Src/stm32f4xx_ll_usb.c ****     
 648:Drivers/STM32F4xx_HAL_Driver/Src/stm32f4xx_ll_usb.c ****     /* Disable endpoint interrupts */
 649:Drivers/STM32F4xx_HAL_Driver/Src/stm32f4xx_ll_usb.c ****     USBx_DEVICE->DAINTMSK &= ~(USB_OTG_DAINTMSK_OEPM & ((1U << (ep->num)) << 16U));         
 1128              		.loc 1 649 0
 1129 0060 D0F81C38 		ldr	r3, [r0, #2076]
 1130 0064 0978     		ldrb	r1, [r1]	@ zero_extendqisi2
 1131              	.LVL85:
 1132 0066 0122     		movs	r2, #1
 1133              	.LVL86:
 1134 0068 8A40     		lsls	r2, r2, r1
 1135 006a 23EA0243 		bic	r3, r3, r2, lsl #16
 1136 006e C0F81C38 		str	r3, [r0, #2076]
 650:Drivers/STM32F4xx_HAL_Driver/Src/stm32f4xx_ll_usb.c ****   }
 651:Drivers/STM32F4xx_HAL_Driver/Src/stm32f4xx_ll_usb.c ****   return HAL_OK;
 1137              		.loc 1 651 0
 1138 0072 0020     		movs	r0, #0
 1139              	.LVL87:
 1140 0074 38BD     		pop	{r3, r4, r5, pc}
 1141              	.LVL88:
 1142              	.L97:
 596:Drivers/STM32F4xx_HAL_Driver/Src/stm32f4xx_ll_usb.c ****     
 1143              		.loc 1 596 0
ARM GAS  C:\Users\Student\AppData\Local\Temp\cctYr88L.s 			page 33


 1144 0076 0B78     		ldrb	r3, [r1]	@ zero_extendqisi2
 1145 0078 0446     		mov	r4, r0
 1146 007a 00EB4313 		add	r3, r0, r3, lsl #5
 1147 007e D3F80029 		ldr	r2, [r3, #2304]
 1148 0082 22F40042 		bic	r2, r2, #32768
 1149 0086 C3F80029 		str	r2, [r3, #2304]
 599:Drivers/STM32F4xx_HAL_Driver/Src/stm32f4xx_ll_usb.c ****     
 1150              		.loc 1 599 0
 1151 008a 0B78     		ldrb	r3, [r1]	@ zero_extendqisi2
 1152 008c 00EB4313 		add	r3, r0, r3, lsl #5
 1153 0090 4FF00062 		mov	r2, #134217728
 1154 0094 C3F80029 		str	r2, [r3, #2304]
 602:Drivers/STM32F4xx_HAL_Driver/Src/stm32f4xx_ll_usb.c ****     
 1155              		.loc 1 602 0
 1156 0098 0B78     		ldrb	r3, [r1]	@ zero_extendqisi2
 1157 009a 00EB4313 		add	r3, r0, r3, lsl #5
 1158 009e 4FF08042 		mov	r2, #1073741824
 1159 00a2 C3F80029 		str	r2, [r3, #2304]
 591:Drivers/STM32F4xx_HAL_Driver/Src/stm32f4xx_ll_usb.c ****   
 1160              		.loc 1 591 0
 1161 00a6 0022     		movs	r2, #0
 1162              	.LVL89:
 1163              	.L92:
 606:Drivers/STM32F4xx_HAL_Driver/Src/stm32f4xx_ll_usb.c ****       {
 1164              		.loc 1 606 0
 1165 00a8 0132     		adds	r2, r2, #1
 1166              	.LVL90:
 1167 00aa 104B     		ldr	r3, .L98
 1168 00ac 9A42     		cmp	r2, r3
 1169 00ae 19D8     		bhi	.L94
 613:Drivers/STM32F4xx_HAL_Driver/Src/stm32f4xx_ll_usb.c ****     
 1170              		.loc 1 613 0
 1171 00b0 0B78     		ldrb	r3, [r1]	@ zero_extendqisi2
 1172 00b2 04EB4313 		add	r3, r4, r3, lsl #5
 1173 00b6 03F51063 		add	r3, r3, #2304
 1174 00ba 9B68     		ldr	r3, [r3, #8]
 1175 00bc 13F0804F 		tst	r3, #1073741824
 1176 00c0 F2D1     		bne	.L92
 1177 00c2 0D46     		mov	r5, r1
 1178 00c4 0446     		mov	r4, r0
 617:Drivers/STM32F4xx_HAL_Driver/Src/stm32f4xx_ll_usb.c ****     
 1179              		.loc 1 617 0
 1180 00c6 1021     		movs	r1, #16
 1181              	.LVL91:
 1182 00c8 FFF7FEFF 		bl	USB_FlushTxFifo
 1183              	.LVL92:
 620:Drivers/STM32F4xx_HAL_Driver/Src/stm32f4xx_ll_usb.c ****   
 1184              		.loc 1 620 0
 1185 00cc D4F81C28 		ldr	r2, [r4, #2076]
 1186 00d0 2978     		ldrb	r1, [r5]	@ zero_extendqisi2
 1187 00d2 0123     		movs	r3, #1
 1188 00d4 8B40     		lsls	r3, r3, r1
 1189 00d6 9BB2     		uxth	r3, r3
 1190 00d8 22EA0303 		bic	r3, r2, r3
 1191 00dc C4F81C38 		str	r3, [r4, #2076]
 1192              		.loc 1 651 0
 1193 00e0 0020     		movs	r0, #0
ARM GAS  C:\Users\Student\AppData\Local\Temp\cctYr88L.s 			page 34


 1194 00e2 38BD     		pop	{r3, r4, r5, pc}
 1195              	.LVL93:
 1196              	.L94:
 608:Drivers/STM32F4xx_HAL_Driver/Src/stm32f4xx_ll_usb.c ****       }
 1197              		.loc 1 608 0
 1198 00e4 0320     		movs	r0, #3
 1199              	.LVL94:
 1200 00e6 38BD     		pop	{r3, r4, r5, pc}
 1201              	.LVL95:
 1202              	.L95:
 638:Drivers/STM32F4xx_HAL_Driver/Src/stm32f4xx_ll_usb.c ****       }
 1203              		.loc 1 638 0
 1204 00e8 0320     		movs	r0, #3
 1205              	.LVL96:
 652:Drivers/STM32F4xx_HAL_Driver/Src/stm32f4xx_ll_usb.c **** 
 653:Drivers/STM32F4xx_HAL_Driver/Src/stm32f4xx_ll_usb.c **** }
 1206              		.loc 1 653 0
 1207 00ea 38BD     		pop	{r3, r4, r5, pc}
 1208              	.LVL97:
 1209              	.L99:
 1210              		.align	2
 1211              	.L98:
 1212 00ec 400D0300 		.word	200000
 1213              		.cfi_endproc
 1214              	.LFE136:
 1216              		.section	.text.USB_EPStartXfer,"ax",%progbits
 1217              		.align	1
 1218              		.global	USB_EPStartXfer
 1219              		.syntax unified
 1220              		.thumb
 1221              		.thumb_func
 1222              		.fpu fpv4-sp-d16
 1224              	USB_EPStartXfer:
 1225              	.LFB137:
 654:Drivers/STM32F4xx_HAL_Driver/Src/stm32f4xx_ll_usb.c **** 
 655:Drivers/STM32F4xx_HAL_Driver/Src/stm32f4xx_ll_usb.c **** /**
 656:Drivers/STM32F4xx_HAL_Driver/Src/stm32f4xx_ll_usb.c ****   * @brief  USB_EPStartXfer : setup and starts a transfer over an EP
 657:Drivers/STM32F4xx_HAL_Driver/Src/stm32f4xx_ll_usb.c ****   * @param  USBx  Selected device
 658:Drivers/STM32F4xx_HAL_Driver/Src/stm32f4xx_ll_usb.c ****   * @param  ep pointer to endpoint structure
 659:Drivers/STM32F4xx_HAL_Driver/Src/stm32f4xx_ll_usb.c ****   * @param  dma USB dma enabled or disabled 
 660:Drivers/STM32F4xx_HAL_Driver/Src/stm32f4xx_ll_usb.c ****   *          This parameter can be one of these values:
 661:Drivers/STM32F4xx_HAL_Driver/Src/stm32f4xx_ll_usb.c ****   *           0 : DMA feature not used 
 662:Drivers/STM32F4xx_HAL_Driver/Src/stm32f4xx_ll_usb.c ****   *           1 : DMA feature used  
 663:Drivers/STM32F4xx_HAL_Driver/Src/stm32f4xx_ll_usb.c ****   * @retval HAL status
 664:Drivers/STM32F4xx_HAL_Driver/Src/stm32f4xx_ll_usb.c ****   */
 665:Drivers/STM32F4xx_HAL_Driver/Src/stm32f4xx_ll_usb.c **** HAL_StatusTypeDef USB_EPStartXfer(USB_OTG_GlobalTypeDef *USBx , USB_OTG_EPTypeDef *ep, uint8_t dma)
 666:Drivers/STM32F4xx_HAL_Driver/Src/stm32f4xx_ll_usb.c **** {
 1226              		.loc 1 666 0
 1227              		.cfi_startproc
 1228              		@ args = 0, pretend = 0, frame = 0
 1229              		@ frame_needed = 0, uses_anonymous_args = 0
 1230              	.LVL98:
 1231 0000 70B5     		push	{r4, r5, r6, lr}
 1232              	.LCFI19:
 1233              		.cfi_def_cfa_offset 16
 1234              		.cfi_offset 4, -16
 1235              		.cfi_offset 5, -12
ARM GAS  C:\Users\Student\AppData\Local\Temp\cctYr88L.s 			page 35


 1236              		.cfi_offset 6, -8
 1237              		.cfi_offset 14, -4
 1238 0002 82B0     		sub	sp, sp, #8
 1239              	.LCFI20:
 1240              		.cfi_def_cfa_offset 24
 1241              	.LVL99:
 667:Drivers/STM32F4xx_HAL_Driver/Src/stm32f4xx_ll_usb.c ****   uint16_t pktcnt = 0U;
 668:Drivers/STM32F4xx_HAL_Driver/Src/stm32f4xx_ll_usb.c ****   
 669:Drivers/STM32F4xx_HAL_Driver/Src/stm32f4xx_ll_usb.c ****   /* IN endpoint */
 670:Drivers/STM32F4xx_HAL_Driver/Src/stm32f4xx_ll_usb.c ****   if (ep->is_in == 1U)
 1242              		.loc 1 670 0
 1243 0004 4B78     		ldrb	r3, [r1, #1]	@ zero_extendqisi2
 1244 0006 012B     		cmp	r3, #1
 1245 0008 3ED0     		beq	.L115
 671:Drivers/STM32F4xx_HAL_Driver/Src/stm32f4xx_ll_usb.c ****   {
 672:Drivers/STM32F4xx_HAL_Driver/Src/stm32f4xx_ll_usb.c ****     /* Zero Length Packet? */
 673:Drivers/STM32F4xx_HAL_Driver/Src/stm32f4xx_ll_usb.c ****     if (ep->xfer_len == 0U)
 674:Drivers/STM32F4xx_HAL_Driver/Src/stm32f4xx_ll_usb.c ****     {
 675:Drivers/STM32F4xx_HAL_Driver/Src/stm32f4xx_ll_usb.c ****       USBx_INEP(ep->num)->DIEPTSIZ &= ~(USB_OTG_DIEPTSIZ_PKTCNT); 
 676:Drivers/STM32F4xx_HAL_Driver/Src/stm32f4xx_ll_usb.c ****       USBx_INEP(ep->num)->DIEPTSIZ |= (USB_OTG_DIEPTSIZ_PKTCNT & (1U << 19U)) ;
 677:Drivers/STM32F4xx_HAL_Driver/Src/stm32f4xx_ll_usb.c ****       USBx_INEP(ep->num)->DIEPTSIZ &= ~(USB_OTG_DIEPTSIZ_XFRSIZ); 
 678:Drivers/STM32F4xx_HAL_Driver/Src/stm32f4xx_ll_usb.c ****     }
 679:Drivers/STM32F4xx_HAL_Driver/Src/stm32f4xx_ll_usb.c ****     else
 680:Drivers/STM32F4xx_HAL_Driver/Src/stm32f4xx_ll_usb.c ****     {
 681:Drivers/STM32F4xx_HAL_Driver/Src/stm32f4xx_ll_usb.c ****       /* Program the transfer size and packet count
 682:Drivers/STM32F4xx_HAL_Driver/Src/stm32f4xx_ll_usb.c ****       * as follows: xfersize = N * maxpacket +
 683:Drivers/STM32F4xx_HAL_Driver/Src/stm32f4xx_ll_usb.c ****       * short_packet pktcnt = N + (short_packet
 684:Drivers/STM32F4xx_HAL_Driver/Src/stm32f4xx_ll_usb.c ****       * exist ? 1 : 0)
 685:Drivers/STM32F4xx_HAL_Driver/Src/stm32f4xx_ll_usb.c ****       */
 686:Drivers/STM32F4xx_HAL_Driver/Src/stm32f4xx_ll_usb.c ****       USBx_INEP(ep->num)->DIEPTSIZ &= ~(USB_OTG_DIEPTSIZ_XFRSIZ);
 687:Drivers/STM32F4xx_HAL_Driver/Src/stm32f4xx_ll_usb.c ****       USBx_INEP(ep->num)->DIEPTSIZ &= ~(USB_OTG_DIEPTSIZ_PKTCNT); 
 688:Drivers/STM32F4xx_HAL_Driver/Src/stm32f4xx_ll_usb.c ****       USBx_INEP(ep->num)->DIEPTSIZ |= (USB_OTG_DIEPTSIZ_PKTCNT & (((ep->xfer_len + ep->maxpacket -1
 689:Drivers/STM32F4xx_HAL_Driver/Src/stm32f4xx_ll_usb.c ****       USBx_INEP(ep->num)->DIEPTSIZ |= (USB_OTG_DIEPTSIZ_XFRSIZ & ep->xfer_len); 
 690:Drivers/STM32F4xx_HAL_Driver/Src/stm32f4xx_ll_usb.c ****       
 691:Drivers/STM32F4xx_HAL_Driver/Src/stm32f4xx_ll_usb.c ****       if (ep->type == EP_TYPE_ISOC)
 692:Drivers/STM32F4xx_HAL_Driver/Src/stm32f4xx_ll_usb.c ****       {
 693:Drivers/STM32F4xx_HAL_Driver/Src/stm32f4xx_ll_usb.c ****         USBx_INEP(ep->num)->DIEPTSIZ &= ~(USB_OTG_DIEPTSIZ_MULCNT); 
 694:Drivers/STM32F4xx_HAL_Driver/Src/stm32f4xx_ll_usb.c ****         USBx_INEP(ep->num)->DIEPTSIZ |= (USB_OTG_DIEPTSIZ_MULCNT & (1U << 29U)); 
 695:Drivers/STM32F4xx_HAL_Driver/Src/stm32f4xx_ll_usb.c ****       }       
 696:Drivers/STM32F4xx_HAL_Driver/Src/stm32f4xx_ll_usb.c ****     }
 697:Drivers/STM32F4xx_HAL_Driver/Src/stm32f4xx_ll_usb.c **** 
 698:Drivers/STM32F4xx_HAL_Driver/Src/stm32f4xx_ll_usb.c ****     if (dma == 1U)
 699:Drivers/STM32F4xx_HAL_Driver/Src/stm32f4xx_ll_usb.c ****     {
 700:Drivers/STM32F4xx_HAL_Driver/Src/stm32f4xx_ll_usb.c ****       USBx_INEP(ep->num)->DIEPDMA = (uint32_t)(ep->dma_addr);
 701:Drivers/STM32F4xx_HAL_Driver/Src/stm32f4xx_ll_usb.c ****     }
 702:Drivers/STM32F4xx_HAL_Driver/Src/stm32f4xx_ll_usb.c ****     else
 703:Drivers/STM32F4xx_HAL_Driver/Src/stm32f4xx_ll_usb.c ****     {
 704:Drivers/STM32F4xx_HAL_Driver/Src/stm32f4xx_ll_usb.c ****       if (ep->type != EP_TYPE_ISOC)
 705:Drivers/STM32F4xx_HAL_Driver/Src/stm32f4xx_ll_usb.c ****       {
 706:Drivers/STM32F4xx_HAL_Driver/Src/stm32f4xx_ll_usb.c ****         /* Enable the Tx FIFO Empty Interrupt for this EP */
 707:Drivers/STM32F4xx_HAL_Driver/Src/stm32f4xx_ll_usb.c ****         if (ep->xfer_len > 0U)
 708:Drivers/STM32F4xx_HAL_Driver/Src/stm32f4xx_ll_usb.c ****         {
 709:Drivers/STM32F4xx_HAL_Driver/Src/stm32f4xx_ll_usb.c ****           USBx_DEVICE->DIEPEMPMSK |= 1U << ep->num;
 710:Drivers/STM32F4xx_HAL_Driver/Src/stm32f4xx_ll_usb.c ****         }
 711:Drivers/STM32F4xx_HAL_Driver/Src/stm32f4xx_ll_usb.c ****       }
 712:Drivers/STM32F4xx_HAL_Driver/Src/stm32f4xx_ll_usb.c ****     }
 713:Drivers/STM32F4xx_HAL_Driver/Src/stm32f4xx_ll_usb.c **** 
ARM GAS  C:\Users\Student\AppData\Local\Temp\cctYr88L.s 			page 36


 714:Drivers/STM32F4xx_HAL_Driver/Src/stm32f4xx_ll_usb.c ****     if (ep->type == EP_TYPE_ISOC)
 715:Drivers/STM32F4xx_HAL_Driver/Src/stm32f4xx_ll_usb.c ****     {
 716:Drivers/STM32F4xx_HAL_Driver/Src/stm32f4xx_ll_usb.c ****       if ((USBx_DEVICE->DSTS & ( 1U << 8U )) == 0U)
 717:Drivers/STM32F4xx_HAL_Driver/Src/stm32f4xx_ll_usb.c ****       {
 718:Drivers/STM32F4xx_HAL_Driver/Src/stm32f4xx_ll_usb.c ****         USBx_INEP(ep->num)->DIEPCTL |= USB_OTG_DIEPCTL_SODDFRM;
 719:Drivers/STM32F4xx_HAL_Driver/Src/stm32f4xx_ll_usb.c ****       }
 720:Drivers/STM32F4xx_HAL_Driver/Src/stm32f4xx_ll_usb.c ****       else
 721:Drivers/STM32F4xx_HAL_Driver/Src/stm32f4xx_ll_usb.c ****       {
 722:Drivers/STM32F4xx_HAL_Driver/Src/stm32f4xx_ll_usb.c ****         USBx_INEP(ep->num)->DIEPCTL |= USB_OTG_DIEPCTL_SD0PID_SEVNFRM;
 723:Drivers/STM32F4xx_HAL_Driver/Src/stm32f4xx_ll_usb.c ****       }
 724:Drivers/STM32F4xx_HAL_Driver/Src/stm32f4xx_ll_usb.c ****     } 
 725:Drivers/STM32F4xx_HAL_Driver/Src/stm32f4xx_ll_usb.c ****     
 726:Drivers/STM32F4xx_HAL_Driver/Src/stm32f4xx_ll_usb.c ****     /* EP enable, IN data in FIFO */
 727:Drivers/STM32F4xx_HAL_Driver/Src/stm32f4xx_ll_usb.c ****     USBx_INEP(ep->num)->DIEPCTL |= (USB_OTG_DIEPCTL_CNAK | USB_OTG_DIEPCTL_EPENA);
 728:Drivers/STM32F4xx_HAL_Driver/Src/stm32f4xx_ll_usb.c ****     
 729:Drivers/STM32F4xx_HAL_Driver/Src/stm32f4xx_ll_usb.c ****     if (ep->type == EP_TYPE_ISOC)
 730:Drivers/STM32F4xx_HAL_Driver/Src/stm32f4xx_ll_usb.c ****     {
 731:Drivers/STM32F4xx_HAL_Driver/Src/stm32f4xx_ll_usb.c ****       USB_WritePacket(USBx, ep->xfer_buff, ep->num, ep->xfer_len, dma);   
 732:Drivers/STM32F4xx_HAL_Driver/Src/stm32f4xx_ll_usb.c ****     }    
 733:Drivers/STM32F4xx_HAL_Driver/Src/stm32f4xx_ll_usb.c ****   }
 734:Drivers/STM32F4xx_HAL_Driver/Src/stm32f4xx_ll_usb.c ****   else /* OUT endpoint */
 735:Drivers/STM32F4xx_HAL_Driver/Src/stm32f4xx_ll_usb.c ****   {
 736:Drivers/STM32F4xx_HAL_Driver/Src/stm32f4xx_ll_usb.c ****     /* Program the transfer size and packet count as follows:
 737:Drivers/STM32F4xx_HAL_Driver/Src/stm32f4xx_ll_usb.c ****     * pktcnt = N
 738:Drivers/STM32F4xx_HAL_Driver/Src/stm32f4xx_ll_usb.c ****     * xfersize = N * maxpacket
 739:Drivers/STM32F4xx_HAL_Driver/Src/stm32f4xx_ll_usb.c ****     */  
 740:Drivers/STM32F4xx_HAL_Driver/Src/stm32f4xx_ll_usb.c ****     USBx_OUTEP(ep->num)->DOEPTSIZ &= ~(USB_OTG_DOEPTSIZ_XFRSIZ); 
 1246              		.loc 1 740 0
 1247 000a 0B78     		ldrb	r3, [r1]	@ zero_extendqisi2
 1248 000c 00EB4313 		add	r3, r0, r3, lsl #5
 1249 0010 D3F8104B 		ldr	r4, [r3, #2832]
 1250 0014 E40C     		lsrs	r4, r4, #19
 1251 0016 E404     		lsls	r4, r4, #19
 1252 0018 C3F8104B 		str	r4, [r3, #2832]
 741:Drivers/STM32F4xx_HAL_Driver/Src/stm32f4xx_ll_usb.c ****     USBx_OUTEP(ep->num)->DOEPTSIZ &= ~(USB_OTG_DOEPTSIZ_PKTCNT); 
 1253              		.loc 1 741 0
 1254 001c 0B78     		ldrb	r3, [r1]	@ zero_extendqisi2
 1255 001e 00EB4313 		add	r3, r0, r3, lsl #5
 1256 0022 D3F8104B 		ldr	r4, [r3, #2832]
 1257 0026 24F0FF54 		bic	r4, r4, #534773760
 1258 002a 24F4C014 		bic	r4, r4, #1572864
 1259 002e C3F8104B 		str	r4, [r3, #2832]
 742:Drivers/STM32F4xx_HAL_Driver/Src/stm32f4xx_ll_usb.c **** 
 743:Drivers/STM32F4xx_HAL_Driver/Src/stm32f4xx_ll_usb.c ****     if (ep->xfer_len == 0U)
 1260              		.loc 1 743 0
 1261 0032 4B69     		ldr	r3, [r1, #20]
 1262 0034 002B     		cmp	r3, #0
 1263 0036 40F0D480 		bne	.L109
 744:Drivers/STM32F4xx_HAL_Driver/Src/stm32f4xx_ll_usb.c ****     {
 745:Drivers/STM32F4xx_HAL_Driver/Src/stm32f4xx_ll_usb.c ****       USBx_OUTEP(ep->num)->DOEPTSIZ |= (USB_OTG_DOEPTSIZ_XFRSIZ & ep->maxpacket);
 1264              		.loc 1 745 0
 1265 003a 0B78     		ldrb	r3, [r1]	@ zero_extendqisi2
 1266 003c 00EB4313 		add	r3, r0, r3, lsl #5
 1267 0040 D3F8104B 		ldr	r4, [r3, #2832]
 1268 0044 8D68     		ldr	r5, [r1, #8]
 1269 0046 C5F31205 		ubfx	r5, r5, #0, #19
 1270 004a 2C43     		orrs	r4, r4, r5
ARM GAS  C:\Users\Student\AppData\Local\Temp\cctYr88L.s 			page 37


 1271 004c C3F8104B 		str	r4, [r3, #2832]
 746:Drivers/STM32F4xx_HAL_Driver/Src/stm32f4xx_ll_usb.c ****       USBx_OUTEP(ep->num)->DOEPTSIZ |= (USB_OTG_DOEPTSIZ_PKTCNT & (1U << 19U));
 1272              		.loc 1 746 0
 1273 0050 0B78     		ldrb	r3, [r1]	@ zero_extendqisi2
 1274 0052 00EB4313 		add	r3, r0, r3, lsl #5
 1275 0056 D3F8104B 		ldr	r4, [r3, #2832]
 1276 005a 44F40024 		orr	r4, r4, #524288
 1277 005e C3F8104B 		str	r4, [r3, #2832]
 1278              	.LVL100:
 1279              	.L110:
 747:Drivers/STM32F4xx_HAL_Driver/Src/stm32f4xx_ll_usb.c ****     }
 748:Drivers/STM32F4xx_HAL_Driver/Src/stm32f4xx_ll_usb.c ****     else
 749:Drivers/STM32F4xx_HAL_Driver/Src/stm32f4xx_ll_usb.c ****     {
 750:Drivers/STM32F4xx_HAL_Driver/Src/stm32f4xx_ll_usb.c ****       pktcnt = (ep->xfer_len + ep->maxpacket -1U)/ ep->maxpacket; 
 751:Drivers/STM32F4xx_HAL_Driver/Src/stm32f4xx_ll_usb.c ****       USBx_OUTEP(ep->num)->DOEPTSIZ |= (USB_OTG_DOEPTSIZ_PKTCNT & (pktcnt << 19U));
 752:Drivers/STM32F4xx_HAL_Driver/Src/stm32f4xx_ll_usb.c ****       USBx_OUTEP(ep->num)->DOEPTSIZ |= (USB_OTG_DOEPTSIZ_XFRSIZ & (ep->maxpacket * pktcnt));
 753:Drivers/STM32F4xx_HAL_Driver/Src/stm32f4xx_ll_usb.c ****     }
 754:Drivers/STM32F4xx_HAL_Driver/Src/stm32f4xx_ll_usb.c **** 
 755:Drivers/STM32F4xx_HAL_Driver/Src/stm32f4xx_ll_usb.c ****     if (dma == 1U)
 1280              		.loc 1 755 0
 1281 0062 012A     		cmp	r2, #1
 1282 0064 00F0DC80 		beq	.L116
 1283              	.LVL101:
 1284              	.L111:
 756:Drivers/STM32F4xx_HAL_Driver/Src/stm32f4xx_ll_usb.c ****     {
 757:Drivers/STM32F4xx_HAL_Driver/Src/stm32f4xx_ll_usb.c ****       USBx_OUTEP(ep->num)->DOEPDMA = (uint32_t)ep->xfer_buff;
 758:Drivers/STM32F4xx_HAL_Driver/Src/stm32f4xx_ll_usb.c ****     }
 759:Drivers/STM32F4xx_HAL_Driver/Src/stm32f4xx_ll_usb.c ****     
 760:Drivers/STM32F4xx_HAL_Driver/Src/stm32f4xx_ll_usb.c ****     if (ep->type == EP_TYPE_ISOC)
 1285              		.loc 1 760 0
 1286 0068 CB78     		ldrb	r3, [r1, #3]	@ zero_extendqisi2
 1287 006a 012B     		cmp	r3, #1
 1288 006c 00F0DF80 		beq	.L117
 1289              	.L112:
 761:Drivers/STM32F4xx_HAL_Driver/Src/stm32f4xx_ll_usb.c ****     {
 762:Drivers/STM32F4xx_HAL_Driver/Src/stm32f4xx_ll_usb.c ****       if ((USBx_DEVICE->DSTS & ( 1U << 8U )) == 0U)
 763:Drivers/STM32F4xx_HAL_Driver/Src/stm32f4xx_ll_usb.c ****       {
 764:Drivers/STM32F4xx_HAL_Driver/Src/stm32f4xx_ll_usb.c ****         USBx_OUTEP(ep->num)->DOEPCTL |= USB_OTG_DOEPCTL_SODDFRM;
 765:Drivers/STM32F4xx_HAL_Driver/Src/stm32f4xx_ll_usb.c ****       }
 766:Drivers/STM32F4xx_HAL_Driver/Src/stm32f4xx_ll_usb.c ****       else
 767:Drivers/STM32F4xx_HAL_Driver/Src/stm32f4xx_ll_usb.c ****       {
 768:Drivers/STM32F4xx_HAL_Driver/Src/stm32f4xx_ll_usb.c ****         USBx_OUTEP(ep->num)->DOEPCTL |= USB_OTG_DOEPCTL_SD0PID_SEVNFRM;
 769:Drivers/STM32F4xx_HAL_Driver/Src/stm32f4xx_ll_usb.c ****       }
 770:Drivers/STM32F4xx_HAL_Driver/Src/stm32f4xx_ll_usb.c ****     }
 771:Drivers/STM32F4xx_HAL_Driver/Src/stm32f4xx_ll_usb.c ****     /* EP enable */
 772:Drivers/STM32F4xx_HAL_Driver/Src/stm32f4xx_ll_usb.c ****     USBx_OUTEP(ep->num)->DOEPCTL |= (USB_OTG_DOEPCTL_CNAK | USB_OTG_DOEPCTL_EPENA);
 1290              		.loc 1 772 0
 1291 0070 0B78     		ldrb	r3, [r1]	@ zero_extendqisi2
 1292 0072 00EB4310 		add	r0, r0, r3, lsl #5
 1293              	.LVL102:
 1294 0076 D0F8003B 		ldr	r3, [r0, #2816]
 1295 007a 43F00443 		orr	r3, r3, #-2080374784
 1296 007e C0F8003B 		str	r3, [r0, #2816]
 1297              	.LVL103:
 1298              	.L108:
 773:Drivers/STM32F4xx_HAL_Driver/Src/stm32f4xx_ll_usb.c ****   }
 774:Drivers/STM32F4xx_HAL_Driver/Src/stm32f4xx_ll_usb.c ****   return HAL_OK;
ARM GAS  C:\Users\Student\AppData\Local\Temp\cctYr88L.s 			page 38


 775:Drivers/STM32F4xx_HAL_Driver/Src/stm32f4xx_ll_usb.c **** }
 1299              		.loc 1 775 0
 1300 0082 0020     		movs	r0, #0
 1301 0084 02B0     		add	sp, sp, #8
 1302              	.LCFI21:
 1303              		.cfi_remember_state
 1304              		.cfi_def_cfa_offset 16
 1305              		@ sp needed
 1306 0086 70BD     		pop	{r4, r5, r6, pc}
 1307              	.LVL104:
 1308              	.L115:
 1309              	.LCFI22:
 1310              		.cfi_restore_state
 673:Drivers/STM32F4xx_HAL_Driver/Src/stm32f4xx_ll_usb.c ****     {
 1311              		.loc 1 673 0
 1312 0088 4B69     		ldr	r3, [r1, #20]
 1313 008a 6BBB     		cbnz	r3, .L102
 675:Drivers/STM32F4xx_HAL_Driver/Src/stm32f4xx_ll_usb.c ****       USBx_INEP(ep->num)->DIEPTSIZ |= (USB_OTG_DIEPTSIZ_PKTCNT & (1U << 19U)) ;
 1314              		.loc 1 675 0
 1315 008c 0B78     		ldrb	r3, [r1]	@ zero_extendqisi2
 1316 008e 00EB4313 		add	r3, r0, r3, lsl #5
 1317 0092 D3F81049 		ldr	r4, [r3, #2320]
 1318 0096 24F0FF54 		bic	r4, r4, #534773760
 1319 009a 24F4C014 		bic	r4, r4, #1572864
 1320 009e C3F81049 		str	r4, [r3, #2320]
 676:Drivers/STM32F4xx_HAL_Driver/Src/stm32f4xx_ll_usb.c ****       USBx_INEP(ep->num)->DIEPTSIZ &= ~(USB_OTG_DIEPTSIZ_XFRSIZ); 
 1321              		.loc 1 676 0
 1322 00a2 0B78     		ldrb	r3, [r1]	@ zero_extendqisi2
 1323 00a4 00EB4313 		add	r3, r0, r3, lsl #5
 1324 00a8 D3F81049 		ldr	r4, [r3, #2320]
 1325 00ac 44F40024 		orr	r4, r4, #524288
 1326 00b0 C3F81049 		str	r4, [r3, #2320]
 677:Drivers/STM32F4xx_HAL_Driver/Src/stm32f4xx_ll_usb.c ****     }
 1327              		.loc 1 677 0
 1328 00b4 0B78     		ldrb	r3, [r1]	@ zero_extendqisi2
 1329 00b6 00EB4313 		add	r3, r0, r3, lsl #5
 1330 00ba D3F81049 		ldr	r4, [r3, #2320]
 1331 00be E40C     		lsrs	r4, r4, #19
 1332 00c0 E404     		lsls	r4, r4, #19
 1333 00c2 C3F81049 		str	r4, [r3, #2320]
 1334              	.L103:
 698:Drivers/STM32F4xx_HAL_Driver/Src/stm32f4xx_ll_usb.c ****     {
 1335              		.loc 1 698 0
 1336 00c6 012A     		cmp	r2, #1
 1337 00c8 54D0     		beq	.L118
 704:Drivers/STM32F4xx_HAL_Driver/Src/stm32f4xx_ll_usb.c ****       {
 1338              		.loc 1 704 0
 1339 00ca CB78     		ldrb	r3, [r1, #3]	@ zero_extendqisi2
 1340 00cc 012B     		cmp	r3, #1
 1341 00ce 57D0     		beq	.L105
 707:Drivers/STM32F4xx_HAL_Driver/Src/stm32f4xx_ll_usb.c ****         {
 1342              		.loc 1 707 0
 1343 00d0 4B69     		ldr	r3, [r1, #20]
 1344 00d2 002B     		cmp	r3, #0
 1345 00d4 54D0     		beq	.L105
 709:Drivers/STM32F4xx_HAL_Driver/Src/stm32f4xx_ll_usb.c ****         }
 1346              		.loc 1 709 0
ARM GAS  C:\Users\Student\AppData\Local\Temp\cctYr88L.s 			page 39


 1347 00d6 D0F83438 		ldr	r3, [r0, #2100]
 1348 00da 0E78     		ldrb	r6, [r1]	@ zero_extendqisi2
 1349 00dc 0124     		movs	r4, #1
 1350 00de B440     		lsls	r4, r4, r6
 1351 00e0 2343     		orrs	r3, r3, r4
 1352 00e2 C0F83438 		str	r3, [r0, #2100]
 1353 00e6 4BE0     		b	.L105
 1354              	.L102:
 686:Drivers/STM32F4xx_HAL_Driver/Src/stm32f4xx_ll_usb.c ****       USBx_INEP(ep->num)->DIEPTSIZ &= ~(USB_OTG_DIEPTSIZ_PKTCNT); 
 1355              		.loc 1 686 0
 1356 00e8 0B78     		ldrb	r3, [r1]	@ zero_extendqisi2
 1357 00ea 00EB4313 		add	r3, r0, r3, lsl #5
 1358 00ee D3F81049 		ldr	r4, [r3, #2320]
 1359 00f2 E40C     		lsrs	r4, r4, #19
 1360 00f4 E404     		lsls	r4, r4, #19
 1361 00f6 C3F81049 		str	r4, [r3, #2320]
 687:Drivers/STM32F4xx_HAL_Driver/Src/stm32f4xx_ll_usb.c ****       USBx_INEP(ep->num)->DIEPTSIZ |= (USB_OTG_DIEPTSIZ_PKTCNT & (((ep->xfer_len + ep->maxpacket -1
 1362              		.loc 1 687 0
 1363 00fa 0B78     		ldrb	r3, [r1]	@ zero_extendqisi2
 1364 00fc 00EB4313 		add	r3, r0, r3, lsl #5
 1365 0100 D3F81049 		ldr	r4, [r3, #2320]
 1366 0104 24F0FF54 		bic	r4, r4, #534773760
 1367 0108 24F4C014 		bic	r4, r4, #1572864
 1368 010c C3F81049 		str	r4, [r3, #2320]
 688:Drivers/STM32F4xx_HAL_Driver/Src/stm32f4xx_ll_usb.c ****       USBx_INEP(ep->num)->DIEPTSIZ |= (USB_OTG_DIEPTSIZ_XFRSIZ & ep->xfer_len); 
 1369              		.loc 1 688 0
 1370 0110 0C78     		ldrb	r4, [r1]	@ zero_extendqisi2
 1371 0112 00EB4414 		add	r4, r0, r4, lsl #5
 1372 0116 D4F81059 		ldr	r5, [r4, #2320]
 1373 011a 4B69     		ldr	r3, [r1, #20]
 1374 011c 8E68     		ldr	r6, [r1, #8]
 1375 011e 3344     		add	r3, r3, r6
 1376 0120 013B     		subs	r3, r3, #1
 1377 0122 B3FBF6F3 		udiv	r3, r3, r6
 1378 0126 4E4E     		ldr	r6, .L120
 1379 0128 06EAC343 		and	r3, r6, r3, lsl #19
 1380 012c 2B43     		orrs	r3, r3, r5
 1381 012e C4F81039 		str	r3, [r4, #2320]
 689:Drivers/STM32F4xx_HAL_Driver/Src/stm32f4xx_ll_usb.c ****       
 1382              		.loc 1 689 0
 1383 0132 0B78     		ldrb	r3, [r1]	@ zero_extendqisi2
 1384 0134 00EB4313 		add	r3, r0, r3, lsl #5
 1385 0138 D3F81049 		ldr	r4, [r3, #2320]
 1386 013c 4D69     		ldr	r5, [r1, #20]
 1387 013e C5F31205 		ubfx	r5, r5, #0, #19
 1388 0142 2C43     		orrs	r4, r4, r5
 1389 0144 C3F81049 		str	r4, [r3, #2320]
 691:Drivers/STM32F4xx_HAL_Driver/Src/stm32f4xx_ll_usb.c ****       {
 1390              		.loc 1 691 0
 1391 0148 CB78     		ldrb	r3, [r1, #3]	@ zero_extendqisi2
 1392 014a 012B     		cmp	r3, #1
 1393 014c BBD1     		bne	.L103
 693:Drivers/STM32F4xx_HAL_Driver/Src/stm32f4xx_ll_usb.c ****         USBx_INEP(ep->num)->DIEPTSIZ |= (USB_OTG_DIEPTSIZ_MULCNT & (1U << 29U)); 
 1394              		.loc 1 693 0
 1395 014e 0B78     		ldrb	r3, [r1]	@ zero_extendqisi2
 1396 0150 00EB4313 		add	r3, r0, r3, lsl #5
 1397 0154 D3F81049 		ldr	r4, [r3, #2320]
ARM GAS  C:\Users\Student\AppData\Local\Temp\cctYr88L.s 			page 40


 1398 0158 24F0C044 		bic	r4, r4, #1610612736
 1399 015c C3F81049 		str	r4, [r3, #2320]
 694:Drivers/STM32F4xx_HAL_Driver/Src/stm32f4xx_ll_usb.c ****       }       
 1400              		.loc 1 694 0
 1401 0160 0B78     		ldrb	r3, [r1]	@ zero_extendqisi2
 1402 0162 00EB4313 		add	r3, r0, r3, lsl #5
 1403 0166 D3F81049 		ldr	r4, [r3, #2320]
 1404 016a 44F00054 		orr	r4, r4, #536870912
 1405 016e C3F81049 		str	r4, [r3, #2320]
 1406 0172 A8E7     		b	.L103
 1407              	.L118:
 700:Drivers/STM32F4xx_HAL_Driver/Src/stm32f4xx_ll_usb.c ****     }
 1408              		.loc 1 700 0
 1409 0174 0B78     		ldrb	r3, [r1]	@ zero_extendqisi2
 1410 0176 00EB4313 		add	r3, r0, r3, lsl #5
 1411 017a 0C69     		ldr	r4, [r1, #16]
 1412 017c C3F81449 		str	r4, [r3, #2324]
 1413              	.L105:
 714:Drivers/STM32F4xx_HAL_Driver/Src/stm32f4xx_ll_usb.c ****     {
 1414              		.loc 1 714 0
 1415 0180 CB78     		ldrb	r3, [r1, #3]	@ zero_extendqisi2
 1416 0182 012B     		cmp	r3, #1
 1417 0184 14D0     		beq	.L119
 1418              	.L106:
 727:Drivers/STM32F4xx_HAL_Driver/Src/stm32f4xx_ll_usb.c ****     
 1419              		.loc 1 727 0
 1420 0186 0B78     		ldrb	r3, [r1]	@ zero_extendqisi2
 1421 0188 00EB4313 		add	r3, r0, r3, lsl #5
 1422 018c D3F80049 		ldr	r4, [r3, #2304]
 1423 0190 44F00444 		orr	r4, r4, #-2080374784
 1424 0194 C3F80049 		str	r4, [r3, #2304]
 729:Drivers/STM32F4xx_HAL_Driver/Src/stm32f4xx_ll_usb.c ****     {
 1425              		.loc 1 729 0
 1426 0198 CB78     		ldrb	r3, [r1, #3]	@ zero_extendqisi2
 1427 019a 012B     		cmp	r3, #1
 1428 019c 7FF471AF 		bne	.L108
 1429 01a0 1446     		mov	r4, r2
 731:Drivers/STM32F4xx_HAL_Driver/Src/stm32f4xx_ll_usb.c ****     }    
 1430              		.loc 1 731 0
 1431 01a2 8B8A     		ldrh	r3, [r1, #20]
 1432 01a4 0A78     		ldrb	r2, [r1]	@ zero_extendqisi2
 1433              	.LVL105:
 1434 01a6 C968     		ldr	r1, [r1, #12]
 1435              	.LVL106:
 1436 01a8 0094     		str	r4, [sp]
 1437 01aa FFF7FEFF 		bl	USB_WritePacket
 1438              	.LVL107:
 1439 01ae 68E7     		b	.L108
 1440              	.LVL108:
 1441              	.L119:
 716:Drivers/STM32F4xx_HAL_Driver/Src/stm32f4xx_ll_usb.c ****       {
 1442              		.loc 1 716 0
 1443 01b0 D0F80838 		ldr	r3, [r0, #2056]
 1444 01b4 13F4807F 		tst	r3, #256
 1445 01b8 09D1     		bne	.L107
 718:Drivers/STM32F4xx_HAL_Driver/Src/stm32f4xx_ll_usb.c ****       }
 1446              		.loc 1 718 0
ARM GAS  C:\Users\Student\AppData\Local\Temp\cctYr88L.s 			page 41


 1447 01ba 0B78     		ldrb	r3, [r1]	@ zero_extendqisi2
 1448 01bc 00EB4313 		add	r3, r0, r3, lsl #5
 1449 01c0 D3F80049 		ldr	r4, [r3, #2304]
 1450 01c4 44F00054 		orr	r4, r4, #536870912
 1451 01c8 C3F80049 		str	r4, [r3, #2304]
 1452 01cc DBE7     		b	.L106
 1453              	.L107:
 722:Drivers/STM32F4xx_HAL_Driver/Src/stm32f4xx_ll_usb.c ****       }
 1454              		.loc 1 722 0
 1455 01ce 0B78     		ldrb	r3, [r1]	@ zero_extendqisi2
 1456 01d0 00EB4313 		add	r3, r0, r3, lsl #5
 1457 01d4 D3F80049 		ldr	r4, [r3, #2304]
 1458 01d8 44F08054 		orr	r4, r4, #268435456
 1459 01dc C3F80049 		str	r4, [r3, #2304]
 1460 01e0 D1E7     		b	.L106
 1461              	.L109:
 750:Drivers/STM32F4xx_HAL_Driver/Src/stm32f4xx_ll_usb.c ****       USBx_OUTEP(ep->num)->DOEPTSIZ |= (USB_OTG_DOEPTSIZ_PKTCNT & (pktcnt << 19U));
 1462              		.loc 1 750 0
 1463 01e2 8C68     		ldr	r4, [r1, #8]
 1464 01e4 2344     		add	r3, r3, r4
 1465 01e6 013B     		subs	r3, r3, #1
 1466 01e8 B3FBF4F3 		udiv	r3, r3, r4
 1467              	.LVL109:
 751:Drivers/STM32F4xx_HAL_Driver/Src/stm32f4xx_ll_usb.c ****       USBx_OUTEP(ep->num)->DOEPTSIZ |= (USB_OTG_DOEPTSIZ_XFRSIZ & (ep->maxpacket * pktcnt));
 1468              		.loc 1 751 0
 1469 01ec 0C78     		ldrb	r4, [r1]	@ zero_extendqisi2
 1470 01ee 00EB4414 		add	r4, r0, r4, lsl #5
 1471 01f2 D4F8105B 		ldr	r5, [r4, #2832]
 1472 01f6 1A4E     		ldr	r6, .L120
 1473 01f8 06EAC346 		and	r6, r6, r3, lsl #19
 1474 01fc 3543     		orrs	r5, r5, r6
 1475 01fe C4F8105B 		str	r5, [r4, #2832]
 752:Drivers/STM32F4xx_HAL_Driver/Src/stm32f4xx_ll_usb.c ****     }
 1476              		.loc 1 752 0
 1477 0202 0C78     		ldrb	r4, [r1]	@ zero_extendqisi2
 1478 0204 00EB4414 		add	r4, r0, r4, lsl #5
 1479 0208 D4F8106B 		ldr	r6, [r4, #2832]
 1480 020c 8D68     		ldr	r5, [r1, #8]
 1481 020e 9BB2     		uxth	r3, r3
 1482 0210 05FB03F5 		mul	r5, r5, r3
 1483 0214 C5F31205 		ubfx	r5, r5, #0, #19
 1484 0218 3543     		orrs	r5, r5, r6
 1485 021a C4F8105B 		str	r5, [r4, #2832]
 1486 021e 20E7     		b	.L110
 1487              	.LVL110:
 1488              	.L116:
 757:Drivers/STM32F4xx_HAL_Driver/Src/stm32f4xx_ll_usb.c ****     }
 1489              		.loc 1 757 0
 1490 0220 0B78     		ldrb	r3, [r1]	@ zero_extendqisi2
 1491 0222 00EB4313 		add	r3, r0, r3, lsl #5
 1492 0226 CA68     		ldr	r2, [r1, #12]
 1493              	.LVL111:
 1494 0228 C3F8142B 		str	r2, [r3, #2836]
 1495 022c 1CE7     		b	.L111
 1496              	.L117:
 762:Drivers/STM32F4xx_HAL_Driver/Src/stm32f4xx_ll_usb.c ****       {
 1497              		.loc 1 762 0
ARM GAS  C:\Users\Student\AppData\Local\Temp\cctYr88L.s 			page 42


 1498 022e D0F80838 		ldr	r3, [r0, #2056]
 1499 0232 13F4807F 		tst	r3, #256
 1500 0236 09D1     		bne	.L113
 764:Drivers/STM32F4xx_HAL_Driver/Src/stm32f4xx_ll_usb.c ****       }
 1501              		.loc 1 764 0
 1502 0238 0B78     		ldrb	r3, [r1]	@ zero_extendqisi2
 1503 023a 00EB4313 		add	r3, r0, r3, lsl #5
 1504 023e D3F8002B 		ldr	r2, [r3, #2816]
 1505 0242 42F00052 		orr	r2, r2, #536870912
 1506 0246 C3F8002B 		str	r2, [r3, #2816]
 1507 024a 11E7     		b	.L112
 1508              	.L113:
 768:Drivers/STM32F4xx_HAL_Driver/Src/stm32f4xx_ll_usb.c ****       }
 1509              		.loc 1 768 0
 1510 024c 0B78     		ldrb	r3, [r1]	@ zero_extendqisi2
 1511 024e 00EB4313 		add	r3, r0, r3, lsl #5
 1512 0252 D3F8002B 		ldr	r2, [r3, #2816]
 1513 0256 42F08052 		orr	r2, r2, #268435456
 1514 025a C3F8002B 		str	r2, [r3, #2816]
 1515 025e 07E7     		b	.L112
 1516              	.L121:
 1517              		.align	2
 1518              	.L120:
 1519 0260 0000F81F 		.word	536346624
 1520              		.cfi_endproc
 1521              	.LFE137:
 1523              		.section	.text.USB_EP0StartXfer,"ax",%progbits
 1524              		.align	1
 1525              		.global	USB_EP0StartXfer
 1526              		.syntax unified
 1527              		.thumb
 1528              		.thumb_func
 1529              		.fpu fpv4-sp-d16
 1531              	USB_EP0StartXfer:
 1532              	.LFB138:
 776:Drivers/STM32F4xx_HAL_Driver/Src/stm32f4xx_ll_usb.c **** 
 777:Drivers/STM32F4xx_HAL_Driver/Src/stm32f4xx_ll_usb.c **** /**
 778:Drivers/STM32F4xx_HAL_Driver/Src/stm32f4xx_ll_usb.c ****   * @brief  USB_EP0StartXfer : setup and starts a transfer over the EP  0
 779:Drivers/STM32F4xx_HAL_Driver/Src/stm32f4xx_ll_usb.c ****   * @param  USBx  Selected device
 780:Drivers/STM32F4xx_HAL_Driver/Src/stm32f4xx_ll_usb.c ****   * @param  ep pointer to endpoint structure
 781:Drivers/STM32F4xx_HAL_Driver/Src/stm32f4xx_ll_usb.c ****   * @param  dma USB dma enabled or disabled 
 782:Drivers/STM32F4xx_HAL_Driver/Src/stm32f4xx_ll_usb.c ****   *          This parameter can be one of these values:
 783:Drivers/STM32F4xx_HAL_Driver/Src/stm32f4xx_ll_usb.c ****   *           0 : DMA feature not used 
 784:Drivers/STM32F4xx_HAL_Driver/Src/stm32f4xx_ll_usb.c ****   *           1 : DMA feature used  
 785:Drivers/STM32F4xx_HAL_Driver/Src/stm32f4xx_ll_usb.c ****   * @retval HAL status
 786:Drivers/STM32F4xx_HAL_Driver/Src/stm32f4xx_ll_usb.c ****   */
 787:Drivers/STM32F4xx_HAL_Driver/Src/stm32f4xx_ll_usb.c **** HAL_StatusTypeDef USB_EP0StartXfer(USB_OTG_GlobalTypeDef *USBx , USB_OTG_EPTypeDef *ep, uint8_t dma
 788:Drivers/STM32F4xx_HAL_Driver/Src/stm32f4xx_ll_usb.c **** {
 1533              		.loc 1 788 0
 1534              		.cfi_startproc
 1535              		@ args = 0, pretend = 0, frame = 0
 1536              		@ frame_needed = 0, uses_anonymous_args = 0
 1537              		@ link register save eliminated.
 1538              	.LVL112:
 1539 0000 30B4     		push	{r4, r5}
 1540              	.LCFI23:
 1541              		.cfi_def_cfa_offset 8
ARM GAS  C:\Users\Student\AppData\Local\Temp\cctYr88L.s 			page 43


 1542              		.cfi_offset 4, -8
 1543              		.cfi_offset 5, -4
 789:Drivers/STM32F4xx_HAL_Driver/Src/stm32f4xx_ll_usb.c ****   /* IN endpoint */
 790:Drivers/STM32F4xx_HAL_Driver/Src/stm32f4xx_ll_usb.c ****   if (ep->is_in == 1U)
 1544              		.loc 1 790 0
 1545 0002 4B78     		ldrb	r3, [r1, #1]	@ zero_extendqisi2
 1546 0004 012B     		cmp	r3, #1
 1547 0006 39D0     		beq	.L132
 791:Drivers/STM32F4xx_HAL_Driver/Src/stm32f4xx_ll_usb.c ****   {
 792:Drivers/STM32F4xx_HAL_Driver/Src/stm32f4xx_ll_usb.c ****     /* Zero Length Packet? */
 793:Drivers/STM32F4xx_HAL_Driver/Src/stm32f4xx_ll_usb.c ****     if (ep->xfer_len == 0U)
 794:Drivers/STM32F4xx_HAL_Driver/Src/stm32f4xx_ll_usb.c ****     {
 795:Drivers/STM32F4xx_HAL_Driver/Src/stm32f4xx_ll_usb.c ****       USBx_INEP(ep->num)->DIEPTSIZ &= ~(USB_OTG_DIEPTSIZ_PKTCNT); 
 796:Drivers/STM32F4xx_HAL_Driver/Src/stm32f4xx_ll_usb.c ****       USBx_INEP(ep->num)->DIEPTSIZ |= (USB_OTG_DIEPTSIZ_PKTCNT & (1U << 19U)) ;
 797:Drivers/STM32F4xx_HAL_Driver/Src/stm32f4xx_ll_usb.c ****       USBx_INEP(ep->num)->DIEPTSIZ &= ~(USB_OTG_DIEPTSIZ_XFRSIZ); 
 798:Drivers/STM32F4xx_HAL_Driver/Src/stm32f4xx_ll_usb.c ****     }
 799:Drivers/STM32F4xx_HAL_Driver/Src/stm32f4xx_ll_usb.c ****     else
 800:Drivers/STM32F4xx_HAL_Driver/Src/stm32f4xx_ll_usb.c ****     {
 801:Drivers/STM32F4xx_HAL_Driver/Src/stm32f4xx_ll_usb.c ****       /* Program the transfer size and packet count
 802:Drivers/STM32F4xx_HAL_Driver/Src/stm32f4xx_ll_usb.c ****       * as follows: xfersize = N * maxpacket +
 803:Drivers/STM32F4xx_HAL_Driver/Src/stm32f4xx_ll_usb.c ****       * short_packet pktcnt = N + (short_packet
 804:Drivers/STM32F4xx_HAL_Driver/Src/stm32f4xx_ll_usb.c ****       * exist ? 1 : 0)
 805:Drivers/STM32F4xx_HAL_Driver/Src/stm32f4xx_ll_usb.c ****       */
 806:Drivers/STM32F4xx_HAL_Driver/Src/stm32f4xx_ll_usb.c ****       USBx_INEP(ep->num)->DIEPTSIZ &= ~(USB_OTG_DIEPTSIZ_XFRSIZ);
 807:Drivers/STM32F4xx_HAL_Driver/Src/stm32f4xx_ll_usb.c ****       USBx_INEP(ep->num)->DIEPTSIZ &= ~(USB_OTG_DIEPTSIZ_PKTCNT); 
 808:Drivers/STM32F4xx_HAL_Driver/Src/stm32f4xx_ll_usb.c ****       
 809:Drivers/STM32F4xx_HAL_Driver/Src/stm32f4xx_ll_usb.c ****       if(ep->xfer_len > ep->maxpacket)
 810:Drivers/STM32F4xx_HAL_Driver/Src/stm32f4xx_ll_usb.c ****       {
 811:Drivers/STM32F4xx_HAL_Driver/Src/stm32f4xx_ll_usb.c ****         ep->xfer_len = ep->maxpacket;
 812:Drivers/STM32F4xx_HAL_Driver/Src/stm32f4xx_ll_usb.c ****       }
 813:Drivers/STM32F4xx_HAL_Driver/Src/stm32f4xx_ll_usb.c ****       USBx_INEP(ep->num)->DIEPTSIZ |= (USB_OTG_DIEPTSIZ_PKTCNT & (1U << 19U)) ;
 814:Drivers/STM32F4xx_HAL_Driver/Src/stm32f4xx_ll_usb.c ****       USBx_INEP(ep->num)->DIEPTSIZ |= (USB_OTG_DIEPTSIZ_XFRSIZ & ep->xfer_len); 
 815:Drivers/STM32F4xx_HAL_Driver/Src/stm32f4xx_ll_usb.c ****     
 816:Drivers/STM32F4xx_HAL_Driver/Src/stm32f4xx_ll_usb.c ****     }
 817:Drivers/STM32F4xx_HAL_Driver/Src/stm32f4xx_ll_usb.c ****     
 818:Drivers/STM32F4xx_HAL_Driver/Src/stm32f4xx_ll_usb.c ****     /* EP enable, IN data in FIFO */
 819:Drivers/STM32F4xx_HAL_Driver/Src/stm32f4xx_ll_usb.c ****     USBx_INEP(ep->num)->DIEPCTL |= (USB_OTG_DIEPCTL_CNAK | USB_OTG_DIEPCTL_EPENA);     
 820:Drivers/STM32F4xx_HAL_Driver/Src/stm32f4xx_ll_usb.c ****     
 821:Drivers/STM32F4xx_HAL_Driver/Src/stm32f4xx_ll_usb.c ****     if (dma == 1)
 822:Drivers/STM32F4xx_HAL_Driver/Src/stm32f4xx_ll_usb.c ****     {
 823:Drivers/STM32F4xx_HAL_Driver/Src/stm32f4xx_ll_usb.c ****       USBx_INEP(ep->num)->DIEPDMA = (uint32_t)(ep->dma_addr);
 824:Drivers/STM32F4xx_HAL_Driver/Src/stm32f4xx_ll_usb.c ****     }
 825:Drivers/STM32F4xx_HAL_Driver/Src/stm32f4xx_ll_usb.c ****     else
 826:Drivers/STM32F4xx_HAL_Driver/Src/stm32f4xx_ll_usb.c ****     {
 827:Drivers/STM32F4xx_HAL_Driver/Src/stm32f4xx_ll_usb.c ****       /* Enable the Tx FIFO Empty Interrupt for this EP */
 828:Drivers/STM32F4xx_HAL_Driver/Src/stm32f4xx_ll_usb.c ****       if (ep->xfer_len > 0U)
 829:Drivers/STM32F4xx_HAL_Driver/Src/stm32f4xx_ll_usb.c ****       {
 830:Drivers/STM32F4xx_HAL_Driver/Src/stm32f4xx_ll_usb.c ****         USBx_DEVICE->DIEPEMPMSK |= 1U << (ep->num);
 831:Drivers/STM32F4xx_HAL_Driver/Src/stm32f4xx_ll_usb.c ****       }
 832:Drivers/STM32F4xx_HAL_Driver/Src/stm32f4xx_ll_usb.c ****     }
 833:Drivers/STM32F4xx_HAL_Driver/Src/stm32f4xx_ll_usb.c ****   }
 834:Drivers/STM32F4xx_HAL_Driver/Src/stm32f4xx_ll_usb.c ****   
 835:Drivers/STM32F4xx_HAL_Driver/Src/stm32f4xx_ll_usb.c ****   else /* OUT endpoint */
 836:Drivers/STM32F4xx_HAL_Driver/Src/stm32f4xx_ll_usb.c ****   {
 837:Drivers/STM32F4xx_HAL_Driver/Src/stm32f4xx_ll_usb.c ****     /* Program the transfer size and packet count as follows:
 838:Drivers/STM32F4xx_HAL_Driver/Src/stm32f4xx_ll_usb.c ****     * pktcnt = N
 839:Drivers/STM32F4xx_HAL_Driver/Src/stm32f4xx_ll_usb.c ****     * xfersize = N * maxpacket
ARM GAS  C:\Users\Student\AppData\Local\Temp\cctYr88L.s 			page 44


 840:Drivers/STM32F4xx_HAL_Driver/Src/stm32f4xx_ll_usb.c ****     */
 841:Drivers/STM32F4xx_HAL_Driver/Src/stm32f4xx_ll_usb.c ****     USBx_OUTEP(ep->num)->DOEPTSIZ &= ~(USB_OTG_DOEPTSIZ_XFRSIZ); 
 1548              		.loc 1 841 0
 1549 0008 0B78     		ldrb	r3, [r1]	@ zero_extendqisi2
 1550 000a 00EB4313 		add	r3, r0, r3, lsl #5
 1551 000e D3F8104B 		ldr	r4, [r3, #2832]
 1552 0012 E40C     		lsrs	r4, r4, #19
 1553 0014 E404     		lsls	r4, r4, #19
 1554 0016 C3F8104B 		str	r4, [r3, #2832]
 842:Drivers/STM32F4xx_HAL_Driver/Src/stm32f4xx_ll_usb.c ****     USBx_OUTEP(ep->num)->DOEPTSIZ &= ~(USB_OTG_DOEPTSIZ_PKTCNT); 
 1555              		.loc 1 842 0
 1556 001a 0B78     		ldrb	r3, [r1]	@ zero_extendqisi2
 1557 001c 00EB4313 		add	r3, r0, r3, lsl #5
 1558 0020 D3F8104B 		ldr	r4, [r3, #2832]
 1559 0024 24F0FF54 		bic	r4, r4, #534773760
 1560 0028 24F4C014 		bic	r4, r4, #1572864
 1561 002c C3F8104B 		str	r4, [r3, #2832]
 843:Drivers/STM32F4xx_HAL_Driver/Src/stm32f4xx_ll_usb.c ****       
 844:Drivers/STM32F4xx_HAL_Driver/Src/stm32f4xx_ll_usb.c ****     if (ep->xfer_len > 0U)
 1562              		.loc 1 844 0
 1563 0030 4B69     		ldr	r3, [r1, #20]
 1564 0032 0BB1     		cbz	r3, .L129
 845:Drivers/STM32F4xx_HAL_Driver/Src/stm32f4xx_ll_usb.c ****     {
 846:Drivers/STM32F4xx_HAL_Driver/Src/stm32f4xx_ll_usb.c ****       ep->xfer_len = ep->maxpacket;
 1565              		.loc 1 846 0
 1566 0034 8B68     		ldr	r3, [r1, #8]
 1567 0036 4B61     		str	r3, [r1, #20]
 1568              	.L129:
 847:Drivers/STM32F4xx_HAL_Driver/Src/stm32f4xx_ll_usb.c ****     }
 848:Drivers/STM32F4xx_HAL_Driver/Src/stm32f4xx_ll_usb.c ****     
 849:Drivers/STM32F4xx_HAL_Driver/Src/stm32f4xx_ll_usb.c ****     USBx_OUTEP(ep->num)->DOEPTSIZ |= (USB_OTG_DOEPTSIZ_PKTCNT & (1U << 19U));
 1569              		.loc 1 849 0
 1570 0038 0B78     		ldrb	r3, [r1]	@ zero_extendqisi2
 1571 003a 00EB4313 		add	r3, r0, r3, lsl #5
 1572 003e D3F8104B 		ldr	r4, [r3, #2832]
 1573 0042 44F40024 		orr	r4, r4, #524288
 1574 0046 C3F8104B 		str	r4, [r3, #2832]
 850:Drivers/STM32F4xx_HAL_Driver/Src/stm32f4xx_ll_usb.c ****     USBx_OUTEP(ep->num)->DOEPTSIZ |= (USB_OTG_DOEPTSIZ_XFRSIZ & (ep->maxpacket)); 
 1575              		.loc 1 850 0
 1576 004a 0B78     		ldrb	r3, [r1]	@ zero_extendqisi2
 1577 004c 00EB4313 		add	r3, r0, r3, lsl #5
 1578 0050 D3F8104B 		ldr	r4, [r3, #2832]
 1579 0054 8D68     		ldr	r5, [r1, #8]
 1580 0056 C5F31205 		ubfx	r5, r5, #0, #19
 1581 005a 2C43     		orrs	r4, r4, r5
 1582 005c C3F8104B 		str	r4, [r3, #2832]
 851:Drivers/STM32F4xx_HAL_Driver/Src/stm32f4xx_ll_usb.c ****     
 852:Drivers/STM32F4xx_HAL_Driver/Src/stm32f4xx_ll_usb.c **** 
 853:Drivers/STM32F4xx_HAL_Driver/Src/stm32f4xx_ll_usb.c ****     if (dma == 1U)
 1583              		.loc 1 853 0
 1584 0060 012A     		cmp	r2, #1
 1585 0062 76D0     		beq	.L133
 1586              	.LVL113:
 1587              	.L130:
 854:Drivers/STM32F4xx_HAL_Driver/Src/stm32f4xx_ll_usb.c ****     {
 855:Drivers/STM32F4xx_HAL_Driver/Src/stm32f4xx_ll_usb.c ****       USBx_OUTEP(ep->num)->DOEPDMA = (uint32_t)(ep->xfer_buff);
 856:Drivers/STM32F4xx_HAL_Driver/Src/stm32f4xx_ll_usb.c ****     }
ARM GAS  C:\Users\Student\AppData\Local\Temp\cctYr88L.s 			page 45


 857:Drivers/STM32F4xx_HAL_Driver/Src/stm32f4xx_ll_usb.c ****     
 858:Drivers/STM32F4xx_HAL_Driver/Src/stm32f4xx_ll_usb.c ****     /* EP enable */
 859:Drivers/STM32F4xx_HAL_Driver/Src/stm32f4xx_ll_usb.c ****     USBx_OUTEP(ep->num)->DOEPCTL |= (USB_OTG_DOEPCTL_CNAK | USB_OTG_DOEPCTL_EPENA);    
 1588              		.loc 1 859 0
 1589 0064 0B78     		ldrb	r3, [r1]	@ zero_extendqisi2
 1590 0066 00EB4310 		add	r0, r0, r3, lsl #5
 1591              	.LVL114:
 1592 006a D0F8003B 		ldr	r3, [r0, #2816]
 1593 006e 43F00443 		orr	r3, r3, #-2080374784
 1594 0072 C0F8003B 		str	r3, [r0, #2816]
 1595              	.LVL115:
 1596              	.L128:
 860:Drivers/STM32F4xx_HAL_Driver/Src/stm32f4xx_ll_usb.c ****   }
 861:Drivers/STM32F4xx_HAL_Driver/Src/stm32f4xx_ll_usb.c ****   return HAL_OK;
 862:Drivers/STM32F4xx_HAL_Driver/Src/stm32f4xx_ll_usb.c **** }
 1597              		.loc 1 862 0
 1598 0076 0020     		movs	r0, #0
 1599 0078 30BC     		pop	{r4, r5}
 1600              	.LCFI24:
 1601              		.cfi_remember_state
 1602              		.cfi_restore 5
 1603              		.cfi_restore 4
 1604              		.cfi_def_cfa_offset 0
 1605 007a 7047     		bx	lr
 1606              	.LVL116:
 1607              	.L132:
 1608              	.LCFI25:
 1609              		.cfi_restore_state
 793:Drivers/STM32F4xx_HAL_Driver/Src/stm32f4xx_ll_usb.c ****     {
 1610              		.loc 1 793 0
 1611 007c 4B69     		ldr	r3, [r1, #20]
 1612 007e 9BBB     		cbnz	r3, .L124
 795:Drivers/STM32F4xx_HAL_Driver/Src/stm32f4xx_ll_usb.c ****       USBx_INEP(ep->num)->DIEPTSIZ |= (USB_OTG_DIEPTSIZ_PKTCNT & (1U << 19U)) ;
 1613              		.loc 1 795 0
 1614 0080 0B78     		ldrb	r3, [r1]	@ zero_extendqisi2
 1615 0082 00EB4313 		add	r3, r0, r3, lsl #5
 1616 0086 D3F81049 		ldr	r4, [r3, #2320]
 1617 008a 24F0FF54 		bic	r4, r4, #534773760
 1618 008e 24F4C014 		bic	r4, r4, #1572864
 1619 0092 C3F81049 		str	r4, [r3, #2320]
 796:Drivers/STM32F4xx_HAL_Driver/Src/stm32f4xx_ll_usb.c ****       USBx_INEP(ep->num)->DIEPTSIZ &= ~(USB_OTG_DIEPTSIZ_XFRSIZ); 
 1620              		.loc 1 796 0
 1621 0096 0B78     		ldrb	r3, [r1]	@ zero_extendqisi2
 1622 0098 00EB4313 		add	r3, r0, r3, lsl #5
 1623 009c D3F81049 		ldr	r4, [r3, #2320]
 1624 00a0 44F40024 		orr	r4, r4, #524288
 1625 00a4 C3F81049 		str	r4, [r3, #2320]
 797:Drivers/STM32F4xx_HAL_Driver/Src/stm32f4xx_ll_usb.c ****     }
 1626              		.loc 1 797 0
 1627 00a8 0B78     		ldrb	r3, [r1]	@ zero_extendqisi2
 1628 00aa 00EB4313 		add	r3, r0, r3, lsl #5
 1629 00ae D3F81049 		ldr	r4, [r3, #2320]
 1630 00b2 E40C     		lsrs	r4, r4, #19
 1631 00b4 E404     		lsls	r4, r4, #19
 1632 00b6 C3F81049 		str	r4, [r3, #2320]
 1633              	.L125:
 819:Drivers/STM32F4xx_HAL_Driver/Src/stm32f4xx_ll_usb.c ****     
ARM GAS  C:\Users\Student\AppData\Local\Temp\cctYr88L.s 			page 46


 1634              		.loc 1 819 0
 1635 00ba 0B78     		ldrb	r3, [r1]	@ zero_extendqisi2
 1636 00bc 00EB4313 		add	r3, r0, r3, lsl #5
 1637 00c0 D3F80049 		ldr	r4, [r3, #2304]
 1638 00c4 44F00444 		orr	r4, r4, #-2080374784
 1639 00c8 C3F80049 		str	r4, [r3, #2304]
 821:Drivers/STM32F4xx_HAL_Driver/Src/stm32f4xx_ll_usb.c ****     {
 1640              		.loc 1 821 0
 1641 00cc 012A     		cmp	r2, #1
 1642 00ce 39D0     		beq	.L134
 828:Drivers/STM32F4xx_HAL_Driver/Src/stm32f4xx_ll_usb.c ****       {
 1643              		.loc 1 828 0
 1644 00d0 4B69     		ldr	r3, [r1, #20]
 1645 00d2 002B     		cmp	r3, #0
 1646 00d4 CFD0     		beq	.L128
 830:Drivers/STM32F4xx_HAL_Driver/Src/stm32f4xx_ll_usb.c ****       }
 1647              		.loc 1 830 0
 1648 00d6 D0F83438 		ldr	r3, [r0, #2100]
 1649 00da 0978     		ldrb	r1, [r1]	@ zero_extendqisi2
 1650              	.LVL117:
 1651 00dc 0122     		movs	r2, #1
 1652              	.LVL118:
 1653 00de 8A40     		lsls	r2, r2, r1
 1654 00e0 1343     		orrs	r3, r3, r2
 1655 00e2 C0F83438 		str	r3, [r0, #2100]
 1656 00e6 C6E7     		b	.L128
 1657              	.LVL119:
 1658              	.L124:
 806:Drivers/STM32F4xx_HAL_Driver/Src/stm32f4xx_ll_usb.c ****       USBx_INEP(ep->num)->DIEPTSIZ &= ~(USB_OTG_DIEPTSIZ_PKTCNT); 
 1659              		.loc 1 806 0
 1660 00e8 0B78     		ldrb	r3, [r1]	@ zero_extendqisi2
 1661 00ea 00EB4313 		add	r3, r0, r3, lsl #5
 1662 00ee D3F81049 		ldr	r4, [r3, #2320]
 1663 00f2 E40C     		lsrs	r4, r4, #19
 1664 00f4 E404     		lsls	r4, r4, #19
 1665 00f6 C3F81049 		str	r4, [r3, #2320]
 807:Drivers/STM32F4xx_HAL_Driver/Src/stm32f4xx_ll_usb.c ****       
 1666              		.loc 1 807 0
 1667 00fa 0B78     		ldrb	r3, [r1]	@ zero_extendqisi2
 1668 00fc 00EB4313 		add	r3, r0, r3, lsl #5
 1669 0100 D3F81049 		ldr	r4, [r3, #2320]
 1670 0104 24F0FF54 		bic	r4, r4, #534773760
 1671 0108 24F4C014 		bic	r4, r4, #1572864
 1672 010c C3F81049 		str	r4, [r3, #2320]
 809:Drivers/STM32F4xx_HAL_Driver/Src/stm32f4xx_ll_usb.c ****       {
 1673              		.loc 1 809 0
 1674 0110 4C69     		ldr	r4, [r1, #20]
 1675 0112 8B68     		ldr	r3, [r1, #8]
 1676 0114 9C42     		cmp	r4, r3
 1677 0116 00D9     		bls	.L126
 811:Drivers/STM32F4xx_HAL_Driver/Src/stm32f4xx_ll_usb.c ****       }
 1678              		.loc 1 811 0
 1679 0118 4B61     		str	r3, [r1, #20]
 1680              	.L126:
 813:Drivers/STM32F4xx_HAL_Driver/Src/stm32f4xx_ll_usb.c ****       USBx_INEP(ep->num)->DIEPTSIZ |= (USB_OTG_DIEPTSIZ_XFRSIZ & ep->xfer_len); 
 1681              		.loc 1 813 0
 1682 011a 0B78     		ldrb	r3, [r1]	@ zero_extendqisi2
ARM GAS  C:\Users\Student\AppData\Local\Temp\cctYr88L.s 			page 47


 1683 011c 00EB4313 		add	r3, r0, r3, lsl #5
 1684 0120 D3F81049 		ldr	r4, [r3, #2320]
 1685 0124 44F40024 		orr	r4, r4, #524288
 1686 0128 C3F81049 		str	r4, [r3, #2320]
 814:Drivers/STM32F4xx_HAL_Driver/Src/stm32f4xx_ll_usb.c ****     
 1687              		.loc 1 814 0
 1688 012c 0B78     		ldrb	r3, [r1]	@ zero_extendqisi2
 1689 012e 00EB4313 		add	r3, r0, r3, lsl #5
 1690 0132 D3F81049 		ldr	r4, [r3, #2320]
 1691 0136 4D69     		ldr	r5, [r1, #20]
 1692 0138 C5F31205 		ubfx	r5, r5, #0, #19
 1693 013c 2C43     		orrs	r4, r4, r5
 1694 013e C3F81049 		str	r4, [r3, #2320]
 1695 0142 BAE7     		b	.L125
 1696              	.L134:
 823:Drivers/STM32F4xx_HAL_Driver/Src/stm32f4xx_ll_usb.c ****     }
 1697              		.loc 1 823 0
 1698 0144 0B78     		ldrb	r3, [r1]	@ zero_extendqisi2
 1699 0146 00EB4310 		add	r0, r0, r3, lsl #5
 1700              	.LVL120:
 1701 014a 0B69     		ldr	r3, [r1, #16]
 1702 014c C0F81439 		str	r3, [r0, #2324]
 1703 0150 91E7     		b	.L128
 1704              	.LVL121:
 1705              	.L133:
 855:Drivers/STM32F4xx_HAL_Driver/Src/stm32f4xx_ll_usb.c ****     }
 1706              		.loc 1 855 0
 1707 0152 0B78     		ldrb	r3, [r1]	@ zero_extendqisi2
 1708 0154 00EB4313 		add	r3, r0, r3, lsl #5
 1709 0158 CA68     		ldr	r2, [r1, #12]
 1710              	.LVL122:
 1711 015a C3F8142B 		str	r2, [r3, #2836]
 1712 015e 81E7     		b	.L130
 1713              		.cfi_endproc
 1714              	.LFE138:
 1716              		.section	.text.USB_WritePacket,"ax",%progbits
 1717              		.align	1
 1718              		.global	USB_WritePacket
 1719              		.syntax unified
 1720              		.thumb
 1721              		.thumb_func
 1722              		.fpu fpv4-sp-d16
 1724              	USB_WritePacket:
 1725              	.LFB139:
 863:Drivers/STM32F4xx_HAL_Driver/Src/stm32f4xx_ll_usb.c **** 
 864:Drivers/STM32F4xx_HAL_Driver/Src/stm32f4xx_ll_usb.c **** /**
 865:Drivers/STM32F4xx_HAL_Driver/Src/stm32f4xx_ll_usb.c ****   * @brief  USB_WritePacket : Writes a packet into the Tx FIFO associated 
 866:Drivers/STM32F4xx_HAL_Driver/Src/stm32f4xx_ll_usb.c ****   *         with the EP/channel
 867:Drivers/STM32F4xx_HAL_Driver/Src/stm32f4xx_ll_usb.c ****   * @param  USBx  Selected device           
 868:Drivers/STM32F4xx_HAL_Driver/Src/stm32f4xx_ll_usb.c ****   * @param  src   pointer to source buffer
 869:Drivers/STM32F4xx_HAL_Driver/Src/stm32f4xx_ll_usb.c ****   * @param  ch_ep_num  endpoint or host channel number
 870:Drivers/STM32F4xx_HAL_Driver/Src/stm32f4xx_ll_usb.c ****   * @param  len  Number of bytes to write
 871:Drivers/STM32F4xx_HAL_Driver/Src/stm32f4xx_ll_usb.c ****   * @param  dma USB dma enabled or disabled 
 872:Drivers/STM32F4xx_HAL_Driver/Src/stm32f4xx_ll_usb.c ****   *          This parameter can be one of these values:
 873:Drivers/STM32F4xx_HAL_Driver/Src/stm32f4xx_ll_usb.c ****   *           0 : DMA feature not used 
 874:Drivers/STM32F4xx_HAL_Driver/Src/stm32f4xx_ll_usb.c ****   *           1 : DMA feature used  
 875:Drivers/STM32F4xx_HAL_Driver/Src/stm32f4xx_ll_usb.c ****   * @retval HAL status
ARM GAS  C:\Users\Student\AppData\Local\Temp\cctYr88L.s 			page 48


 876:Drivers/STM32F4xx_HAL_Driver/Src/stm32f4xx_ll_usb.c ****   */
 877:Drivers/STM32F4xx_HAL_Driver/Src/stm32f4xx_ll_usb.c **** HAL_StatusTypeDef USB_WritePacket(USB_OTG_GlobalTypeDef *USBx, uint8_t *src, uint8_t ch_ep_num, uin
 878:Drivers/STM32F4xx_HAL_Driver/Src/stm32f4xx_ll_usb.c **** {
 1726              		.loc 1 878 0
 1727              		.cfi_startproc
 1728              		@ args = 4, pretend = 0, frame = 0
 1729              		@ frame_needed = 0, uses_anonymous_args = 0
 1730              		@ link register save eliminated.
 1731              	.LVL123:
 1732 0000 70B4     		push	{r4, r5, r6}
 1733              	.LCFI26:
 1734              		.cfi_def_cfa_offset 12
 1735              		.cfi_offset 4, -12
 1736              		.cfi_offset 5, -8
 1737              		.cfi_offset 6, -4
 1738 0002 9DF80C40 		ldrb	r4, [sp, #12]	@ zero_extendqisi2
 1739              	.LVL124:
 879:Drivers/STM32F4xx_HAL_Driver/Src/stm32f4xx_ll_usb.c ****   uint32_t count32b = 0U , i = 0U;
 880:Drivers/STM32F4xx_HAL_Driver/Src/stm32f4xx_ll_usb.c ****   
 881:Drivers/STM32F4xx_HAL_Driver/Src/stm32f4xx_ll_usb.c ****   if (dma == 0U)
 1740              		.loc 1 881 0
 1741 0006 64B9     		cbnz	r4, .L136
 882:Drivers/STM32F4xx_HAL_Driver/Src/stm32f4xx_ll_usb.c ****   {
 883:Drivers/STM32F4xx_HAL_Driver/Src/stm32f4xx_ll_usb.c ****     count32b =  (len + 3U) / 4U;
 1742              		.loc 1 883 0
 1743 0008 0333     		adds	r3, r3, #3
 1744              	.LVL125:
 1745 000a 9E08     		lsrs	r6, r3, #2
 1746              	.LVL126:
 884:Drivers/STM32F4xx_HAL_Driver/Src/stm32f4xx_ll_usb.c ****     for (i = 0U; i < count32b; i++, src += 4U)
 1747              		.loc 1 884 0
 1748 000c 07E0     		b	.L137
 1749              	.LVL127:
 1750              	.L138:
 885:Drivers/STM32F4xx_HAL_Driver/Src/stm32f4xx_ll_usb.c ****     {
 886:Drivers/STM32F4xx_HAL_Driver/Src/stm32f4xx_ll_usb.c ****       USBx_DFIFO(ch_ep_num) = *((__packed uint32_t *)src);
 1751              		.loc 1 886 0 discriminator 3
 1752 000e 00EB0233 		add	r3, r0, r2, lsl #12
 1753 0012 03F58053 		add	r3, r3, #4096
 1754 0016 51F8045B 		ldr	r5, [r1], #4
 1755              	.LVL128:
 1756 001a 1D60     		str	r5, [r3]
 884:Drivers/STM32F4xx_HAL_Driver/Src/stm32f4xx_ll_usb.c ****     for (i = 0U; i < count32b; i++, src += 4U)
 1757              		.loc 1 884 0 discriminator 3
 1758 001c 0134     		adds	r4, r4, #1
 1759              	.LVL129:
 1760              	.L137:
 884:Drivers/STM32F4xx_HAL_Driver/Src/stm32f4xx_ll_usb.c ****     for (i = 0U; i < count32b; i++, src += 4U)
 1761              		.loc 1 884 0 is_stmt 0 discriminator 1
 1762 001e B442     		cmp	r4, r6
 1763 0020 F5D3     		bcc	.L138
 1764              	.LVL130:
 1765              	.L136:
 887:Drivers/STM32F4xx_HAL_Driver/Src/stm32f4xx_ll_usb.c ****     }
 888:Drivers/STM32F4xx_HAL_Driver/Src/stm32f4xx_ll_usb.c ****   }
 889:Drivers/STM32F4xx_HAL_Driver/Src/stm32f4xx_ll_usb.c ****   return HAL_OK;
 890:Drivers/STM32F4xx_HAL_Driver/Src/stm32f4xx_ll_usb.c **** }
ARM GAS  C:\Users\Student\AppData\Local\Temp\cctYr88L.s 			page 49


 1766              		.loc 1 890 0 is_stmt 1
 1767 0022 0020     		movs	r0, #0
 1768              	.LVL131:
 1769 0024 70BC     		pop	{r4, r5, r6}
 1770              	.LCFI27:
 1771              		.cfi_restore 6
 1772              		.cfi_restore 5
 1773              		.cfi_restore 4
 1774              		.cfi_def_cfa_offset 0
 1775              	.LVL132:
 1776 0026 7047     		bx	lr
 1777              		.cfi_endproc
 1778              	.LFE139:
 1780              		.section	.text.USB_ReadPacket,"ax",%progbits
 1781              		.align	1
 1782              		.global	USB_ReadPacket
 1783              		.syntax unified
 1784              		.thumb
 1785              		.thumb_func
 1786              		.fpu fpv4-sp-d16
 1788              	USB_ReadPacket:
 1789              	.LFB140:
 891:Drivers/STM32F4xx_HAL_Driver/Src/stm32f4xx_ll_usb.c **** 
 892:Drivers/STM32F4xx_HAL_Driver/Src/stm32f4xx_ll_usb.c **** /**
 893:Drivers/STM32F4xx_HAL_Driver/Src/stm32f4xx_ll_usb.c ****   * @brief  USB_ReadPacket : read a packet from the Tx FIFO associated 
 894:Drivers/STM32F4xx_HAL_Driver/Src/stm32f4xx_ll_usb.c ****   *         with the EP/channel
 895:Drivers/STM32F4xx_HAL_Driver/Src/stm32f4xx_ll_usb.c ****   * @param  USBx  Selected device  
 896:Drivers/STM32F4xx_HAL_Driver/Src/stm32f4xx_ll_usb.c ****   * @param  src  source pointer
 897:Drivers/STM32F4xx_HAL_Driver/Src/stm32f4xx_ll_usb.c ****   * @param  ch_ep_num  endpoint or host channel number
 898:Drivers/STM32F4xx_HAL_Driver/Src/stm32f4xx_ll_usb.c ****   * @param  len  Number of bytes to read
 899:Drivers/STM32F4xx_HAL_Driver/Src/stm32f4xx_ll_usb.c ****   * @param  dma USB dma enabled or disabled 
 900:Drivers/STM32F4xx_HAL_Driver/Src/stm32f4xx_ll_usb.c ****   *          This parameter can be one of these values:
 901:Drivers/STM32F4xx_HAL_Driver/Src/stm32f4xx_ll_usb.c ****   *           0 : DMA feature not used 
 902:Drivers/STM32F4xx_HAL_Driver/Src/stm32f4xx_ll_usb.c ****   *           1 : DMA feature used  
 903:Drivers/STM32F4xx_HAL_Driver/Src/stm32f4xx_ll_usb.c ****   * @retval pointer to destination buffer
 904:Drivers/STM32F4xx_HAL_Driver/Src/stm32f4xx_ll_usb.c ****   */
 905:Drivers/STM32F4xx_HAL_Driver/Src/stm32f4xx_ll_usb.c **** void *USB_ReadPacket(USB_OTG_GlobalTypeDef *USBx, uint8_t *dest, uint16_t len)
 906:Drivers/STM32F4xx_HAL_Driver/Src/stm32f4xx_ll_usb.c **** {
 1790              		.loc 1 906 0
 1791              		.cfi_startproc
 1792              		@ args = 0, pretend = 0, frame = 0
 1793              		@ frame_needed = 0, uses_anonymous_args = 0
 1794              		@ link register save eliminated.
 1795              	.LVL133:
 907:Drivers/STM32F4xx_HAL_Driver/Src/stm32f4xx_ll_usb.c ****   uint32_t i=0U;
 908:Drivers/STM32F4xx_HAL_Driver/Src/stm32f4xx_ll_usb.c ****   uint32_t count32b = (len + 3U) / 4U;
 1796              		.loc 1 908 0
 1797 0000 0332     		adds	r2, r2, #3
 1798              	.LVL134:
 1799 0002 9208     		lsrs	r2, r2, #2
 1800              	.LVL135:
 909:Drivers/STM32F4xx_HAL_Driver/Src/stm32f4xx_ll_usb.c ****   
 910:Drivers/STM32F4xx_HAL_Driver/Src/stm32f4xx_ll_usb.c ****   for ( i = 0U; i < count32b; i++, dest += 4U )
 1801              		.loc 1 910 0
 1802 0004 0023     		movs	r3, #0
 1803              	.LVL136:
 1804 0006 9342     		cmp	r3, r2
ARM GAS  C:\Users\Student\AppData\Local\Temp\cctYr88L.s 			page 50


 1805 0008 0CD2     		bcs	.L147
 906:Drivers/STM32F4xx_HAL_Driver/Src/stm32f4xx_ll_usb.c ****   uint32_t i=0U;
 1806              		.loc 1 906 0
 1807 000a 10B4     		push	{r4}
 1808              	.LCFI28:
 1809              		.cfi_def_cfa_offset 4
 1810              		.cfi_offset 4, -4
 1811              	.L142:
 911:Drivers/STM32F4xx_HAL_Driver/Src/stm32f4xx_ll_usb.c ****   {
 912:Drivers/STM32F4xx_HAL_Driver/Src/stm32f4xx_ll_usb.c ****     *(__packed uint32_t *)dest = USBx_DFIFO(0U);
 1812              		.loc 1 912 0 discriminator 3
 1813 000c 00F58054 		add	r4, r0, #4096
 1814 0010 2468     		ldr	r4, [r4]
 1815 0012 41F8044B 		str	r4, [r1], #4
 1816              	.LVL137:
 910:Drivers/STM32F4xx_HAL_Driver/Src/stm32f4xx_ll_usb.c ****   {
 1817              		.loc 1 910 0 discriminator 3
 1818 0016 0133     		adds	r3, r3, #1
 1819              	.LVL138:
 1820 0018 9342     		cmp	r3, r2
 1821 001a F7D3     		bcc	.L142
 913:Drivers/STM32F4xx_HAL_Driver/Src/stm32f4xx_ll_usb.c ****     
 914:Drivers/STM32F4xx_HAL_Driver/Src/stm32f4xx_ll_usb.c ****   }
 915:Drivers/STM32F4xx_HAL_Driver/Src/stm32f4xx_ll_usb.c ****   return ((void *)dest);
 916:Drivers/STM32F4xx_HAL_Driver/Src/stm32f4xx_ll_usb.c **** }
 1822              		.loc 1 916 0
 1823 001c 0846     		mov	r0, r1
 1824              	.LVL139:
 1825 001e 5DF8044B 		ldr	r4, [sp], #4
 1826              	.LCFI29:
 1827              		.cfi_restore 4
 1828              		.cfi_def_cfa_offset 0
 1829 0022 7047     		bx	lr
 1830              	.LVL140:
 1831              	.L147:
 1832 0024 0846     		mov	r0, r1
 1833              	.LVL141:
 1834 0026 7047     		bx	lr
 1835              		.cfi_endproc
 1836              	.LFE140:
 1838              		.section	.text.USB_EPSetStall,"ax",%progbits
 1839              		.align	1
 1840              		.global	USB_EPSetStall
 1841              		.syntax unified
 1842              		.thumb
 1843              		.thumb_func
 1844              		.fpu fpv4-sp-d16
 1846              	USB_EPSetStall:
 1847              	.LFB141:
 917:Drivers/STM32F4xx_HAL_Driver/Src/stm32f4xx_ll_usb.c **** 
 918:Drivers/STM32F4xx_HAL_Driver/Src/stm32f4xx_ll_usb.c **** /**
 919:Drivers/STM32F4xx_HAL_Driver/Src/stm32f4xx_ll_usb.c ****   * @brief  USB_EPSetStall : set a stall condition over an EP
 920:Drivers/STM32F4xx_HAL_Driver/Src/stm32f4xx_ll_usb.c ****   * @param  USBx  Selected device
 921:Drivers/STM32F4xx_HAL_Driver/Src/stm32f4xx_ll_usb.c ****   * @param  ep pointer to endpoint structure   
 922:Drivers/STM32F4xx_HAL_Driver/Src/stm32f4xx_ll_usb.c ****   * @retval HAL status
 923:Drivers/STM32F4xx_HAL_Driver/Src/stm32f4xx_ll_usb.c ****   */
 924:Drivers/STM32F4xx_HAL_Driver/Src/stm32f4xx_ll_usb.c **** HAL_StatusTypeDef USB_EPSetStall(USB_OTG_GlobalTypeDef *USBx , USB_OTG_EPTypeDef *ep)
ARM GAS  C:\Users\Student\AppData\Local\Temp\cctYr88L.s 			page 51


 925:Drivers/STM32F4xx_HAL_Driver/Src/stm32f4xx_ll_usb.c **** {
 1848              		.loc 1 925 0
 1849              		.cfi_startproc
 1850              		@ args = 0, pretend = 0, frame = 0
 1851              		@ frame_needed = 0, uses_anonymous_args = 0
 1852              		@ link register save eliminated.
 1853              	.LVL142:
 926:Drivers/STM32F4xx_HAL_Driver/Src/stm32f4xx_ll_usb.c ****   if (ep->is_in == 1U)
 1854              		.loc 1 926 0
 1855 0000 4B78     		ldrb	r3, [r1, #1]	@ zero_extendqisi2
 1856 0002 012B     		cmp	r3, #1
 1857 0004 17D0     		beq	.L153
 927:Drivers/STM32F4xx_HAL_Driver/Src/stm32f4xx_ll_usb.c ****   {
 928:Drivers/STM32F4xx_HAL_Driver/Src/stm32f4xx_ll_usb.c ****     if (((USBx_INEP(ep->num)->DIEPCTL) & USB_OTG_DIEPCTL_EPENA) == 0U)
 929:Drivers/STM32F4xx_HAL_Driver/Src/stm32f4xx_ll_usb.c ****     {
 930:Drivers/STM32F4xx_HAL_Driver/Src/stm32f4xx_ll_usb.c ****       USBx_INEP(ep->num)->DIEPCTL &= ~(USB_OTG_DIEPCTL_EPDIS); 
 931:Drivers/STM32F4xx_HAL_Driver/Src/stm32f4xx_ll_usb.c ****     } 
 932:Drivers/STM32F4xx_HAL_Driver/Src/stm32f4xx_ll_usb.c ****     USBx_INEP(ep->num)->DIEPCTL |= USB_OTG_DIEPCTL_STALL;
 933:Drivers/STM32F4xx_HAL_Driver/Src/stm32f4xx_ll_usb.c ****   }
 934:Drivers/STM32F4xx_HAL_Driver/Src/stm32f4xx_ll_usb.c ****   else
 935:Drivers/STM32F4xx_HAL_Driver/Src/stm32f4xx_ll_usb.c ****   {
 936:Drivers/STM32F4xx_HAL_Driver/Src/stm32f4xx_ll_usb.c ****     if (((USBx_OUTEP(ep->num)->DOEPCTL) & USB_OTG_DOEPCTL_EPENA) == 0U)
 1858              		.loc 1 936 0
 1859 0006 0B78     		ldrb	r3, [r1]	@ zero_extendqisi2
 1860 0008 00EB4313 		add	r3, r0, r3, lsl #5
 1861 000c D3F8002B 		ldr	r2, [r3, #2816]
 1862 0010 002A     		cmp	r2, #0
 1863 0012 05DB     		blt	.L152
 937:Drivers/STM32F4xx_HAL_Driver/Src/stm32f4xx_ll_usb.c ****     {
 938:Drivers/STM32F4xx_HAL_Driver/Src/stm32f4xx_ll_usb.c ****       USBx_OUTEP(ep->num)->DOEPCTL &= ~(USB_OTG_DOEPCTL_EPDIS); 
 1864              		.loc 1 938 0
 1865 0014 D3F8002B 		ldr	r2, [r3, #2816]
 1866 0018 22F08042 		bic	r2, r2, #1073741824
 1867 001c C3F8002B 		str	r2, [r3, #2816]
 1868              	.L152:
 939:Drivers/STM32F4xx_HAL_Driver/Src/stm32f4xx_ll_usb.c ****     } 
 940:Drivers/STM32F4xx_HAL_Driver/Src/stm32f4xx_ll_usb.c ****     USBx_OUTEP(ep->num)->DOEPCTL |= USB_OTG_DOEPCTL_STALL;
 1869              		.loc 1 940 0
 1870 0020 0B78     		ldrb	r3, [r1]	@ zero_extendqisi2
 1871 0022 00EB4310 		add	r0, r0, r3, lsl #5
 1872              	.LVL143:
 1873 0026 D0F8003B 		ldr	r3, [r0, #2816]
 1874 002a 43F40013 		orr	r3, r3, #2097152
 1875 002e C0F8003B 		str	r3, [r0, #2816]
 1876              	.L151:
 941:Drivers/STM32F4xx_HAL_Driver/Src/stm32f4xx_ll_usb.c ****   }
 942:Drivers/STM32F4xx_HAL_Driver/Src/stm32f4xx_ll_usb.c ****   return HAL_OK;
 943:Drivers/STM32F4xx_HAL_Driver/Src/stm32f4xx_ll_usb.c **** }
 1877              		.loc 1 943 0
 1878 0032 0020     		movs	r0, #0
 1879 0034 7047     		bx	lr
 1880              	.LVL144:
 1881              	.L153:
 928:Drivers/STM32F4xx_HAL_Driver/Src/stm32f4xx_ll_usb.c ****     {
 1882              		.loc 1 928 0
 1883 0036 0B78     		ldrb	r3, [r1]	@ zero_extendqisi2
 1884 0038 00EB4313 		add	r3, r0, r3, lsl #5
ARM GAS  C:\Users\Student\AppData\Local\Temp\cctYr88L.s 			page 52


 1885 003c D3F80029 		ldr	r2, [r3, #2304]
 1886 0040 002A     		cmp	r2, #0
 1887 0042 05DB     		blt	.L150
 930:Drivers/STM32F4xx_HAL_Driver/Src/stm32f4xx_ll_usb.c ****     } 
 1888              		.loc 1 930 0
 1889 0044 D3F80029 		ldr	r2, [r3, #2304]
 1890 0048 22F08042 		bic	r2, r2, #1073741824
 1891 004c C3F80029 		str	r2, [r3, #2304]
 1892              	.L150:
 932:Drivers/STM32F4xx_HAL_Driver/Src/stm32f4xx_ll_usb.c ****   }
 1893              		.loc 1 932 0
 1894 0050 0B78     		ldrb	r3, [r1]	@ zero_extendqisi2
 1895 0052 00EB4310 		add	r0, r0, r3, lsl #5
 1896              	.LVL145:
 1897 0056 D0F80039 		ldr	r3, [r0, #2304]
 1898 005a 43F40013 		orr	r3, r3, #2097152
 1899 005e C0F80039 		str	r3, [r0, #2304]
 1900 0062 E6E7     		b	.L151
 1901              		.cfi_endproc
 1902              	.LFE141:
 1904              		.section	.text.USB_EPClearStall,"ax",%progbits
 1905              		.align	1
 1906              		.global	USB_EPClearStall
 1907              		.syntax unified
 1908              		.thumb
 1909              		.thumb_func
 1910              		.fpu fpv4-sp-d16
 1912              	USB_EPClearStall:
 1913              	.LFB142:
 944:Drivers/STM32F4xx_HAL_Driver/Src/stm32f4xx_ll_usb.c **** 
 945:Drivers/STM32F4xx_HAL_Driver/Src/stm32f4xx_ll_usb.c **** 
 946:Drivers/STM32F4xx_HAL_Driver/Src/stm32f4xx_ll_usb.c **** /**
 947:Drivers/STM32F4xx_HAL_Driver/Src/stm32f4xx_ll_usb.c ****   * @brief  USB_EPClearStall : Clear a stall condition over an EP
 948:Drivers/STM32F4xx_HAL_Driver/Src/stm32f4xx_ll_usb.c ****   * @param  USBx  Selected device
 949:Drivers/STM32F4xx_HAL_Driver/Src/stm32f4xx_ll_usb.c ****   * @param  ep pointer to endpoint structure   
 950:Drivers/STM32F4xx_HAL_Driver/Src/stm32f4xx_ll_usb.c ****   * @retval HAL status
 951:Drivers/STM32F4xx_HAL_Driver/Src/stm32f4xx_ll_usb.c ****   */
 952:Drivers/STM32F4xx_HAL_Driver/Src/stm32f4xx_ll_usb.c **** HAL_StatusTypeDef USB_EPClearStall(USB_OTG_GlobalTypeDef *USBx, USB_OTG_EPTypeDef *ep)
 953:Drivers/STM32F4xx_HAL_Driver/Src/stm32f4xx_ll_usb.c **** {
 1914              		.loc 1 953 0
 1915              		.cfi_startproc
 1916              		@ args = 0, pretend = 0, frame = 0
 1917              		@ frame_needed = 0, uses_anonymous_args = 0
 1918              		@ link register save eliminated.
 1919              	.LVL146:
 954:Drivers/STM32F4xx_HAL_Driver/Src/stm32f4xx_ll_usb.c ****   if (ep->is_in == 1U)
 1920              		.loc 1 954 0
 1921 0000 4B78     		ldrb	r3, [r1, #1]	@ zero_extendqisi2
 1922 0002 012B     		cmp	r3, #1
 1923 0004 0FD0     		beq	.L157
 955:Drivers/STM32F4xx_HAL_Driver/Src/stm32f4xx_ll_usb.c ****   {
 956:Drivers/STM32F4xx_HAL_Driver/Src/stm32f4xx_ll_usb.c ****     USBx_INEP(ep->num)->DIEPCTL &= ~USB_OTG_DIEPCTL_STALL;
 957:Drivers/STM32F4xx_HAL_Driver/Src/stm32f4xx_ll_usb.c ****     if (ep->type == EP_TYPE_INTR || ep->type == EP_TYPE_BULK)
 958:Drivers/STM32F4xx_HAL_Driver/Src/stm32f4xx_ll_usb.c ****     {
 959:Drivers/STM32F4xx_HAL_Driver/Src/stm32f4xx_ll_usb.c ****        USBx_INEP(ep->num)->DIEPCTL |= USB_OTG_DIEPCTL_SD0PID_SEVNFRM; /* DATA0 */
 960:Drivers/STM32F4xx_HAL_Driver/Src/stm32f4xx_ll_usb.c ****     }    
 961:Drivers/STM32F4xx_HAL_Driver/Src/stm32f4xx_ll_usb.c ****   }
ARM GAS  C:\Users\Student\AppData\Local\Temp\cctYr88L.s 			page 53


 962:Drivers/STM32F4xx_HAL_Driver/Src/stm32f4xx_ll_usb.c ****   else
 963:Drivers/STM32F4xx_HAL_Driver/Src/stm32f4xx_ll_usb.c ****   {
 964:Drivers/STM32F4xx_HAL_Driver/Src/stm32f4xx_ll_usb.c ****     USBx_OUTEP(ep->num)->DOEPCTL &= ~USB_OTG_DOEPCTL_STALL;
 1924              		.loc 1 964 0
 1925 0006 0B78     		ldrb	r3, [r1]	@ zero_extendqisi2
 1926 0008 00EB4313 		add	r3, r0, r3, lsl #5
 1927 000c D3F8002B 		ldr	r2, [r3, #2816]
 1928 0010 22F40012 		bic	r2, r2, #2097152
 1929 0014 C3F8002B 		str	r2, [r3, #2816]
 965:Drivers/STM32F4xx_HAL_Driver/Src/stm32f4xx_ll_usb.c ****     if (ep->type == EP_TYPE_INTR || ep->type == EP_TYPE_BULK)
 1930              		.loc 1 965 0
 1931 0018 CB78     		ldrb	r3, [r1, #3]	@ zero_extendqisi2
 1932 001a 023B     		subs	r3, r3, #2
 1933 001c DBB2     		uxtb	r3, r3
 1934 001e 012B     		cmp	r3, #1
 1935 0020 19D9     		bls	.L158
 1936              	.LVL147:
 1937              	.L156:
 966:Drivers/STM32F4xx_HAL_Driver/Src/stm32f4xx_ll_usb.c ****     {
 967:Drivers/STM32F4xx_HAL_Driver/Src/stm32f4xx_ll_usb.c ****       USBx_OUTEP(ep->num)->DOEPCTL |= USB_OTG_DOEPCTL_SD0PID_SEVNFRM; /* DATA0 */
 968:Drivers/STM32F4xx_HAL_Driver/Src/stm32f4xx_ll_usb.c ****     }    
 969:Drivers/STM32F4xx_HAL_Driver/Src/stm32f4xx_ll_usb.c ****   }
 970:Drivers/STM32F4xx_HAL_Driver/Src/stm32f4xx_ll_usb.c ****   return HAL_OK;
 971:Drivers/STM32F4xx_HAL_Driver/Src/stm32f4xx_ll_usb.c **** }
 1938              		.loc 1 971 0
 1939 0022 0020     		movs	r0, #0
 1940 0024 7047     		bx	lr
 1941              	.LVL148:
 1942              	.L157:
 956:Drivers/STM32F4xx_HAL_Driver/Src/stm32f4xx_ll_usb.c ****     if (ep->type == EP_TYPE_INTR || ep->type == EP_TYPE_BULK)
 1943              		.loc 1 956 0
 1944 0026 0B78     		ldrb	r3, [r1]	@ zero_extendqisi2
 1945 0028 00EB4313 		add	r3, r0, r3, lsl #5
 1946 002c D3F80029 		ldr	r2, [r3, #2304]
 1947 0030 22F40012 		bic	r2, r2, #2097152
 1948 0034 C3F80029 		str	r2, [r3, #2304]
 957:Drivers/STM32F4xx_HAL_Driver/Src/stm32f4xx_ll_usb.c ****     {
 1949              		.loc 1 957 0
 1950 0038 CB78     		ldrb	r3, [r1, #3]	@ zero_extendqisi2
 1951 003a 023B     		subs	r3, r3, #2
 1952 003c DBB2     		uxtb	r3, r3
 1953 003e 012B     		cmp	r3, #1
 1954 0040 EFD8     		bhi	.L156
 959:Drivers/STM32F4xx_HAL_Driver/Src/stm32f4xx_ll_usb.c ****     }    
 1955              		.loc 1 959 0
 1956 0042 0B78     		ldrb	r3, [r1]	@ zero_extendqisi2
 1957 0044 00EB4310 		add	r0, r0, r3, lsl #5
 1958              	.LVL149:
 1959 0048 D0F80039 		ldr	r3, [r0, #2304]
 1960 004c 43F08053 		orr	r3, r3, #268435456
 1961 0050 C0F80039 		str	r3, [r0, #2304]
 1962 0054 E5E7     		b	.L156
 1963              	.LVL150:
 1964              	.L158:
 967:Drivers/STM32F4xx_HAL_Driver/Src/stm32f4xx_ll_usb.c ****     }    
 1965              		.loc 1 967 0
 1966 0056 0B78     		ldrb	r3, [r1]	@ zero_extendqisi2
ARM GAS  C:\Users\Student\AppData\Local\Temp\cctYr88L.s 			page 54


 1967 0058 00EB4310 		add	r0, r0, r3, lsl #5
 1968              	.LVL151:
 1969 005c D0F8003B 		ldr	r3, [r0, #2816]
 1970 0060 43F08053 		orr	r3, r3, #268435456
 1971 0064 C0F8003B 		str	r3, [r0, #2816]
 1972 0068 DBE7     		b	.L156
 1973              		.cfi_endproc
 1974              	.LFE142:
 1976              		.section	.text.USB_StopDevice,"ax",%progbits
 1977              		.align	1
 1978              		.global	USB_StopDevice
 1979              		.syntax unified
 1980              		.thumb
 1981              		.thumb_func
 1982              		.fpu fpv4-sp-d16
 1984              	USB_StopDevice:
 1985              	.LFB143:
 972:Drivers/STM32F4xx_HAL_Driver/Src/stm32f4xx_ll_usb.c **** 
 973:Drivers/STM32F4xx_HAL_Driver/Src/stm32f4xx_ll_usb.c **** /**
 974:Drivers/STM32F4xx_HAL_Driver/Src/stm32f4xx_ll_usb.c ****   * @brief  USB_StopDevice : Stop the usb device mode
 975:Drivers/STM32F4xx_HAL_Driver/Src/stm32f4xx_ll_usb.c ****   * @param  USBx  Selected device
 976:Drivers/STM32F4xx_HAL_Driver/Src/stm32f4xx_ll_usb.c ****   * @retval HAL status
 977:Drivers/STM32F4xx_HAL_Driver/Src/stm32f4xx_ll_usb.c ****   */
 978:Drivers/STM32F4xx_HAL_Driver/Src/stm32f4xx_ll_usb.c **** HAL_StatusTypeDef USB_StopDevice(USB_OTG_GlobalTypeDef *USBx)
 979:Drivers/STM32F4xx_HAL_Driver/Src/stm32f4xx_ll_usb.c **** {
 1986              		.loc 1 979 0
 1987              		.cfi_startproc
 1988              		@ args = 0, pretend = 0, frame = 0
 1989              		@ frame_needed = 0, uses_anonymous_args = 0
 1990              	.LVL152:
 1991 0000 38B5     		push	{r3, r4, r5, lr}
 1992              	.LCFI30:
 1993              		.cfi_def_cfa_offset 16
 1994              		.cfi_offset 3, -16
 1995              		.cfi_offset 4, -12
 1996              		.cfi_offset 5, -8
 1997              		.cfi_offset 14, -4
 1998 0002 0446     		mov	r4, r0
 1999              	.LVL153:
 980:Drivers/STM32F4xx_HAL_Driver/Src/stm32f4xx_ll_usb.c ****   uint32_t i;
 981:Drivers/STM32F4xx_HAL_Driver/Src/stm32f4xx_ll_usb.c ****   
 982:Drivers/STM32F4xx_HAL_Driver/Src/stm32f4xx_ll_usb.c ****   /* Clear Pending interrupt */
 983:Drivers/STM32F4xx_HAL_Driver/Src/stm32f4xx_ll_usb.c ****   for (i = 0U; i < 15U ; i++)
 2000              		.loc 1 983 0
 2001 0004 0022     		movs	r2, #0
 2002 0006 07E0     		b	.L160
 2003              	.LVL154:
 2004              	.L161:
 984:Drivers/STM32F4xx_HAL_Driver/Src/stm32f4xx_ll_usb.c ****   {
 985:Drivers/STM32F4xx_HAL_Driver/Src/stm32f4xx_ll_usb.c ****     USBx_INEP(i)->DIEPINT  = 0xFFU;
 2005              		.loc 1 985 0 discriminator 3
 2006 0008 04EB4213 		add	r3, r4, r2, lsl #5
 2007 000c FF21     		movs	r1, #255
 2008 000e C3F80819 		str	r1, [r3, #2312]
 986:Drivers/STM32F4xx_HAL_Driver/Src/stm32f4xx_ll_usb.c ****     USBx_OUTEP(i)->DOEPINT  = 0xFFU;
 2009              		.loc 1 986 0 discriminator 3
 2010 0012 C3F8081B 		str	r1, [r3, #2824]
ARM GAS  C:\Users\Student\AppData\Local\Temp\cctYr88L.s 			page 55


 983:Drivers/STM32F4xx_HAL_Driver/Src/stm32f4xx_ll_usb.c ****   {
 2011              		.loc 1 983 0 discriminator 3
 2012 0016 0132     		adds	r2, r2, #1
 2013              	.LVL155:
 2014              	.L160:
 983:Drivers/STM32F4xx_HAL_Driver/Src/stm32f4xx_ll_usb.c ****   {
 2015              		.loc 1 983 0 is_stmt 0 discriminator 1
 2016 0018 0E2A     		cmp	r2, #14
 2017 001a F5D9     		bls	.L161
 987:Drivers/STM32F4xx_HAL_Driver/Src/stm32f4xx_ll_usb.c ****   }
 988:Drivers/STM32F4xx_HAL_Driver/Src/stm32f4xx_ll_usb.c ****   USBx_DEVICE->DAINT = 0xFFFFFFFFU;
 2018              		.loc 1 988 0 is_stmt 1
 2019 001c 4FF0FF32 		mov	r2, #-1
 2020              	.LVL156:
 2021 0020 C4F81828 		str	r2, [r4, #2072]
 989:Drivers/STM32F4xx_HAL_Driver/Src/stm32f4xx_ll_usb.c ****   
 990:Drivers/STM32F4xx_HAL_Driver/Src/stm32f4xx_ll_usb.c ****   /* Clear interrupt masks */
 991:Drivers/STM32F4xx_HAL_Driver/Src/stm32f4xx_ll_usb.c ****   USBx_DEVICE->DIEPMSK  = 0U;
 2022              		.loc 1 991 0
 2023 0024 0025     		movs	r5, #0
 2024 0026 C4F81058 		str	r5, [r4, #2064]
 992:Drivers/STM32F4xx_HAL_Driver/Src/stm32f4xx_ll_usb.c ****   USBx_DEVICE->DOEPMSK  = 0U;
 2025              		.loc 1 992 0
 2026 002a C4F81458 		str	r5, [r4, #2068]
 993:Drivers/STM32F4xx_HAL_Driver/Src/stm32f4xx_ll_usb.c ****   USBx_DEVICE->DAINTMSK = 0U;
 2027              		.loc 1 993 0
 2028 002e C4F81C58 		str	r5, [r4, #2076]
 994:Drivers/STM32F4xx_HAL_Driver/Src/stm32f4xx_ll_usb.c ****   
 995:Drivers/STM32F4xx_HAL_Driver/Src/stm32f4xx_ll_usb.c ****   /* Flush the FIFO */
 996:Drivers/STM32F4xx_HAL_Driver/Src/stm32f4xx_ll_usb.c ****   USB_FlushRxFifo(USBx);
 2029              		.loc 1 996 0
 2030 0032 2046     		mov	r0, r4
 2031              	.LVL157:
 2032 0034 FFF7FEFF 		bl	USB_FlushRxFifo
 2033              	.LVL158:
 997:Drivers/STM32F4xx_HAL_Driver/Src/stm32f4xx_ll_usb.c ****   USB_FlushTxFifo(USBx ,  0x10U);  
 2034              		.loc 1 997 0
 2035 0038 1021     		movs	r1, #16
 2036 003a 2046     		mov	r0, r4
 2037 003c FFF7FEFF 		bl	USB_FlushTxFifo
 2038              	.LVL159:
 998:Drivers/STM32F4xx_HAL_Driver/Src/stm32f4xx_ll_usb.c ****   
 999:Drivers/STM32F4xx_HAL_Driver/Src/stm32f4xx_ll_usb.c ****   return HAL_OK;
1000:Drivers/STM32F4xx_HAL_Driver/Src/stm32f4xx_ll_usb.c **** }
 2039              		.loc 1 1000 0
 2040 0040 2846     		mov	r0, r5
 2041 0042 38BD     		pop	{r3, r4, r5, pc}
 2042              		.cfi_endproc
 2043              	.LFE143:
 2045              		.section	.text.USB_SetDevAddress,"ax",%progbits
 2046              		.align	1
 2047              		.global	USB_SetDevAddress
 2048              		.syntax unified
 2049              		.thumb
 2050              		.thumb_func
 2051              		.fpu fpv4-sp-d16
 2053              	USB_SetDevAddress:
ARM GAS  C:\Users\Student\AppData\Local\Temp\cctYr88L.s 			page 56


 2054              	.LFB144:
1001:Drivers/STM32F4xx_HAL_Driver/Src/stm32f4xx_ll_usb.c **** 
1002:Drivers/STM32F4xx_HAL_Driver/Src/stm32f4xx_ll_usb.c **** /**
1003:Drivers/STM32F4xx_HAL_Driver/Src/stm32f4xx_ll_usb.c ****   * @brief  USB_SetDevAddress : Stop the usb device mode
1004:Drivers/STM32F4xx_HAL_Driver/Src/stm32f4xx_ll_usb.c ****   * @param  USBx  Selected device
1005:Drivers/STM32F4xx_HAL_Driver/Src/stm32f4xx_ll_usb.c ****   * @param  address  new device address to be assigned
1006:Drivers/STM32F4xx_HAL_Driver/Src/stm32f4xx_ll_usb.c ****   *          This parameter can be a value from 0 to 255
1007:Drivers/STM32F4xx_HAL_Driver/Src/stm32f4xx_ll_usb.c ****   * @retval HAL status
1008:Drivers/STM32F4xx_HAL_Driver/Src/stm32f4xx_ll_usb.c ****   */
1009:Drivers/STM32F4xx_HAL_Driver/Src/stm32f4xx_ll_usb.c **** HAL_StatusTypeDef  USB_SetDevAddress (USB_OTG_GlobalTypeDef *USBx, uint8_t address)
1010:Drivers/STM32F4xx_HAL_Driver/Src/stm32f4xx_ll_usb.c **** {
 2055              		.loc 1 1010 0
 2056              		.cfi_startproc
 2057              		@ args = 0, pretend = 0, frame = 0
 2058              		@ frame_needed = 0, uses_anonymous_args = 0
 2059              		@ link register save eliminated.
 2060              	.LVL160:
1011:Drivers/STM32F4xx_HAL_Driver/Src/stm32f4xx_ll_usb.c ****   USBx_DEVICE->DCFG &= ~ (USB_OTG_DCFG_DAD);
 2061              		.loc 1 1011 0
 2062 0000 D0F80038 		ldr	r3, [r0, #2048]
 2063 0004 23F4FE63 		bic	r3, r3, #2032
 2064 0008 C0F80038 		str	r3, [r0, #2048]
1012:Drivers/STM32F4xx_HAL_Driver/Src/stm32f4xx_ll_usb.c ****   USBx_DEVICE->DCFG |= (address << 4U) & USB_OTG_DCFG_DAD ;
 2065              		.loc 1 1012 0
 2066 000c D0F80038 		ldr	r3, [r0, #2048]
 2067 0010 0901     		lsls	r1, r1, #4
 2068              	.LVL161:
 2069 0012 01F4FE61 		and	r1, r1, #2032
 2070 0016 0B43     		orrs	r3, r3, r1
 2071 0018 C0F80038 		str	r3, [r0, #2048]
1013:Drivers/STM32F4xx_HAL_Driver/Src/stm32f4xx_ll_usb.c ****   
1014:Drivers/STM32F4xx_HAL_Driver/Src/stm32f4xx_ll_usb.c ****   return HAL_OK;  
1015:Drivers/STM32F4xx_HAL_Driver/Src/stm32f4xx_ll_usb.c **** }
 2072              		.loc 1 1015 0
 2073 001c 0020     		movs	r0, #0
 2074              	.LVL162:
 2075 001e 7047     		bx	lr
 2076              		.cfi_endproc
 2077              	.LFE144:
 2079              		.section	.text.USB_DevConnect,"ax",%progbits
 2080              		.align	1
 2081              		.global	USB_DevConnect
 2082              		.syntax unified
 2083              		.thumb
 2084              		.thumb_func
 2085              		.fpu fpv4-sp-d16
 2087              	USB_DevConnect:
 2088              	.LFB145:
1016:Drivers/STM32F4xx_HAL_Driver/Src/stm32f4xx_ll_usb.c **** 
1017:Drivers/STM32F4xx_HAL_Driver/Src/stm32f4xx_ll_usb.c **** /**
1018:Drivers/STM32F4xx_HAL_Driver/Src/stm32f4xx_ll_usb.c ****   * @brief  USB_DevConnect : Connect the USB device by enabling the pull-up/pull-down
1019:Drivers/STM32F4xx_HAL_Driver/Src/stm32f4xx_ll_usb.c ****   * @param  USBx  Selected device
1020:Drivers/STM32F4xx_HAL_Driver/Src/stm32f4xx_ll_usb.c ****   * @retval HAL status
1021:Drivers/STM32F4xx_HAL_Driver/Src/stm32f4xx_ll_usb.c ****   */
1022:Drivers/STM32F4xx_HAL_Driver/Src/stm32f4xx_ll_usb.c **** HAL_StatusTypeDef  USB_DevConnect (USB_OTG_GlobalTypeDef *USBx)
1023:Drivers/STM32F4xx_HAL_Driver/Src/stm32f4xx_ll_usb.c **** {
 2089              		.loc 1 1023 0
ARM GAS  C:\Users\Student\AppData\Local\Temp\cctYr88L.s 			page 57


 2090              		.cfi_startproc
 2091              		@ args = 0, pretend = 0, frame = 0
 2092              		@ frame_needed = 0, uses_anonymous_args = 0
 2093              	.LVL163:
 2094 0000 08B5     		push	{r3, lr}
 2095              	.LCFI31:
 2096              		.cfi_def_cfa_offset 8
 2097              		.cfi_offset 3, -8
 2098              		.cfi_offset 14, -4
1024:Drivers/STM32F4xx_HAL_Driver/Src/stm32f4xx_ll_usb.c ****   USBx_DEVICE->DCTL &= ~USB_OTG_DCTL_SDIS ;
 2099              		.loc 1 1024 0
 2100 0002 D0F80438 		ldr	r3, [r0, #2052]
 2101 0006 23F00203 		bic	r3, r3, #2
 2102 000a C0F80438 		str	r3, [r0, #2052]
1025:Drivers/STM32F4xx_HAL_Driver/Src/stm32f4xx_ll_usb.c ****   HAL_Delay(3U);
 2103              		.loc 1 1025 0
 2104 000e 0320     		movs	r0, #3
 2105              	.LVL164:
 2106 0010 FFF7FEFF 		bl	HAL_Delay
 2107              	.LVL165:
1026:Drivers/STM32F4xx_HAL_Driver/Src/stm32f4xx_ll_usb.c ****   
1027:Drivers/STM32F4xx_HAL_Driver/Src/stm32f4xx_ll_usb.c ****   return HAL_OK;  
1028:Drivers/STM32F4xx_HAL_Driver/Src/stm32f4xx_ll_usb.c **** }
 2108              		.loc 1 1028 0
 2109 0014 0020     		movs	r0, #0
 2110 0016 08BD     		pop	{r3, pc}
 2111              		.cfi_endproc
 2112              	.LFE145:
 2114              		.section	.text.USB_DevDisconnect,"ax",%progbits
 2115              		.align	1
 2116              		.global	USB_DevDisconnect
 2117              		.syntax unified
 2118              		.thumb
 2119              		.thumb_func
 2120              		.fpu fpv4-sp-d16
 2122              	USB_DevDisconnect:
 2123              	.LFB146:
1029:Drivers/STM32F4xx_HAL_Driver/Src/stm32f4xx_ll_usb.c **** 
1030:Drivers/STM32F4xx_HAL_Driver/Src/stm32f4xx_ll_usb.c **** /**
1031:Drivers/STM32F4xx_HAL_Driver/Src/stm32f4xx_ll_usb.c ****   * @brief  USB_DevDisconnect : Disconnect the USB device by disabling the pull-up/pull-down
1032:Drivers/STM32F4xx_HAL_Driver/Src/stm32f4xx_ll_usb.c ****   * @param  USBx  Selected device
1033:Drivers/STM32F4xx_HAL_Driver/Src/stm32f4xx_ll_usb.c ****   * @retval HAL status
1034:Drivers/STM32F4xx_HAL_Driver/Src/stm32f4xx_ll_usb.c ****   */
1035:Drivers/STM32F4xx_HAL_Driver/Src/stm32f4xx_ll_usb.c **** HAL_StatusTypeDef  USB_DevDisconnect (USB_OTG_GlobalTypeDef *USBx)
1036:Drivers/STM32F4xx_HAL_Driver/Src/stm32f4xx_ll_usb.c **** {
 2124              		.loc 1 1036 0
 2125              		.cfi_startproc
 2126              		@ args = 0, pretend = 0, frame = 0
 2127              		@ frame_needed = 0, uses_anonymous_args = 0
 2128              	.LVL166:
 2129 0000 08B5     		push	{r3, lr}
 2130              	.LCFI32:
 2131              		.cfi_def_cfa_offset 8
 2132              		.cfi_offset 3, -8
 2133              		.cfi_offset 14, -4
1037:Drivers/STM32F4xx_HAL_Driver/Src/stm32f4xx_ll_usb.c ****   USBx_DEVICE->DCTL |= USB_OTG_DCTL_SDIS ;
 2134              		.loc 1 1037 0
ARM GAS  C:\Users\Student\AppData\Local\Temp\cctYr88L.s 			page 58


 2135 0002 D0F80438 		ldr	r3, [r0, #2052]
 2136 0006 43F00203 		orr	r3, r3, #2
 2137 000a C0F80438 		str	r3, [r0, #2052]
1038:Drivers/STM32F4xx_HAL_Driver/Src/stm32f4xx_ll_usb.c ****   HAL_Delay(3U);
 2138              		.loc 1 1038 0
 2139 000e 0320     		movs	r0, #3
 2140              	.LVL167:
 2141 0010 FFF7FEFF 		bl	HAL_Delay
 2142              	.LVL168:
1039:Drivers/STM32F4xx_HAL_Driver/Src/stm32f4xx_ll_usb.c ****   
1040:Drivers/STM32F4xx_HAL_Driver/Src/stm32f4xx_ll_usb.c ****   return HAL_OK;  
1041:Drivers/STM32F4xx_HAL_Driver/Src/stm32f4xx_ll_usb.c **** }
 2143              		.loc 1 1041 0
 2144 0014 0020     		movs	r0, #0
 2145 0016 08BD     		pop	{r3, pc}
 2146              		.cfi_endproc
 2147              	.LFE146:
 2149              		.section	.text.USB_ReadInterrupts,"ax",%progbits
 2150              		.align	1
 2151              		.global	USB_ReadInterrupts
 2152              		.syntax unified
 2153              		.thumb
 2154              		.thumb_func
 2155              		.fpu fpv4-sp-d16
 2157              	USB_ReadInterrupts:
 2158              	.LFB147:
1042:Drivers/STM32F4xx_HAL_Driver/Src/stm32f4xx_ll_usb.c **** 
1043:Drivers/STM32F4xx_HAL_Driver/Src/stm32f4xx_ll_usb.c **** /**
1044:Drivers/STM32F4xx_HAL_Driver/Src/stm32f4xx_ll_usb.c ****   * @brief  USB_ReadInterrupts: return the global USB interrupt status
1045:Drivers/STM32F4xx_HAL_Driver/Src/stm32f4xx_ll_usb.c ****   * @param  USBx  Selected device
1046:Drivers/STM32F4xx_HAL_Driver/Src/stm32f4xx_ll_usb.c ****   * @retval HAL status
1047:Drivers/STM32F4xx_HAL_Driver/Src/stm32f4xx_ll_usb.c ****   */
1048:Drivers/STM32F4xx_HAL_Driver/Src/stm32f4xx_ll_usb.c **** uint32_t  USB_ReadInterrupts (USB_OTG_GlobalTypeDef *USBx)
1049:Drivers/STM32F4xx_HAL_Driver/Src/stm32f4xx_ll_usb.c **** {
 2159              		.loc 1 1049 0
 2160              		.cfi_startproc
 2161              		@ args = 0, pretend = 0, frame = 0
 2162              		@ frame_needed = 0, uses_anonymous_args = 0
 2163              		@ link register save eliminated.
 2164              	.LVL169:
1050:Drivers/STM32F4xx_HAL_Driver/Src/stm32f4xx_ll_usb.c ****   uint32_t v = 0U;
1051:Drivers/STM32F4xx_HAL_Driver/Src/stm32f4xx_ll_usb.c ****   
1052:Drivers/STM32F4xx_HAL_Driver/Src/stm32f4xx_ll_usb.c ****   v = USBx->GINTSTS;
 2165              		.loc 1 1052 0
 2166 0000 4269     		ldr	r2, [r0, #20]
 2167              	.LVL170:
1053:Drivers/STM32F4xx_HAL_Driver/Src/stm32f4xx_ll_usb.c ****   v &= USBx->GINTMSK;
 2168              		.loc 1 1053 0
 2169 0002 8069     		ldr	r0, [r0, #24]
 2170              	.LVL171:
1054:Drivers/STM32F4xx_HAL_Driver/Src/stm32f4xx_ll_usb.c ****   return v;  
1055:Drivers/STM32F4xx_HAL_Driver/Src/stm32f4xx_ll_usb.c **** }
 2171              		.loc 1 1055 0
 2172 0004 1040     		ands	r0, r0, r2
 2173              	.LVL172:
 2174 0006 7047     		bx	lr
 2175              		.cfi_endproc
ARM GAS  C:\Users\Student\AppData\Local\Temp\cctYr88L.s 			page 59


 2176              	.LFE147:
 2178              		.section	.text.USB_ReadDevAllOutEpInterrupt,"ax",%progbits
 2179              		.align	1
 2180              		.global	USB_ReadDevAllOutEpInterrupt
 2181              		.syntax unified
 2182              		.thumb
 2183              		.thumb_func
 2184              		.fpu fpv4-sp-d16
 2186              	USB_ReadDevAllOutEpInterrupt:
 2187              	.LFB148:
1056:Drivers/STM32F4xx_HAL_Driver/Src/stm32f4xx_ll_usb.c **** 
1057:Drivers/STM32F4xx_HAL_Driver/Src/stm32f4xx_ll_usb.c **** /**
1058:Drivers/STM32F4xx_HAL_Driver/Src/stm32f4xx_ll_usb.c ****   * @brief  USB_ReadDevAllOutEpInterrupt: return the USB device OUT endpoints interrupt status
1059:Drivers/STM32F4xx_HAL_Driver/Src/stm32f4xx_ll_usb.c ****   * @param  USBx  Selected device
1060:Drivers/STM32F4xx_HAL_Driver/Src/stm32f4xx_ll_usb.c ****   * @retval HAL status
1061:Drivers/STM32F4xx_HAL_Driver/Src/stm32f4xx_ll_usb.c ****   */
1062:Drivers/STM32F4xx_HAL_Driver/Src/stm32f4xx_ll_usb.c **** uint32_t USB_ReadDevAllOutEpInterrupt (USB_OTG_GlobalTypeDef *USBx)
1063:Drivers/STM32F4xx_HAL_Driver/Src/stm32f4xx_ll_usb.c **** {
 2188              		.loc 1 1063 0
 2189              		.cfi_startproc
 2190              		@ args = 0, pretend = 0, frame = 0
 2191              		@ frame_needed = 0, uses_anonymous_args = 0
 2192              		@ link register save eliminated.
 2193              	.LVL173:
1064:Drivers/STM32F4xx_HAL_Driver/Src/stm32f4xx_ll_usb.c ****   uint32_t v;
1065:Drivers/STM32F4xx_HAL_Driver/Src/stm32f4xx_ll_usb.c ****   v  = USBx_DEVICE->DAINT;
 2194              		.loc 1 1065 0
 2195 0000 D0F81838 		ldr	r3, [r0, #2072]
 2196 0004 00F50060 		add	r0, r0, #2048
 2197              	.LVL174:
1066:Drivers/STM32F4xx_HAL_Driver/Src/stm32f4xx_ll_usb.c ****   v &= USBx_DEVICE->DAINTMSK;
 2198              		.loc 1 1066 0
 2199 0008 C069     		ldr	r0, [r0, #28]
 2200              	.LVL175:
 2201 000a 1840     		ands	r0, r0, r3
 2202              	.LVL176:
1067:Drivers/STM32F4xx_HAL_Driver/Src/stm32f4xx_ll_usb.c ****   return ((v & 0xffff0000U) >> 16U);
1068:Drivers/STM32F4xx_HAL_Driver/Src/stm32f4xx_ll_usb.c **** }
 2203              		.loc 1 1068 0
 2204 000c 000C     		lsrs	r0, r0, #16
 2205              	.LVL177:
 2206 000e 7047     		bx	lr
 2207              		.cfi_endproc
 2208              	.LFE148:
 2210              		.section	.text.USB_ReadDevAllInEpInterrupt,"ax",%progbits
 2211              		.align	1
 2212              		.global	USB_ReadDevAllInEpInterrupt
 2213              		.syntax unified
 2214              		.thumb
 2215              		.thumb_func
 2216              		.fpu fpv4-sp-d16
 2218              	USB_ReadDevAllInEpInterrupt:
 2219              	.LFB149:
1069:Drivers/STM32F4xx_HAL_Driver/Src/stm32f4xx_ll_usb.c **** 
1070:Drivers/STM32F4xx_HAL_Driver/Src/stm32f4xx_ll_usb.c **** /**
1071:Drivers/STM32F4xx_HAL_Driver/Src/stm32f4xx_ll_usb.c ****   * @brief  USB_ReadDevAllInEpInterrupt: return the USB device IN endpoints interrupt status
1072:Drivers/STM32F4xx_HAL_Driver/Src/stm32f4xx_ll_usb.c ****   * @param  USBx  Selected device
ARM GAS  C:\Users\Student\AppData\Local\Temp\cctYr88L.s 			page 60


1073:Drivers/STM32F4xx_HAL_Driver/Src/stm32f4xx_ll_usb.c ****   * @retval HAL status
1074:Drivers/STM32F4xx_HAL_Driver/Src/stm32f4xx_ll_usb.c ****   */
1075:Drivers/STM32F4xx_HAL_Driver/Src/stm32f4xx_ll_usb.c **** uint32_t USB_ReadDevAllInEpInterrupt (USB_OTG_GlobalTypeDef *USBx)
1076:Drivers/STM32F4xx_HAL_Driver/Src/stm32f4xx_ll_usb.c **** {
 2220              		.loc 1 1076 0
 2221              		.cfi_startproc
 2222              		@ args = 0, pretend = 0, frame = 0
 2223              		@ frame_needed = 0, uses_anonymous_args = 0
 2224              		@ link register save eliminated.
 2225              	.LVL178:
1077:Drivers/STM32F4xx_HAL_Driver/Src/stm32f4xx_ll_usb.c ****   uint32_t v;
1078:Drivers/STM32F4xx_HAL_Driver/Src/stm32f4xx_ll_usb.c ****   v  = USBx_DEVICE->DAINT;
 2226              		.loc 1 1078 0
 2227 0000 D0F81838 		ldr	r3, [r0, #2072]
 2228 0004 00F50060 		add	r0, r0, #2048
 2229              	.LVL179:
1079:Drivers/STM32F4xx_HAL_Driver/Src/stm32f4xx_ll_usb.c ****   v &= USBx_DEVICE->DAINTMSK;
 2230              		.loc 1 1079 0
 2231 0008 C069     		ldr	r0, [r0, #28]
 2232              	.LVL180:
 2233 000a 1840     		ands	r0, r0, r3
 2234              	.LVL181:
1080:Drivers/STM32F4xx_HAL_Driver/Src/stm32f4xx_ll_usb.c ****   return ((v & 0xFFFFU));
1081:Drivers/STM32F4xx_HAL_Driver/Src/stm32f4xx_ll_usb.c **** }
 2235              		.loc 1 1081 0
 2236 000c 80B2     		uxth	r0, r0
 2237              	.LVL182:
 2238 000e 7047     		bx	lr
 2239              		.cfi_endproc
 2240              	.LFE149:
 2242              		.section	.text.USB_ReadDevOutEPInterrupt,"ax",%progbits
 2243              		.align	1
 2244              		.global	USB_ReadDevOutEPInterrupt
 2245              		.syntax unified
 2246              		.thumb
 2247              		.thumb_func
 2248              		.fpu fpv4-sp-d16
 2250              	USB_ReadDevOutEPInterrupt:
 2251              	.LFB150:
1082:Drivers/STM32F4xx_HAL_Driver/Src/stm32f4xx_ll_usb.c **** 
1083:Drivers/STM32F4xx_HAL_Driver/Src/stm32f4xx_ll_usb.c **** /**
1084:Drivers/STM32F4xx_HAL_Driver/Src/stm32f4xx_ll_usb.c ****   * @brief  Returns Device OUT EP Interrupt register
1085:Drivers/STM32F4xx_HAL_Driver/Src/stm32f4xx_ll_usb.c ****   * @param  USBx  Selected device
1086:Drivers/STM32F4xx_HAL_Driver/Src/stm32f4xx_ll_usb.c ****   * @param  epnum  endpoint number
