ARM GAS  C:\Users\Student\AppData\Local\Temp\ccnHQZjO.s 			page 1


   1              		.cpu cortex-m4
   2              		.eabi_attribute 27, 1
   3              		.eabi_attribute 28, 1
   4              		.eabi_attribute 20, 1
   5              		.eabi_attribute 21, 1
   6              		.eabi_attribute 23, 3
   7              		.eabi_attribute 24, 1
   8              		.eabi_attribute 25, 1
   9              		.eabi_attribute 26, 1
  10              		.eabi_attribute 30, 1
  11              		.eabi_attribute 34, 1
  12              		.eabi_attribute 18, 4
  13              		.file	"stm32f4_discovery.c"
  14              		.text
  15              	.Ltext0:
  16              		.cfi_sections	.debug_frame
  17              		.section	.text.SPIx_MspInit,"ax",%progbits
  18              		.align	1
  19              		.syntax unified
  20              		.thumb
  21              		.thumb_func
  22              		.fpu fpv4-sp-d16
  24              	SPIx_MspInit:
  25              	.LFB134:
  26              		.file 1 "Src/stm32f4_discovery.c"
   1:Src/stm32f4_discovery.c **** /**
   2:Src/stm32f4_discovery.c ****   ******************************************************************************
   3:Src/stm32f4_discovery.c ****   * @file    stm32f4_discovery.c
   4:Src/stm32f4_discovery.c ****   * @author  MCD Application Team
   5:Src/stm32f4_discovery.c ****   * @brief   This file provides set of firmware functions to manage Leds and
   6:Src/stm32f4_discovery.c ****   *          push-button available on STM32F4-Discovery Kit from STMicroelectronics.
   7:Src/stm32f4_discovery.c ****   ******************************************************************************
   8:Src/stm32f4_discovery.c ****   * @attention
   9:Src/stm32f4_discovery.c ****   *
  10:Src/stm32f4_discovery.c ****   * <h2><center>&copy; COPYRIGHT(c) 2017 STMicroelectronics</center></h2>
  11:Src/stm32f4_discovery.c ****   *
  12:Src/stm32f4_discovery.c ****   * Redistribution and use in source and binary forms, with or without modification,
  13:Src/stm32f4_discovery.c ****   * are permitted provided that the following conditions are met:
  14:Src/stm32f4_discovery.c ****   *   1. Redistributions of source code must retain the above copyright notice,
  15:Src/stm32f4_discovery.c ****   *      this list of conditions and the following disclaimer.
  16:Src/stm32f4_discovery.c ****   *   2. Redistributions in binary form must reproduce the above copyright notice,
  17:Src/stm32f4_discovery.c ****   *      this list of conditions and the following disclaimer in the documentation
  18:Src/stm32f4_discovery.c ****   *      and/or other materials provided with the distribution.
  19:Src/stm32f4_discovery.c ****   *   3. Neither the name of STMicroelectronics nor the names of its contributors
  20:Src/stm32f4_discovery.c ****   *      may be used to endorse or promote products derived from this software
  21:Src/stm32f4_discovery.c ****   *      without specific prior written permission.
  22:Src/stm32f4_discovery.c ****   *
  23:Src/stm32f4_discovery.c ****   * THIS SOFTWARE IS PROVIDED BY THE COPYRIGHT HOLDERS AND CONTRIBUTORS "AS IS"
  24:Src/stm32f4_discovery.c ****   * AND ANY EXPRESS OR IMPLIED WARRANTIES, INCLUDING, BUT NOT LIMITED TO, THE
  25:Src/stm32f4_discovery.c ****   * IMPLIED WARRANTIES OF MERCHANTABILITY AND FITNESS FOR A PARTICULAR PURPOSE ARE
  26:Src/stm32f4_discovery.c ****   * DISCLAIMED. IN NO EVENT SHALL THE COPYRIGHT HOLDER OR CONTRIBUTORS BE LIABLE
  27:Src/stm32f4_discovery.c ****   * FOR ANY DIRECT, INDIRECT, INCIDENTAL, SPECIAL, EXEMPLARY, OR CONSEQUENTIAL
  28:Src/stm32f4_discovery.c ****   * DAMAGES (INCLUDING, BUT NOT LIMITED TO, PROCUREMENT OF SUBSTITUTE GOODS OR
  29:Src/stm32f4_discovery.c ****   * SERVICES; LOSS OF USE, DATA, OR PROFITS; OR BUSINESS INTERRUPTION) HOWEVER
  30:Src/stm32f4_discovery.c ****   * CAUSED AND ON ANY THEORY OF LIABILITY, WHETHER IN CONTRACT, STRICT LIABILITY,
  31:Src/stm32f4_discovery.c ****   * OR TORT (INCLUDING NEGLIGENCE OR OTHERWISE) ARISING IN ANY WAY OUT OF THE USE
  32:Src/stm32f4_discovery.c ****   * OF THIS SOFTWARE, EVEN IF ADVISED OF THE POSSIBILITY OF SUCH DAMAGE.
ARM GAS  C:\Users\Student\AppData\Local\Temp\ccnHQZjO.s 			page 2


  33:Src/stm32f4_discovery.c ****   *
  34:Src/stm32f4_discovery.c ****   ******************************************************************************
  35:Src/stm32f4_discovery.c ****   */
  36:Src/stm32f4_discovery.c **** /* Includes ------------------------------------------------------------------*/
  37:Src/stm32f4_discovery.c **** #include "stm32f4_discovery.h"
  38:Src/stm32f4_discovery.c **** 
  39:Src/stm32f4_discovery.c **** /** @defgroup BSP BSP
  40:Src/stm32f4_discovery.c ****   * @{
  41:Src/stm32f4_discovery.c ****   */ 
  42:Src/stm32f4_discovery.c **** 
  43:Src/stm32f4_discovery.c **** /** @defgroup STM32F4_DISCOVERY STM32F4 DISCOVERY
  44:Src/stm32f4_discovery.c ****   * @{
  45:Src/stm32f4_discovery.c ****   */   
  46:Src/stm32f4_discovery.c ****     
  47:Src/stm32f4_discovery.c **** /** @defgroup STM32F4_DISCOVERY_LOW_LEVEL STM32F4 DISCOVERY LOW LEVEL
  48:Src/stm32f4_discovery.c ****   * @brief This file provides set of firmware functions to manage Leds and push-button
  49:Src/stm32f4_discovery.c ****   *        available on STM32F4-Discovery Kit from STMicroelectronics.
  50:Src/stm32f4_discovery.c ****   * @{
  51:Src/stm32f4_discovery.c ****   */ 
  52:Src/stm32f4_discovery.c **** 
  53:Src/stm32f4_discovery.c **** /** @defgroup STM32F4_DISCOVERY_LOW_LEVEL_Private_TypesDefinitions STM32F4 DISCOVERY LOW LEVEL Priv
  54:Src/stm32f4_discovery.c ****   * @{
  55:Src/stm32f4_discovery.c ****   */ 
  56:Src/stm32f4_discovery.c **** /**
  57:Src/stm32f4_discovery.c ****   * @}
  58:Src/stm32f4_discovery.c ****   */ 
  59:Src/stm32f4_discovery.c **** 
  60:Src/stm32f4_discovery.c **** /** @defgroup STM32F4_DISCOVERY_LOW_LEVEL_Private_Defines STM32F4 DISCOVERY LOW LEVEL Private Defin
  61:Src/stm32f4_discovery.c ****   * @{
  62:Src/stm32f4_discovery.c ****   */
  63:Src/stm32f4_discovery.c ****   
  64:Src/stm32f4_discovery.c ****   /**
  65:Src/stm32f4_discovery.c ****   * @brief STM32F4 DISCO BSP Driver version number V2.1.3
  66:Src/stm32f4_discovery.c ****   */
  67:Src/stm32f4_discovery.c **** #define __STM32F4_DISCO_BSP_VERSION_MAIN   (0x02) /*!< [31:24] main version */
  68:Src/stm32f4_discovery.c **** #define __STM32F4_DISCO_BSP_VERSION_SUB1   (0x01) /*!< [23:16] sub1 version */
  69:Src/stm32f4_discovery.c **** #define __STM32F4_DISCO_BSP_VERSION_SUB2   (0x03) /*!< [15:8]  sub2 version */
  70:Src/stm32f4_discovery.c **** #define __STM32F4_DISCO_BSP_VERSION_RC     (0x00) /*!< [7:0]  release candidate */ 
  71:Src/stm32f4_discovery.c **** #define __STM32F4_DISCO_BSP_VERSION         ((__STM32F4_DISCO_BSP_VERSION_MAIN << 24)\
  72:Src/stm32f4_discovery.c ****                                              |(__STM32F4_DISCO_BSP_VERSION_SUB1 << 16)\
  73:Src/stm32f4_discovery.c ****                                              |(__STM32F4_DISCO_BSP_VERSION_SUB2 << 8 )\
  74:Src/stm32f4_discovery.c ****                                              |(__STM32F4_DISCO_BSP_VERSION_RC)) 
  75:Src/stm32f4_discovery.c **** /**
  76:Src/stm32f4_discovery.c ****   * @}
  77:Src/stm32f4_discovery.c ****   */ 
  78:Src/stm32f4_discovery.c **** 
  79:Src/stm32f4_discovery.c **** 
  80:Src/stm32f4_discovery.c **** /** @defgroup STM32F4_DISCOVERY_LOW_LEVEL_Private_Macros STM32F4 DISCOVERY LOW LEVEL Private Macros
  81:Src/stm32f4_discovery.c ****   * @{
  82:Src/stm32f4_discovery.c ****   */ 
  83:Src/stm32f4_discovery.c **** /**
  84:Src/stm32f4_discovery.c ****   * @}
  85:Src/stm32f4_discovery.c ****   */ 
  86:Src/stm32f4_discovery.c **** 
  87:Src/stm32f4_discovery.c **** /** @defgroup STM32F4_DISCOVERY_LOW_LEVEL_Private_Variables STM32F4 DISCOVERY LOW LEVEL Private Var
  88:Src/stm32f4_discovery.c ****   * @{
  89:Src/stm32f4_discovery.c ****   */ 
ARM GAS  C:\Users\Student\AppData\Local\Temp\ccnHQZjO.s 			page 3


  90:Src/stm32f4_discovery.c **** GPIO_TypeDef* GPIO_PORT[LEDn] = {LED4_GPIO_PORT, 
  91:Src/stm32f4_discovery.c ****                                  LED3_GPIO_PORT, 
  92:Src/stm32f4_discovery.c ****                                  LED5_GPIO_PORT,
  93:Src/stm32f4_discovery.c ****                                  LED6_GPIO_PORT};
  94:Src/stm32f4_discovery.c **** const uint16_t GPIO_PIN[LEDn] = {LED4_PIN, 
  95:Src/stm32f4_discovery.c ****                                  LED3_PIN, 
  96:Src/stm32f4_discovery.c ****                                  LED5_PIN,
  97:Src/stm32f4_discovery.c ****                                  LED6_PIN};
  98:Src/stm32f4_discovery.c **** 
  99:Src/stm32f4_discovery.c **** GPIO_TypeDef* BUTTON_PORT[BUTTONn] = {KEY_BUTTON_GPIO_PORT}; 
 100:Src/stm32f4_discovery.c **** const uint16_t BUTTON_PIN[BUTTONn] = {KEY_BUTTON_PIN}; 
 101:Src/stm32f4_discovery.c **** const uint8_t BUTTON_IRQn[BUTTONn] = {KEY_BUTTON_EXTI_IRQn};
 102:Src/stm32f4_discovery.c **** 
 103:Src/stm32f4_discovery.c **** uint32_t I2cxTimeout = I2Cx_TIMEOUT_MAX;    /*<! Value of Timeout when I2C communication fails */ 
 104:Src/stm32f4_discovery.c **** uint32_t SpixTimeout = SPIx_TIMEOUT_MAX;    /*<! Value of Timeout when SPI communication fails */
 105:Src/stm32f4_discovery.c **** 
 106:Src/stm32f4_discovery.c **** static SPI_HandleTypeDef    SpiHandle;
 107:Src/stm32f4_discovery.c **** static I2C_HandleTypeDef    I2cHandle;
 108:Src/stm32f4_discovery.c **** /**
 109:Src/stm32f4_discovery.c ****   * @}
 110:Src/stm32f4_discovery.c ****   */ 
 111:Src/stm32f4_discovery.c **** 
 112:Src/stm32f4_discovery.c **** /** @defgroup STM32F4_DISCOVERY_LOW_LEVEL_Private_FunctionPrototypes STM32F4 DISCOVERY LOW LEVEL Pr
 113:Src/stm32f4_discovery.c ****   * @{
 114:Src/stm32f4_discovery.c ****   */ 
 115:Src/stm32f4_discovery.c **** /**
 116:Src/stm32f4_discovery.c ****   * @}
 117:Src/stm32f4_discovery.c ****   */ 
 118:Src/stm32f4_discovery.c **** 
 119:Src/stm32f4_discovery.c **** /** @defgroup STM32F4_DISCOVERY_LOW_LEVEL_Private_Functions STM32F4 DISCOVERY LOW LEVEL Private Fun
 120:Src/stm32f4_discovery.c ****   * @{
 121:Src/stm32f4_discovery.c ****   */ 
 122:Src/stm32f4_discovery.c **** static void     I2Cx_Init(void);
 123:Src/stm32f4_discovery.c **** static void     I2Cx_WriteData(uint8_t Addr, uint8_t Reg, uint8_t Value);
 124:Src/stm32f4_discovery.c **** static uint8_t  I2Cx_ReadData(uint8_t Addr, uint8_t Reg);
 125:Src/stm32f4_discovery.c **** static void     I2Cx_MspInit(void);
 126:Src/stm32f4_discovery.c **** static void     I2Cx_Error(uint8_t Addr);
 127:Src/stm32f4_discovery.c **** 
 128:Src/stm32f4_discovery.c **** static void     SPIx_Init(void);
 129:Src/stm32f4_discovery.c **** static void     SPIx_MspInit(void);
 130:Src/stm32f4_discovery.c **** static uint8_t  SPIx_WriteRead(uint8_t Byte);
 131:Src/stm32f4_discovery.c **** static  void    SPIx_Error(void);
 132:Src/stm32f4_discovery.c **** 
 133:Src/stm32f4_discovery.c **** /* Link functions for Accelerometer peripheral */
 134:Src/stm32f4_discovery.c **** void            ACCELERO_IO_Init(void);
 135:Src/stm32f4_discovery.c **** void            ACCELERO_IO_ITConfig(void);
 136:Src/stm32f4_discovery.c **** void            ACCELERO_IO_Write(uint8_t *pBuffer, uint8_t WriteAddr, uint16_t NumByteToWrite);
 137:Src/stm32f4_discovery.c **** void            ACCELERO_IO_Read(uint8_t *pBuffer, uint8_t ReadAddr, uint16_t NumByteToRead);
 138:Src/stm32f4_discovery.c **** 
 139:Src/stm32f4_discovery.c **** /* Link functions for Audio peripheral */
 140:Src/stm32f4_discovery.c **** void            AUDIO_IO_Init(void);
 141:Src/stm32f4_discovery.c **** void            AUDIO_IO_DeInit(void);
 142:Src/stm32f4_discovery.c **** void            AUDIO_IO_Write(uint8_t Addr, uint8_t Reg, uint8_t Value);
 143:Src/stm32f4_discovery.c **** uint8_t         AUDIO_IO_Read(uint8_t Addr, uint8_t Reg);
 144:Src/stm32f4_discovery.c **** /**
 145:Src/stm32f4_discovery.c ****   * @}
 146:Src/stm32f4_discovery.c ****   */
ARM GAS  C:\Users\Student\AppData\Local\Temp\ccnHQZjO.s 			page 4


 147:Src/stm32f4_discovery.c **** 
 148:Src/stm32f4_discovery.c **** /** @defgroup STM32F4_DISCOVERY_LOW_LEVEL_LED_Functions STM32F4 DISCOVERY LOW LEVEL LED Functions
 149:Src/stm32f4_discovery.c ****   * @{
 150:Src/stm32f4_discovery.c ****   */ 
 151:Src/stm32f4_discovery.c **** 
 152:Src/stm32f4_discovery.c **** /**
 153:Src/stm32f4_discovery.c ****   * @brief  This method returns the STM32F4 DISCO BSP Driver revision
 154:Src/stm32f4_discovery.c ****   * @retval version : 0xXYZR (8bits for each decimal, R for RC)
 155:Src/stm32f4_discovery.c ****   */
 156:Src/stm32f4_discovery.c **** uint32_t BSP_GetVersion(void)
 157:Src/stm32f4_discovery.c **** {
 158:Src/stm32f4_discovery.c ****   return __STM32F4_DISCO_BSP_VERSION;
 159:Src/stm32f4_discovery.c **** }
 160:Src/stm32f4_discovery.c **** 
 161:Src/stm32f4_discovery.c **** /**
 162:Src/stm32f4_discovery.c ****   * @brief  Configures LED GPIO.
 163:Src/stm32f4_discovery.c ****   * @param  Led: Specifies the Led to be configured. 
 164:Src/stm32f4_discovery.c ****   *   This parameter can be one of following parameters:
 165:Src/stm32f4_discovery.c ****   *     @arg LED4
 166:Src/stm32f4_discovery.c ****   *     @arg LED3
 167:Src/stm32f4_discovery.c ****   *     @arg LED5
 168:Src/stm32f4_discovery.c ****   *     @arg LED6
 169:Src/stm32f4_discovery.c ****   */
 170:Src/stm32f4_discovery.c **** void BSP_LED_Init(Led_TypeDef Led)
 171:Src/stm32f4_discovery.c **** {
 172:Src/stm32f4_discovery.c ****   GPIO_InitTypeDef  GPIO_InitStruct;
 173:Src/stm32f4_discovery.c ****   
 174:Src/stm32f4_discovery.c ****   /* Enable the GPIO_LED Clock */
 175:Src/stm32f4_discovery.c ****   LEDx_GPIO_CLK_ENABLE(Led);
 176:Src/stm32f4_discovery.c **** 
 177:Src/stm32f4_discovery.c ****   /* Configure the GPIO_LED pin */
 178:Src/stm32f4_discovery.c ****   GPIO_InitStruct.Pin = GPIO_PIN[Led];
 179:Src/stm32f4_discovery.c ****   GPIO_InitStruct.Mode = GPIO_MODE_OUTPUT_PP;
 180:Src/stm32f4_discovery.c ****   GPIO_InitStruct.Pull = GPIO_PULLUP;
 181:Src/stm32f4_discovery.c ****   GPIO_InitStruct.Speed = GPIO_SPEED_FAST;
 182:Src/stm32f4_discovery.c ****   
 183:Src/stm32f4_discovery.c ****   HAL_GPIO_Init(GPIO_PORT[Led], &GPIO_InitStruct);
 184:Src/stm32f4_discovery.c ****   
 185:Src/stm32f4_discovery.c ****   HAL_GPIO_WritePin(GPIO_PORT[Led], GPIO_PIN[Led], GPIO_PIN_RESET); 
 186:Src/stm32f4_discovery.c **** }
 187:Src/stm32f4_discovery.c **** 
 188:Src/stm32f4_discovery.c **** /**
 189:Src/stm32f4_discovery.c ****   * @brief  Turns selected LED On.
 190:Src/stm32f4_discovery.c ****   * @param  Led: Specifies the Led to be set on. 
 191:Src/stm32f4_discovery.c ****   *   This parameter can be one of following parameters:
 192:Src/stm32f4_discovery.c ****   *     @arg LED4
 193:Src/stm32f4_discovery.c ****   *     @arg LED3
 194:Src/stm32f4_discovery.c ****   *     @arg LED5
 195:Src/stm32f4_discovery.c ****   *     @arg LED6  
 196:Src/stm32f4_discovery.c ****   */
 197:Src/stm32f4_discovery.c **** void BSP_LED_On(Led_TypeDef Led)
 198:Src/stm32f4_discovery.c **** {
 199:Src/stm32f4_discovery.c ****   HAL_GPIO_WritePin(GPIO_PORT[Led], GPIO_PIN[Led], GPIO_PIN_SET); 
 200:Src/stm32f4_discovery.c **** }
 201:Src/stm32f4_discovery.c **** 
 202:Src/stm32f4_discovery.c **** /**
 203:Src/stm32f4_discovery.c ****   * @brief  Turns selected LED Off.
ARM GAS  C:\Users\Student\AppData\Local\Temp\ccnHQZjO.s 			page 5


 204:Src/stm32f4_discovery.c ****   * @param  Led: Specifies the Led to be set off. 
 205:Src/stm32f4_discovery.c ****   *   This parameter can be one of following parameters:
 206:Src/stm32f4_discovery.c ****   *     @arg LED4
 207:Src/stm32f4_discovery.c ****   *     @arg LED3
 208:Src/stm32f4_discovery.c ****   *     @arg LED5
 209:Src/stm32f4_discovery.c ****   *     @arg LED6 
 210:Src/stm32f4_discovery.c ****   */
 211:Src/stm32f4_discovery.c **** void BSP_LED_Off(Led_TypeDef Led)
 212:Src/stm32f4_discovery.c **** {
 213:Src/stm32f4_discovery.c ****   HAL_GPIO_WritePin(GPIO_PORT[Led], GPIO_PIN[Led], GPIO_PIN_RESET); 
 214:Src/stm32f4_discovery.c **** }
 215:Src/stm32f4_discovery.c **** 
 216:Src/stm32f4_discovery.c **** /**
 217:Src/stm32f4_discovery.c ****   * @brief  Toggles the selected LED.
 218:Src/stm32f4_discovery.c ****   * @param  Led: Specifies the Led to be toggled. 
 219:Src/stm32f4_discovery.c ****   *   This parameter can be one of following parameters:
 220:Src/stm32f4_discovery.c ****   *     @arg LED4
 221:Src/stm32f4_discovery.c ****   *     @arg LED3
 222:Src/stm32f4_discovery.c ****   *     @arg LED5
 223:Src/stm32f4_discovery.c ****   *     @arg LED6  
 224:Src/stm32f4_discovery.c ****   */
 225:Src/stm32f4_discovery.c **** void BSP_LED_Toggle(Led_TypeDef Led)
 226:Src/stm32f4_discovery.c **** {
 227:Src/stm32f4_discovery.c ****   HAL_GPIO_TogglePin(GPIO_PORT[Led], GPIO_PIN[Led]);
 228:Src/stm32f4_discovery.c **** }
 229:Src/stm32f4_discovery.c **** 
 230:Src/stm32f4_discovery.c **** /**
 231:Src/stm32f4_discovery.c ****   * @}
 232:Src/stm32f4_discovery.c ****   */ 
 233:Src/stm32f4_discovery.c **** 
 234:Src/stm32f4_discovery.c **** /** @defgroup STM32F4_DISCOVERY_LOW_LEVEL_BUTTON_Functions STM32F4 DISCOVERY LOW LEVEL BUTTON Funct
 235:Src/stm32f4_discovery.c ****   * @{
 236:Src/stm32f4_discovery.c ****   */ 
 237:Src/stm32f4_discovery.c **** 
 238:Src/stm32f4_discovery.c **** /**
 239:Src/stm32f4_discovery.c ****   * @brief  Configures Button GPIO and EXTI Line.
 240:Src/stm32f4_discovery.c ****   * @param  Button: Specifies the Button to be configured.
 241:Src/stm32f4_discovery.c ****   *   This parameter should be: BUTTON_KEY
 242:Src/stm32f4_discovery.c ****   * @param  Mode: Specifies Button mode.
 243:Src/stm32f4_discovery.c ****   *   This parameter can be one of following parameters:   
 244:Src/stm32f4_discovery.c ****   *     @arg BUTTON_MODE_GPIO: Button will be used as simple IO 
 245:Src/stm32f4_discovery.c ****   *     @arg BUTTON_MODE_EXTI: Button will be connected to EXTI line with interrupt
 246:Src/stm32f4_discovery.c ****   *                            generation capability  
 247:Src/stm32f4_discovery.c ****   */
 248:Src/stm32f4_discovery.c **** void BSP_PB_Init(Button_TypeDef Button, ButtonMode_TypeDef Mode)
 249:Src/stm32f4_discovery.c **** {
 250:Src/stm32f4_discovery.c ****   GPIO_InitTypeDef GPIO_InitStruct;
 251:Src/stm32f4_discovery.c ****   
 252:Src/stm32f4_discovery.c ****   /* Enable the BUTTON Clock */
 253:Src/stm32f4_discovery.c ****   BUTTONx_GPIO_CLK_ENABLE(Button);
 254:Src/stm32f4_discovery.c ****   
 255:Src/stm32f4_discovery.c ****   if (Mode == BUTTON_MODE_GPIO)
 256:Src/stm32f4_discovery.c ****   {
 257:Src/stm32f4_discovery.c ****     /* Configure Button pin as input */
 258:Src/stm32f4_discovery.c ****     GPIO_InitStruct.Pin = BUTTON_PIN[Button];
 259:Src/stm32f4_discovery.c ****     GPIO_InitStruct.Mode = GPIO_MODE_INPUT;
 260:Src/stm32f4_discovery.c ****     GPIO_InitStruct.Pull = GPIO_NOPULL;
ARM GAS  C:\Users\Student\AppData\Local\Temp\ccnHQZjO.s 			page 6


 261:Src/stm32f4_discovery.c ****     GPIO_InitStruct.Speed = GPIO_SPEED_FAST;
 262:Src/stm32f4_discovery.c ****     
 263:Src/stm32f4_discovery.c ****     HAL_GPIO_Init(BUTTON_PORT[Button], &GPIO_InitStruct);
 264:Src/stm32f4_discovery.c ****   }
 265:Src/stm32f4_discovery.c ****   
 266:Src/stm32f4_discovery.c ****   if (Mode == BUTTON_MODE_EXTI)
 267:Src/stm32f4_discovery.c ****   {
 268:Src/stm32f4_discovery.c ****     /* Configure Button pin as input with External interrupt */
 269:Src/stm32f4_discovery.c ****     GPIO_InitStruct.Pin = BUTTON_PIN[Button];
 270:Src/stm32f4_discovery.c ****     GPIO_InitStruct.Pull = GPIO_NOPULL;
 271:Src/stm32f4_discovery.c ****     GPIO_InitStruct.Speed = GPIO_SPEED_FAST;
 272:Src/stm32f4_discovery.c ****     GPIO_InitStruct.Mode = GPIO_MODE_IT_RISING; 
 273:Src/stm32f4_discovery.c ****     HAL_GPIO_Init(BUTTON_PORT[Button], &GPIO_InitStruct);
 274:Src/stm32f4_discovery.c ****     
 275:Src/stm32f4_discovery.c ****     /* Enable and set Button EXTI Interrupt to the lowest priority */
 276:Src/stm32f4_discovery.c ****     HAL_NVIC_SetPriority((IRQn_Type)(BUTTON_IRQn[Button]), 0x0F, 0);
 277:Src/stm32f4_discovery.c ****     HAL_NVIC_EnableIRQ((IRQn_Type)(BUTTON_IRQn[Button]));
 278:Src/stm32f4_discovery.c ****   }
 279:Src/stm32f4_discovery.c **** }
 280:Src/stm32f4_discovery.c **** 
 281:Src/stm32f4_discovery.c **** /**
 282:Src/stm32f4_discovery.c ****   * @brief  Returns the selected Button state.
 283:Src/stm32f4_discovery.c ****   * @param  Button: Specifies the Button to be checked.
 284:Src/stm32f4_discovery.c ****   *   This parameter should be: BUTTON_KEY  
 285:Src/stm32f4_discovery.c ****   * @retval The Button GPIO pin value.
 286:Src/stm32f4_discovery.c ****   */
 287:Src/stm32f4_discovery.c **** uint32_t BSP_PB_GetState(Button_TypeDef Button)
 288:Src/stm32f4_discovery.c **** {
 289:Src/stm32f4_discovery.c ****   return HAL_GPIO_ReadPin(BUTTON_PORT[Button], BUTTON_PIN[Button]);
 290:Src/stm32f4_discovery.c **** }
 291:Src/stm32f4_discovery.c **** 
 292:Src/stm32f4_discovery.c **** /**
 293:Src/stm32f4_discovery.c ****   * @}
 294:Src/stm32f4_discovery.c ****   */ 
 295:Src/stm32f4_discovery.c **** 
 296:Src/stm32f4_discovery.c **** /** @defgroup STM32F4_DISCOVERY_LOW_LEVEL_BUS_Functions STM32F4 DISCOVERY LOW LEVEL BUS Functions
 297:Src/stm32f4_discovery.c ****   * @{
 298:Src/stm32f4_discovery.c ****   */ 
 299:Src/stm32f4_discovery.c **** 
 300:Src/stm32f4_discovery.c **** /*******************************************************************************
 301:Src/stm32f4_discovery.c ****                             BUS OPERATIONS
 302:Src/stm32f4_discovery.c **** *******************************************************************************/
 303:Src/stm32f4_discovery.c **** 
 304:Src/stm32f4_discovery.c **** /******************************* SPI Routines *********************************/
 305:Src/stm32f4_discovery.c **** 
 306:Src/stm32f4_discovery.c **** /**
 307:Src/stm32f4_discovery.c ****   * @brief  SPIx Bus initialization
 308:Src/stm32f4_discovery.c ****   */
 309:Src/stm32f4_discovery.c **** static void SPIx_Init(void)
 310:Src/stm32f4_discovery.c **** {
 311:Src/stm32f4_discovery.c ****   if(HAL_SPI_GetState(&SpiHandle) == HAL_SPI_STATE_RESET)
 312:Src/stm32f4_discovery.c ****   {
 313:Src/stm32f4_discovery.c ****     /* SPI configuration -----------------------------------------------------*/
 314:Src/stm32f4_discovery.c ****     SpiHandle.Instance = DISCOVERY_SPIx;
 315:Src/stm32f4_discovery.c ****     SpiHandle.Init.BaudRatePrescaler = SPI_BAUDRATEPRESCALER_16;
 316:Src/stm32f4_discovery.c ****     SpiHandle.Init.Direction = SPI_DIRECTION_2LINES;
 317:Src/stm32f4_discovery.c ****     SpiHandle.Init.CLKPhase = SPI_PHASE_1EDGE;
ARM GAS  C:\Users\Student\AppData\Local\Temp\ccnHQZjO.s 			page 7


 318:Src/stm32f4_discovery.c ****     SpiHandle.Init.CLKPolarity = SPI_POLARITY_LOW;
 319:Src/stm32f4_discovery.c ****     SpiHandle.Init.CRCCalculation = SPI_CRCCALCULATION_DISABLED;
 320:Src/stm32f4_discovery.c ****     SpiHandle.Init.CRCPolynomial = 7;
 321:Src/stm32f4_discovery.c ****     SpiHandle.Init.DataSize = SPI_DATASIZE_8BIT;
 322:Src/stm32f4_discovery.c ****     SpiHandle.Init.FirstBit = SPI_FIRSTBIT_MSB;
 323:Src/stm32f4_discovery.c ****     SpiHandle.Init.NSS = SPI_NSS_SOFT;
 324:Src/stm32f4_discovery.c ****     SpiHandle.Init.TIMode = SPI_TIMODE_DISABLED;
 325:Src/stm32f4_discovery.c ****     SpiHandle.Init.Mode = SPI_MODE_MASTER;
 326:Src/stm32f4_discovery.c **** 
 327:Src/stm32f4_discovery.c ****     SPIx_MspInit();
 328:Src/stm32f4_discovery.c ****     HAL_SPI_Init(&SpiHandle);
 329:Src/stm32f4_discovery.c ****   }
 330:Src/stm32f4_discovery.c **** }
 331:Src/stm32f4_discovery.c **** 
 332:Src/stm32f4_discovery.c **** /**
 333:Src/stm32f4_discovery.c ****   * @brief  Sends a Byte through the SPI interface and return the Byte received 
 334:Src/stm32f4_discovery.c ****   *         from the SPI bus.
 335:Src/stm32f4_discovery.c ****   * @param  Byte: Byte send.
 336:Src/stm32f4_discovery.c ****   * @retval The received byte value
 337:Src/stm32f4_discovery.c ****   */
 338:Src/stm32f4_discovery.c **** static uint8_t SPIx_WriteRead(uint8_t Byte)
 339:Src/stm32f4_discovery.c **** {
 340:Src/stm32f4_discovery.c ****   uint8_t receivedbyte = 0;
 341:Src/stm32f4_discovery.c ****   
 342:Src/stm32f4_discovery.c ****   /* Send a Byte through the SPI peripheral */
 343:Src/stm32f4_discovery.c ****   /* Read byte from the SPI bus */
 344:Src/stm32f4_discovery.c ****   if(HAL_SPI_TransmitReceive(&SpiHandle, (uint8_t*) &Byte, (uint8_t*) &receivedbyte, 1, SpixTimeout
 345:Src/stm32f4_discovery.c ****   {
 346:Src/stm32f4_discovery.c ****     SPIx_Error();
 347:Src/stm32f4_discovery.c ****   }
 348:Src/stm32f4_discovery.c ****   
 349:Src/stm32f4_discovery.c ****   return receivedbyte;
 350:Src/stm32f4_discovery.c **** }
 351:Src/stm32f4_discovery.c **** 
 352:Src/stm32f4_discovery.c **** /**
 353:Src/stm32f4_discovery.c ****   * @brief  SPIx error treatment function.
 354:Src/stm32f4_discovery.c ****   */
 355:Src/stm32f4_discovery.c **** static void SPIx_Error(void)
 356:Src/stm32f4_discovery.c **** {
 357:Src/stm32f4_discovery.c ****   /* De-initialize the SPI communication bus */
 358:Src/stm32f4_discovery.c ****   HAL_SPI_DeInit(&SpiHandle);
 359:Src/stm32f4_discovery.c ****   
 360:Src/stm32f4_discovery.c ****   /* Re-Initialize the SPI communication bus */
 361:Src/stm32f4_discovery.c ****   SPIx_Init();
 362:Src/stm32f4_discovery.c **** }
 363:Src/stm32f4_discovery.c **** 
 364:Src/stm32f4_discovery.c **** /**
 365:Src/stm32f4_discovery.c ****   * @brief  SPI MSP Init.
 366:Src/stm32f4_discovery.c ****   */
 367:Src/stm32f4_discovery.c **** static void SPIx_MspInit(void)
 368:Src/stm32f4_discovery.c **** {
  27              		.loc 1 368 0
  28              		.cfi_startproc
  29              		@ args = 0, pretend = 0, frame = 32
  30              		@ frame_needed = 0, uses_anonymous_args = 0
  31 0000 00B5     		push	{lr}
  32              	.LCFI0:
ARM GAS  C:\Users\Student\AppData\Local\Temp\ccnHQZjO.s 			page 8


  33              		.cfi_def_cfa_offset 4
  34              		.cfi_offset 14, -4
  35 0002 89B0     		sub	sp, sp, #36
  36              	.LCFI1:
  37              		.cfi_def_cfa_offset 40
  38              	.LBB2:
 369:Src/stm32f4_discovery.c ****   GPIO_InitTypeDef   GPIO_InitStructure;
 370:Src/stm32f4_discovery.c **** 
 371:Src/stm32f4_discovery.c ****   /* Enable the SPI peripheral */
 372:Src/stm32f4_discovery.c ****   DISCOVERY_SPIx_CLK_ENABLE();
  39              		.loc 1 372 0
  40 0004 0021     		movs	r1, #0
  41 0006 0191     		str	r1, [sp, #4]
  42 0008 114B     		ldr	r3, .L3
  43 000a 5A6C     		ldr	r2, [r3, #68]
  44 000c 42F48052 		orr	r2, r2, #4096
  45 0010 5A64     		str	r2, [r3, #68]
  46 0012 5A6C     		ldr	r2, [r3, #68]
  47 0014 02F48052 		and	r2, r2, #4096
  48 0018 0192     		str	r2, [sp, #4]
  49 001a 019A     		ldr	r2, [sp, #4]
  50              	.LBE2:
  51              	.LBB3:
 373:Src/stm32f4_discovery.c ****   
 374:Src/stm32f4_discovery.c ****   /* Enable SCK, MOSI and MISO GPIO clocks */
 375:Src/stm32f4_discovery.c ****   DISCOVERY_SPIx_GPIO_CLK_ENABLE();
  52              		.loc 1 375 0
  53 001c 0291     		str	r1, [sp, #8]
  54 001e 1A6B     		ldr	r2, [r3, #48]
  55 0020 42F00102 		orr	r2, r2, #1
  56 0024 1A63     		str	r2, [r3, #48]
  57 0026 1B6B     		ldr	r3, [r3, #48]
  58 0028 03F00103 		and	r3, r3, #1
  59 002c 0293     		str	r3, [sp, #8]
  60 002e 029B     		ldr	r3, [sp, #8]
  61              	.LBE3:
 376:Src/stm32f4_discovery.c ****   
 377:Src/stm32f4_discovery.c ****   /* SPI SCK, MOSI, MISO pin configuration */
 378:Src/stm32f4_discovery.c ****   GPIO_InitStructure.Pin = (DISCOVERY_SPIx_SCK_PIN | DISCOVERY_SPIx_MISO_PIN | DISCOVERY_SPIx_MOSI_
  62              		.loc 1 378 0
  63 0030 E023     		movs	r3, #224
  64 0032 0393     		str	r3, [sp, #12]
 379:Src/stm32f4_discovery.c ****   GPIO_InitStructure.Mode = GPIO_MODE_AF_PP;
  65              		.loc 1 379 0
  66 0034 0223     		movs	r3, #2
  67 0036 0493     		str	r3, [sp, #16]
 380:Src/stm32f4_discovery.c ****   GPIO_InitStructure.Pull  = GPIO_PULLDOWN;
  68              		.loc 1 380 0
  69 0038 0593     		str	r3, [sp, #20]
 381:Src/stm32f4_discovery.c ****   GPIO_InitStructure.Speed = GPIO_SPEED_MEDIUM;
  70              		.loc 1 381 0
  71 003a 0123     		movs	r3, #1
  72 003c 0693     		str	r3, [sp, #24]
 382:Src/stm32f4_discovery.c ****   GPIO_InitStructure.Alternate = DISCOVERY_SPIx_AF;
  73              		.loc 1 382 0
  74 003e 0523     		movs	r3, #5
  75 0040 0793     		str	r3, [sp, #28]
ARM GAS  C:\Users\Student\AppData\Local\Temp\ccnHQZjO.s 			page 9


 383:Src/stm32f4_discovery.c ****   HAL_GPIO_Init(DISCOVERY_SPIx_GPIO_PORT, &GPIO_InitStructure);
  76              		.loc 1 383 0
  77 0042 03A9     		add	r1, sp, #12
  78 0044 0348     		ldr	r0, .L3+4
  79 0046 FFF7FEFF 		bl	HAL_GPIO_Init
  80              	.LVL0:
 384:Src/stm32f4_discovery.c **** }
  81              		.loc 1 384 0
  82 004a 09B0     		add	sp, sp, #36
  83              	.LCFI2:
  84              		.cfi_def_cfa_offset 4
  85              		@ sp needed
  86 004c 5DF804FB 		ldr	pc, [sp], #4
  87              	.L4:
  88              		.align	2
  89              	.L3:
  90 0050 00380240 		.word	1073887232
  91 0054 00000240 		.word	1073872896
  92              		.cfi_endproc
  93              	.LFE134:
  95              		.section	.text.I2Cx_MspInit,"ax",%progbits
  96              		.align	1
  97              		.syntax unified
  98              		.thumb
  99              		.thumb_func
 100              		.fpu fpv4-sp-d16
 102              	I2Cx_MspInit:
 103              	.LFB139:
 385:Src/stm32f4_discovery.c **** 
 386:Src/stm32f4_discovery.c **** /******************************* I2C Routines**********************************/
 387:Src/stm32f4_discovery.c **** /**
 388:Src/stm32f4_discovery.c ****   * @brief  Configures I2C interface.
 389:Src/stm32f4_discovery.c ****   */
 390:Src/stm32f4_discovery.c **** static void I2Cx_Init(void)
 391:Src/stm32f4_discovery.c **** {
 392:Src/stm32f4_discovery.c ****   if(HAL_I2C_GetState(&I2cHandle) == HAL_I2C_STATE_RESET)
 393:Src/stm32f4_discovery.c ****   {
 394:Src/stm32f4_discovery.c ****     /* DISCOVERY_I2Cx peripheral configuration */
 395:Src/stm32f4_discovery.c ****     I2cHandle.Init.ClockSpeed = BSP_I2C_SPEED;
 396:Src/stm32f4_discovery.c ****     I2cHandle.Init.DutyCycle = I2C_DUTYCYCLE_2;
 397:Src/stm32f4_discovery.c ****     I2cHandle.Init.OwnAddress1 = 0x33;
 398:Src/stm32f4_discovery.c ****     I2cHandle.Init.AddressingMode = I2C_ADDRESSINGMODE_7BIT;
 399:Src/stm32f4_discovery.c ****     I2cHandle.Instance = DISCOVERY_I2Cx;
 400:Src/stm32f4_discovery.c ****       
 401:Src/stm32f4_discovery.c ****     /* Init the I2C */
 402:Src/stm32f4_discovery.c ****     I2Cx_MspInit();
 403:Src/stm32f4_discovery.c ****     HAL_I2C_Init(&I2cHandle);
 404:Src/stm32f4_discovery.c ****   }
 405:Src/stm32f4_discovery.c **** }
 406:Src/stm32f4_discovery.c **** 
 407:Src/stm32f4_discovery.c **** /**
 408:Src/stm32f4_discovery.c ****   * @brief  Write a value in a register of the device through BUS.
 409:Src/stm32f4_discovery.c ****   * @param  Addr: Device address on BUS Bus.  
 410:Src/stm32f4_discovery.c ****   * @param  Reg: The target register address to write
 411:Src/stm32f4_discovery.c ****   * @param  Value: The target register value to be written 
 412:Src/stm32f4_discovery.c ****   * @retval HAL status
 413:Src/stm32f4_discovery.c ****   */
ARM GAS  C:\Users\Student\AppData\Local\Temp\ccnHQZjO.s 			page 10


 414:Src/stm32f4_discovery.c **** static void I2Cx_WriteData(uint8_t Addr, uint8_t Reg, uint8_t Value)
 415:Src/stm32f4_discovery.c **** {
 416:Src/stm32f4_discovery.c ****   HAL_StatusTypeDef status = HAL_OK;
 417:Src/stm32f4_discovery.c ****   
 418:Src/stm32f4_discovery.c ****   status = HAL_I2C_Mem_Write(&I2cHandle, Addr, (uint16_t)Reg, I2C_MEMADD_SIZE_8BIT, &Value, 1, I2cx
 419:Src/stm32f4_discovery.c **** 
 420:Src/stm32f4_discovery.c ****   /* Check the communication status */
 421:Src/stm32f4_discovery.c ****   if(status != HAL_OK)
 422:Src/stm32f4_discovery.c ****   {
 423:Src/stm32f4_discovery.c ****     /* Execute user timeout callback */
 424:Src/stm32f4_discovery.c ****     I2Cx_Error(Addr);
 425:Src/stm32f4_discovery.c ****   }
 426:Src/stm32f4_discovery.c **** }
 427:Src/stm32f4_discovery.c **** 
 428:Src/stm32f4_discovery.c **** /**
 429:Src/stm32f4_discovery.c ****   * @brief  Read a register of the device through BUS
 430:Src/stm32f4_discovery.c ****   * @param  Addr: Device address on BUS  
 431:Src/stm32f4_discovery.c ****   * @param  Reg: The target register address to read
 432:Src/stm32f4_discovery.c ****   * @retval HAL status
 433:Src/stm32f4_discovery.c ****   */
 434:Src/stm32f4_discovery.c **** static uint8_t  I2Cx_ReadData(uint8_t Addr, uint8_t Reg)
 435:Src/stm32f4_discovery.c **** {
 436:Src/stm32f4_discovery.c ****   HAL_StatusTypeDef status = HAL_OK;
 437:Src/stm32f4_discovery.c ****   uint8_t value = 0;
 438:Src/stm32f4_discovery.c ****   
 439:Src/stm32f4_discovery.c ****   status = HAL_I2C_Mem_Read(&I2cHandle, Addr, (uint16_t)Reg, I2C_MEMADD_SIZE_8BIT, &value, 1,I2cxTi
 440:Src/stm32f4_discovery.c ****   
 441:Src/stm32f4_discovery.c ****   /* Check the communication status */
 442:Src/stm32f4_discovery.c ****   if(status != HAL_OK)
 443:Src/stm32f4_discovery.c ****   {
 444:Src/stm32f4_discovery.c ****     /* Execute user timeout callback */
 445:Src/stm32f4_discovery.c ****     I2Cx_Error(Addr);
 446:Src/stm32f4_discovery.c ****   }
 447:Src/stm32f4_discovery.c ****   return value;
 448:Src/stm32f4_discovery.c **** }
 449:Src/stm32f4_discovery.c **** 
 450:Src/stm32f4_discovery.c **** /**
 451:Src/stm32f4_discovery.c ****   * @brief  Manages error callback by re-initializing I2C.
 452:Src/stm32f4_discovery.c ****   * @param  Addr: I2C Address 
 453:Src/stm32f4_discovery.c ****   */
 454:Src/stm32f4_discovery.c **** static void I2Cx_Error(uint8_t Addr)
 455:Src/stm32f4_discovery.c **** {
 456:Src/stm32f4_discovery.c ****   /* De-initialize the I2C communication bus */
 457:Src/stm32f4_discovery.c ****   HAL_I2C_DeInit(&I2cHandle);
 458:Src/stm32f4_discovery.c ****   
 459:Src/stm32f4_discovery.c ****   /* Re-Initialize the I2C communication bus */
 460:Src/stm32f4_discovery.c ****   I2Cx_Init();
 461:Src/stm32f4_discovery.c **** }
 462:Src/stm32f4_discovery.c **** 
 463:Src/stm32f4_discovery.c **** /**
 464:Src/stm32f4_discovery.c ****   * @brief I2C MSP Initialization
 465:Src/stm32f4_discovery.c ****   */
 466:Src/stm32f4_discovery.c **** static void I2Cx_MspInit(void)
 467:Src/stm32f4_discovery.c **** {
 104              		.loc 1 467 0
 105              		.cfi_startproc
 106              		@ args = 0, pretend = 0, frame = 32
ARM GAS  C:\Users\Student\AppData\Local\Temp\ccnHQZjO.s 			page 11


 107              		@ frame_needed = 0, uses_anonymous_args = 0
 108 0000 30B5     		push	{r4, r5, lr}
 109              	.LCFI3:
 110              		.cfi_def_cfa_offset 12
 111              		.cfi_offset 4, -12
 112              		.cfi_offset 5, -8
 113              		.cfi_offset 14, -4
 114 0002 89B0     		sub	sp, sp, #36
 115              	.LCFI4:
 116              		.cfi_def_cfa_offset 48
 117              	.LBB4:
 468:Src/stm32f4_discovery.c ****   GPIO_InitTypeDef  GPIO_InitStruct;
 469:Src/stm32f4_discovery.c **** 
 470:Src/stm32f4_discovery.c ****   /* Enable I2C GPIO clocks */
 471:Src/stm32f4_discovery.c ****   DISCOVERY_I2Cx_SCL_SDA_GPIO_CLK_ENABLE();
 118              		.loc 1 471 0
 119 0004 0025     		movs	r5, #0
 120 0006 0195     		str	r5, [sp, #4]
 121 0008 1D4C     		ldr	r4, .L7
 122 000a 236B     		ldr	r3, [r4, #48]
 123 000c 43F00203 		orr	r3, r3, #2
 124 0010 2363     		str	r3, [r4, #48]
 125 0012 236B     		ldr	r3, [r4, #48]
 126 0014 03F00203 		and	r3, r3, #2
 127 0018 0193     		str	r3, [sp, #4]
 128 001a 019B     		ldr	r3, [sp, #4]
 129              	.LBE4:
 472:Src/stm32f4_discovery.c **** 
 473:Src/stm32f4_discovery.c ****   /* DISCOVERY_I2Cx SCL and SDA pins configuration ---------------------------*/
 474:Src/stm32f4_discovery.c ****   GPIO_InitStruct.Pin = DISCOVERY_I2Cx_SCL_PIN | DISCOVERY_I2Cx_SDA_PIN; 
 130              		.loc 1 474 0
 131 001c 4FF41073 		mov	r3, #576
 132 0020 0393     		str	r3, [sp, #12]
 475:Src/stm32f4_discovery.c ****   GPIO_InitStruct.Mode = GPIO_MODE_AF_OD;
 133              		.loc 1 475 0
 134 0022 1223     		movs	r3, #18
 135 0024 0493     		str	r3, [sp, #16]
 476:Src/stm32f4_discovery.c ****   GPIO_InitStruct.Speed = GPIO_SPEED_FAST;
 136              		.loc 1 476 0
 137 0026 0223     		movs	r3, #2
 138 0028 0693     		str	r3, [sp, #24]
 477:Src/stm32f4_discovery.c ****   GPIO_InitStruct.Pull  = GPIO_NOPULL;
 139              		.loc 1 477 0
 140 002a 0595     		str	r5, [sp, #20]
 478:Src/stm32f4_discovery.c ****   GPIO_InitStruct.Alternate  = DISCOVERY_I2Cx_SCL_SDA_AF;
 141              		.loc 1 478 0
 142 002c 0423     		movs	r3, #4
 143 002e 0793     		str	r3, [sp, #28]
 479:Src/stm32f4_discovery.c ****   HAL_GPIO_Init(DISCOVERY_I2Cx_SCL_SDA_GPIO_PORT, &GPIO_InitStruct);     
 144              		.loc 1 479 0
 145 0030 03A9     		add	r1, sp, #12
 146 0032 1448     		ldr	r0, .L7+4
 147 0034 FFF7FEFF 		bl	HAL_GPIO_Init
 148              	.LVL1:
 149              	.LBB5:
 480:Src/stm32f4_discovery.c **** 
 481:Src/stm32f4_discovery.c ****   /* Enable the DISCOVERY_I2Cx peripheral clock */
ARM GAS  C:\Users\Student\AppData\Local\Temp\ccnHQZjO.s 			page 12


 482:Src/stm32f4_discovery.c ****   DISCOVERY_I2Cx_CLK_ENABLE();
 150              		.loc 1 482 0
 151 0038 0295     		str	r5, [sp, #8]
 152 003a 236C     		ldr	r3, [r4, #64]
 153 003c 43F40013 		orr	r3, r3, #2097152
 154 0040 2364     		str	r3, [r4, #64]
 155 0042 236C     		ldr	r3, [r4, #64]
 156 0044 03F40013 		and	r3, r3, #2097152
 157 0048 0293     		str	r3, [sp, #8]
 158 004a 029B     		ldr	r3, [sp, #8]
 159              	.LBE5:
 483:Src/stm32f4_discovery.c **** 
 484:Src/stm32f4_discovery.c ****   /* Force the I2C peripheral clock reset */
 485:Src/stm32f4_discovery.c ****   DISCOVERY_I2Cx_FORCE_RESET();
 160              		.loc 1 485 0
 161 004c 236A     		ldr	r3, [r4, #32]
 162 004e 43F40013 		orr	r3, r3, #2097152
 163 0052 2362     		str	r3, [r4, #32]
 486:Src/stm32f4_discovery.c **** 
 487:Src/stm32f4_discovery.c ****   /* Release the I2C peripheral clock reset */
 488:Src/stm32f4_discovery.c ****   DISCOVERY_I2Cx_RELEASE_RESET();
 164              		.loc 1 488 0
 165 0054 236A     		ldr	r3, [r4, #32]
 166 0056 23F40013 		bic	r3, r3, #2097152
 167 005a 2362     		str	r3, [r4, #32]
 489:Src/stm32f4_discovery.c **** 
 490:Src/stm32f4_discovery.c ****   /* Enable and set I2Cx Interrupt to the highest priority */
 491:Src/stm32f4_discovery.c ****   HAL_NVIC_SetPriority(DISCOVERY_I2Cx_EV_IRQn, 0, 0);
 168              		.loc 1 491 0
 169 005c 2A46     		mov	r2, r5
 170 005e 2946     		mov	r1, r5
 171 0060 1F20     		movs	r0, #31
 172 0062 FFF7FEFF 		bl	HAL_NVIC_SetPriority
 173              	.LVL2:
 492:Src/stm32f4_discovery.c ****   HAL_NVIC_EnableIRQ(DISCOVERY_I2Cx_EV_IRQn);
 174              		.loc 1 492 0
 175 0066 1F20     		movs	r0, #31
 176 0068 FFF7FEFF 		bl	HAL_NVIC_EnableIRQ
 177              	.LVL3:
 493:Src/stm32f4_discovery.c **** 
 494:Src/stm32f4_discovery.c ****   /* Enable and set I2Cx Interrupt to the highest priority */
 495:Src/stm32f4_discovery.c ****   HAL_NVIC_SetPriority(DISCOVERY_I2Cx_ER_IRQn, 0, 0);
 178              		.loc 1 495 0
 179 006c 2A46     		mov	r2, r5
 180 006e 2946     		mov	r1, r5
 181 0070 2020     		movs	r0, #32
 182 0072 FFF7FEFF 		bl	HAL_NVIC_SetPriority
 183              	.LVL4:
 496:Src/stm32f4_discovery.c ****   HAL_NVIC_EnableIRQ(DISCOVERY_I2Cx_ER_IRQn); 
 184              		.loc 1 496 0
 185 0076 2020     		movs	r0, #32
 186 0078 FFF7FEFF 		bl	HAL_NVIC_EnableIRQ
 187              	.LVL5:
 497:Src/stm32f4_discovery.c **** }
 188              		.loc 1 497 0
 189 007c 09B0     		add	sp, sp, #36
 190              	.LCFI5:
ARM GAS  C:\Users\Student\AppData\Local\Temp\ccnHQZjO.s 			page 13


 191              		.cfi_def_cfa_offset 12
 192              		@ sp needed
 193 007e 30BD     		pop	{r4, r5, pc}
 194              	.L8:
 195              		.align	2
 196              	.L7:
 197 0080 00380240 		.word	1073887232
 198 0084 00040240 		.word	1073873920
 199              		.cfi_endproc
 200              	.LFE139:
 202              		.section	.text.SPIx_Init,"ax",%progbits
 203              		.align	1
 204              		.syntax unified
 205              		.thumb
 206              		.thumb_func
 207              		.fpu fpv4-sp-d16
 209              	SPIx_Init:
 210              	.LFB131:
 310:Src/stm32f4_discovery.c ****   if(HAL_SPI_GetState(&SpiHandle) == HAL_SPI_STATE_RESET)
 211              		.loc 1 310 0
 212              		.cfi_startproc
 213              		@ args = 0, pretend = 0, frame = 0
 214              		@ frame_needed = 0, uses_anonymous_args = 0
 215 0000 10B5     		push	{r4, lr}
 216              	.LCFI6:
 217              		.cfi_def_cfa_offset 8
 218              		.cfi_offset 4, -8
 219              		.cfi_offset 14, -4
 311:Src/stm32f4_discovery.c ****   {
 220              		.loc 1 311 0
 221 0002 1048     		ldr	r0, .L13
 222 0004 FFF7FEFF 		bl	HAL_SPI_GetState
 223              	.LVL6:
 224 0008 00B1     		cbz	r0, .L12
 225              	.L9:
 226 000a 10BD     		pop	{r4, pc}
 227              	.L12:
 314:Src/stm32f4_discovery.c ****     SpiHandle.Init.BaudRatePrescaler = SPI_BAUDRATEPRESCALER_16;
 228              		.loc 1 314 0
 229 000c 0D4C     		ldr	r4, .L13
 230 000e 0E4B     		ldr	r3, .L13+4
 231 0010 2360     		str	r3, [r4]
 315:Src/stm32f4_discovery.c ****     SpiHandle.Init.Direction = SPI_DIRECTION_2LINES;
 232              		.loc 1 315 0
 233 0012 1823     		movs	r3, #24
 234 0014 E361     		str	r3, [r4, #28]
 316:Src/stm32f4_discovery.c ****     SpiHandle.Init.CLKPhase = SPI_PHASE_1EDGE;
 235              		.loc 1 316 0
 236 0016 0023     		movs	r3, #0
 237 0018 A360     		str	r3, [r4, #8]
 317:Src/stm32f4_discovery.c ****     SpiHandle.Init.CLKPolarity = SPI_POLARITY_LOW;
 238              		.loc 1 317 0
 239 001a 6361     		str	r3, [r4, #20]
 318:Src/stm32f4_discovery.c ****     SpiHandle.Init.CRCCalculation = SPI_CRCCALCULATION_DISABLED;
 240              		.loc 1 318 0
 241 001c 2361     		str	r3, [r4, #16]
 319:Src/stm32f4_discovery.c ****     SpiHandle.Init.CRCPolynomial = 7;
ARM GAS  C:\Users\Student\AppData\Local\Temp\ccnHQZjO.s 			page 14


 242              		.loc 1 319 0
 243 001e A362     		str	r3, [r4, #40]
 320:Src/stm32f4_discovery.c ****     SpiHandle.Init.DataSize = SPI_DATASIZE_8BIT;
 244              		.loc 1 320 0
 245 0020 0722     		movs	r2, #7
 246 0022 E262     		str	r2, [r4, #44]
 321:Src/stm32f4_discovery.c ****     SpiHandle.Init.FirstBit = SPI_FIRSTBIT_MSB;
 247              		.loc 1 321 0
 248 0024 E360     		str	r3, [r4, #12]
 322:Src/stm32f4_discovery.c ****     SpiHandle.Init.NSS = SPI_NSS_SOFT;
 249              		.loc 1 322 0
 250 0026 2362     		str	r3, [r4, #32]
 323:Src/stm32f4_discovery.c ****     SpiHandle.Init.TIMode = SPI_TIMODE_DISABLED;
 251              		.loc 1 323 0
 252 0028 4FF40072 		mov	r2, #512
 253 002c A261     		str	r2, [r4, #24]
 324:Src/stm32f4_discovery.c ****     SpiHandle.Init.Mode = SPI_MODE_MASTER;
 254              		.loc 1 324 0
 255 002e 6362     		str	r3, [r4, #36]
 325:Src/stm32f4_discovery.c **** 
 256              		.loc 1 325 0
 257 0030 4FF48273 		mov	r3, #260
 258 0034 6360     		str	r3, [r4, #4]
 327:Src/stm32f4_discovery.c ****     HAL_SPI_Init(&SpiHandle);
 259              		.loc 1 327 0
 260 0036 FFF7FEFF 		bl	SPIx_MspInit
 261              	.LVL7:
 328:Src/stm32f4_discovery.c ****   }
 262              		.loc 1 328 0
 263 003a 2046     		mov	r0, r4
 264 003c FFF7FEFF 		bl	HAL_SPI_Init
 265              	.LVL8:
 330:Src/stm32f4_discovery.c **** 
 266              		.loc 1 330 0
 267 0040 E3E7     		b	.L9
 268              	.L14:
 269 0042 00BF     		.align	2
 270              	.L13:
 271 0044 00000000 		.word	.LANCHOR0
 272 0048 00300140 		.word	1073819648
 273              		.cfi_endproc
 274              	.LFE131:
 276              		.section	.text.SPIx_Error,"ax",%progbits
 277              		.align	1
 278              		.syntax unified
 279              		.thumb
 280              		.thumb_func
 281              		.fpu fpv4-sp-d16
 283              	SPIx_Error:
 284              	.LFB133:
 356:Src/stm32f4_discovery.c ****   /* De-initialize the SPI communication bus */
 285              		.loc 1 356 0
 286              		.cfi_startproc
 287              		@ args = 0, pretend = 0, frame = 0
 288              		@ frame_needed = 0, uses_anonymous_args = 0
 289 0000 08B5     		push	{r3, lr}
 290              	.LCFI7:
ARM GAS  C:\Users\Student\AppData\Local\Temp\ccnHQZjO.s 			page 15


 291              		.cfi_def_cfa_offset 8
 292              		.cfi_offset 3, -8
 293              		.cfi_offset 14, -4
 358:Src/stm32f4_discovery.c ****   
 294              		.loc 1 358 0
 295 0002 0348     		ldr	r0, .L17
 296 0004 FFF7FEFF 		bl	HAL_SPI_DeInit
 297              	.LVL9:
 361:Src/stm32f4_discovery.c **** }
 298              		.loc 1 361 0
 299 0008 FFF7FEFF 		bl	SPIx_Init
 300              	.LVL10:
 301 000c 08BD     		pop	{r3, pc}
 302              	.L18:
 303 000e 00BF     		.align	2
 304              	.L17:
 305 0010 00000000 		.word	.LANCHOR0
 306              		.cfi_endproc
 307              	.LFE133:
 309              		.section	.text.SPIx_WriteRead,"ax",%progbits
 310              		.align	1
 311              		.syntax unified
 312              		.thumb
 313              		.thumb_func
 314              		.fpu fpv4-sp-d16
 316              	SPIx_WriteRead:
 317              	.LFB132:
 339:Src/stm32f4_discovery.c ****   uint8_t receivedbyte = 0;
 318              		.loc 1 339 0
 319              		.cfi_startproc
 320              		@ args = 0, pretend = 0, frame = 16
 321              		@ frame_needed = 0, uses_anonymous_args = 0
 322              	.LVL11:
 323 0000 00B5     		push	{lr}
 324              	.LCFI8:
 325              		.cfi_def_cfa_offset 4
 326              		.cfi_offset 14, -4
 327 0002 87B0     		sub	sp, sp, #28
 328              	.LCFI9:
 329              		.cfi_def_cfa_offset 32
 330 0004 8DF80F00 		strb	r0, [sp, #15]
 340:Src/stm32f4_discovery.c ****   
 331              		.loc 1 340 0
 332 0008 06AA     		add	r2, sp, #24
 333 000a 0023     		movs	r3, #0
 334 000c 02F8013D 		strb	r3, [r2, #-1]!
 344:Src/stm32f4_discovery.c ****   {
 335              		.loc 1 344 0
 336 0010 084B     		ldr	r3, .L23
 337 0012 1B68     		ldr	r3, [r3]
 338 0014 0093     		str	r3, [sp]
 339 0016 0123     		movs	r3, #1
 340 0018 0DF10F01 		add	r1, sp, #15
 341 001c 0648     		ldr	r0, .L23+4
 342              	.LVL12:
 343 001e FFF7FEFF 		bl	HAL_SPI_TransmitReceive
 344              	.LVL13:
ARM GAS  C:\Users\Student\AppData\Local\Temp\ccnHQZjO.s 			page 16


 345 0022 20B9     		cbnz	r0, .L22
 346              	.L20:
 350:Src/stm32f4_discovery.c **** 
 347              		.loc 1 350 0
 348 0024 9DF81700 		ldrb	r0, [sp, #23]	@ zero_extendqisi2
 349 0028 07B0     		add	sp, sp, #28
 350              	.LCFI10:
 351              		.cfi_remember_state
 352              		.cfi_def_cfa_offset 4
 353              		@ sp needed
 354 002a 5DF804FB 		ldr	pc, [sp], #4
 355              	.L22:
 356              	.LCFI11:
 357              		.cfi_restore_state
 346:Src/stm32f4_discovery.c ****   }
 358              		.loc 1 346 0
 359 002e FFF7FEFF 		bl	SPIx_Error
 360              	.LVL14:
 361 0032 F7E7     		b	.L20
 362              	.L24:
 363              		.align	2
 364              	.L23:
 365 0034 00000000 		.word	.LANCHOR1
 366 0038 00000000 		.word	.LANCHOR0
 367              		.cfi_endproc
 368              	.LFE132:
 370              		.section	.text.I2Cx_Init,"ax",%progbits
 371              		.align	1
 372              		.syntax unified
 373              		.thumb
 374              		.thumb_func
 375              		.fpu fpv4-sp-d16
 377              	I2Cx_Init:
 378              	.LFB135:
 391:Src/stm32f4_discovery.c ****   if(HAL_I2C_GetState(&I2cHandle) == HAL_I2C_STATE_RESET)
 379              		.loc 1 391 0
 380              		.cfi_startproc
 381              		@ args = 0, pretend = 0, frame = 0
 382              		@ frame_needed = 0, uses_anonymous_args = 0
 383 0000 10B5     		push	{r4, lr}
 384              	.LCFI12:
 385              		.cfi_def_cfa_offset 8
 386              		.cfi_offset 4, -8
 387              		.cfi_offset 14, -4
 392:Src/stm32f4_discovery.c ****   {
 388              		.loc 1 392 0
 389 0002 0B48     		ldr	r0, .L29
 390 0004 FFF7FEFF 		bl	HAL_I2C_GetState
 391              	.LVL15:
 392 0008 00B1     		cbz	r0, .L28
 393              	.L25:
 394 000a 10BD     		pop	{r4, pc}
 395              	.L28:
 395:Src/stm32f4_discovery.c ****     I2cHandle.Init.DutyCycle = I2C_DUTYCYCLE_2;
 396              		.loc 1 395 0
 397 000c 084C     		ldr	r4, .L29
 398 000e 094B     		ldr	r3, .L29+4
ARM GAS  C:\Users\Student\AppData\Local\Temp\ccnHQZjO.s 			page 17


 399 0010 6360     		str	r3, [r4, #4]
 396:Src/stm32f4_discovery.c ****     I2cHandle.Init.OwnAddress1 = 0x33;
 400              		.loc 1 396 0
 401 0012 0023     		movs	r3, #0
 402 0014 A360     		str	r3, [r4, #8]
 397:Src/stm32f4_discovery.c ****     I2cHandle.Init.AddressingMode = I2C_ADDRESSINGMODE_7BIT;
 403              		.loc 1 397 0
 404 0016 3323     		movs	r3, #51
 405 0018 E360     		str	r3, [r4, #12]
 398:Src/stm32f4_discovery.c ****     I2cHandle.Instance = DISCOVERY_I2Cx;
 406              		.loc 1 398 0
 407 001a 4FF48043 		mov	r3, #16384
 408 001e 2361     		str	r3, [r4, #16]
 399:Src/stm32f4_discovery.c ****       
 409              		.loc 1 399 0
 410 0020 054B     		ldr	r3, .L29+8
 411 0022 2360     		str	r3, [r4]
 402:Src/stm32f4_discovery.c ****     HAL_I2C_Init(&I2cHandle);
 412              		.loc 1 402 0
 413 0024 FFF7FEFF 		bl	I2Cx_MspInit
 414              	.LVL16:
 403:Src/stm32f4_discovery.c ****   }
 415              		.loc 1 403 0
 416 0028 2046     		mov	r0, r4
 417 002a FFF7FEFF 		bl	HAL_I2C_Init
 418              	.LVL17:
 405:Src/stm32f4_discovery.c **** 
 419              		.loc 1 405 0
 420 002e ECE7     		b	.L25
 421              	.L30:
 422              		.align	2
 423              	.L29:
 424 0030 00000000 		.word	.LANCHOR2
 425 0034 A0860100 		.word	100000
 426 0038 00540040 		.word	1073763328
 427              		.cfi_endproc
 428              	.LFE135:
 430              		.section	.text.I2Cx_Error,"ax",%progbits
 431              		.align	1
 432              		.syntax unified
 433              		.thumb
 434              		.thumb_func
 435              		.fpu fpv4-sp-d16
 437              	I2Cx_Error:
 438              	.LFB138:
 455:Src/stm32f4_discovery.c ****   /* De-initialize the I2C communication bus */
 439              		.loc 1 455 0
 440              		.cfi_startproc
 441              		@ args = 0, pretend = 0, frame = 0
 442              		@ frame_needed = 0, uses_anonymous_args = 0
 443              	.LVL18:
 444 0000 08B5     		push	{r3, lr}
 445              	.LCFI13:
 446              		.cfi_def_cfa_offset 8
 447              		.cfi_offset 3, -8
 448              		.cfi_offset 14, -4
 457:Src/stm32f4_discovery.c ****   
ARM GAS  C:\Users\Student\AppData\Local\Temp\ccnHQZjO.s 			page 18


 449              		.loc 1 457 0
 450 0002 0348     		ldr	r0, .L33
 451              	.LVL19:
 452 0004 FFF7FEFF 		bl	HAL_I2C_DeInit
 453              	.LVL20:
 460:Src/stm32f4_discovery.c **** }
 454              		.loc 1 460 0
 455 0008 FFF7FEFF 		bl	I2Cx_Init
 456              	.LVL21:
 457 000c 08BD     		pop	{r3, pc}
 458              	.L34:
 459 000e 00BF     		.align	2
 460              	.L33:
 461 0010 00000000 		.word	.LANCHOR2
 462              		.cfi_endproc
 463              	.LFE138:
 465              		.section	.text.I2Cx_WriteData,"ax",%progbits
 466              		.align	1
 467              		.syntax unified
 468              		.thumb
 469              		.thumb_func
 470              		.fpu fpv4-sp-d16
 472              	I2Cx_WriteData:
 473              	.LFB136:
 415:Src/stm32f4_discovery.c ****   HAL_StatusTypeDef status = HAL_OK;
 474              		.loc 1 415 0
 475              		.cfi_startproc
 476              		@ args = 0, pretend = 0, frame = 8
 477              		@ frame_needed = 0, uses_anonymous_args = 0
 478              	.LVL22:
 479 0000 10B5     		push	{r4, lr}
 480              	.LCFI14:
 481              		.cfi_def_cfa_offset 8
 482              		.cfi_offset 4, -8
 483              		.cfi_offset 14, -4
 484 0002 86B0     		sub	sp, sp, #24
 485              	.LCFI15:
 486              		.cfi_def_cfa_offset 32
 487 0004 0446     		mov	r4, r0
 488 0006 06A8     		add	r0, sp, #24
 489              	.LVL23:
 490 0008 00F8012D 		strb	r2, [r0, #-1]!
 491              	.LVL24:
 418:Src/stm32f4_discovery.c **** 
 492              		.loc 1 418 0
 493 000c 084B     		ldr	r3, .L39
 494 000e 1B68     		ldr	r3, [r3]
 495 0010 0293     		str	r3, [sp, #8]
 496 0012 0123     		movs	r3, #1
 497 0014 0193     		str	r3, [sp, #4]
 498 0016 0090     		str	r0, [sp]
 499 0018 0A46     		mov	r2, r1
 500              	.LVL25:
 501 001a 2146     		mov	r1, r4
 502              	.LVL26:
 503 001c 0548     		ldr	r0, .L39+4
 504              	.LVL27:
ARM GAS  C:\Users\Student\AppData\Local\Temp\ccnHQZjO.s 			page 19


 505 001e FFF7FEFF 		bl	HAL_I2C_Mem_Write
 506              	.LVL28:
 421:Src/stm32f4_discovery.c ****   {
 507              		.loc 1 421 0
 508 0022 08B9     		cbnz	r0, .L38
 509              	.LVL29:
 510              	.L35:
 426:Src/stm32f4_discovery.c **** 
 511              		.loc 1 426 0
 512 0024 06B0     		add	sp, sp, #24
 513              	.LCFI16:
 514              		.cfi_remember_state
 515              		.cfi_def_cfa_offset 8
 516              		@ sp needed
 517 0026 10BD     		pop	{r4, pc}
 518              	.LVL30:
 519              	.L38:
 520              	.LCFI17:
 521              		.cfi_restore_state
 424:Src/stm32f4_discovery.c ****   }
 522              		.loc 1 424 0
 523 0028 2046     		mov	r0, r4
 524              	.LVL31:
 525 002a FFF7FEFF 		bl	I2Cx_Error
 526              	.LVL32:
 426:Src/stm32f4_discovery.c **** 
 527              		.loc 1 426 0
 528 002e F9E7     		b	.L35
 529              	.L40:
 530              		.align	2
 531              	.L39:
 532 0030 00000000 		.word	.LANCHOR3
 533 0034 00000000 		.word	.LANCHOR2
 534              		.cfi_endproc
 535              	.LFE136:
 537              		.section	.text.I2Cx_ReadData,"ax",%progbits
 538              		.align	1
 539              		.syntax unified
 540              		.thumb
 541              		.thumb_func
 542              		.fpu fpv4-sp-d16
 544              	I2Cx_ReadData:
 545              	.LFB137:
 435:Src/stm32f4_discovery.c ****   HAL_StatusTypeDef status = HAL_OK;
 546              		.loc 1 435 0
 547              		.cfi_startproc
 548              		@ args = 0, pretend = 0, frame = 8
 549              		@ frame_needed = 0, uses_anonymous_args = 0
 550              	.LVL33:
 551 0000 10B5     		push	{r4, lr}
 552              	.LCFI18:
 553              		.cfi_def_cfa_offset 8
 554              		.cfi_offset 4, -8
 555              		.cfi_offset 14, -4
 556 0002 86B0     		sub	sp, sp, #24
 557              	.LCFI19:
 558              		.cfi_def_cfa_offset 32
ARM GAS  C:\Users\Student\AppData\Local\Temp\ccnHQZjO.s 			page 20


 559 0004 0446     		mov	r4, r0
 560              	.LVL34:
 437:Src/stm32f4_discovery.c ****   
 561              		.loc 1 437 0
 562 0006 06AA     		add	r2, sp, #24
 563 0008 0023     		movs	r3, #0
 564 000a 02F8013D 		strb	r3, [r2, #-1]!
 439:Src/stm32f4_discovery.c ****   
 565              		.loc 1 439 0
 566 000e 0A4B     		ldr	r3, .L45
 567 0010 1B68     		ldr	r3, [r3]
 568 0012 0293     		str	r3, [sp, #8]
 569 0014 0123     		movs	r3, #1
 570 0016 0193     		str	r3, [sp, #4]
 571 0018 0092     		str	r2, [sp]
 572 001a 0A46     		mov	r2, r1
 573 001c 0146     		mov	r1, r0
 574              	.LVL35:
 575 001e 0748     		ldr	r0, .L45+4
 576              	.LVL36:
 577 0020 FFF7FEFF 		bl	HAL_I2C_Mem_Read
 578              	.LVL37:
 442:Src/stm32f4_discovery.c ****   {
 579              		.loc 1 442 0
 580 0024 18B9     		cbnz	r0, .L44
 581              	.LVL38:
 582              	.L42:
 448:Src/stm32f4_discovery.c **** 
 583              		.loc 1 448 0
 584 0026 9DF81700 		ldrb	r0, [sp, #23]	@ zero_extendqisi2
 585 002a 06B0     		add	sp, sp, #24
 586              	.LCFI20:
 587              		.cfi_remember_state
 588              		.cfi_def_cfa_offset 8
 589              		@ sp needed
 590 002c 10BD     		pop	{r4, pc}
 591              	.LVL39:
 592              	.L44:
 593              	.LCFI21:
 594              		.cfi_restore_state
 445:Src/stm32f4_discovery.c ****   }
 595              		.loc 1 445 0
 596 002e 2046     		mov	r0, r4
 597              	.LVL40:
 598 0030 FFF7FEFF 		bl	I2Cx_Error
 599              	.LVL41:
 600 0034 F7E7     		b	.L42
 601              	.L46:
 602 0036 00BF     		.align	2
 603              	.L45:
 604 0038 00000000 		.word	.LANCHOR3
 605 003c 00000000 		.word	.LANCHOR2
 606              		.cfi_endproc
 607              	.LFE137:
 609              		.section	.text.BSP_GetVersion,"ax",%progbits
 610              		.align	1
 611              		.global	BSP_GetVersion
ARM GAS  C:\Users\Student\AppData\Local\Temp\ccnHQZjO.s 			page 21


 612              		.syntax unified
 613              		.thumb
 614              		.thumb_func
 615              		.fpu fpv4-sp-d16
 617              	BSP_GetVersion:
 618              	.LFB124:
 157:Src/stm32f4_discovery.c ****   return __STM32F4_DISCO_BSP_VERSION;
 619              		.loc 1 157 0
 620              		.cfi_startproc
 621              		@ args = 0, pretend = 0, frame = 0
 622              		@ frame_needed = 0, uses_anonymous_args = 0
 623              		@ link register save eliminated.
 159:Src/stm32f4_discovery.c **** 
 624              		.loc 1 159 0
 625 0000 0048     		ldr	r0, .L48
 626 0002 7047     		bx	lr
 627              	.L49:
 628              		.align	2
 629              	.L48:
 630 0004 00030102 		.word	33620736
 631              		.cfi_endproc
 632              	.LFE124:
 634              		.section	.text.BSP_LED_Init,"ax",%progbits
 635              		.align	1
 636              		.global	BSP_LED_Init
 637              		.syntax unified
 638              		.thumb
 639              		.thumb_func
 640              		.fpu fpv4-sp-d16
 642              	BSP_LED_Init:
 643              	.LFB125:
 171:Src/stm32f4_discovery.c ****   GPIO_InitTypeDef  GPIO_InitStruct;
 644              		.loc 1 171 0
 645              		.cfi_startproc
 646              		@ args = 0, pretend = 0, frame = 40
 647              		@ frame_needed = 0, uses_anonymous_args = 0
 648              	.LVL42:
 649 0000 70B5     		push	{r4, r5, r6, lr}
 650              	.LCFI22:
 651              		.cfi_def_cfa_offset 16
 652              		.cfi_offset 4, -16
 653              		.cfi_offset 5, -12
 654              		.cfi_offset 6, -8
 655              		.cfi_offset 14, -4
 656 0002 8AB0     		sub	sp, sp, #40
 657              	.LCFI23:
 658              		.cfi_def_cfa_offset 56
 175:Src/stm32f4_discovery.c **** 
 659              		.loc 1 175 0
 660 0004 0446     		mov	r4, r0
 661 0006 90B1     		cbz	r0, .L56
 175:Src/stm32f4_discovery.c **** 
 662              		.loc 1 175 0 is_stmt 0 discriminator 2
 663 0008 0128     		cmp	r0, #1
 664 000a 33D0     		beq	.L57
 175:Src/stm32f4_discovery.c **** 
 665              		.loc 1 175 0 discriminator 4
ARM GAS  C:\Users\Student\AppData\Local\Temp\ccnHQZjO.s 			page 22


 666 000c 0228     		cmp	r0, #2
 667 000e 3ED0     		beq	.L58
 175:Src/stm32f4_discovery.c **** 
 668              		.loc 1 175 0 discriminator 6
 669 0010 0328     		cmp	r0, #3
 670 0012 18D1     		bne	.L52
 671              	.LBB6:
 175:Src/stm32f4_discovery.c **** 
 672              		.loc 1 175 0 discriminator 7
 673 0014 0023     		movs	r3, #0
 674 0016 0493     		str	r3, [sp, #16]
 675 0018 234B     		ldr	r3, .L59
 676 001a 1A6B     		ldr	r2, [r3, #48]
 677 001c 42F00802 		orr	r2, r2, #8
 678 0020 1A63     		str	r2, [r3, #48]
 679 0022 1B6B     		ldr	r3, [r3, #48]
 680 0024 03F00803 		and	r3, r3, #8
 681 0028 0493     		str	r3, [sp, #16]
 682 002a 049B     		ldr	r3, [sp, #16]
 683 002c 0BE0     		b	.L52
 684              	.L56:
 685              	.LBE6:
 686              	.LBB7:
 175:Src/stm32f4_discovery.c **** 
 687              		.loc 1 175 0 discriminator 1
 688 002e 0023     		movs	r3, #0
 689 0030 0193     		str	r3, [sp, #4]
 690 0032 1D4B     		ldr	r3, .L59
 691 0034 1A6B     		ldr	r2, [r3, #48]
 692 0036 42F00802 		orr	r2, r2, #8
 693 003a 1A63     		str	r2, [r3, #48]
 694 003c 1B6B     		ldr	r3, [r3, #48]
 695 003e 03F00803 		and	r3, r3, #8
 696 0042 0193     		str	r3, [sp, #4]
 697 0044 019B     		ldr	r3, [sp, #4]
 698              	.L52:
 699              	.LBE7:
 178:Src/stm32f4_discovery.c ****   GPIO_InitStruct.Mode = GPIO_MODE_OUTPUT_PP;
 700              		.loc 1 178 0 is_stmt 1
 701 0046 194B     		ldr	r3, .L59+4
 702 0048 33F81460 		ldrh	r6, [r3, r4, lsl #1]
 703 004c 0596     		str	r6, [sp, #20]
 179:Src/stm32f4_discovery.c ****   GPIO_InitStruct.Pull = GPIO_PULLUP;
 704              		.loc 1 179 0
 705 004e 0123     		movs	r3, #1
 706 0050 0693     		str	r3, [sp, #24]
 180:Src/stm32f4_discovery.c ****   GPIO_InitStruct.Speed = GPIO_SPEED_FAST;
 707              		.loc 1 180 0
 708 0052 0793     		str	r3, [sp, #28]
 181:Src/stm32f4_discovery.c ****   
 709              		.loc 1 181 0
 710 0054 0223     		movs	r3, #2
 711 0056 0893     		str	r3, [sp, #32]
 183:Src/stm32f4_discovery.c ****   
 712              		.loc 1 183 0
 713 0058 154D     		ldr	r5, .L59+8
 714 005a 05A9     		add	r1, sp, #20
ARM GAS  C:\Users\Student\AppData\Local\Temp\ccnHQZjO.s 			page 23


 715 005c 55F82400 		ldr	r0, [r5, r4, lsl #2]
 716              	.LVL43:
 717 0060 FFF7FEFF 		bl	HAL_GPIO_Init
 718              	.LVL44:
 185:Src/stm32f4_discovery.c **** }
 719              		.loc 1 185 0
 720 0064 0022     		movs	r2, #0
 721 0066 3146     		mov	r1, r6
 722 0068 55F82400 		ldr	r0, [r5, r4, lsl #2]
 723 006c FFF7FEFF 		bl	HAL_GPIO_WritePin
 724              	.LVL45:
 186:Src/stm32f4_discovery.c **** 
 725              		.loc 1 186 0
 726 0070 0AB0     		add	sp, sp, #40
 727              	.LCFI24:
 728              		.cfi_remember_state
 729              		.cfi_def_cfa_offset 16
 730              		@ sp needed
 731 0072 70BD     		pop	{r4, r5, r6, pc}
 732              	.LVL46:
 733              	.L57:
 734              	.LCFI25:
 735              		.cfi_restore_state
 736              	.LBB8:
 175:Src/stm32f4_discovery.c **** 
 737              		.loc 1 175 0 discriminator 3
 738 0074 0023     		movs	r3, #0
 739 0076 0293     		str	r3, [sp, #8]
 740 0078 0B4B     		ldr	r3, .L59
 741 007a 1A6B     		ldr	r2, [r3, #48]
 742 007c 42F00802 		orr	r2, r2, #8
 743 0080 1A63     		str	r2, [r3, #48]
 744 0082 1B6B     		ldr	r3, [r3, #48]
 745 0084 03F00803 		and	r3, r3, #8
 746 0088 0293     		str	r3, [sp, #8]
 747 008a 029B     		ldr	r3, [sp, #8]
 748              	.LBE8:
 749 008c DBE7     		b	.L52
 750              	.L58:
 751              	.LBB9:
 175:Src/stm32f4_discovery.c **** 
 752              		.loc 1 175 0 is_stmt 0 discriminator 5
 753 008e 0023     		movs	r3, #0
 754 0090 0393     		str	r3, [sp, #12]
 755 0092 054B     		ldr	r3, .L59
 756 0094 1A6B     		ldr	r2, [r3, #48]
 757 0096 42F00802 		orr	r2, r2, #8
 758 009a 1A63     		str	r2, [r3, #48]
 759 009c 1B6B     		ldr	r3, [r3, #48]
 760 009e 03F00803 		and	r3, r3, #8
 761 00a2 0393     		str	r3, [sp, #12]
 762 00a4 039B     		ldr	r3, [sp, #12]
 763              	.LBE9:
 764 00a6 CEE7     		b	.L52
 765              	.L60:
 766              		.align	2
 767              	.L59:
ARM GAS  C:\Users\Student\AppData\Local\Temp\ccnHQZjO.s 			page 24


 768 00a8 00380240 		.word	1073887232
 769 00ac 00000000 		.word	.LANCHOR4
 770 00b0 00000000 		.word	.LANCHOR5
 771              		.cfi_endproc
 772              	.LFE125:
 774              		.section	.text.BSP_LED_On,"ax",%progbits
 775              		.align	1
 776              		.global	BSP_LED_On
 777              		.syntax unified
 778              		.thumb
 779              		.thumb_func
 780              		.fpu fpv4-sp-d16
 782              	BSP_LED_On:
 783              	.LFB126:
 198:Src/stm32f4_discovery.c ****   HAL_GPIO_WritePin(GPIO_PORT[Led], GPIO_PIN[Led], GPIO_PIN_SET); 
 784              		.loc 1 198 0 is_stmt 1
 785              		.cfi_startproc
 786              		@ args = 0, pretend = 0, frame = 0
 787              		@ frame_needed = 0, uses_anonymous_args = 0
 788              	.LVL47:
 789 0000 08B5     		push	{r3, lr}
 790              	.LCFI26:
 791              		.cfi_def_cfa_offset 8
 792              		.cfi_offset 3, -8
 793              		.cfi_offset 14, -4
 199:Src/stm32f4_discovery.c **** }
 794              		.loc 1 199 0
 795 0002 0122     		movs	r2, #1
 796 0004 044B     		ldr	r3, .L63
 797 0006 33F81010 		ldrh	r1, [r3, r0, lsl #1]
 798 000a 044B     		ldr	r3, .L63+4
 799 000c 53F82000 		ldr	r0, [r3, r0, lsl #2]
 800              	.LVL48:
 801 0010 FFF7FEFF 		bl	HAL_GPIO_WritePin
 802              	.LVL49:
 803 0014 08BD     		pop	{r3, pc}
 804              	.L64:
 805 0016 00BF     		.align	2
 806              	.L63:
 807 0018 00000000 		.word	.LANCHOR4
 808 001c 00000000 		.word	.LANCHOR5
 809              		.cfi_endproc
 810              	.LFE126:
 812              		.section	.text.BSP_LED_Off,"ax",%progbits
 813              		.align	1
 814              		.global	BSP_LED_Off
 815              		.syntax unified
 816              		.thumb
 817              		.thumb_func
 818              		.fpu fpv4-sp-d16
 820              	BSP_LED_Off:
 821              	.LFB127:
 212:Src/stm32f4_discovery.c ****   HAL_GPIO_WritePin(GPIO_PORT[Led], GPIO_PIN[Led], GPIO_PIN_RESET); 
 822              		.loc 1 212 0
 823              		.cfi_startproc
 824              		@ args = 0, pretend = 0, frame = 0
 825              		@ frame_needed = 0, uses_anonymous_args = 0
ARM GAS  C:\Users\Student\AppData\Local\Temp\ccnHQZjO.s 			page 25


 826              	.LVL50:
 827 0000 08B5     		push	{r3, lr}
 828              	.LCFI27:
 829              		.cfi_def_cfa_offset 8
 830              		.cfi_offset 3, -8
 831              		.cfi_offset 14, -4
 213:Src/stm32f4_discovery.c **** }
 832              		.loc 1 213 0
 833 0002 0022     		movs	r2, #0
 834 0004 044B     		ldr	r3, .L67
 835 0006 33F81010 		ldrh	r1, [r3, r0, lsl #1]
 836 000a 044B     		ldr	r3, .L67+4
 837 000c 53F82000 		ldr	r0, [r3, r0, lsl #2]
 838              	.LVL51:
 839 0010 FFF7FEFF 		bl	HAL_GPIO_WritePin
 840              	.LVL52:
 841 0014 08BD     		pop	{r3, pc}
 842              	.L68:
 843 0016 00BF     		.align	2
 844              	.L67:
 845 0018 00000000 		.word	.LANCHOR4
 846 001c 00000000 		.word	.LANCHOR5
 847              		.cfi_endproc
 848              	.LFE127:
 850              		.section	.text.BSP_LED_Toggle,"ax",%progbits
 851              		.align	1
 852              		.global	BSP_LED_Toggle
 853              		.syntax unified
 854              		.thumb
 855              		.thumb_func
 856              		.fpu fpv4-sp-d16
 858              	BSP_LED_Toggle:
 859              	.LFB128:
 226:Src/stm32f4_discovery.c ****   HAL_GPIO_TogglePin(GPIO_PORT[Led], GPIO_PIN[Led]);
 860              		.loc 1 226 0
 861              		.cfi_startproc
 862              		@ args = 0, pretend = 0, frame = 0
 863              		@ frame_needed = 0, uses_anonymous_args = 0
 864              	.LVL53:
 865 0000 08B5     		push	{r3, lr}
 866              	.LCFI28:
 867              		.cfi_def_cfa_offset 8
 868              		.cfi_offset 3, -8
 869              		.cfi_offset 14, -4
 227:Src/stm32f4_discovery.c **** }
 870              		.loc 1 227 0
 871 0002 044B     		ldr	r3, .L71
 872 0004 33F81010 		ldrh	r1, [r3, r0, lsl #1]
 873 0008 034B     		ldr	r3, .L71+4
 874 000a 53F82000 		ldr	r0, [r3, r0, lsl #2]
 875              	.LVL54:
 876 000e FFF7FEFF 		bl	HAL_GPIO_TogglePin
 877              	.LVL55:
 878 0012 08BD     		pop	{r3, pc}
 879              	.L72:
 880              		.align	2
 881              	.L71:
ARM GAS  C:\Users\Student\AppData\Local\Temp\ccnHQZjO.s 			page 26


 882 0014 00000000 		.word	.LANCHOR4
 883 0018 00000000 		.word	.LANCHOR5
 884              		.cfi_endproc
 885              	.LFE128:
 887              		.section	.text.BSP_PB_Init,"ax",%progbits
 888              		.align	1
 889              		.global	BSP_PB_Init
 890              		.syntax unified
 891              		.thumb
 892              		.thumb_func
 893              		.fpu fpv4-sp-d16
 895              	BSP_PB_Init:
 896              	.LFB129:
 249:Src/stm32f4_discovery.c ****   GPIO_InitTypeDef GPIO_InitStruct;
 897              		.loc 1 249 0
 898              		.cfi_startproc
 899              		@ args = 0, pretend = 0, frame = 24
 900              		@ frame_needed = 0, uses_anonymous_args = 0
 901              	.LVL56:
 902 0000 30B5     		push	{r4, r5, lr}
 903              	.LCFI29:
 904              		.cfi_def_cfa_offset 12
 905              		.cfi_offset 4, -12
 906              		.cfi_offset 5, -8
 907              		.cfi_offset 14, -4
 908 0002 87B0     		sub	sp, sp, #28
 909              	.LCFI30:
 910              		.cfi_def_cfa_offset 40
 911 0004 0C46     		mov	r4, r1
 253:Src/stm32f4_discovery.c ****   
 912              		.loc 1 253 0
 913 0006 0546     		mov	r5, r0
 914 0008 58B9     		cbnz	r0, .L74
 915              	.LBB10:
 253:Src/stm32f4_discovery.c ****   
 916              		.loc 1 253 0 is_stmt 0 discriminator 1
 917 000a 0023     		movs	r3, #0
 918 000c 0093     		str	r3, [sp]
 919 000e 1A4B     		ldr	r3, .L80
 920 0010 1A6B     		ldr	r2, [r3, #48]
 921 0012 42F00102 		orr	r2, r2, #1
 922 0016 1A63     		str	r2, [r3, #48]
 923 0018 1B6B     		ldr	r3, [r3, #48]
 924 001a 03F00103 		and	r3, r3, #1
 925 001e 0093     		str	r3, [sp]
 926 0020 009B     		ldr	r3, [sp]
 927              	.L74:
 928              	.LBE10:
 255:Src/stm32f4_discovery.c ****   {
 929              		.loc 1 255 0 is_stmt 1
 930 0022 1CB1     		cbz	r4, .L78
 931              	.LVL57:
 932              	.L75:
 266:Src/stm32f4_discovery.c ****   {
 933              		.loc 1 266 0
 934 0024 012C     		cmp	r4, #1
 935 0026 0FD0     		beq	.L79
ARM GAS  C:\Users\Student\AppData\Local\Temp\ccnHQZjO.s 			page 27


 936              	.L73:
 279:Src/stm32f4_discovery.c **** 
 937              		.loc 1 279 0
 938 0028 07B0     		add	sp, sp, #28
 939              	.LCFI31:
 940              		.cfi_remember_state
 941              		.cfi_def_cfa_offset 12
 942              		@ sp needed
 943 002a 30BD     		pop	{r4, r5, pc}
 944              	.LVL58:
 945              	.L78:
 946              	.LCFI32:
 947              		.cfi_restore_state
 258:Src/stm32f4_discovery.c ****     GPIO_InitStruct.Mode = GPIO_MODE_INPUT;
 948              		.loc 1 258 0
 949 002c 0123     		movs	r3, #1
 950 002e 0193     		str	r3, [sp, #4]
 259:Src/stm32f4_discovery.c ****     GPIO_InitStruct.Pull = GPIO_NOPULL;
 951              		.loc 1 259 0
 952 0030 0023     		movs	r3, #0
 953 0032 0293     		str	r3, [sp, #8]
 260:Src/stm32f4_discovery.c ****     GPIO_InitStruct.Speed = GPIO_SPEED_FAST;
 954              		.loc 1 260 0
 955 0034 0393     		str	r3, [sp, #12]
 261:Src/stm32f4_discovery.c ****     
 956              		.loc 1 261 0
 957 0036 0223     		movs	r3, #2
 958 0038 0493     		str	r3, [sp, #16]
 263:Src/stm32f4_discovery.c ****   }
 959              		.loc 1 263 0
 960 003a 01A9     		add	r1, sp, #4
 961              	.LVL59:
 962 003c 0F4B     		ldr	r3, .L80+4
 963 003e 53F82500 		ldr	r0, [r3, r5, lsl #2]
 964              	.LVL60:
 965 0042 FFF7FEFF 		bl	HAL_GPIO_Init
 966              	.LVL61:
 967 0046 EDE7     		b	.L75
 968              	.L79:
 269:Src/stm32f4_discovery.c ****     GPIO_InitStruct.Pull = GPIO_NOPULL;
 969              		.loc 1 269 0
 970 0048 0123     		movs	r3, #1
 971 004a 0193     		str	r3, [sp, #4]
 270:Src/stm32f4_discovery.c ****     GPIO_InitStruct.Speed = GPIO_SPEED_FAST;
 972              		.loc 1 270 0
 973 004c 0024     		movs	r4, #0
 974 004e 0394     		str	r4, [sp, #12]
 271:Src/stm32f4_discovery.c ****     GPIO_InitStruct.Mode = GPIO_MODE_IT_RISING; 
 975              		.loc 1 271 0
 976 0050 0223     		movs	r3, #2
 977 0052 0493     		str	r3, [sp, #16]
 272:Src/stm32f4_discovery.c ****     HAL_GPIO_Init(BUTTON_PORT[Button], &GPIO_InitStruct);
 978              		.loc 1 272 0
 979 0054 0A4B     		ldr	r3, .L80+8
 980 0056 0293     		str	r3, [sp, #8]
 273:Src/stm32f4_discovery.c ****     
 981              		.loc 1 273 0
ARM GAS  C:\Users\Student\AppData\Local\Temp\ccnHQZjO.s 			page 28


 982 0058 01A9     		add	r1, sp, #4
 983 005a 084B     		ldr	r3, .L80+4
 984 005c 53F82500 		ldr	r0, [r3, r5, lsl #2]
 985 0060 FFF7FEFF 		bl	HAL_GPIO_Init
 986              	.LVL62:
 276:Src/stm32f4_discovery.c ****     HAL_NVIC_EnableIRQ((IRQn_Type)(BUTTON_IRQn[Button]));
 987              		.loc 1 276 0
 988 0064 2246     		mov	r2, r4
 989 0066 0F21     		movs	r1, #15
 990 0068 0620     		movs	r0, #6
 991 006a FFF7FEFF 		bl	HAL_NVIC_SetPriority
 992              	.LVL63:
 277:Src/stm32f4_discovery.c ****   }
 993              		.loc 1 277 0
 994 006e 0620     		movs	r0, #6
 995 0070 FFF7FEFF 		bl	HAL_NVIC_EnableIRQ
 996              	.LVL64:
 279:Src/stm32f4_discovery.c **** 
 997              		.loc 1 279 0
 998 0074 D8E7     		b	.L73
 999              	.L81:
 1000 0076 00BF     		.align	2
 1001              	.L80:
 1002 0078 00380240 		.word	1073887232
 1003 007c 00000000 		.word	.LANCHOR6
 1004 0080 00001110 		.word	269549568
 1005              		.cfi_endproc
 1006              	.LFE129:
 1008              		.section	.text.BSP_PB_GetState,"ax",%progbits
 1009              		.align	1
 1010              		.global	BSP_PB_GetState
 1011              		.syntax unified
 1012              		.thumb
 1013              		.thumb_func
 1014              		.fpu fpv4-sp-d16
 1016              	BSP_PB_GetState:
 1017              	.LFB130:
 288:Src/stm32f4_discovery.c ****   return HAL_GPIO_ReadPin(BUTTON_PORT[Button], BUTTON_PIN[Button]);
 1018              		.loc 1 288 0
 1019              		.cfi_startproc
 1020              		@ args = 0, pretend = 0, frame = 0
 1021              		@ frame_needed = 0, uses_anonymous_args = 0
 1022              	.LVL65:
 1023 0000 08B5     		push	{r3, lr}
 1024              	.LCFI33:
 1025              		.cfi_def_cfa_offset 8
 1026              		.cfi_offset 3, -8
 1027              		.cfi_offset 14, -4
 289:Src/stm32f4_discovery.c **** }
 1028              		.loc 1 289 0
 1029 0002 0121     		movs	r1, #1
 1030 0004 024B     		ldr	r3, .L84
 1031 0006 53F82000 		ldr	r0, [r3, r0, lsl #2]
 1032              	.LVL66:
 1033 000a FFF7FEFF 		bl	HAL_GPIO_ReadPin
 1034              	.LVL67:
 290:Src/stm32f4_discovery.c **** 
ARM GAS  C:\Users\Student\AppData\Local\Temp\ccnHQZjO.s 			page 29


 1035              		.loc 1 290 0
 1036 000e 08BD     		pop	{r3, pc}
 1037              	.L85:
 1038              		.align	2
 1039              	.L84:
 1040 0010 00000000 		.word	.LANCHOR6
 1041              		.cfi_endproc
 1042              	.LFE130:
 1044              		.section	.text.ACCELERO_IO_Init,"ax",%progbits
 1045              		.align	1
 1046              		.global	ACCELERO_IO_Init
 1047              		.syntax unified
 1048              		.thumb
 1049              		.thumb_func
 1050              		.fpu fpv4-sp-d16
 1052              	ACCELERO_IO_Init:
 1053              	.LFB140:
 498:Src/stm32f4_discovery.c **** 
 499:Src/stm32f4_discovery.c **** /*******************************************************************************
 500:Src/stm32f4_discovery.c ****                             LINK OPERATIONS
 501:Src/stm32f4_discovery.c **** *******************************************************************************/
 502:Src/stm32f4_discovery.c **** 
 503:Src/stm32f4_discovery.c **** /***************************** LINK ACCELEROMETER *****************************/
 504:Src/stm32f4_discovery.c **** 
 505:Src/stm32f4_discovery.c **** /**
 506:Src/stm32f4_discovery.c ****   * @brief  Configures the Accelerometer SPI interface.
 507:Src/stm32f4_discovery.c ****   */
 508:Src/stm32f4_discovery.c **** void ACCELERO_IO_Init(void)
 509:Src/stm32f4_discovery.c **** {
 1054              		.loc 1 509 0
 1055              		.cfi_startproc
 1056              		@ args = 0, pretend = 0, frame = 24
 1057              		@ frame_needed = 0, uses_anonymous_args = 0
 1058 0000 70B5     		push	{r4, r5, r6, lr}
 1059              	.LCFI34:
 1060              		.cfi_def_cfa_offset 16
 1061              		.cfi_offset 4, -16
 1062              		.cfi_offset 5, -12
 1063              		.cfi_offset 6, -8
 1064              		.cfi_offset 14, -4
 1065 0002 86B0     		sub	sp, sp, #24
 1066              	.LCFI35:
 1067              		.cfi_def_cfa_offset 40
 1068              	.LBB11:
 510:Src/stm32f4_discovery.c ****   GPIO_InitTypeDef GPIO_InitStructure;
 511:Src/stm32f4_discovery.c ****   
 512:Src/stm32f4_discovery.c ****   /* Configure the Accelerometer Control pins --------------------------------*/
 513:Src/stm32f4_discovery.c ****   /* Enable CS GPIO clock and configure GPIO pin for Accelerometer Chip select */  
 514:Src/stm32f4_discovery.c ****   ACCELERO_CS_GPIO_CLK_ENABLE();
 1069              		.loc 1 514 0
 1070 0004 0021     		movs	r1, #0
 1071 0006 0091     		str	r1, [sp]
 1072 0008 0E4B     		ldr	r3, .L88
 1073 000a 1A6B     		ldr	r2, [r3, #48]
 1074 000c 42F01002 		orr	r2, r2, #16
 1075 0010 1A63     		str	r2, [r3, #48]
 1076 0012 1B6B     		ldr	r3, [r3, #48]
ARM GAS  C:\Users\Student\AppData\Local\Temp\ccnHQZjO.s 			page 30


 1077 0014 03F01003 		and	r3, r3, #16
 1078 0018 0093     		str	r3, [sp]
 1079 001a 009B     		ldr	r3, [sp]
 1080              	.LBE11:
 515:Src/stm32f4_discovery.c ****   
 516:Src/stm32f4_discovery.c ****   /* Configure GPIO PIN for LIS Chip select */
 517:Src/stm32f4_discovery.c ****   GPIO_InitStructure.Pin = ACCELERO_CS_PIN;
 1081              		.loc 1 517 0
 1082 001c 0826     		movs	r6, #8
 1083 001e 0196     		str	r6, [sp, #4]
 518:Src/stm32f4_discovery.c ****   GPIO_InitStructure.Mode = GPIO_MODE_OUTPUT_PP;
 1084              		.loc 1 518 0
 1085 0020 0124     		movs	r4, #1
 1086 0022 0294     		str	r4, [sp, #8]
 519:Src/stm32f4_discovery.c ****   GPIO_InitStructure.Pull  = GPIO_NOPULL;
 1087              		.loc 1 519 0
 1088 0024 0391     		str	r1, [sp, #12]
 520:Src/stm32f4_discovery.c ****   GPIO_InitStructure.Speed = GPIO_SPEED_MEDIUM;
 1089              		.loc 1 520 0
 1090 0026 0494     		str	r4, [sp, #16]
 521:Src/stm32f4_discovery.c ****   HAL_GPIO_Init(ACCELERO_CS_GPIO_PORT, &GPIO_InitStructure);
 1091              		.loc 1 521 0
 1092 0028 074D     		ldr	r5, .L88+4
 1093 002a 01A9     		add	r1, sp, #4
 1094 002c 2846     		mov	r0, r5
 1095 002e FFF7FEFF 		bl	HAL_GPIO_Init
 1096              	.LVL68:
 522:Src/stm32f4_discovery.c ****   
 523:Src/stm32f4_discovery.c ****   /* Deselect: Chip Select high */
 524:Src/stm32f4_discovery.c ****   ACCELERO_CS_HIGH();
 1097              		.loc 1 524 0
 1098 0032 2246     		mov	r2, r4
 1099 0034 3146     		mov	r1, r6
 1100 0036 2846     		mov	r0, r5
 1101 0038 FFF7FEFF 		bl	HAL_GPIO_WritePin
 1102              	.LVL69:
 525:Src/stm32f4_discovery.c ****   
 526:Src/stm32f4_discovery.c ****   SPIx_Init();
 1103              		.loc 1 526 0
 1104 003c FFF7FEFF 		bl	SPIx_Init
 1105              	.LVL70:
 527:Src/stm32f4_discovery.c **** }
 1106              		.loc 1 527 0
 1107 0040 06B0     		add	sp, sp, #24
 1108              	.LCFI36:
 1109              		.cfi_def_cfa_offset 16
 1110              		@ sp needed
 1111 0042 70BD     		pop	{r4, r5, r6, pc}
 1112              	.L89:
 1113              		.align	2
 1114              	.L88:
 1115 0044 00380240 		.word	1073887232
 1116 0048 00100240 		.word	1073876992
 1117              		.cfi_endproc
 1118              	.LFE140:
 1120              		.section	.text.ACCELERO_IO_ITConfig,"ax",%progbits
 1121              		.align	1
ARM GAS  C:\Users\Student\AppData\Local\Temp\ccnHQZjO.s 			page 31


 1122              		.global	ACCELERO_IO_ITConfig
 1123              		.syntax unified
 1124              		.thumb
 1125              		.thumb_func
 1126              		.fpu fpv4-sp-d16
 1128              	ACCELERO_IO_ITConfig:
 1129              	.LFB141:
 528:Src/stm32f4_discovery.c **** 
 529:Src/stm32f4_discovery.c **** /**
 530:Src/stm32f4_discovery.c ****   * @brief  Configures the Accelerometer INT2.
 531:Src/stm32f4_discovery.c ****   *         EXTI0 is already used by user button so INT1 is not configured here.
 532:Src/stm32f4_discovery.c ****   */
 533:Src/stm32f4_discovery.c **** void ACCELERO_IO_ITConfig(void)
 534:Src/stm32f4_discovery.c **** {
 1130              		.loc 1 534 0
 1131              		.cfi_startproc
 1132              		@ args = 0, pretend = 0, frame = 24
 1133              		@ frame_needed = 0, uses_anonymous_args = 0
 1134 0000 10B5     		push	{r4, lr}
 1135              	.LCFI37:
 1136              		.cfi_def_cfa_offset 8
 1137              		.cfi_offset 4, -8
 1138              		.cfi_offset 14, -4
 1139 0002 86B0     		sub	sp, sp, #24
 1140              	.LCFI38:
 1141              		.cfi_def_cfa_offset 32
 1142              	.LBB12:
 535:Src/stm32f4_discovery.c ****   GPIO_InitTypeDef GPIO_InitStructure;
 536:Src/stm32f4_discovery.c ****   
 537:Src/stm32f4_discovery.c ****   /* Enable INT2 GPIO clock and configure GPIO PINs to detect Interrupts */
 538:Src/stm32f4_discovery.c ****   ACCELERO_INT_GPIO_CLK_ENABLE();
 1143              		.loc 1 538 0
 1144 0004 0024     		movs	r4, #0
 1145 0006 0094     		str	r4, [sp]
 1146 0008 0E4B     		ldr	r3, .L92
 1147 000a 1A6B     		ldr	r2, [r3, #48]
 1148 000c 42F01002 		orr	r2, r2, #16
 1149 0010 1A63     		str	r2, [r3, #48]
 1150 0012 1B6B     		ldr	r3, [r3, #48]
 1151 0014 03F01003 		and	r3, r3, #16
 1152 0018 0093     		str	r3, [sp]
 1153 001a 009B     		ldr	r3, [sp]
 1154              	.LBE12:
 539:Src/stm32f4_discovery.c ****   
 540:Src/stm32f4_discovery.c ****   /* Configure GPIO PINs to detect Interrupts */
 541:Src/stm32f4_discovery.c ****   GPIO_InitStructure.Pin = ACCELERO_INT2_PIN;
 1155              		.loc 1 541 0
 1156 001c 0223     		movs	r3, #2
 1157 001e 0193     		str	r3, [sp, #4]
 542:Src/stm32f4_discovery.c ****   GPIO_InitStructure.Mode = GPIO_MODE_IT_RISING;
 1158              		.loc 1 542 0
 1159 0020 094A     		ldr	r2, .L92+4
 1160 0022 0292     		str	r2, [sp, #8]
 543:Src/stm32f4_discovery.c ****   GPIO_InitStructure.Speed = GPIO_SPEED_FAST;
 1161              		.loc 1 543 0
 1162 0024 0493     		str	r3, [sp, #16]
 544:Src/stm32f4_discovery.c ****   GPIO_InitStructure.Pull = GPIO_NOPULL;
ARM GAS  C:\Users\Student\AppData\Local\Temp\ccnHQZjO.s 			page 32


 1163              		.loc 1 544 0
 1164 0026 0394     		str	r4, [sp, #12]
 545:Src/stm32f4_discovery.c ****   HAL_GPIO_Init(ACCELERO_INT_GPIO_PORT, &GPIO_InitStructure);
 1165              		.loc 1 545 0
 1166 0028 01A9     		add	r1, sp, #4
 1167 002a 0848     		ldr	r0, .L92+8
 1168 002c FFF7FEFF 		bl	HAL_GPIO_Init
 1169              	.LVL71:
 546:Src/stm32f4_discovery.c ****   
 547:Src/stm32f4_discovery.c ****   /* Enable and set Accelerometer INT2 to the lowest priority */
 548:Src/stm32f4_discovery.c ****   HAL_NVIC_SetPriority((IRQn_Type)ACCELERO_INT2_EXTI_IRQn, 0x0F, 0);
 1170              		.loc 1 548 0
 1171 0030 2246     		mov	r2, r4
 1172 0032 0F21     		movs	r1, #15
 1173 0034 0720     		movs	r0, #7
 1174 0036 FFF7FEFF 		bl	HAL_NVIC_SetPriority
 1175              	.LVL72:
 549:Src/stm32f4_discovery.c ****   HAL_NVIC_EnableIRQ((IRQn_Type)ACCELERO_INT2_EXTI_IRQn);
 1176              		.loc 1 549 0
 1177 003a 0720     		movs	r0, #7
 1178 003c FFF7FEFF 		bl	HAL_NVIC_EnableIRQ
 1179              	.LVL73:
 550:Src/stm32f4_discovery.c **** }
 1180              		.loc 1 550 0
 1181 0040 06B0     		add	sp, sp, #24
 1182              	.LCFI39:
 1183              		.cfi_def_cfa_offset 8
 1184              		@ sp needed
 1185 0042 10BD     		pop	{r4, pc}
 1186              	.L93:
 1187              		.align	2
 1188              	.L92:
 1189 0044 00380240 		.word	1073887232
 1190 0048 00001110 		.word	269549568
 1191 004c 00100240 		.word	1073876992
 1192              		.cfi_endproc
 1193              	.LFE141:
 1195              		.section	.text.ACCELERO_IO_Write,"ax",%progbits
 1196              		.align	1
 1197              		.global	ACCELERO_IO_Write
 1198              		.syntax unified
 1199              		.thumb
 1200              		.thumb_func
 1201              		.fpu fpv4-sp-d16
 1203              	ACCELERO_IO_Write:
 1204              	.LFB142:
 551:Src/stm32f4_discovery.c **** 
 552:Src/stm32f4_discovery.c **** /**
 553:Src/stm32f4_discovery.c ****   * @brief  Writes one byte to the Accelerometer.
 554:Src/stm32f4_discovery.c ****   * @param  pBuffer: pointer to the buffer containing the data to be written to the Accelerometer.
 555:Src/stm32f4_discovery.c ****   * @param  WriteAddr: Accelerometer's internal address to write to.
 556:Src/stm32f4_discovery.c ****   * @param  NumByteToWrite: Number of bytes to write.
 557:Src/stm32f4_discovery.c ****   */
 558:Src/stm32f4_discovery.c **** void ACCELERO_IO_Write(uint8_t *pBuffer, uint8_t WriteAddr, uint16_t NumByteToWrite)
 559:Src/stm32f4_discovery.c **** {
 1205              		.loc 1 559 0
 1206              		.cfi_startproc
ARM GAS  C:\Users\Student\AppData\Local\Temp\ccnHQZjO.s 			page 33


 1207              		@ args = 0, pretend = 0, frame = 0
 1208              		@ frame_needed = 0, uses_anonymous_args = 0
 1209              	.LVL74:
 1210 0000 70B5     		push	{r4, r5, r6, lr}
 1211              	.LCFI40:
 1212              		.cfi_def_cfa_offset 16
 1213              		.cfi_offset 4, -16
 1214              		.cfi_offset 5, -12
 1215              		.cfi_offset 6, -8
 1216              		.cfi_offset 14, -4
 1217 0002 0546     		mov	r5, r0
 1218 0004 0E46     		mov	r6, r1
 1219 0006 1446     		mov	r4, r2
 560:Src/stm32f4_discovery.c ****   /* Configure the MS bit: 
 561:Src/stm32f4_discovery.c ****      - When 0, the address will remain unchanged in multiple read/write commands.
 562:Src/stm32f4_discovery.c ****      - When 1, the address will be auto incremented in multiple read/write commands.
 563:Src/stm32f4_discovery.c ****   */
 564:Src/stm32f4_discovery.c ****   if(NumByteToWrite > 0x01)
 1220              		.loc 1 564 0
 1221 0008 012A     		cmp	r2, #1
 1222 000a 01D9     		bls	.L95
 565:Src/stm32f4_discovery.c ****   {
 566:Src/stm32f4_discovery.c ****     WriteAddr |= (uint8_t)MULTIPLEBYTE_CMD;
 1223              		.loc 1 566 0
 1224 000c 41F04006 		orr	r6, r1, #64
 1225              	.LVL75:
 1226              	.L95:
 567:Src/stm32f4_discovery.c ****   }
 568:Src/stm32f4_discovery.c ****   /* Set chip select Low at the start of the transmission */
 569:Src/stm32f4_discovery.c ****   ACCELERO_CS_LOW();
 1227              		.loc 1 569 0
 1228 0010 0022     		movs	r2, #0
 1229              	.LVL76:
 1230 0012 0821     		movs	r1, #8
 1231 0014 0A48     		ldr	r0, .L99
 1232              	.LVL77:
 1233 0016 FFF7FEFF 		bl	HAL_GPIO_WritePin
 1234              	.LVL78:
 570:Src/stm32f4_discovery.c ****   
 571:Src/stm32f4_discovery.c ****   /* Send the Address of the indexed register */
 572:Src/stm32f4_discovery.c ****   SPIx_WriteRead(WriteAddr);
 1235              		.loc 1 572 0
 1236 001a 3046     		mov	r0, r6
 1237 001c FFF7FEFF 		bl	SPIx_WriteRead
 1238              	.LVL79:
 573:Src/stm32f4_discovery.c ****   
 574:Src/stm32f4_discovery.c ****   /* Send the data that will be written into the device (MSB First) */
 575:Src/stm32f4_discovery.c ****   while(NumByteToWrite >= 0x01)
 1239              		.loc 1 575 0
 1240 0020 05E0     		b	.L96
 1241              	.LVL80:
 1242              	.L97:
 576:Src/stm32f4_discovery.c ****   {
 577:Src/stm32f4_discovery.c ****     SPIx_WriteRead(*pBuffer);
 1243              		.loc 1 577 0
 1244 0022 15F8010B 		ldrb	r0, [r5], #1	@ zero_extendqisi2
 1245              	.LVL81:
ARM GAS  C:\Users\Student\AppData\Local\Temp\ccnHQZjO.s 			page 34


 1246 0026 FFF7FEFF 		bl	SPIx_WriteRead
 1247              	.LVL82:
 578:Src/stm32f4_discovery.c ****     NumByteToWrite--;
 1248              		.loc 1 578 0
 1249 002a 013C     		subs	r4, r4, #1
 1250              	.LVL83:
 1251 002c A4B2     		uxth	r4, r4
 1252              	.LVL84:
 1253              	.L96:
 575:Src/stm32f4_discovery.c ****   {
 1254              		.loc 1 575 0
 1255 002e 002C     		cmp	r4, #0
 1256 0030 F7D1     		bne	.L97
 579:Src/stm32f4_discovery.c ****     pBuffer++;
 580:Src/stm32f4_discovery.c ****   }
 581:Src/stm32f4_discovery.c ****   
 582:Src/stm32f4_discovery.c ****   /* Set chip select High at the end of the transmission */ 
 583:Src/stm32f4_discovery.c ****   ACCELERO_CS_HIGH();
 1257              		.loc 1 583 0
 1258 0032 0122     		movs	r2, #1
 1259 0034 0821     		movs	r1, #8
 1260 0036 0248     		ldr	r0, .L99
 1261 0038 FFF7FEFF 		bl	HAL_GPIO_WritePin
 1262              	.LVL85:
 1263 003c 70BD     		pop	{r4, r5, r6, pc}
 1264              	.LVL86:
 1265              	.L100:
 1266 003e 00BF     		.align	2
 1267              	.L99:
 1268 0040 00100240 		.word	1073876992
 1269              		.cfi_endproc
 1270              	.LFE142:
 1272              		.section	.text.ACCELERO_IO_Read,"ax",%progbits
 1273              		.align	1
 1274              		.global	ACCELERO_IO_Read
 1275              		.syntax unified
 1276              		.thumb
 1277              		.thumb_func
 1278              		.fpu fpv4-sp-d16
 1280              	ACCELERO_IO_Read:
 1281              	.LFB143:
 584:Src/stm32f4_discovery.c **** }
 585:Src/stm32f4_discovery.c **** 
 586:Src/stm32f4_discovery.c **** /**
 587:Src/stm32f4_discovery.c ****   * @brief  Reads a block of data from the Accelerometer.
 588:Src/stm32f4_discovery.c ****   * @param  pBuffer: pointer to the buffer that receives the data read from the Accelerometer.
 589:Src/stm32f4_discovery.c ****   * @param  ReadAddr: Accelerometer's internal address to read from.
 590:Src/stm32f4_discovery.c ****   * @param  NumByteToRead: number of bytes to read from the Accelerometer.
 591:Src/stm32f4_discovery.c ****   */
 592:Src/stm32f4_discovery.c **** void ACCELERO_IO_Read(uint8_t *pBuffer, uint8_t ReadAddr, uint16_t NumByteToRead)
 593:Src/stm32f4_discovery.c **** {  
 1282              		.loc 1 593 0
 1283              		.cfi_startproc
 1284              		@ args = 0, pretend = 0, frame = 0
 1285              		@ frame_needed = 0, uses_anonymous_args = 0
 1286              	.LVL87:
 1287 0000 70B5     		push	{r4, r5, r6, lr}
ARM GAS  C:\Users\Student\AppData\Local\Temp\ccnHQZjO.s 			page 35


 1288              	.LCFI41:
 1289              		.cfi_def_cfa_offset 16
 1290              		.cfi_offset 4, -16
 1291              		.cfi_offset 5, -12
 1292              		.cfi_offset 6, -8
 1293              		.cfi_offset 14, -4
 1294 0002 0546     		mov	r5, r0
 1295 0004 1446     		mov	r4, r2
 594:Src/stm32f4_discovery.c ****   if(NumByteToRead > 0x01)
 1296              		.loc 1 594 0
 1297 0006 012A     		cmp	r2, #1
 1298 0008 0AD9     		bls	.L102
 595:Src/stm32f4_discovery.c ****   {
 596:Src/stm32f4_discovery.c ****     ReadAddr |= (uint8_t)(READWRITE_CMD | MULTIPLEBYTE_CMD);
 1299              		.loc 1 596 0
 1300 000a 41F0C006 		orr	r6, r1, #192
 1301              	.LVL88:
 1302              	.L103:
 597:Src/stm32f4_discovery.c ****   }
 598:Src/stm32f4_discovery.c ****   else
 599:Src/stm32f4_discovery.c ****   {
 600:Src/stm32f4_discovery.c ****     ReadAddr |= (uint8_t)READWRITE_CMD;
 601:Src/stm32f4_discovery.c ****   }
 602:Src/stm32f4_discovery.c ****   /* Set chip select Low at the start of the transmission */
 603:Src/stm32f4_discovery.c ****   ACCELERO_CS_LOW();
 1303              		.loc 1 603 0
 1304 000e 0022     		movs	r2, #0
 1305              	.LVL89:
 1306 0010 0821     		movs	r1, #8
 1307 0012 0C48     		ldr	r0, .L107
 1308              	.LVL90:
 1309 0014 FFF7FEFF 		bl	HAL_GPIO_WritePin
 1310              	.LVL91:
 604:Src/stm32f4_discovery.c ****   
 605:Src/stm32f4_discovery.c ****   /* Send the Address of the indexed register */
 606:Src/stm32f4_discovery.c ****   SPIx_WriteRead(ReadAddr);
 1311              		.loc 1 606 0
 1312 0018 3046     		mov	r0, r6
 1313 001a FFF7FEFF 		bl	SPIx_WriteRead
 1314              	.LVL92:
 607:Src/stm32f4_discovery.c ****   
 608:Src/stm32f4_discovery.c ****   /* Receive the data that will be read from the device (MSB First) */
 609:Src/stm32f4_discovery.c ****   while(NumByteToRead > 0x00)
 1315              		.loc 1 609 0
 1316 001e 09E0     		b	.L104
 1317              	.LVL93:
 1318              	.L102:
 600:Src/stm32f4_discovery.c ****   }
 1319              		.loc 1 600 0
 1320 0020 41F08006 		orr	r6, r1, #128
 1321              	.LVL94:
 1322 0024 F3E7     		b	.L103
 1323              	.LVL95:
 1324              	.L105:
 610:Src/stm32f4_discovery.c ****   {
 611:Src/stm32f4_discovery.c ****     /* Send dummy byte (0x00) to generate the SPI clock to ACCELEROMETER (Slave device) */
 612:Src/stm32f4_discovery.c ****     *pBuffer = SPIx_WriteRead(DUMMY_BYTE);
ARM GAS  C:\Users\Student\AppData\Local\Temp\ccnHQZjO.s 			page 36


 1325              		.loc 1 612 0
 1326 0026 0020     		movs	r0, #0
 1327 0028 FFF7FEFF 		bl	SPIx_WriteRead
 1328              	.LVL96:
 1329 002c 05F8010B 		strb	r0, [r5], #1
 1330              	.LVL97:
 613:Src/stm32f4_discovery.c ****     NumByteToRead--;
 1331              		.loc 1 613 0
 1332 0030 013C     		subs	r4, r4, #1
 1333              	.LVL98:
 1334 0032 A4B2     		uxth	r4, r4
 1335              	.LVL99:
 1336              	.L104:
 609:Src/stm32f4_discovery.c ****   {
 1337              		.loc 1 609 0
 1338 0034 002C     		cmp	r4, #0
 1339 0036 F6D1     		bne	.L105
 614:Src/stm32f4_discovery.c ****     pBuffer++;
 615:Src/stm32f4_discovery.c ****   }
 616:Src/stm32f4_discovery.c ****   
 617:Src/stm32f4_discovery.c ****   /* Set chip select High at the end of the transmission */ 
 618:Src/stm32f4_discovery.c ****   ACCELERO_CS_HIGH();
 1340              		.loc 1 618 0
 1341 0038 0122     		movs	r2, #1
 1342 003a 0821     		movs	r1, #8
 1343 003c 0148     		ldr	r0, .L107
 1344 003e FFF7FEFF 		bl	HAL_GPIO_WritePin
 1345              	.LVL100:
 1346 0042 70BD     		pop	{r4, r5, r6, pc}
 1347              	.LVL101:
 1348              	.L108:
 1349              		.align	2
 1350              	.L107:
 1351 0044 00100240 		.word	1073876992
 1352              		.cfi_endproc
 1353              	.LFE143:
 1355              		.section	.text.AUDIO_IO_Init,"ax",%progbits
 1356              		.align	1
 1357              		.global	AUDIO_IO_Init
 1358              		.syntax unified
 1359              		.thumb
 1360              		.thumb_func
 1361              		.fpu fpv4-sp-d16
 1363              	AUDIO_IO_Init:
 1364              	.LFB144:
 619:Src/stm32f4_discovery.c **** }
 620:Src/stm32f4_discovery.c **** 
 621:Src/stm32f4_discovery.c **** /********************************* LINK AUDIO *********************************/
 622:Src/stm32f4_discovery.c **** 
 623:Src/stm32f4_discovery.c **** /**
 624:Src/stm32f4_discovery.c ****   * @brief  Initializes Audio low level.
 625:Src/stm32f4_discovery.c ****   */
 626:Src/stm32f4_discovery.c **** void AUDIO_IO_Init(void) 
 627:Src/stm32f4_discovery.c **** {
 1365              		.loc 1 627 0
 1366              		.cfi_startproc
 1367              		@ args = 0, pretend = 0, frame = 24
ARM GAS  C:\Users\Student\AppData\Local\Temp\ccnHQZjO.s 			page 37


 1368              		@ frame_needed = 0, uses_anonymous_args = 0
 1369 0000 F0B5     		push	{r4, r5, r6, r7, lr}
 1370              	.LCFI42:
 1371              		.cfi_def_cfa_offset 20
 1372              		.cfi_offset 4, -20
 1373              		.cfi_offset 5, -16
 1374              		.cfi_offset 6, -12
 1375              		.cfi_offset 7, -8
 1376              		.cfi_offset 14, -4
 1377 0002 87B0     		sub	sp, sp, #28
 1378              	.LCFI43:
 1379              		.cfi_def_cfa_offset 48
 1380              	.LBB13:
 628:Src/stm32f4_discovery.c ****   GPIO_InitTypeDef  GPIO_InitStruct;
 629:Src/stm32f4_discovery.c ****   
 630:Src/stm32f4_discovery.c ****   /* Enable Reset GPIO Clock */
 631:Src/stm32f4_discovery.c ****   AUDIO_RESET_GPIO_CLK_ENABLE();
 1381              		.loc 1 631 0
 1382 0004 0026     		movs	r6, #0
 1383 0006 0096     		str	r6, [sp]
 1384 0008 144B     		ldr	r3, .L111
 1385 000a 1A6B     		ldr	r2, [r3, #48]
 1386 000c 42F00802 		orr	r2, r2, #8
 1387 0010 1A63     		str	r2, [r3, #48]
 1388 0012 1B6B     		ldr	r3, [r3, #48]
 1389 0014 03F00803 		and	r3, r3, #8
 1390 0018 0093     		str	r3, [sp]
 1391 001a 009B     		ldr	r3, [sp]
 1392              	.LBE13:
 632:Src/stm32f4_discovery.c ****   
 633:Src/stm32f4_discovery.c ****   /* Audio reset pin configuration */
 634:Src/stm32f4_discovery.c ****   GPIO_InitStruct.Pin = AUDIO_RESET_PIN; 
 1393              		.loc 1 634 0
 1394 001c 1025     		movs	r5, #16
 1395 001e 0195     		str	r5, [sp, #4]
 635:Src/stm32f4_discovery.c ****   GPIO_InitStruct.Mode = GPIO_MODE_OUTPUT_PP;
 1396              		.loc 1 635 0
 1397 0020 0127     		movs	r7, #1
 1398 0022 0297     		str	r7, [sp, #8]
 636:Src/stm32f4_discovery.c ****   GPIO_InitStruct.Speed = GPIO_SPEED_FAST;
 1399              		.loc 1 636 0
 1400 0024 0223     		movs	r3, #2
 1401 0026 0493     		str	r3, [sp, #16]
 637:Src/stm32f4_discovery.c ****   GPIO_InitStruct.Pull  = GPIO_NOPULL;
 1402              		.loc 1 637 0
 1403 0028 0396     		str	r6, [sp, #12]
 638:Src/stm32f4_discovery.c ****   HAL_GPIO_Init(AUDIO_RESET_GPIO, &GPIO_InitStruct);    
 1404              		.loc 1 638 0
 1405 002a 0D4C     		ldr	r4, .L111+4
 1406 002c 01A9     		add	r1, sp, #4
 1407 002e 2046     		mov	r0, r4
 1408 0030 FFF7FEFF 		bl	HAL_GPIO_Init
 1409              	.LVL102:
 639:Src/stm32f4_discovery.c ****   
 640:Src/stm32f4_discovery.c ****   I2Cx_Init();
 1410              		.loc 1 640 0
 1411 0034 FFF7FEFF 		bl	I2Cx_Init
ARM GAS  C:\Users\Student\AppData\Local\Temp\ccnHQZjO.s 			page 38


 1412              	.LVL103:
 641:Src/stm32f4_discovery.c ****   
 642:Src/stm32f4_discovery.c ****   /* Power Down the codec */
 643:Src/stm32f4_discovery.c ****   HAL_GPIO_WritePin(AUDIO_RESET_GPIO, AUDIO_RESET_PIN, GPIO_PIN_RESET);
 1413              		.loc 1 643 0
 1414 0038 3246     		mov	r2, r6
 1415 003a 2946     		mov	r1, r5
 1416 003c 2046     		mov	r0, r4
 1417 003e FFF7FEFF 		bl	HAL_GPIO_WritePin
 1418              	.LVL104:
 644:Src/stm32f4_discovery.c ****   
 645:Src/stm32f4_discovery.c ****   /* Wait for a delay to insure registers erasing */
 646:Src/stm32f4_discovery.c ****   HAL_Delay(5); 
 1419              		.loc 1 646 0
 1420 0042 0520     		movs	r0, #5
 1421 0044 FFF7FEFF 		bl	HAL_Delay
 1422              	.LVL105:
 647:Src/stm32f4_discovery.c ****   
 648:Src/stm32f4_discovery.c ****   /* Power on the codec */
 649:Src/stm32f4_discovery.c ****   HAL_GPIO_WritePin(AUDIO_RESET_GPIO, AUDIO_RESET_PIN, GPIO_PIN_SET);
 1423              		.loc 1 649 0
 1424 0048 3A46     		mov	r2, r7
 1425 004a 2946     		mov	r1, r5
 1426 004c 2046     		mov	r0, r4
 1427 004e FFF7FEFF 		bl	HAL_GPIO_WritePin
 1428              	.LVL106:
 650:Src/stm32f4_discovery.c ****   
 651:Src/stm32f4_discovery.c ****   /* Wait for a delay to insure registers erasing */
 652:Src/stm32f4_discovery.c ****   HAL_Delay(5); 
 1429              		.loc 1 652 0
 1430 0052 0520     		movs	r0, #5
 1431 0054 FFF7FEFF 		bl	HAL_Delay
 1432              	.LVL107:
 653:Src/stm32f4_discovery.c **** }
 1433              		.loc 1 653 0
 1434 0058 07B0     		add	sp, sp, #28
 1435              	.LCFI44:
 1436              		.cfi_def_cfa_offset 20
 1437              		@ sp needed
 1438 005a F0BD     		pop	{r4, r5, r6, r7, pc}
 1439              	.L112:
 1440              		.align	2
 1441              	.L111:
 1442 005c 00380240 		.word	1073887232
 1443 0060 000C0240 		.word	1073875968
 1444              		.cfi_endproc
 1445              	.LFE144:
 1447              		.section	.text.AUDIO_IO_DeInit,"ax",%progbits
 1448              		.align	1
 1449              		.global	AUDIO_IO_DeInit
 1450              		.syntax unified
 1451              		.thumb
 1452              		.thumb_func
 1453              		.fpu fpv4-sp-d16
 1455              	AUDIO_IO_DeInit:
 1456              	.LFB145:
 654:Src/stm32f4_discovery.c **** 
ARM GAS  C:\Users\Student\AppData\Local\Temp\ccnHQZjO.s 			page 39


 655:Src/stm32f4_discovery.c **** /**
 656:Src/stm32f4_discovery.c ****   * @brief  DeInitializes Audio low level.
 657:Src/stm32f4_discovery.c ****   */
 658:Src/stm32f4_discovery.c **** void AUDIO_IO_DeInit(void)
 659:Src/stm32f4_discovery.c **** {
 1457              		.loc 1 659 0
 1458              		.cfi_startproc
 1459              		@ args = 0, pretend = 0, frame = 0
 1460              		@ frame_needed = 0, uses_anonymous_args = 0
 1461              		@ link register save eliminated.
 1462 0000 7047     		bx	lr
 1463              		.cfi_endproc
 1464              	.LFE145:
 1466              		.section	.text.AUDIO_IO_Write,"ax",%progbits
 1467              		.align	1
 1468              		.global	AUDIO_IO_Write
 1469              		.syntax unified
 1470              		.thumb
 1471              		.thumb_func
 1472              		.fpu fpv4-sp-d16
 1474              	AUDIO_IO_Write:
 1475              	.LFB146:
 660:Src/stm32f4_discovery.c ****   
 661:Src/stm32f4_discovery.c **** }
 662:Src/stm32f4_discovery.c **** 
 663:Src/stm32f4_discovery.c **** /**
 664:Src/stm32f4_discovery.c ****   * @brief  Writes a single data.
 665:Src/stm32f4_discovery.c ****   * @param  Addr: I2C address
 666:Src/stm32f4_discovery.c ****   * @param  Reg: Reg address 
 667:Src/stm32f4_discovery.c ****   * @param  Value: Data to be written
 668:Src/stm32f4_discovery.c ****   */
 669:Src/stm32f4_discovery.c **** void AUDIO_IO_Write (uint8_t Addr, uint8_t Reg, uint8_t Value)
 670:Src/stm32f4_discovery.c **** {
 1476              		.loc 1 670 0
 1477              		.cfi_startproc
 1478              		@ args = 0, pretend = 0, frame = 0
 1479              		@ frame_needed = 0, uses_anonymous_args = 0
 1480              	.LVL108:
 1481              		.loc 1 670 0
 1482 0000 08B5     		push	{r3, lr}
 1483              	.LCFI45:
 1484              		.cfi_def_cfa_offset 8
 1485              		.cfi_offset 3, -8
 1486              		.cfi_offset 14, -4
 671:Src/stm32f4_discovery.c ****   I2Cx_WriteData(Addr, Reg, Value);
 1487              		.loc 1 671 0
 1488 0002 FFF7FEFF 		bl	I2Cx_WriteData
 1489              	.LVL109:
 1490 0006 08BD     		pop	{r3, pc}
 1491              		.cfi_endproc
 1492              	.LFE146:
 1494              		.section	.text.AUDIO_IO_Read,"ax",%progbits
 1495              		.align	1
 1496              		.global	AUDIO_IO_Read
 1497              		.syntax unified
 1498              		.thumb
 1499              		.thumb_func
ARM GAS  C:\Users\Student\AppData\Local\Temp\ccnHQZjO.s 			page 40


 1500              		.fpu fpv4-sp-d16
 1502              	AUDIO_IO_Read:
 1503              	.LFB147:
 672:Src/stm32f4_discovery.c **** }
 673:Src/stm32f4_discovery.c **** 
 674:Src/stm32f4_discovery.c **** /**
 675:Src/stm32f4_discovery.c ****   * @brief  Reads a single data.
 676:Src/stm32f4_discovery.c ****   * @param  Addr: I2C address
 677:Src/stm32f4_discovery.c ****   * @param  Reg: Reg address 
 678:Src/stm32f4_discovery.c ****   * @retval Data to be read
 679:Src/stm32f4_discovery.c ****   */
 680:Src/stm32f4_discovery.c **** uint8_t AUDIO_IO_Read(uint8_t Addr, uint8_t Reg)
 681:Src/stm32f4_discovery.c **** {
 1504              		.loc 1 681 0
 1505              		.cfi_startproc
 1506              		@ args = 0, pretend = 0, frame = 0
 1507              		@ frame_needed = 0, uses_anonymous_args = 0
 1508              	.LVL110:
 1509 0000 08B5     		push	{r3, lr}
 1510              	.LCFI46:
 1511              		.cfi_def_cfa_offset 8
 1512              		.cfi_offset 3, -8
 1513              		.cfi_offset 14, -4
 682:Src/stm32f4_discovery.c ****   return I2Cx_ReadData(Addr, Reg);
 1514              		.loc 1 682 0
 1515 0002 FFF7FEFF 		bl	I2Cx_ReadData
 1516              	.LVL111:
 683:Src/stm32f4_discovery.c **** }
 1517              		.loc 1 683 0
 1518 0006 08BD     		pop	{r3, pc}
 1519              		.cfi_endproc
 1520              	.LFE147:
 1522              		.global	SpixTimeout
 1523              		.global	I2cxTimeout
 1524              		.global	BUTTON_IRQn
 1525              		.global	BUTTON_PIN
 1526              		.global	BUTTON_PORT
 1527              		.global	GPIO_PIN
 1528              		.global	GPIO_PORT
 1529              		.section	.bss.I2cHandle,"aw",%nobits
 1530              		.align	2
 1531              		.set	.LANCHOR2,. + 0
 1534              	I2cHandle:
 1535 0000 00000000 		.space	84
 1535      00000000 
 1535      00000000 
 1535      00000000 
 1535      00000000 
 1536              		.section	.bss.SpiHandle,"aw",%nobits
 1537              		.align	2
 1538              		.set	.LANCHOR0,. + 0
 1541              	SpiHandle:
 1542 0000 00000000 		.space	88
 1542      00000000 
 1542      00000000 
 1542      00000000 
 1542      00000000 
ARM GAS  C:\Users\Student\AppData\Local\Temp\ccnHQZjO.s 			page 41


 1543              		.section	.data.BUTTON_PORT,"aw",%progbits
 1544              		.align	2
 1545              		.set	.LANCHOR6,. + 0
 1548              	BUTTON_PORT:
 1549 0000 00000240 		.word	1073872896
 1550              		.section	.data.GPIO_PORT,"aw",%progbits
 1551              		.align	2
 1552              		.set	.LANCHOR5,. + 0
 1555              	GPIO_PORT:
 1556 0000 000C0240 		.word	1073875968
 1557 0004 000C0240 		.word	1073875968
 1558 0008 000C0240 		.word	1073875968
 1559 000c 000C0240 		.word	1073875968
 1560              		.section	.data.I2cxTimeout,"aw",%progbits
 1561              		.align	2
 1562              		.set	.LANCHOR3,. + 0
 1565              	I2cxTimeout:
 1566 0000 00100000 		.word	4096
 1567              		.section	.data.SpixTimeout,"aw",%progbits
 1568              		.align	2
 1569              		.set	.LANCHOR1,. + 0
 1572              	SpixTimeout:
 1573 0000 00100000 		.word	4096
 1574              		.section	.rodata.BUTTON_IRQn,"a",%progbits
 1575              		.align	2
 1578              	BUTTON_IRQn:
 1579 0000 06       		.byte	6
 1580              		.section	.rodata.BUTTON_PIN,"a",%progbits
 1581              		.align	2
 1584              	BUTTON_PIN:
 1585 0000 0100     		.short	1
 1586              		.section	.rodata.GPIO_PIN,"a",%progbits
 1587              		.align	2
 1588              		.set	.LANCHOR4,. + 0
 1591              	GPIO_PIN:
 1592 0000 0010     		.short	4096
 1593 0002 0020     		.short	8192
 1594 0004 0040     		.short	16384
 1595 0006 0080     		.short	-32768
 1596              		.text
 1597              	.Letext0:
 1598              		.file 2 "Drivers/CMSIS/Device/ST/STM32F4xx/Include/stm32f407xx.h"
 1599              		.file 3 "c:\\gcc_toolchain\\6_2017-q1-update\\lib\\gcc\\arm-none-eabi\\6.3.1\\include\\stdint-gcc.
 1600              		.file 4 "Drivers/CMSIS/Include/core_cm4.h"
 1601              		.file 5 "Drivers/CMSIS/Device/ST/STM32F4xx/Include/system_stm32f4xx.h"
 1602              		.file 6 "c:\\gcc_toolchain\\6_2017-q1-update\\arm-none-eabi\\include\\sys\\lock.h"
 1603              		.file 7 "c:\\gcc_toolchain\\6_2017-q1-update\\arm-none-eabi\\include\\sys\\_types.h"
 1604              		.file 8 "c:\\gcc_toolchain\\6_2017-q1-update\\lib\\gcc\\arm-none-eabi\\6.3.1\\include\\stddef.h"
 1605              		.file 9 "c:\\gcc_toolchain\\6_2017-q1-update\\arm-none-eabi\\include\\sys\\reent.h"
 1606              		.file 10 "Drivers/STM32F4xx_HAL_Driver/Inc/stm32f4xx_hal_def.h"
 1607              		.file 11 "Drivers/STM32F4xx_HAL_Driver/Inc/stm32f4xx_hal_gpio.h"
 1608              		.file 12 "Drivers/STM32F4xx_HAL_Driver/Inc/stm32f4xx_hal_dma.h"
 1609              		.file 13 "Drivers/STM32F4xx_HAL_Driver/Inc/stm32f4xx_hal_i2c.h"
 1610              		.file 14 "Drivers/STM32F4xx_HAL_Driver/Inc/stm32f4xx_hal_spi.h"
 1611              		.file 15 "Inc/stm32f4_discovery.h"
 1612              		.file 16 "Drivers/STM32F4xx_HAL_Driver/Inc/stm32f4xx_hal.h"
 1613              		.file 17 "Drivers/STM32F4xx_HAL_Driver/Inc/stm32f4xx_hal_cortex.h"
ARM GAS  C:\Users\Student\AppData\Local\Temp\ccnHQZjO.s 			page 42


ARM GAS  C:\Users\Student\AppData\Local\Temp\ccnHQZjO.s 			page 43


DEFINED SYMBOLS
                            *ABS*:00000000 stm32f4_discovery.c
C:\Users\Student\AppData\Local\Temp\ccnHQZjO.s:18     .text.SPIx_MspInit:00000000 $t
C:\Users\Student\AppData\Local\Temp\ccnHQZjO.s:24     .text.SPIx_MspInit:00000000 SPIx_MspInit
C:\Users\Student\AppData\Local\Temp\ccnHQZjO.s:90     .text.SPIx_MspInit:00000050 $d
C:\Users\Student\AppData\Local\Temp\ccnHQZjO.s:96     .text.I2Cx_MspInit:00000000 $t
C:\Users\Student\AppData\Local\Temp\ccnHQZjO.s:102    .text.I2Cx_MspInit:00000000 I2Cx_MspInit
C:\Users\Student\AppData\Local\Temp\ccnHQZjO.s:197    .text.I2Cx_MspInit:00000080 $d
C:\Users\Student\AppData\Local\Temp\ccnHQZjO.s:203    .text.SPIx_Init:00000000 $t
C:\Users\Student\AppData\Local\Temp\ccnHQZjO.s:209    .text.SPIx_Init:00000000 SPIx_Init
C:\Users\Student\AppData\Local\Temp\ccnHQZjO.s:271    .text.SPIx_Init:00000044 $d
C:\Users\Student\AppData\Local\Temp\ccnHQZjO.s:277    .text.SPIx_Error:00000000 $t
C:\Users\Student\AppData\Local\Temp\ccnHQZjO.s:283    .text.SPIx_Error:00000000 SPIx_Error
C:\Users\Student\AppData\Local\Temp\ccnHQZjO.s:305    .text.SPIx_Error:00000010 $d
C:\Users\Student\AppData\Local\Temp\ccnHQZjO.s:310    .text.SPIx_WriteRead:00000000 $t
C:\Users\Student\AppData\Local\Temp\ccnHQZjO.s:316    .text.SPIx_WriteRead:00000000 SPIx_WriteRead
C:\Users\Student\AppData\Local\Temp\ccnHQZjO.s:365    .text.SPIx_WriteRead:00000034 $d
C:\Users\Student\AppData\Local\Temp\ccnHQZjO.s:371    .text.I2Cx_Init:00000000 $t
C:\Users\Student\AppData\Local\Temp\ccnHQZjO.s:377    .text.I2Cx_Init:00000000 I2Cx_Init
C:\Users\Student\AppData\Local\Temp\ccnHQZjO.s:424    .text.I2Cx_Init:00000030 $d
C:\Users\Student\AppData\Local\Temp\ccnHQZjO.s:431    .text.I2Cx_Error:00000000 $t
C:\Users\Student\AppData\Local\Temp\ccnHQZjO.s:437    .text.I2Cx_Error:00000000 I2Cx_Error
C:\Users\Student\AppData\Local\Temp\ccnHQZjO.s:461    .text.I2Cx_Error:00000010 $d
C:\Users\Student\AppData\Local\Temp\ccnHQZjO.s:466    .text.I2Cx_WriteData:00000000 $t
C:\Users\Student\AppData\Local\Temp\ccnHQZjO.s:472    .text.I2Cx_WriteData:00000000 I2Cx_WriteData
C:\Users\Student\AppData\Local\Temp\ccnHQZjO.s:532    .text.I2Cx_WriteData:00000030 $d
C:\Users\Student\AppData\Local\Temp\ccnHQZjO.s:538    .text.I2Cx_ReadData:00000000 $t
C:\Users\Student\AppData\Local\Temp\ccnHQZjO.s:544    .text.I2Cx_ReadData:00000000 I2Cx_ReadData
C:\Users\Student\AppData\Local\Temp\ccnHQZjO.s:604    .text.I2Cx_ReadData:00000038 $d
C:\Users\Student\AppData\Local\Temp\ccnHQZjO.s:610    .text.BSP_GetVersion:00000000 $t
C:\Users\Student\AppData\Local\Temp\ccnHQZjO.s:617    .text.BSP_GetVersion:00000000 BSP_GetVersion
C:\Users\Student\AppData\Local\Temp\ccnHQZjO.s:630    .text.BSP_GetVersion:00000004 $d
C:\Users\Student\AppData\Local\Temp\ccnHQZjO.s:635    .text.BSP_LED_Init:00000000 $t
C:\Users\Student\AppData\Local\Temp\ccnHQZjO.s:642    .text.BSP_LED_Init:00000000 BSP_LED_Init
C:\Users\Student\AppData\Local\Temp\ccnHQZjO.s:768    .text.BSP_LED_Init:000000a8 $d
C:\Users\Student\AppData\Local\Temp\ccnHQZjO.s:775    .text.BSP_LED_On:00000000 $t
C:\Users\Student\AppData\Local\Temp\ccnHQZjO.s:782    .text.BSP_LED_On:00000000 BSP_LED_On
C:\Users\Student\AppData\Local\Temp\ccnHQZjO.s:807    .text.BSP_LED_On:00000018 $d
C:\Users\Student\AppData\Local\Temp\ccnHQZjO.s:813    .text.BSP_LED_Off:00000000 $t
C:\Users\Student\AppData\Local\Temp\ccnHQZjO.s:820    .text.BSP_LED_Off:00000000 BSP_LED_Off
C:\Users\Student\AppData\Local\Temp\ccnHQZjO.s:845    .text.BSP_LED_Off:00000018 $d
C:\Users\Student\AppData\Local\Temp\ccnHQZjO.s:851    .text.BSP_LED_Toggle:00000000 $t
C:\Users\Student\AppData\Local\Temp\ccnHQZjO.s:858    .text.BSP_LED_Toggle:00000000 BSP_LED_Toggle
C:\Users\Student\AppData\Local\Temp\ccnHQZjO.s:882    .text.BSP_LED_Toggle:00000014 $d
C:\Users\Student\AppData\Local\Temp\ccnHQZjO.s:888    .text.BSP_PB_Init:00000000 $t
C:\Users\Student\AppData\Local\Temp\ccnHQZjO.s:895    .text.BSP_PB_Init:00000000 BSP_PB_Init
C:\Users\Student\AppData\Local\Temp\ccnHQZjO.s:1002   .text.BSP_PB_Init:00000078 $d
C:\Users\Student\AppData\Local\Temp\ccnHQZjO.s:1009   .text.BSP_PB_GetState:00000000 $t
C:\Users\Student\AppData\Local\Temp\ccnHQZjO.s:1016   .text.BSP_PB_GetState:00000000 BSP_PB_GetState
C:\Users\Student\AppData\Local\Temp\ccnHQZjO.s:1040   .text.BSP_PB_GetState:00000010 $d
C:\Users\Student\AppData\Local\Temp\ccnHQZjO.s:1045   .text.ACCELERO_IO_Init:00000000 $t
C:\Users\Student\AppData\Local\Temp\ccnHQZjO.s:1052   .text.ACCELERO_IO_Init:00000000 ACCELERO_IO_Init
C:\Users\Student\AppData\Local\Temp\ccnHQZjO.s:1115   .text.ACCELERO_IO_Init:00000044 $d
C:\Users\Student\AppData\Local\Temp\ccnHQZjO.s:1121   .text.ACCELERO_IO_ITConfig:00000000 $t
C:\Users\Student\AppData\Local\Temp\ccnHQZjO.s:1128   .text.ACCELERO_IO_ITConfig:00000000 ACCELERO_IO_ITConfig
C:\Users\Student\AppData\Local\Temp\ccnHQZjO.s:1189   .text.ACCELERO_IO_ITConfig:00000044 $d
C:\Users\Student\AppData\Local\Temp\ccnHQZjO.s:1196   .text.ACCELERO_IO_Write:00000000 $t
ARM GAS  C:\Users\Student\AppData\Local\Temp\ccnHQZjO.s 			page 44


C:\Users\Student\AppData\Local\Temp\ccnHQZjO.s:1203   .text.ACCELERO_IO_Write:00000000 ACCELERO_IO_Write
C:\Users\Student\AppData\Local\Temp\ccnHQZjO.s:1268   .text.ACCELERO_IO_Write:00000040 $d
C:\Users\Student\AppData\Local\Temp\ccnHQZjO.s:1273   .text.ACCELERO_IO_Read:00000000 $t
C:\Users\Student\AppData\Local\Temp\ccnHQZjO.s:1280   .text.ACCELERO_IO_Read:00000000 ACCELERO_IO_Read
C:\Users\Student\AppData\Local\Temp\ccnHQZjO.s:1351   .text.ACCELERO_IO_Read:00000044 $d
C:\Users\Student\AppData\Local\Temp\ccnHQZjO.s:1356   .text.AUDIO_IO_Init:00000000 $t
C:\Users\Student\AppData\Local\Temp\ccnHQZjO.s:1363   .text.AUDIO_IO_Init:00000000 AUDIO_IO_Init
C:\Users\Student\AppData\Local\Temp\ccnHQZjO.s:1442   .text.AUDIO_IO_Init:0000005c $d
C:\Users\Student\AppData\Local\Temp\ccnHQZjO.s:1448   .text.AUDIO_IO_DeInit:00000000 $t
C:\Users\Student\AppData\Local\Temp\ccnHQZjO.s:1455   .text.AUDIO_IO_DeInit:00000000 AUDIO_IO_DeInit
C:\Users\Student\AppData\Local\Temp\ccnHQZjO.s:1467   .text.AUDIO_IO_Write:00000000 $t
C:\Users\Student\AppData\Local\Temp\ccnHQZjO.s:1474   .text.AUDIO_IO_Write:00000000 AUDIO_IO_Write
C:\Users\Student\AppData\Local\Temp\ccnHQZjO.s:1495   .text.AUDIO_IO_Read:00000000 $t
C:\Users\Student\AppData\Local\Temp\ccnHQZjO.s:1502   .text.AUDIO_IO_Read:00000000 AUDIO_IO_Read
C:\Users\Student\AppData\Local\Temp\ccnHQZjO.s:1572   .data.SpixTimeout:00000000 SpixTimeout
C:\Users\Student\AppData\Local\Temp\ccnHQZjO.s:1565   .data.I2cxTimeout:00000000 I2cxTimeout
C:\Users\Student\AppData\Local\Temp\ccnHQZjO.s:1578   .rodata.BUTTON_IRQn:00000000 BUTTON_IRQn
C:\Users\Student\AppData\Local\Temp\ccnHQZjO.s:1584   .rodata.BUTTON_PIN:00000000 BUTTON_PIN
C:\Users\Student\AppData\Local\Temp\ccnHQZjO.s:1548   .data.BUTTON_PORT:00000000 BUTTON_PORT
C:\Users\Student\AppData\Local\Temp\ccnHQZjO.s:1591   .rodata.GPIO_PIN:00000000 GPIO_PIN
C:\Users\Student\AppData\Local\Temp\ccnHQZjO.s:1555   .data.GPIO_PORT:00000000 GPIO_PORT
C:\Users\Student\AppData\Local\Temp\ccnHQZjO.s:1530   .bss.I2cHandle:00000000 $d
C:\Users\Student\AppData\Local\Temp\ccnHQZjO.s:1534   .bss.I2cHandle:00000000 I2cHandle
C:\Users\Student\AppData\Local\Temp\ccnHQZjO.s:1537   .bss.SpiHandle:00000000 $d
C:\Users\Student\AppData\Local\Temp\ccnHQZjO.s:1541   .bss.SpiHandle:00000000 SpiHandle
C:\Users\Student\AppData\Local\Temp\ccnHQZjO.s:1544   .data.BUTTON_PORT:00000000 $d
C:\Users\Student\AppData\Local\Temp\ccnHQZjO.s:1551   .data.GPIO_PORT:00000000 $d
C:\Users\Student\AppData\Local\Temp\ccnHQZjO.s:1561   .data.I2cxTimeout:00000000 $d
C:\Users\Student\AppData\Local\Temp\ccnHQZjO.s:1568   .data.SpixTimeout:00000000 $d
C:\Users\Student\AppData\Local\Temp\ccnHQZjO.s:1575   .rodata.BUTTON_IRQn:00000000 $d
C:\Users\Student\AppData\Local\Temp\ccnHQZjO.s:1581   .rodata.BUTTON_PIN:00000000 $d
C:\Users\Student\AppData\Local\Temp\ccnHQZjO.s:1587   .rodata.GPIO_PIN:00000000 $d
                     .debug_frame:00000010 $d

UNDEFINED SYMBOLS
HAL_GPIO_Init
HAL_NVIC_SetPriority
HAL_NVIC_EnableIRQ
HAL_SPI_GetState
HAL_SPI_Init
HAL_SPI_DeInit
HAL_SPI_TransmitReceive
HAL_I2C_GetState
HAL_I2C_Init
HAL_I2C_DeInit
HAL_I2C_Mem_Write
HAL_I2C_Mem_Read
HAL_GPIO_WritePin
HAL_GPIO_TogglePin
HAL_GPIO_ReadPin
HAL_Delay
